:020000040000FA
:06000000020107021C686A
:03002B00021EEAC8
:03003300021ECCDE
:03004300021E801A
:03005300021CDEAE
:03006B00021EA6CC
:03007300021F0B5E
:10008300021B17E5C754F84401F5C77901220000A4
:100093000080FB120086B900030200F1E4791A78AC
:1000A30002B800028004F709D8FCE4791C7802B88E
:1000B30000028004F709D8FCE490028178F7790FF5
:1000C3008002F0A3D8FCD9FA7A777B1190013778B4
:1000D3005779028015E493A3AD82AE838A828B8322
:1000E300F0A3AA82AB838D828E83D8E9D9E7758288
:1000F300297583DD74021201197582917583007469
:100103000012011975D00075813F751881751902A8
:10011300759F00020096C09FF59FE473D09F22D085
:1001230083D082C09FE493C0E0740193C0E0740263
:1001330093F59F22C302D502F902C902FF0000B45E
:10014300000028002800283075A000A000A000A00F
:100153000000080008E001F000100010001000107B
:10016300001000100050005000500010001000D08C
:10017300070000000000000F0001000500307507B4
:10018300001000010081FF00000000FF250443046C
:100193002B04FF0202020F8F0100000A8F02178F48
:1001A300010000D61102158F010000B60202178F5D
:1001B300010000D71102138F010000CC02170917A9
:1001C300091709170917091709170917091709172C
:1001D30009170917091709390B570B330BFFFF02CF
:1001E3000106020A000A093C756E6E616D65643E84
:1001F3000000000000000000000000013075030251
:1002030001040000000000000000000000000000E6
:10021300000000000000000000000000000001E8F2
:1002230003053F10020AFF000000FFFF0002000168
:10023300000000006400000000FF00000000000058
:1002430000FF0000000100000000E90F4669726D25
:10025300776172652076312E310A496E666F3A20D6
:1002630068747470733A2F2F6769746875622E63AC
:100273006F6D2F626A6F65726B652F484D2D31303C
:100283002D4669726D776172650012012254DE0298
:10029300120122D1C402120122DAC402120122C8BD
:1002A300C5021201227AC60212012284C901120177
:1002B300227CCA01120122B0CA0112012232CB01EF
:1002C30012012252CB011201229ACB01120122ED1B
:1002D300CB0112012251CC01120122DECC01120109
:1002E3002298CD01120122A7D00112012232D2019C
:1002F30012012255D201120122A3CB0212012207BD
:10030300CC0212012266CC0212012274CC02120129
:10031300229DCC02120122FE9F0212012226A0027C
:1003230012012254A0021201228BA002120122E91F
:10033300A00212012234A1021201227FA1021201A2
:1003430022BFA10212012205A20212012233A2023C
:10035300120122F0A202120122FAA20212012207C2
:10036300A3021201223AA30212012246A30212019E
:10037300225EA30212012268A302120122E6A30253
:100383001201228FD9021201229DD902120122B534
:10039300D902120122CDD9021201221A8F011201B0
:1003A30022C68F01120122419001120122629101A2
:1003B3001201229E91011201224792011201222E63
:1003C3009301120122929401120122E99401120174
:1003D300226A95011201225A9601120122A796015F
:1003E3001201222D97011201225F9701120122733C
:1003F3009901120122B59901120122FD99011201FD
:1004030022C59A01120122D29C0112012254EE014B
:1004130012012227EF01120122D0EF011201222340
:10042300F001120122D3F0011201225FF101120146
:10043300224BF2011201227AF2011201228DF30101
:10044300120122D5F301120122AAF401120122E6BC
:10045300F40112012202F501120122F6B002120187
:10046300220CB10212012232B1021201224EB20257
:1004730012012258B2021201228DB3021201228507
:10048300B4021201228FB402120122E4D502120136
:10049300228FD602120122EAA80212012293A90294
:1004A3001201229AAA021201226CAB021201223219
:1004B300AC021201227AAC02120122BCAC0212017C
:1004C30022DED7021201226BD802120122B8CD021A
:1004D300120122FBCD0212012240CE02120122D5CB
:1004E300CE0212012229CF0212012250CF021201A1
:1004F30022CE8602120122D886021201227C8702B2
:10050300120122BF8702120122DA8702120122633B
:1005130088021201228B8802120122C3880212016F
:1005230022FA88021201222389021201229C8902E3
:10053300120122B18902120122C68902120122E8A4
:100543008902120122228A02120122468A02120120
:10055300225C8A021201226F8A02120122848A0219
:100563001201220A8B02120122828B02120122CB78
:100573008B02120122F58B02120122208C0212013E
:1005830022C7D302120122C46F00120122F26F00AC
:100593001201224D71001201222D72001201224C10
:1005A3007200120122C972001201220C730012019F
:1005B30022877400120122F67400120122217700AF
:1005C300120122A57900120122567A001201224C4F
:1005D3007B00120122EC7B00120122EA7C00120153
:1005E30022757D0012012274D202120122DDD20291
:1005F30012012231D30212012260D302120122819D
:10060300D3021201226EA402120122DBA402120100
:100613002222A5021201223AA60212012236A702C1
:1006230012012219A80212012200800212012242A1
:1006330080021201221B8102120122158202120181
:1006430022F782021201226083021201227C8402B9
:10065300120122E88402120122EB84021201221405
:1006630085021201228E85021201223386021201B3
:10067300224886021201228E8602120122A78602D6
:10068300120122AA860212012281BE02120122BD98
:10069300BE0212012287BF02120122F6BF0212011B
:1006A3002231C0021201226FC0021201229FC00236
:1006B300120122C6C00212012234C1021201226CAD
:1006C3004C001201225B4E0012012226500012013F
:1006D300226250001201228F500012012272510037
:1006E300120122B55100120122FE51001201221003
:1006F30052001201225052001201228252001201B2
:1007030022B65200120122D952001201222B5300A9
:10071300120122B953001201228854001201220C43
:1007230056001201224A5600120122BB5700120141
:1007330022005800120122F458001201221B5B0010
:100743001201226A5B00120122B15B00120122DA5C
:100753005D0012012253C90212012212CA021201C0
:100763002269CB021201227C1F00120122C51F0045
:10077300120122F21F00120122252000120122354C
:1007830020001201224120001201225220001201F6
:1007930022392100120122972100120122CC2100CB
:1007A3001201220F2300120122612300120122B23F
:1007B30023001201220C24001201227224001201D0
:1007C300222A25001201227D25001201228C2600F7
:1007D300120122072800120122DE2800120122EF53
:1007E3002800120122FF28001201221F29001201F2
:1007F30022222900120122F02900120122C12A001B
:10080300120122902B00120122E42B001201224438
:100813002C00120122A82C00120122592D001201D2
:1008230022242E00120122C62E001201223B2F0089
:100833001201229E2F00120122FC2F001201222DF1
:100843003000120122DA3000120122293100120194
:10085300226C3100120122EE31001201228032009B
:10086300120122C73200120122F53200120122279F
:100873003300120122A13300120122E533001201D9
:1008830022F23400120122A13500120122023600A5
:100893001201225E360012012277360012012280F5
:1008A300D301120122D3D301120122DFD30112019A
:1008B30022B4D401120122DBD40112012216D50184
:1008C30012012282D501120122BED501120122F7A3
:1008D300D5011201220FD60112012264D6011201A1
:1008E300227DD601120122C6D601120122D9D601D8
:1008F300120122F3D60112012209D7011201223C6F
:10090300D80112012283D90112012285DA011201D1
:10091300227FDB01120122F57F00120122B6910230
:100923001201222595021201225E9602120122EB88
:100933009C01120122619F01120122679F01120192
:1009430022CFA10112012236A401120122A996028B
:100953001201223F9702120122F69702120122206E
:100963009802120122139A021201223B9B021201E6
:1009730022A93600120122DD3600120122024300B1
:10098300120122564400120122614500120122E1A4
:100993004600120122C34700120122064800120139
:1009A300224848001201229248001201229C48006A
:1009B3001201224649001201221F4A00120122732A
:1009C3004A00120122D54A00120122284B001201CB
:1009D30022574B00120122944B0012012258BB02F2
:1009E300120122CEBB02120122E4BB021201222514
:1009F300BC021201225FBC02120122D8BC02120106
:100A03002213BD0212012286BD02120122C4BD02BD
:100A1300120122CDBD02120122D9BD02120122F51B
:100A2300BD0212012220BE0212012251BE02120196
:100A33002277F5011201228AF501120122A4F501A0
:100A4300120122CDF50112012210F6011201224FEB
:100A5300F6011201228DF601120122F2F6011201B2
:100A63002207F70112012212F7011201221FF701D7
:100A730012012236F70112012244F7011201225317
:100A8300F70112012268F7011201227DF701120119
:100A93002288F70112012294F701120122A1F70122
:100AA300120122B4F701120122BFF701120122E45D
:100AB300F7011201228BF8011201229BF8011201A6
:100AC30022B0F801120122C5F801120122DFF80158
:100AD300120122FAF80112012217F901120122224E
:100AE300F901120122DEF901120122CAFA011201EF
:100AF30022EFFA01120122FAFA011201220FFB017D
:100B030012012223FB0112012284FB011201228A1A
:100B1300FB0112012290FB0112012296FB0112013B
:100B230022AEFB01120122E1FB011201222EBF01C1
:100B330012012250BF0112012230C001120122070B
:100B4300C30112012233C40112012257C50112014C
:100B53002209C601120122AAC60112012216B401FA
:100B63001201229AB40112012249B501120122AEE7
:100B7300B601120122E3B601120122FAB6011201F3
:100B830022A9B701120122A1B901120122CAB90196
:100B93001201225CBA011201228EBA011201229BB8
:100BA300BA01120122F2BA0112012218BB01120189
:100BB3002285BD0112012288BE01120122E0BE017D
:100BC300120122C0A801120122CAA901120122B1F5
:100BD300AA01120122C8AA011201220FAB011201BC
:100BE3002275AC0112012250AD01120122ACAD01FC
:100BF30012012219AE0112012254AE0112012293F5
:100C0300AE011201224CB10112012266B10112019F
:100C130022F2B10112012200B20112012259B201E2
:100C230012012267B201120122DAB2011201223E3D
:100C3300B30112012288B3011201225EFC011201E9
:100C43002267FC0112012270FC0112012252FD01F4
:100C530012012288FD01120122BEFD01120122F2BE
:100C6300FD011201223BFE0112012289FE01120144
:100C730022BEFE0112012219FF011201224FFF01C0
:100C83001201221CDB0212012248DB02120122A301
:100C9300DB02120122ADDB02120122488C02120197
:100CA30022528C02120122908C02120122D98C0250
:100CB300120122138D021201226D8D021201228E66
:100CC3008D02120122978D02120122E88D02120178
:100CD30022118E021201221B8E02120122878E0222
:100CE300120122158F02120122638F02120122992F
:100CF3008F0212012220900212012260900212013F
:100D030022989002120122AA9002120122C9900293
:100D1300120122D290021201228C9102120122DFCF
:100D2300D602120122F67D001201222C7E0012014E
:100D330022627E00120122BB7F0012012257DC02D5
:100D43001201226DDC0212012277DC02120122134E
:100D5300AD021201222CAD02120122D0AD0212010A
:100D63002210AE0212012229AE021201225DAE024E
:100D7300120122AAAE02120122E5AE02120122E9F9
:100D8300B0021201227CDD02120122B6D802120146
:100D930022DFD80212012208D9021201224AD90203
:100DA30012012218B802120122F9B80212012249D3
:100DB300BA0212012234BB0212012237BB02120112
:100DC300224ADD0112012289DD0112012212DE0114
:100DD300120122DADF01120122B8E001120122F22C
:100DE300E00112012201E1011201225AE101120183
:100DF30022C3E101120122BBE201120122AFE3018E
:100E0300120122AFE501120122ECE501120122C118
:100E1300DC02120122DF5F0012012255620012017F
:100E230022CD6300120122BF64001201225C68001C
:100E33001201229C6800120122566A0012012287C5
:100E43006A00120122DA6A00120122236B001201E6
:100E530022916B00120122C36B00120122DB6B0093
:100E6300120122FC6C00120122326D00120122D702
:100E73006E00120122576F00120122966F001201B9
:100E83002266DA0212012277DA02120122CCDD0293
:100E93001201220BDE0212012284DE02120122BDA4
:100EA300DB02120122CDDB02120122E5DB02120179
:100EB300224DDC02120122E0D40212012265D50286
:100EC300120122CBD502120122FCD00212012225EB
:100ED300D10212012290D102120122E1D1021201A8
:100EE300223AD202120122729B02120122899B0230
:100EF300120122029C02120122DB9C02120122999E
:100F03009F0212012299B40212012229B502120191
:100F130022A7B50212012230B602120122C5B6027F
:100F23001201224FB70212012259B7021201226C99
:100F3300B70212012286B7021201229DB7021201E3
:100F430022FDB70212012215B80212012275CF0247
:100F5300120122CACF0212012238D002120122A8A2
:100F6300D002120122E8C60212012212C7021201A4
:100F730022E7C702120122DBC80212012224E60182
:100F8300120122E1E6011201221CE70112012244AF
:100F9300E701120122A6E701120122F2E701120181
:100FA300224BE801120122DCE801120122DEE901F1
:100FB3001201229BEB011201221DEC01120122827C
:100FC300EC0112012299EC01120122A9ED01120197
:100FD30022E7ED011201227CC10212012292C10219
:100FE30012012214C30212012207C4021201220AAF
:100FF300C40212012239C40212012215DE021201B7
:101003002266DE02E066701008A3E066700A08A399
:10101300E066700408A3E06622C3E7960809E79632
:101023000809E7960809E79622C3E09608A3E09625
:1010330008A3E09608A3E09622C008C3E096F5084B
:1010430008A3E096420808A3E096420808A3E096A6
:1010530045087001D3D00822080808EAC0E0EBC0B5
:10106300E086F0E7A4FA180986F0E7A42AFA18093B
:1010730086F0E7A42AFA180986F0E7A42AFA198663
:10108300F0E7A4FBE5F02AFA190886F0E7A42BFBA6
:10109300E5F03AFA190886F0E7A42BFBE5F03AFAF3
:1010A30018180986F0E7A4C5F02BFBE43AFA1908EF
:1010B300E7C5F0C6A426F6E5F03BFBE43AFA18864A
:1010C300F0E7A4F6E5F00826F6E43B08F6E43A0870
:1010D300F6D0E0FBD0E0FA22E4CFC0E0E4CEC0E0FB
:1010E300E4CDC0E0E4CCC0E075F020E626F608E6E7
:1010F30033F608E633F608E633F6181818EC33FC33
:10110300ED33FDEE33FEEF33FFC3EC9709ED9709A3
:10111300EE9709EF97191919400FFFEC97FC09EDAA
:1011230097FD09EE97FE191906D5F0BFECF709ED07
:10113300F709EEF709EFF7191919D0E0FCD0E0FD34
:10114300D0E0FED0E0FF226016080808C6C313C62D
:1011530018C613C618C613C618C613C6D5E0EA22A6
:101163007009080808226016181818C6C333C60881
:10117300C633C608C633C608C633C6D5E0EA22E678
:1011830027F60809E637F60809E637F60809E637C9
:10119300F622E026F608A3E036F608A3E036F608C2
:1011A300A3E036F622E026F008A3E036F008A3E039
:1011B30036F008A3E036F022C3E697F60809E6976F
:1011C300F60809E697F60809E697F622C3E096F0D3
:1011D30008A3E096F008A3E096F008A3E096F022B7
:1011E300E056F608A3E056F608A3E056F608A3E097
:1011F30056F622E056F008A3E056F008A3E056F0B6
:1012030008A3E056F022E0F608A3E0F608A3E0F610
:1012130008A3E0F622E6F008A3E6F008A3E6F00848
:10122300A3E6F022E0FAA3E0FBA3E0FCA3E0FD22A7
:10123300EAF0A3EBF0A3ECF0A3EDF022E0F8A3E0D7
:10124300F9A3E0FAA3E0FB22E8F0A3E9F0A3EAF0B4
:10125300A3EBF022CAC0E0E6F0A308DAFAD0E0FA82
:1012630022CAC0E0E0A3C582CCC582C583CDC583B5
:10127300F0A3C582CCC582C583CDC583DAE6D0E0B1
:10128300CA22C3E498F8E499F91212C68026C3E48B
:101293009AFAE49BFBE920E7E91212C6E498F8E422
:1012A30099F922C3E498F8E499F91212C6E498F87C
:1012B300E499F9C3E49AFAE49BFB22EB20E7CFE934
:1012C30020E7E0B90010BB0008E88AF084F8AAF030
:1012D30022E4FBC8FA22EB70227B10C833C8C9335F
:1012E300C9335007C39AC3DBF280069A50012ADB45
:1012F300EAC833F4C8C933F4C9FA2275F008E4C85C
:1013030033C8C933C933C99AC99B5004C92AC93BD5
:10131300D5F0ECFBC833F4C8E4C9FA22600D08C663
:10132300A2E713C618C613C6D5E0F322600C08C69D
:10133300C313C618C613C6D5E0F422700422600D89
:1013430018C6C333C608C633C6D5E0F41822251819
:1013530010AF08F518400C15198008F51840021550
:1013630019D2AF2200C0D0251810AF08F518500CC1
:1013730005198008F51850020519D2AFD0D02225DF
:1013830018F58210AF08F518400C15198008F518E8
:1013930040021519D2AF851983222518F582E43549
:1013A30019F583222518FAE43519FB222518FCE4E4
:1013B3003519FD22E4732518C582C0E0E51934FF11
:1013C300C583C0E0E518C3958224F810AF08858370
:1013D300198582188008858319858218D2AFCEF0CB
:1013E300A3E520F0A37808E608F0A3DEFAEFF0A364
:1013F300E58124FAF8E608F0A3E608F0A3E608F08E
:10140300A30808E608F0A3E608F0A315811581D028
:10141300E0FED0E0F8158115811581E8C0E0EEC04B
:10142300E0222518C582C0E0E51934FFC583C0E07A
:10143300E518C3958224F910AF08858319858218AE
:101443008008858319858218D2AFCEF0A3E520F0FA
:10145300A37808E608F0A3DEFAEFF0A3E58124FB06
:10146300F8E608F0A3E608F0A30808E608F0A3E608
:1014730008F0A315811581D0E0FED0E0F8158115A1
:1014830081E8C0E0EEC0E022851983851882E0A3DD
:10149300FEE0A3F5207808E0A3F608DFFAE0A3FF57
:1014A300E0A3C0E0E0A3C0E0E0A3C0E0E0A3C0E0AD
:1014B300E0A3C0E010AF08858218858319800885F2
:1014C3008218858319D2AFD083D08202011F851978
:1014D30083851882E0A3FEE0A3F5207808E0A3F655
:1014E30008DFFAE0A3FFE0A3C0E0E0A3C0E0E0A3CD
:1014F300C0E0E0A3C0E010AF08858218858319809F
:1015030008858218858319D2AFD083D08222C0D0B8
:101513002518C582C0E0E51934FFC583C0E0E5188E
:10152300C3958224F310AF08858319858218800838
:10153300858319858218D2AFC8F0A3E9F0A3EAF036
:10154300A3EBF0A37908E709F0A3D8FAECF0A3ED35
:10155300F0A3EEF0A3EFF0A3D0E0F0A3D0E0F0A36C
:10156300D0E0F0A3E520F0A3E5F0F0A322851983F2
:10157300851882E0C0E0A3E0F9A3E0FAA3E0FBA3AF
:101583007808E0F608A3DFFAE0FCA3E0FDA3E0FEA1
:10159300A3E0FFA3E0C0E0A3E0C0E0A3E0F5D0A395
:1015A300E0F520A3E0A3F5F010AF08858319858249
:1015B300188008858319858218D2AFD082D083D052
:1015C300E0F8D0E03274048006740280027401C033
:1015D300E0F404121382D0E0121257227404800440
:1015E30074028000CCC0E0EDC0E0E518C39CCCAD34
:1015F3001950011D10AF068C188D1980068C188D9B
:1016030019D2AF121264D0E0FDD0E0FC22D083D017
:1016130082E9C0E0E493A3C386F0C5F095F0F9082E
:10162300E493A386F0C5F095F0700BE493A3C399FC
:101633004005E9048002A3E475F002A42582F58243
:10164300E5F03583F583D0E0F9E493A3C0E0E493B8
:10165300C0E022D083D082ECC0E0EDC0E0E493A3ED
:10166300FCE493A3FDED4C600D1216A2EC24FFFCE9
:10167300ED34FFFD80EFE493A3FCE493A3FDED4C75
:10168300600D1216E1EC24FFFCED34FFFD80EFD07A
:10169300E0FDD0E0FCE493A3C0E0E493C0E022C00B
:1016A300E0C3E49396087401939618400FE493669D
:1016B300700808740193661870007019A3A3C3E43B
:1016C3009396087401939618A3A3400DD0E0D0E03D
:1016D300D0E0021692A3A3A3A3A3A3D0E022C0E069
:1016E300C0F088F0E493667008087401936618707C
:1016F30000A8F0A3A3700BD0F0D0E0D0E0D0E002BC
:101703001692A3A3D0F0D0E02274F5121425EAFEBA
:10171300EBFFEE2434F8EF3400F988088909EE244E
:1017230035121838F8EE2437121838F50AEC850A02
:10173300F0A4FCAAF0850AF0EDA42AFDE82CF8E455
:101743003DF97A257B001212C6EA85088285098352
:10175300F074075AF87401B800028004C333D8FC4C
:10176300FBEA131313541FF8EE28F8EF3400F9E8DB
:10177300245DF582E912183B5B6003EA801CEE24CA
:1017830036121838F5F0EA84A8F0EE28F8EF3400A2
:10179300F9E82438F582E912183BF97F040214D1E1
:1017A30074F5121425EAFEEBFFEE2434121838C048
:1017B300E0EE2435F582EF3400F583D0E0F08E823D
:1017C3008F83A3A3A3A3A3E0FAA3E0FB8E828F835B
:1017D300A3A3A3A3A3A3A3E0FCA3E0FDECC39AF5F7
:1017E3000AED9BF50BEE247FF508EF3400F5098530
:1017F3000882F583E06401702BEE2480F582EF34D8
:1018030000F5831215E31218417402121367E9609D
:10181300137CFC7D06EEFAEFFB12083F85088285F8
:101823000983E4F0AC0AAD0BEEFAEFFB12170C12CE
:101833001E6C02179EF582EF3400F583E022C0820E
:10184300C083851882851983E0F8A3E0F9C3EA9C75
:10185300EB9D5010C3EC98ED99401BC3EA98EB99AC
:101863005014800EC3EA98EB994007C3EC98ED99A6
:101873004004790180027900D083D0822274ED1272
:1018830014259003B6E064086005E06407702C90AB
:1018930061C8E060269003E4E0F874FF68601CE828
:1018A30075F005A4C8AAF02AF974E628FE74033972
:1018B300FF8E828F83A3A3A3E070057900021A2011
:1018C300EE2468F510EF3400F511906060E08510A8
:1018D30082851183F0750A8D750B077508007509EC
:1018E30000E5D914F50EE5D95403F50F601CEE2479
:1018F30082F50CEF3400F50D7403650F6058E50EA7
:101903006013EE2467121838700B793DEEFAEFFB83
:1019130012086380A6900788E064016026850C8224
:10192300850D83E06004780480027800850E08E565
:1019330008C398FA95E0FB1206D18A088B09EA4599
:10194300097006120B0F0218BE850C82850D83E009
:1019530070048A0A8B0B78008016E5D9C0E08812E0
:10196300E50A2512F582E50B3400F583D0E0F00893
:10197300E8C3950E40E4850C82850D83E0602874EE
:10198300FC250EF50E780A1215CCAC0EA90FEEFA53
:10199300EFFB1209117402121367E9700AAA08AB6C
:1019A30009120F5302190D7403650F6058850E0C4D
:1019B300750D00780C1215CCAC0AAD0BAA08AB0957
:1019C3001208D57402121367851082851183E0F81B
:1019D3007480687005750C7F8002880CE50CF50A2D
:1019E300780A1215D0E50FF50A780A1215D0A90E58
:1019F300AC08AD099003E4E0FA7B001205817402A0
:101A030012136780139003B6E06408700BAC0AAD41
:101A13000BEEFAEFFB120941120B1B79017F0C024B
:101A230014D174F312142574FC121351EAFEEBFF64
:101A33008908A2AFE433F509C2AFEE2463F50AEFD8
:101A43003400F50B8010AA0AAB0B12088D120F534A
:101A5300900703E004F0850A82850B83E0F8A3E096
:101A6300F9E849602FE82402FAE93400FBEA24028A
:101A7300F50CEB3400F50D780C1215CC8A828B83B0
:101A8300E0FCA3E0F9EEFAEFFB12088174021213F3
:101A930067E960B2900703E06057900704E0F890AD
:101AA3000703E0C398500C7402650870449007055F
:101AB300E0603E8E828F83A3A3A3A3E08518828573
:101AC3001983121B04740212139DE8121B0490075E
:101AD30002E028F0740212139DAC82AD8385188254
:101AE300851983AA82AB83790112058D900703E4DC
:101AF300F0E509A2E092AF74041213677F060214A3
:101B0300D1F0A3E4F0900703E0F8220000851A87E0
:101B1300851BC622C0E074EF121511A2AFE433FE99
:101B2300C2AF759B00906182E0A2E05012E591A2E2
:101B3300E0500C7591FE7401651A7003121880E071
:101B4300A2E55051E591A2E5504B7591DF9003B6A4
:101B5300E064076005E0640870237401651A70355A
:101B630079019003E4E0FA75F005A4CAA8F028FB14
:101B730074E62AFA74033BFB121A258018E0640DFD
:101B830070139003D8E004F064287002E4F07A0044
:101B9300E0F9120B21906182E0A2E64003021C3EB1
:101BA300E591A2E64003021C3E7591BF9003B6E0A7
:101BB30064057008120A0D120A198003120A1375BC
:101BC3001A00120A8BE99003B7F07900120A6D121A
:101BD300078B7A017B009003B5E0F9120CF590783E
:101BE30003E06442705590078CE014F0704DC2AF6F
:101BF300121BF600781DD0E0F618D0E0F6E59F54EE
:101C03000770057509FF800375097FC4C0E0781C60
:101C1300E6F50808E65509F509740B780812132F41
:101C2300D0E02508F8906270E0A2E740F8E8C333FB
:101C3300906272F0906270E0D2E0F0906181E0A275
:101C4300E35009E5E9A2E3500375E9F7A3E0A2E74E
:101C53005009E591A2E7500375917FEEA2E092AFA0
:101C63007F04021570C0E0C0D0C082C0839061833E
:101C7300E0A2E05009E5BFA2E0500375BFFEE0A279
:101C8300E15009E5BFA2E1500375BFFDE0A2E250B8
:101C930009E5BFA2E2500375BFFBE0A2E35009E5EB
:101CA300BFA2E3500375BFF7E0A2E45009E5BFA26A
:101CB300E4500375BFEFE0A2E55009E5BFA2E5508C
:101CC3000375BFDFE0A2E65009E5BFA2E650037546
:101CD300BFBFD083D082D0D0D0E032C0E074F21244
:101CE3001511E5A7A2E4500FE5A1A2E4500953A7FB
:101CF300EF75A1EF121D32E5A7A2E5500CE5A1A2F5
:101D0300E5500653A7DF75A1DFE5A7A2E15009E57A
:101D1300A1A2E1500375A1FDE5A7A2E2500CE5A144
:101D2300A2E2500653A7FB75A1FB7F010215707455
:101D3300F8121425751A019003B6E0640670077A49
:101D4300007B001209F5A2AFE433FED2AF9003BCCF
:101D5300E0640170187A207B009003B5E0F9120D5E
:101D6300737A207B009003B5E0F9120CFB9061823B
:101D7300E0D2E6F0900789E0602185C61B801690CB
:101D830003BBE064017008E5C654F84405F5C65387
:101D9300BEFC121B107401651A60E4EEA2E092AF60
:101DA3007F010214D174F11214258A088B098C0A5D
:101DB3008D0B908EB278081211E3740F12139D7875
:101DC3000C121209908EB2780C1211E37808790C78
:101DD30012101C908ED250107808790C1211BB7817
:101DE3000812103C4014800E780C79081211BB784D
:101DF3000C12103C50047901800279007F08021410
:101E0300D174ED1214258A088B098C0A8D0B908EE0
:101E1300B278081211E3741312139D780C1212098D
:101E2300908EB2780C1211E3780C790812101C40D2
:101E3300117808790C1211BBAA08AB09AC0AAD0BD7
:101E4300802275100075110075120075130178104A
:101E5300790C1211BB78107908121182AA10AB11F8
:101E6300AC12AD137F0C0214D1C082C083E9906021
:101E730000F0D083D08222C2AF02000022C0E074FF
:101E8300F2121511A2AFE433FED2AFC2C0E5D1A264
:101E9300E4500653D1EF120F47EEA2E092AF7F0159
:101EA300021570C0E074F2121511A2AFE433FED232
:101EB300AFE589A2E15003120EE1758900C2C5EEB8
:101EC300A2E092AF7F01021570C0E074F212151107
:101ED300A2AFE433FED2AFE58BA2E05003120EE1D2
:101EE300758B00C2E880D8C0E0C0D0E8C0E0E9C08C
:101EF300E0E5A8D2AFC2C7A2E7A2E792AFD0E0F96C
:101F0300D0E0F8D0D0D0E032C0E0C0D0E8C0E0E903
:101F1300C0E0C008C009C082C083A2AFE433F9D2D5
:101F2300AF901029E0F8A3E0687008539AF7A37400
:101F3300018025C2EA901029E0F50874012508F014
:101F430074A92508F582E4340FF583E0F5F99010C0
:101F530029E0C394804002E4F0E9A2E092AFD08389
:101F6300D082D009D008D0E0F9D0E0F8D0D0D0E0CA
:101F730032FFFFFFFFFFFFFFFFC082C0839061902E
:101F83007404F0A37448F0A3E4F09061807440F00B
:101F93009061BC7407F09061877469F09061B674C6
:101FA30016F079001207917902120797901F74E4D3
:101FB30093F46006E493F912076D7905120B03029B
:101FC30023ABC082C083E9540FF9906185E0696057
:101FD30012E5C654804449F5C6E59E547F644970B2
:101FE300F8E9F053C680E59E547F70FA0223AB7480
:101FF300F71213B9E5A8FE53A87E120779C2BA53A4
:102003009AFEC289759B00C2C212077F75A911751A
:10201300B905120785D2BA439A0174805E42A802B9
:10202300327BC082C083906181E4F0A3F0A3F0020D
:1020330023AB75E90075910075BF0002011FC082D3
:10204300C083906181E4F0A374C0F0A3E480DFC097
:1020530082C08374F81213519003B8123649700387
:102063000221319003B8E054406023790885188237
:10207300851983AA82AB831208AB851882851983DD
:10208300AA82AB831205699003B8E054BFF0E05411
:10209300806010790C7AAD7B071208AB9003B8E02F
:1020A300547FF0E0A2E0500F790012079112056F00
:1020B3009003B8E054FEF0E05402600F7901120778
:1020C3009112056F9003B8E054FDF0E05404600FE3
:1020D30079001207971205759003B8E054FBF0E0FE
:1020E3005408600F79011207971205759003B8E041
:1020F30054F7F0E05410600F790212079712057538
:102103009003B8E054EFF0E05420600F7903120716
:10211300971205759003B8E054DFF0A3E054016013
:102123000D1207A312057B9003B9E054FEF0740867
:102133001213670223ABC082C083E9600514602ACF
:10214300804F90619A7433F0A37455F09061A0743A
:102153003AF0900787E064017009C2919003BA7462
:1021630067802D9003BA7461802690619A743FF062
:10217300A3745AF09061A0747FF0900787E0640124
:102183007009D2919003BA747180059003BA746A8E
:10219300F00223ABC082C083E9600B14600D1460AE
:1021A3001714600C8020901F788015901F79801081
:1021B300900787E064017005901F7A8003901F7B6E
:1021C300E493906186F00223AB74EE1213B974F4B6
:1021D300121351851882851983AC82AD8375838E62
:1021E30075829E7404121264901F7893F460030244
:1021F30022F6907808E0C3940250030222D67404B6
:1022030012139DAC82AD8375838E75827E74081222
:102213001264FC7EFF7FFF8E0C7D008C8285820E14
:10222300800F74086D606D74096D6068740A6D6069
:10223300638D087509007402780812133E12230097
:10224300121209A909E50AC9F88810741878081246
:10225300114AE5104508FAE9FBE50EC333F8E43308
:10226300F9740412139DE58228F582E58339122B54
:102273008AC3E89AE99B4008E8C39AF8E99B800679
:10228300EAC398F8EB99F9C3E89EE99F5006E8FE84
:10229300E9FF8D0C0DEDC39413408774FF6E70033B
:1022A30074FF6F6024850C087402780812133E12C1
:1022B3002300121209851882851983E582250EF5FC
:1022C30082E583122FF8E508F00CECC39404500365
:1022D30002221675080175090078081215CC7402DC
:1022E30012139DAC82AD837ADE7B07120EBD74029E
:1022F300121367740C1213677F0A02148B74482538
:1023030008F58274783509F583780822C082C08382
:10231300906186E0F8901F7BE493687009901F7AC0
:10232300E493906186F09061AE7468F0A3746AF0F0
:1023330090624574FBF0A304F053F4FD43FE029056
:1023430007877401F09061A0E0643A70047900801B
:102353000279011207910223AB7F0402148BC0821E
:10236300C083900765E06401701390076BE0F87415
:1023730001686027E87006A3E06401601E90077C93
:10238300E064017008900782E06401600E90070F1B
:10239300E06401700A900714E06004790C8002790C
:1023A300008005E0F9121E6CD083D08202011FC0A9
:1023B30082C08375E1F1900712E024FE604214703D
:1023C300441207B5900708E0F97A097B07120A4F10
:1023D300908EA2121227120A9D908EDA12122712E1
:1023E3000A5B900713E0F9120A677901120AF79062
:1023F300070612257174D9F0A37407F0790080A839
:102403001207BB80BF791280F574F61213B9122438
:10241300E64402F5D9780012244C40FB780080088A
:102423001233177407122A85E8C39940F375E195AF
:1024330090120012245CF0A312245C1224FE741484
:10244300F09003B67404022C99880874092508F5E2
:10245300827407122C30940622745B1224691224AE
:1024630069F0A3740722F0A37407F0A3745B2274CA
:10247300F61213B91224E6FA74064AF5D978001253
:10248300244C40FB780080081233177407122A8506
:10249300E8C39940F3900738E0F9740729F5D97434
:1024A300044AF5D9780012244C40FB7800800C884C
:1024B30008743912331B7407122A85E8C39940EF55
:1024C30075E1959012007455F0A374071227CE742A
:1024D30017F0A374091224FE7415F09003B6740365
:1024E300022C99900718E0F9740729F5D990070889
:1024F3001224F722E0C4333354C022F0A37461F0F2
:10250300A374071227F0900706122674240EF5828F
:10251300E81230C874FFF0A3F0A3F0A3F09007060D
:1025230012267A1230C822C082C08390076F7425A6
:10253300F090076D7401F0A3E4F07A01FB120A79BD
:1025430090075B12257174DFF0A37407F090076C9A
:10255300E06401701690076BE070107901120ADFD6
:10256300120AA9120AD97900120AEB0223AB122626
:10257300742416F582E81230C82274F61213B97463
:10258300FA121351900764E0640170081207C190B6
:102593000764E4F075E1F190075B1226742415F5E6
:1025A30082E8122FF87401F0900766E0640170531B
:1025B300908E8CC082851882851983AC82AD837519
:1025C300838ED082740612126475D90D90075D1242
:1025D30024F74403F5D978008808745E12331B741A
:1025E3000712245640F278008808851882851983DB
:1025F300E58212331BE58312245640EC75E195798D
:102603000180027900120A7F90120012268374530C
:10261300F0A37409F0A31226831226831227D7741A
:1026230059F0A374091227EC90075DE0F97A5E7BF9
:1026330007120A4F90076FE0F9121E6C7901120A14
:1026430085908EA2121227120A9D908EDA121227FB
:10265300120A5B7900120AF790075B12267A122F8F
:10266300F87416F09003B67405F004121367022C85
:102673009AE0F8A3E0C8221226742414F582E82213
:10268300744DF0A37409F0A32274F41213B98908EA
:10269300A8081231CC900774E0F97A757B07120A07
:1026A3004F900782E0701A7900120AC19006F5E094
:1026B30070047900800279017AF67B06120A55804C
:1026C300057901120AC175E1F175D92390077412D6
:1026D30024F74405F5D97800880A7475250AF5822C
:1026E300740712245640F175D90075D90075D900C5
:1026F30075D90075D90075D9007A00123595242251
:10270300122B4940F67A001235952426F582E912F8
:102713002CA20AEAC3940340EEEE242B122C9F7AD8
:1027230000123595242C122B4F40F67A0012359562
:10273300242E122B4F40F67A001235952430122B9B
:102743004F40F67A001235952432122B4F40F67A19
:10275300008A0AEE250AF8EF1230BB122B5B9405B0
:1027630040EFEE2437F582EF123120541FF8EE24A8
:102773002AF582EF123120C43354E048F5D975E1CC
:1027830095901200741DF0A37409F0A37423F0A3B1
:1027930074091227CE7429F0A374091227EC900749
:1027A30081E0F9121E6C908EA2121227120A9D90DC
:1027B3008EDA121227120A5B90600DE4F07901128F
:1027C3000AF79003B67406F002235CF0A31227D72E
:1027D3001227D7221227DB227417F0A37409F0A360
:1027E3007417F0A37409F0A3221227F022F09012B9
:1027F3000E1227FCA31227FC221227DB7417F0A367
:102803007409F02274EC1213B99007721231E37851
:1028130010121209900783E0FAF875F005A4C8AC0A
:10282300F02CF9741428F582740439F583E0FEA3BF
:10283300E0FFEEC333FEEF33FF8E0CF50D750E0094
:10284300750F0085100885110985120A85130B90F1
:102853008EA6780812119578081215C88510088578
:10286300110985120A85130B7808790C12118278E5
:1028730010790C1210DBE4F50EF50F7808790C12C1
:1028830011BB8A0C750D007403780C12133E780883
:10289300790C121182908EB278081211E3AA08AB58
:1028A30009AC0AAD0B121E0474041213678A088B59
:1028B30009A808A909C3EE98EF995006E82EF8E98C
:1028C3003FF9E890600EF0E9A3F0EEA3F0EFA3F078
:1028D30090600D74C1F07F0C02148BC082C0839092
:1028E3000706122916122FF8E402202FC082C08394
:1028F30090075B12290F90076F0223A6C082C08343
:1029030090077212290F9007810223A6122916122B
:102913002D3B221226742406F582E82202011F743D
:10292300F21213B9122A8CF50AEF122E19600478E9
:102933000480027800E8240EF8EAC39850030229C1
:10294300E975080C90078DE4F0EE2476F582EF121A
:10295300312090078EF07902EE2477FCEF3400FDEE
:102963007A8F7B071208997902EE2479FCEF340001
:10297300FD1208997902EE247BFCEF3400FD120866
:10298300997902EE247DFCEF3400FD120899EE24C0
:1029930074122AA2120899850A82850B83E0601EAD
:1029A30075088D75090778081215CC7C0C7903EE30
:1029B300FAEFFB12090B7402121367750810740106
:1029C3002508F5D975D90378008009880A748D25FF
:1029D3000A122A81E8C3950840F175E1957904123A
:1029E3000AA37901800279007F0602148B74F21224
:1029F30013B9122A8CF508EF3400F509850882F51E
:102A030083E06004780480027800E8240AF8EAC3CB
:102A1300984060750A0890078D7401F079057CFC75
:102A23007D067A8E7B07120899EE2480122AA21261
:102A33000899850882850983E0601E75088D7509EC
:102A43000778081215CC7C087903EEFAEFFB12091C
:102A53000B7402121367750A0C122D188003122AC5
:102A63007BE8C3950A40F775E1957904120AA379C7
:102A730001800279000229EB8808748D2508F5820C
:102A83007407123124F5D90822122A9022EAFEEBA8
:102A9300FF9061D0E0F87480C398FAEE248222FCA0
:102AA300EF3400FD8E828F83A3A3A3A3A312365812
:102AB3008C828D83E028F0A3E039F079022274F64A
:102AC3001213B9EAFEEBFF9061D0E0707475D91868
:102AD30075D90375D9037A008A08EE250812359A49
:102AE300249B122B6240F17A008A08EE25081235E6
:102AF3009A24A3122B4F40F17A008A08EE2508127C
:102B0300359A2493122B6240F17A008A08EE250845
:102B130012359A2487122B4940F175E1957908EE15
:102B23002493FAEF3400FB12089F7904EE2487FA0A
:102B3300EF3400FB12089F7904120AA3122B6B8057
:102B4300027900022C9A122B55940422122B5594CD
:102B53000222F582E91230CCE0F5D90AEAC3221247
:102B63002B5594082275E195EE246FF582EF123010
:102B7300C8123658EE2471F582EF1230C8E8F0A37C
:102B8300E9F07901223400F5831236582274F612E3
:102B930013B9EAFEEBFF90078D7406122C3A121557
:102BA300CC7C01790312090B740212136775D906E1
:102BB30075D9037800122C2040FB75E1959003B67C
:102BC300E064087017EE246FF582EF122B88EE2471
:102BD30071F582EF122FF8E8F0A3E9F07901022CE6
:102BE3009A74F61213B9EAFEEBFF9061D0E07029F4
:102BF30090078D740A122C3A1215CC7C01790312BA
:102C0300090B740212136775D90675D9037800127C
:102C13002C2040FB122B6880027900807A8808748C
:102C23008D2508F5827407122C309405221230CCBE
:102C3300E0F5D908E8C322F075088D75090778080F
:102C43002274F61213B9EAFEEBFF9061D0E07042F2
:102C5300790190078D740BF09003B6E06407701947
:102C630075088D75090778081215CC7C01090912BE
:102C7300090B74021213677905740129F5D975D903
:102C83000378008003122A7BE8C39940F8122B686B
:102C9300800279008001F07F0202148BF582EF122B
:102CA3003124F5D92274F51213B9122D4360047837
:102CB3000480027800E8240BF8EAC3984052750AAE
:102CC3000990078D7408F0F9122D241208998508CC
:102CD30082850983E0601E75088D750907780812DF
:102CE30015CC7C097903EEFAEFFB12090B7402127F
:102CF3001367750A0D122D188003122A7BE8C395FA
:102D03000A40F775E1957904120AA3122B6B80022E
:102D13007900022F997401250AF5D975D903780032
:102D230022EE24E4FCEF3400FD7A8E7B0722EE24AE
:102D33001DF582EF122D3B221230CCE4F0A3F022DA
:102D4300122A90F8EF122D4C223400F988088909D1
:102D53008882F583E02274F31213B98A088B09126F
:102D63002EAFFAE5082482F50AEB122E19600478D7
:102D73000480027800E82408F8EAC3985003022E7E
:102D830012750C0690078D740CF09003D3E0900736
:102D93008EF07402C0E0F97CD47D037A8F7B071236
:102DA3000899D0E0F97CD67D03120899850A8285BB
:102DB3000B83E0601E750A8D750B07780A1215CC1C
:102DC3007C067903AA08AB0912090B740212136774
:102DD300750C0A7401250CF5D975D903780080099F
:102DE300880A748D250A122A81E8C3950C40F1756F
:102DF300E1957904120AA3E508246FF582E5091227
:102E03002B88E5082471F582E509122B7D80027970
:102E1300007F0502148B3400F50B850A82F583E0ED
:102E23002274F61213B9EAFEEBFF122EAFFCEE2466
:102E330082F8EF122F3260047A0480027A00EA24C7
:102E430004FAECC39A40607A0290078DEAF0EE240C
:102E5300F6F582EF122EB9601B75088D7509077898
:102E6300081215CC7C027903EEFA12090B740212D4
:102E730013677A0674012AF5D975D903780080039C
:102E8300122A7BE8C39A40F875E195EE2473123356
:102E930020EE247F123320122D317904120AA3EE7F
:102EA300240D122B6E80027900022C9A9061D0E0DF
:102EB300F87480C3982212312490078EF088828997
:102EC30083E02274F61213B9122EAFFEEA2482F8BD
:102ED300EB122F3260047C0480027C00EC2404FC9F
:102EE300EEC39C40457C0290078D7407F0EA24F7FB
:102EF300F582EB122EB9601775088D7509077808EE
:102F03001215CC790312090B74021213677C067431
:102F1300012CF5D975D90378008003122A7BE8C305
:102F23009C40F875E195790180027900022C9A346E
:102F330000F988828983E02274F51213B9E9FEA2AD
:102F4300AFE433F50AC2AF7F00EA246EF8EB340036
:102F5300F980010F88828983E0F508EFC395085053
:102F6300188F08EA2508FCEB3400FDEC246AF5828F
:102F7300ED1231206E70DC8017EA2508FAEB34007D
:102F8300FBEA246AF582EB122FF8EE122EBF04F04F
:102F9300E50AA2E092AF7F0302148B74F61213B911
:102FA300A2AFE433FFC2AFEA246EF8EB123387E03B
:102FB30014F07E0080198E08EA2508F8EB12359C80
:102FC300246B12311DC0E0E8122FF3D0E0F00E8C19
:102FD300828D83E0F8EEC39840DCEA246DF582EB42
:102FE300122FF874FF12301CEFA2E092AF022C9A5A
:102FF300246AF582E91230C822C082C083E5A8F8AA
:10300300C2AFEA246AF582EB122FF8E912301CE80A
:10301300A2E7A2E792AF0223ABF0EA2469123024BD
:1030230022F582EB1230CCE4F02274F21213B98C45
:10303300828D83A3A3A3A3E0541FF0EA24361233A3
:103043007D8E828F83E4F0F50C850C8285820AECF9
:10305300250AF8ED122D4CC0E0EA250AF8EB1230F0
:10306300BBD0E0F0750D00850882850983E0F50A81
:10307300750B00E50D780A12131FE50AA2E0502331
:10308300E50C33333354F8250DC0E08E828F83E093
:10309300F81230D12438122FF5D0E0F08E828F83CE
:1030A300E004F0050DE50DC3940840BB050CE50CE9
:1030B300C3940540940229EB3400F9E8245DF582BA
:1030C300E91230C8221230CC223400F58322EA28D8
:1030D300F8EB3400F9E822C082C083EA2403F582C6
:1030E300EB1231206008E4F09003E3E014F0900366
:1030F300E2E014F070069003E474FFF08A828B839D
:10310300A3A3E4F0900701E0700D9003E3E06401F2
:1031130070057900120A6D0223ABF582E91231249E
:10312300221230CCE022C082C0837B00EBF875F022
:1031330005A4C8AAF02AF974E228F874031232EB42
:10314300A3A3A3A3E4F088828983A3A3A3A3A3A334
:10315300F00BEBC3940340D49003E2E4F0A3F0A399
:1031630074FFF075E1F10223AB74F51213B975081E
:1031730000750900750A00A80A1231CC8E828F836C
:10318300A3A3A3E0602BE5084509601D850882859C
:1031930009831231E31215DF1231DF121227121DD8
:1031A300A87404121367E97008EEF8EFF988088928
:1031B30009050AE50AC3940340BD8508828509838E
:1031C300A3A3A3A3E0F9022F99E875F005A4C8AA65
:1031D300F02AF974E628FE740339FF228E828F8366
:1031E300E0F8A3E0F5838882A3A32274F71213B94E
:1031F30078FF79FF7F00EFFC75F005A4CCAEF02ECD
:10320300FD74E62CFC74033DFD8C828D83A3A3A384
:10321300E0603EEC2473F582ED123120FE74FF680A
:10322300700374FF69700774016E701C800D740164
:103233006E700DEC24791232685016EC2479800BF1
:10324300EC242E1232685009EC242EF582ED122B59
:10325300880FEFC39403409EC3EA98EB994004E8B8
:10326300FAE9FB8013F582ED1230C8C3E098A3E0BE
:103273009922A2E092AF79007F0102148B74F612B7
:1032830013B9EAFEEBFFEE2463F508EF3400F5090A
:103293008016AA08AB0912088D120F53900702E09B
:1032A30004F0900703E004F0850882850983123651
:1032B3004970DFEEFAEFFB120845EEFAEFFB120955
:1032C30095022C9A74F71213B9EAFEEBFF8E828FE4
:1032D30083A3A3A3A3E0FA7B001205C3EEFAEFFBDB
:1032E30012085D120977809039F988828983A3A334
:1032F300A32274F61213B97800880874CA12331B18
:10330300740312332308E8C3940840ED9003CA748E
:1033130001022C99880874192508F58222F582EF99
:103323001230272274F61213B9EA240D12337DECFE
:103333002403F8ED3400F988088909EC2407F8ED33
:10334300123387122B8C850882850983E0FAA3E068
:10335300FB1212C68E828F83E8F0A3E912364F85E3
:103363000882850983E0FAA3E0FB1212C68B09EAFF
:1033730045096003123393022C9AF8EB3400F9E801
:10338300FEE9FF223400F9E8FCE9FD8C828D8322FB
:103393008E828F83E02401F0A3E03400F02274F6E0
:1033A3001213B9EA242EF582EB123120FCA3E0FDBF
:1033B300EA246F12337D780079FAECFAEDFB1212EE
:1033C300C68E828F83E8F0A3E9F0780079FAECFAED
:1033D300EDFB1212C68B09EA45096003123393020F
:1033E3002C9A74F01213B9EAFEEBFF741012139DBA
:1033F3007808121209120A258A0C8B0D8C0E8D0F78
:10340300908EAA780C121195908EB2780C1211E35B
:10341300780C1215C81231DF121227121DA874047A
:10342300121367E960030234CD8E828F83E0240296
:10343300F8A3E012359CFAE9FB8A828B83780812A1
:1034430011A8908EB278081212098A828B837808A9
:103453001211F6EE240BF582EF122FF8C082C0830F
:103463008E828F83A3A3A3A3A3E02401F8A3E03454
:1034730000F9D083D082E0687003A3E06970047917
:10348300018049EE2407F8EF3400F988828983121A
:103493003397EE24731234D47014EE24741234DD93
:1034A3007003A3E06D70078A828B83123397EE2437
:1034B3007F1234D47014EE24801234DD7003A3E041
:1034C3006D70078A828B8312339779007F08021409
:1034D3008BF582EF123124640122FAEF3400FB8A68
:1034E300828B83E0FCA3E0FD88828983E06C2274F5
:1034F300F31213B9E9FEECFFEA2462F582EB12340E
:10350300D760030235909061D0E0F508EA2482F594
:1035130082EB123120F50C60047804800278007489
:1035230080C39508FC95E0FDEF28F8E412359C2450
:1035330002F8E93400F9EC98ED99A2D265D0334052
:1035430048740D12139DE0F50AA3E0F50BE50C603A
:1035530015780A1215CCEFFCEEF912090B7402125E
:10356300136774042FFF74012FF5D98ED978008067
:103573000C8808E50A12331BE50B122A85E8C39F62
:1035830040EF75E195790080067907800279FF02A3
:103593002E148A0AEE250AF8EF3400F9E82274F7AC
:1035A3001213B9A2AFE433F508C2AFEA2402F8EB71
:1035B3003400F98A828B83E0FEA3E0FFEE4F600EB6
:1035C30088828983E0FAA3E0F5838A8280048A8271
:1035D3008B83ECF0A3EDF0888289831235F5F0E557
:1035E300080232758C828D83E8F0A3E9F08A828B1E
:1035F3008322ECF0A3EDF08C828D83E4F0A322749C
:10360300F71213B9EAFCEBFD7A007B00A2AFE433B7
:10361300FEC2AF8C828D831236496022E8FAE9FB41
:103623008A828B83122B8C1235E7E4F0A312364F78
:10363300E849700A8C828D83A3A3E4F0A3F0EEA281
:10364300E092AF02327B123658E84922F08C828D29
:103653008312365822E0F8A3E0F922C082C08380A7
:103663000312368CE9F874FF28190470F4ECFAEDB0
:10367300FB0223ABC082C083800312368CE9F8744B
:10368300FF28190470F40223AB8C828D83E08A82B5
:103693008B83F08C828D83A3AC82AD838A828B83F0
:1036A300A3AA82AB8322C082C0837B0012482EA3CD
:1036B300E4124443A3A3A3A374FFF00BEBC3940549
:1036C30040EA9007E074FFF09007DFE4F09007DE34
:1036D300F09007E1F0A3F00247FF74E81213B990EA
:1036E30007E1E0F50AA3E0F50BE50A450B700612C6
:1036F300078B024280850A82850B83E0F9146018E8
:1037030014601524FE601124C47003023DC724C055
:103713007003023DC70242801209898A088B09EAB5
:10372300240EF510EB3400F511EA2402FEEB34000D
:10373300FF9003E3E07003023A531208511242E090
:10374300AC0CFDAA08AB09120983E9F514740265F0
:10375300147003023A21124296850882850983E098
:103763001460101470030237FA24FE7003023955F3
:10377300024280E508650A7004E509650B602C12B6
:1037830007AF850A82850B83E06402701E90076C85
:10379300E06401701690076BE070107900120ADF85
:1037A300120AA9120AD97901120AE5E51470241242
:1037B3000A258A0C8B0D8C0E8D0F908ED6780C12E9
:1037C3001195908EB2780C1211E38E828F83780C50
:1037D300121218851282851383780C121209908EA7
:1037E300B6780C121195908EB2780C1211E38510F5
:1037F30082851183023EA9E508650A7004E509651F
:103803000B60211207C790076CE0640170169007E4
:103813006BE070107901120ADF120AA9120AD97932
:1038230000120AE5E50A2415F50AE50B3400F50B49
:10383300E5146013850A82850B83E0600A124555FF
:103843007003A3E069701E120A258A0C8B0D8C0E7F
:103853008D0F908ED6780C121195908EB2780C1233
:1038630011E31242CC850A82850B83E06401705414
:10387300851282851383780C121209908EB6780C08
:10388300121195780C1215C81242C3121195AA0C85
:10389300AB0DAC0EAD0F121DA87404121367E970C3
:1038A300051242B4800E851282851383780C12129E
:1038B30009908EB6780C121195908EB2780C121175
:1038C300E3023D138510828511831215DF8E828FEB
:1038D30083121227121DA87404121367E96401608E
:1038E30003023F5A851282851383780C12120990C2
:1038F3008EB6780C121195780C1215C81242C312A9
:103903001195AA0CAB0DAC0EAD0F121DA8740412C9
:103913001367E970051242B4800E85128285138302
:10392300780C121209908EB6780C121195908EB203
:10393300780C1211E3851082851183780C1212180A
:1039430090076FE06427700474258002E004F0029E
:103953003F5AE508650A7004E509650B6031900775
:1039630083E0F91207CD850A82850B83E064027038
:103973001E90076CE06401701690076BE07010797D
:1039830000120ADF120AA9120AD97901120AE5E51F
:1039930014600D90077D1245587003A3E069701EF3
:1039A300120A258A0C8B0D8C0E8D0F908ED6780CF7
:1039B300121195908EB2780C1211E31242CC85123B
:1039C30082851383780C121209908EB6780C12112B
:1039D30095780C1215C890077F1242C6121195AA4A
:1039E3000CAB0DAC0EAD0F121DA87404121367E9D6
:1039F300700890077F1242B7800E85128285138369
:103A0300780C121209908EB6780C121195908EB222
:103A1300780C1211E3851082851183023FF6850A23
:103A230082850B83E06402701390076CE06401707D
:103A33000B90076BE070057900120ADF12428512C2
:103A430009D78E828F83E09003E4F079020240432A
:103A53008A828B83E0F8EA650A7003EB650B6003E7
:103A6300023BCCE824FE600A24FE7003023B5702AB
:103A73004004EA2415F50AEB3400F50B850A82F5B8
:103A830083E060371245557003A3E069602D120A85
:103A9300258A0C8B0D8C0E8D0F908EEA780C1211EB
:103AA30095780C1215C88E828F83121227121DA8C7
:103AB3007404121367E96003024004120A258A0C96
:103AC3008B0D8C0E8D0F908ED6780C121195908ED7
:103AD300B2780C1211E31242CC8E828F83780C12CF
:103AE3001209850A82850B83E064017024900769BB
:103AF300E0F514A3E0F515E4F516F517780C791441
:103B0300121182851082851183780C1212180240DB
:103B1300048510828511831215DFAA0CAB0DAC0E40
:103B2300AD0F121DA87404121367E9640160030248
:103B330040041242C3121195851082851183780CBB
:103B430012121890076FE06427700474258002E056
:103B53000402400390077D1245587003A3E0696097
:103B63002A120A258A0C8B0D8C0E8D0F908EEA7803
:103B73000C121195780C1215C88E828F831212279E
:103B8300121DA87404121367E9703B120A258A0CEC
:103B93008B0D8C0E8D0F908ED6780C121195908E06
:103BA300B2780C1211E38E828F83780C1212189064
:103BB300077F1242C6121195851082851183780CF6
:103BC3001212181207D3024004E814601014700391
:103BD300023C9424FE7003023D210242801207AF8F
:103BE300850A82850B83E06402701E90076CE06493
:103BF30001701690076BE070107900120ADF120A49
:103C0300A9120AD97901120AE5120A258A0C8B0D29
:103C13008C0E8D0F908EEA780C121195780C12157C
:103C2300C88E828F83121227121DA8740412136781
:103C3300E9705B120A258A0C8B0D8C0E8D0F908E0A
:103C4300D6780C121195908EB2780C1211E38E82F5
:103C53008F83780C1212189003B6E0640270268EDC
:103C6300828F83780C121209908EBA780C121195F8
:103C7300908EB2780C1211E3851082851183780C33
:103C830012121880098510828511831247B9023EEA
:103C9300AE1207C790076CE06401701690076BE0E3
:103CA30070107901120ADF120AA9120AD9790012D7
:103CB3000AE51245557003A3E069602A120A258AB2
:103CC3000C8B0D8C0E8D0F908EEA780C121195785B
:103CD3000C1215C88E828F83121227121DA874042A
:103CE300121367E97035120A258A0C8B0D8C0E8D21
:103CF3000F908ED6780C121195908EB2780C12110B
:103D0300E38E828F83780C1212181242C31211951C
:103D1300851082851183780C121218023F5A90077E
:103D230083E0F91207CD850A82850B83E064027074
:103D33001E90076CE06401701690076BE0701079B9
:103D430000120ADF120AA9120AD97901120AE590B0
:103D5300077D1245587003A3E069602A120A258A79
:103D63000C8B0D8C0E8D0F908EEA780C12119578BA
:103D73000C1215C88E828F83121227121DA8740489
:103D8300121367E9703B120A258A0C8B0D8C0E8D7A
:103D93000F908ED6780C121195908EB2780C12116A
:103DA300E38E828F83780C12121890077F1242C61B
:103DB300121195851082851183780C12121812073F
:103DC300D3023FFE9003E3E0700302405F12085109
:103DD3001242E09003E4E0F875F005A4C8AAF02AC3
:103DE300F974E628F50A740339F50BE50A2404F59A
:103DF30010E50B3400F5119007DFE0540770030260
:103E0300400BA3E0F91209898A088B09AC0CAD0DAC
:103E1300120983E9F51674026516700302400B85D7
:103E23001082851183E0F91209D1124296E5082424
:103E33000EF514E5093400F515E5082402FEE5093D
:103E43003400FF850882850983E014600D146063E4
:103E530024FE7003023F6202400B1207AFE51670A7
:103E630024120A258A0C8B0D8C0E8D0F908ED6781A
:103E73000C121195908EB2780C1211E38E828F83FF
:103E8300780C121218851282851383780C1212098A
:103E9300908EB6780C121195908EB2780C1211E3B5
:103EA300851482851583780C1212189007E074012B
:103EB3000240031207C790076CE06401701190077A
:103EC3006BE0700B120AA9120AD97900120AE5E510
:103ED30016600A1245557003A3E069701E120A2585
:103EE3008A0C8B0D8C0E8D0F908ED6780C1211953B
:103EF300908EB2780C1211E31242CC851282851394
:103F030083780C121209908EB6780C121195780CE6
:103F13001215C81242C3121195AA0CAB0DAC0EAD0B
:103F23000F121DA87404121367E970051242B480BE
:103F33000E851282851383780C121209908EB6783F
:103F43000C121195908EB2780C1211E385148285B0
:103F53001583780C1212189007E074020240039044
:103F63000783E0F91207CDE516600D90077D124532
:103F7300587003A3E069701E120A258A0C8B0D8CFE
:103F83000E8D0F908ED6780C121195908EB2780C00
:103F93001211E31242CC851282851383780C12121C
:103FA30009908EB6780C121195780C1215C89007EB
:103FB3007F1242C6121195AA0CAB0DAC0EAD0F12B7
:103FC3001DA87404121367E9700890077F1242B7A3
:103FD300800E851282851383780C121209908EB697
:103FE300780C121195908EB2780C1211E38514821D
:103FF300851583780C1212181207D39007E0740406
:10400300F0AA08AB0902427DE50E650A7004E50FCC
:10401300650B6026850A82850B83A3A3A3E0600B4F
:10402300851082851183E0F91209D11242851209A4
:10403300D78E828F83E09003E4F079029003E4E06B
:10404300FA75F005A4CAA8F028FB74E62AFA7403EB
:104053003BFB121A25AA0CAB0D02427D9007DFE051
:1040630054077003024280A3E0F91209898A088B7E
:1040730009AE08AF09EE240EF508EF3400F509EE9A
:104083002402F8EF3400F9880A890B8E828F83E0CB
:1040930014601014700302413C24FE70030241E5D6
:1040A3000242801207AF120A258A0C8B0D8C0E8DEB
:1040B3000F908EEA780C121195780C1215C8850AA8
:1040C30082850B83121227121DA87404121367E949
:1040D300705F120A258A0C8B0D8C0E8D0F908ED675
:1040E300780C121195908EB2780C1211E3850A8226
:1040F300850B83780C1212189003B6E064027028C3
:10410300850A82850B83780C121209908EBA780C7B
:10411300121195908EB2780C1211E38508828509ED
:1041230083780C1212188009850882850983124747
:10413300B99007E074010242781207C790076CE058
:104143006401701690076BE070107901120ADF1298
:104153000AA9120AD97900120AE51245557003A378
:10416300E069602C120A258A0C8B0D8C0E8D0F9042
:104173008EEA780C121195780C1215C8850A82857F
:104183000B83121227121DA87404121367E9704AD5
:10419300120A258A0C8B0D8C0E8D0F908ED6780CFF
:1041A300121195908EB2780C1211E3850A82850B59
:1041B30083780C121218850A82850B83C082C08310
:1041C3009007691242A3D083D082780C121195858F
:1041D3000882850983780C1212189007E074020292
:1041E3004278900783E0F91207CD90077D12455876
:1041F3007003A3E069602C120A258A0C8B0D8C0EC8
:104203008D0F908EEA780C121195780C1215C885D3
:104213000A82850B83121227121DA87404121367D6
:10422300E9704A120A258A0C8B0D8C0E8D0F908E25
:10423300D6780C121195908EB2780C1211E3850A80
:1042430082850B83780C121218850A82850B83C032
:1042530082C08390077F1242A3D083D082780C124E
:104263001195850882850983780C1212181207D3D9
:104273009007E07404F0EEFAEFFB12097D7F100261
:10428300148BE50E2404FEE50F3400FF8E828F832A
:10429300E0F922E50C2402F512E50D3400F51322B2
:1042A3001242A722E0F50CA3E0F50DE4F50EF50F9D
:1042B300229007691242BB221242A78F838E822269
:1042C3009007691242BB780C228E828F83E50CF033
:1042D300A3E50DF0A3E50EF0A3E50FF022E9F875D1
:1042E300F005A4C8AAF02AF974E628F50E74033978
:1042F300F50F850E82F583E0F50CA3E0F50D22742E
:10430300F01213B9EAFEEBFF8E828F83A3A3A3A35C
:10431300A3A3E0FAA3E0FB120A07EE2402F8EF34AA
:1043230000F9880889098882F5831212271209FB8C
:104333008508828509831212271209EF1247A212F8
:104343001227120A018E828F83E064407019EE24D3
:1043530012F8EF3400F988828983E0906064124494
:1043630043E09060658006906064E4F0A3F09007FA
:10437300E1EEF0A3EF1247B1124C1C1213B7906099
:1043830054E412444AA312444A906182E0C2E6F024
:104393007591BFEE2415F8EF3400F9880A890B886C
:1043A30082F583E064017003120A37E5E170FC12C1
:1043B300479BE0F874FF68600288E1850A82850BF9
:1043C300837401F09003BCE06401706F120A258AC4
:1043D3000C8B0D8C0E8D0F780C1215C885088285F9
:1043E3000983121227121E0474041213678A088B9E
:1043F300098C0A8D0B908EBE780C121209780879FD
:104403000C12105B7403780812114AE50824F4F5C2
:1044130008E5093401F509900789E06003120D1FCF
:10442300E4F50AF50B78081215C87A207B0090038F
:10443300B5E0F9120D6774041213677F0802148B39
:10444300F088828983A322F0A3F0A3F0A3F0A3F062
:10445300A3F02274EC1213B9EAFEEBFF8C0A8D0B66
:10446300EE4F700302454E120A258A0C8B0D8C0EFB
:104473008D0F908EEE780C121195908EB2780C12EF
:1044830011E3EE2402F508EF3400F5098E828F83E1
:10449300E0F8740268700C1245557003A3E069706C
:1044A3001F8012740468701890077D1245587003BA
:1044B300A3E069700B850882850983780C121218B2
:1044C300E50A2402FEE50B3400FF908EC2C082C0D1
:1044D30083780C1215C88E828F83121227121E0442
:1044E30074041213678A108B118C128D13D083D02E
:1044F30082781012103C50538E828F8378101212E0
:1045030009908EC6781012119578101215C8850877
:1045130082850983121227121DA87404121367E9F6
:104523007029908ECA780C121195780C1215C885D3
:104533000882850983121227121DA87404121367B7
:10454300E97004790080067901800279027F0C0208
:10455300148B900767E0F8A3E0F9A3E0682274EEF8
:104563001213B9890874FF650870399007DFE054A6
:104573000770030246D8790412099BE964017004A9
:104583007904801A790112099BE9640170047901A5
:10459300800C790212099BE96401700879021209FF
:1045A300A10246DCA9081209A18A108B11A90812DD
:1045B300099BE9640170057509018003750900E52C
:1045C300102402F50AE5113400F50BE50814600D1B
:1045D30014607A24FE70030246700246D8790212F0
:1045E300099BE96401704979021209A18A0C8B0DB8
:1045F300AE0CAF0DE509A2E0502F8E828F83A3A3EB
:10460300780C121209908ECE780C121195780C1238
:1046130015C8850A82850B83121227121DA87404FC
:10462300121367E970030246D2EEFAEFFB0246DC8F
:10463300790412099BE96401601DE509A2E05006B3
:10464300AA10AB1180047A007B000246DC790412C5
:10465300099BE9640170047904802C790112099B98
:10466300E964016012E509A2E0506A8062790112EF
:10467300099BE9640170047901800C790212099B9A
:10468300E96401704479021209A18A0C8B0DAE0C06
:10469300AF0DE509A2E050918E828F83A3A3780C1E
:1046A300121209908ECE780C121195780C1215C83F
:1046B300850A82850B83121227121DA87404121314
:1046C30067E9600302462C8006E509A2E05006AACA
:1046D30010AB1180047A007B007F0A02148B74F400
:1046E3001213B989087B00EB75F018A4F8A9F074CC
:1046F300DE28F50A740739F50B850A82F583A3A32F
:10470300A3A3A3A3E0707E74E328FE740739FF8E8E
:10471300828F83A37401F08E828F83E508F0120ADF
:10472300258E828F83A3A31212338E828F83A3A33A
:10473300A3A3A3A3E4F0A3F01247A21247B912471D
:104743009B7401F0EE24151247A974011247B1E4DA
:10475300F0A3F09007DFE04508F09007DEE004F0F7
:10476300E50A2405FAE50B3400FBE06401600C74F0
:1047730080650860067440650870189007E1EAF0E8
:10478300A3EBF0800E0BEBC3940550030246EA7AC9
:10479300007B007F0402148BEE24141247A922EE3F
:1047A300240E1247A922F582EF3400F58322F0EE9E
:1047B30024161247A92274FFF0A3F0A3F0A3F0225A
:1047C300C082C0838A828B83E0F8A3E0F98A828B5C
:1047D30083E4F0A3124443F088828983E0F4F890E1
:1047E30007DFE058F09007DEE014F0700B9007E16C
:1047F300E4F0A3F09003B6F08002E0F9D083D08216
:1048030002011FC082C083E9FC7B0012482EE06CCA
:10481300700E88828983A3A3A3A3A3A3E0F98009CD
:104823000BEBC3940540E4790080D1EB75F018A439
:10483300F8A9F074DE28F8740739F988828983A30C
:10484300A3A3A3A32274F71213B97E00EE75F01885
:10485300A4FAABF074DE2AFA74073BFBEAFCEBFD27
:10486300EC2405FAED3400FB8A828B83E069700F38
:104873008C828D83A3A3A3A3A3A3E06401600B0E87
:10488300EEC3940540C67A007B007F0102148BC0FF
:1048930082C0839007DE0247FD74F21213B9EAFE69
:1048A300EBFFEE2400F8EF3401F989099061D0E0C1
:1048B30088828983F09061D7E0FAEE240108EF340F
:1048C30001F9880A890B9061D5124A039061D6E0F9
:1048D300C39A547FFAEE24021249F370149061C50F
:1048E300E0A2E4500CE0A2E7500788828983748039
:1048F300F0120B09850A82850B83E07019850C82FF
:10490300850D83E070109061C5E0A2E45008E0A239
:10491300E75003124A0E75E195780080129061D337
:10492300E0C0E0880AEE250A1247A9D0E0F0088E1D
:1049330082850983E0F9E8C39940E275E1917F0636
:1049430002148B74F21213B9EAFEEBFFEE2403F8A0
:10495300EF3401F9880889099061C8E08882898366
:10496300F09061CFE0FAEE240408EF3401F9880AED
:10497300890B9061CD124A039061CEE0C39A547FB4
:10498300FAEE24051249F370149061C5E0A2E050D9
:104993000CE0A2E35007888289837480F0120B0F26
:1049A300850A82850B83E07019850C82850D83E06F
:1049B30070109061C5E0A2E05008E0A2E35003123A
:1049C3004A0E120B157A0080149061CBE0C0E08A86
:1049D3000AEE250AF8EF124AC8D0E0F00A850882E9
:1049E300850983E0F8EAC39840DF75E18102494114
:1049F30008EF3401F9880C890DEA88828983F02253
:104A0300E0C39A547F88828983F022850C82850DC6
:104A1300837480F0850A82850B83F02274F6121367
:104A2300B99061C6E0FCE0540FF075E19178008025
:104A3300118808EA2508F582EB1247ACE09061D2B1
:104A4300F008EA2400124ABFF9E8C39940E3EA24D4
:104A530002124ABF60049061D6F0EA2401124ABFF1
:104A630060049061D5F0EC9061C6F07F0202148B74
:104A730074F61213B99061C6E0FDE054F0F075E1ED
:104A8300817C0080108C08EA2508F8EB124AC8E004
:104A93009061CAF00CEA2403124ABFF8ECC39840B1
:104AA300E4EA2405124ABF60049061CEF0EA2404CC
:104AB300124ABF60049061CDF0ED80ABF582EB3418
:104AC30001F583E0223400F9E82480F582E91247F6
:104AD300AC22C082C083906195E0C0E0EA2486F5F1
:104AE30082EB3401F583D0E0F0906196E0C0E0EA18
:104AF3002487F582EB3401F583D0E0F0906197E0F1
:104B0300C0E0EA2488F582EB3401F583D0E0F0902D
:104B13006198E0C0E0EA2489F582EB3401F583D0A3
:104B2300E0F00247FFC082C083EA2486124ABF90A6
:104B33006195F0EA2487124ABF906196F0EA2488CF
:104B4300124ABF906197F0EA2489124ABF90619894
:104B5300F00247FF74F41213B98908124C53120977
:104B6300B3EEFAEFFB1209AD750A80750B00780AF4
:104B73001215CC7C007D60EE2406FAEF3401FB12A3
:104B830008D57402121367EEFAEFFB1209C5024748
:104B93009674F21213B98982858208124C53120952
:104BA300BFEEFAEFFB1209B9750C80750D00780C96
:104BB3001215CCEE2406FCEF3401FD7A007B601263
:104BC30008D57402121367EEFAEFFB1209CBE5085E
:104BD30075F005A4C508A8F028F50974E62508F5BD
:104BE3008274033509F583124C1CE06480701790BE
:104BF3001200124C36124C367435F0A37409F0903F
:104C030003B6740880059003B67407F090120E1271
:104C13004C25A3124C25024941E0F8A3E0F5838813
:104C230082227417F0A37409124C487417F0A3740A
:104C330009F022742FF0A37409124C48742FF0A3C7
:104C43007409F0A322F0A37417F0A37409F0A3224C
:104C5300A808E875F08AA4C8AAF02AF9745B28FEAC
:104C6300740839FFEEFAEFFB2274F41213B9E990DA
:104C730003B5F0120A31907800E0C4540F5407646E
:104C8300037004793F8002797F75080675090078FF
:104C9300081215CC7CA37D037AEA7B07120EB77446
:104CA300021213679003A3E0F47049A3E0F4704485
:104CB300A3E0F4703FA3E0F4703AA3E0F47035A3EB
:104CC300E0F4703090780EE09003A3F090780FE05A
:104CD3009003A4F0907810E09003A5F0907811E091
:104CE3009003A6F0907812E09003A7F0907813E079
:104CF3009003A8F09003A9124E52125F8B9003D336
:104D03007406F0A3740D1254827440F0A37401F07E
:104D1300900709124E52900708E4F090070FF0A392
:104D230074A01254827403F0A3740712548274287B
:104D330012548204F0A3E4F0900738F090075E1257
:104D43004E5290075DE4F090076404125482124EB1
:104D530040E4F0A304F0A3125482125480F09007AD
:104D630075124E52900774E4F090077B04F0A3E4AD
:104D7300124E40125480F0A37405F090078574FF1F
:104D8300F0A3E4F0900787F090078904F090078A76
:104D93007490F0A37401F012079D1206D71209DD77
:104DA30079017A8C7B071208AB90078CE075F014BD
:104DB30084E5F004F0790C7AAD7B071208AB120896
:104DC300C97A009003B5E0F9120D49907803E064C5
:104DD30042705590078CE014F0704DC2AF124DE352
:104DE30000781DD0E0F618D0E0F6E59F5407700573
:104DF3007509FF800375097FC4C0E0781CE6F508D8
:104E030008E65509F509740B780812132FD0E0252D
:104E130008F8906270E0A2E740F8E8C3339062724A
:104E2300F0906270E0D2E0F09003E0E4F0A3F07A57
:104E330080FB9003B5E0F9120CF502527D124E4946
:104E4300124E49F0A322F0A37480F0A374022274DB
:104E5300FF125169F0A3F02274F41213B9EAFEEBC6
:104E6300FFEEA2E050409003B7E0C39480E0500F00
:104E7300C333F8E433F9740028F5827412800EF416
:104E8300C333F8E433F9740E28F582741239F583C9
:104E9300125ABF1213B77A009003B5E0F9120D4905
:104EA300EE640102500F54087003024F30900783E1
:104EB300E0F875F005A4C8AAF02AF974E628FA7494
:104EC3000339FB75080078081215D0EA2432125012
:104ED3001BF5097404780812132F78081215CCEA0D
:104EE3002430F582EB125AF91215E3EA242E1250FC
:104EF3001BC313F509E50813F50878081215CC75DB
:104F030008F675090678081215CC9006F5E0FD7CC5
:104F1300008A828B83A3A3A3A3E0FA7B0079001208
:104F230005BD7409121367EE640802500FEE5410A6
:104F3300604075080078081215D0E4F50978081266
:104F430015CC78081215CC78081215CC7508F675AF
:104F5300090678081215CC9006F5E0FD7C007A006E
:104F63007B0079021205BD7409121367EE64100207
:104F7300500FEE5480603090078A125AC8E8496097
:104F8300217900120D4390078A125AAA7808121544
:104F9300C87A007B019003B5E0F9120D677404121F
:104FA3001367EE64808065EF5401600C7901120D84
:104FB30043EEFAEF64018056EF5402600AC2AF7504
:104FC300C9AB75C95B80FEEF5404600A121E7AEE0A
:104FD300FAEF640480389003BCE064017033EE544C
:104FE30020602E9003B6E024F9600314701B793F10
:104FF3009003E4E0FA75F005A4CAA8F028FB74E670
:105003002AFA74033BFB120863EE6420FAEFFB8079
:10501300047A007B0002527DF582EB125F60F50893
:10502300A3E02274F61213B9C3EA9411EB9400506F
:10503300047A1080027A20EA2408FAE43400FB128E
:105043000F4D8A088B09A808A909E849600AE824D2
:1050530004FAE93400FB80047A007B0002564574AD
:10506300F61213B9EA2405FAEB3400FB120F4D8A4A
:10507300088B09A808A909E849600AE82405FAE9A0
:105083003400FB80047A007B00025645C082C08353
:10509300C2AF120A13E5E170FC75E10112077375E3
:1050A300E1F1120A491207677907120AF17901122D
:1050B3000AF77902120A73120AA9120AD97900129D
:1050C3000AEB7901120AEB908EDA121227120A5BAD
:1050D3009006F5E4124E54A3F090070FF0A3F0A34B
:1050E300F09007137407F09007127403F0900718F9
:1050F300E4F0900717F0900738F0900765F09007F9
:105103007CF012084B1209711208697900120AFD2A
:105113009006FC74FF125169741FF0906012E4F062
:10512300A3F0906063F0751A009003B6F090070146
:10513300F0900702740CF0900703E4F09007040466
:10514300F0900705E4F09003B8F0A3F09003BBF0F0
:105153009003BC04F09003D27403F0900788E4F04A
:10516300D2AFF9025BAAF0A3F0A3F0A3F0A322C08D
:1051730082C0839003A3E08A828B831258EE8A82D3
:105183008B83A31258E88A828B83A3A31258E28AE3
:10519300828B83A3A3A31258DC8A828B83A3A3A34A
:1051A300A3F09003A8E08A828B83A3A3A3A3A30203
:1051B3005BA7C082C0838A828B83E09003A91251CC
:1051C300EBE09003AA1251EBA3E09003AB1251EB77
:1051D300A3A3E09003AC1251F0E09003AD1251F0A1
:1051E300A3E09003AE025BA71251F8A3221251F879
:1051F300A3A3A3A322F08A828B8322C082C083123B
:1052030007A9E97005120AA97900025BAA74F712CB
:1052130013B9EAFEEBFF89081207A9E9702CE50828
:10522300600A74016508600A7912801E7C007900A7
:1052330080047C007901EEFAEFFB120AAFE9F874FF
:10524300036870047907800279000257B674F61276
:1052530013B9EA4B600EEC4D600A740A12139D12E7
:105263005F7D70047912800F78081215CC1208C381
:10527300740212136779000256457F0402148B747B
:10528300F41213B9EAFEEBFF890BEE4F6003E970EA
:10529300047912801C750A001208A5850A08EE25F8
:1052A30008125AF6E9F0050AE50AC3950B40E979B5
:1052B3000080C7C082C083E9F8740168700B90074F
:1052C300887401F07900025BAAE87006900788E40D
:1052D30080F1791280F074F61213B9EAFEEBFF8CB9
:1052E300088D099003B6E0640C700590618E8013FD
:1052F300120743E9702F125FCD744E2EF5827404AA
:105303003FF583E0F9748069700A85088285098313
:10531300747F800E9003BAE0F8E9C398850882850C
:105323000983F0790002564574F71213B9EAFEEBCC
:10533300FF89087405650860287413650860227482
:10534300146508601C741565086016741A65086096
:105353001074296508600A743B650860047912803B
:1053630042120743E9703C125F6FEA241DF8EB34E5
:1053730000F9EA24F6FCEB3400FDEA2469125F4CE1
:105383007019EA246AF582EB125D9664027004795F
:105393003A80101253A912083980061253A9120831
:1053A3002D79000257B68C828D83E508125F85E460
:1053B300F0A3F079022274F21213B9EAFEEBFF8C28
:1053C300088D09890CEC45096016E9C3941C50103B
:1053D300740E12139DE0F50D600A7401650D6004EF
:1053E3007912807B120743E97075125467F50A74CA
:1053F3000339F50B900702E0700479078061E50833
:1054030024FEF508E50934FFF509850882F583E5EF
:105413000CF0E50D7004740280027401A3F0E5083A
:1054230024FEFCE50934FFFDE50A2463FAE50B34A9
:1054330000FB120887900702E014125ADD6408602B
:1054430005E0640770179003E4E06E7001EF700DE0
:105453007900AA0AAB0B121A259061D0E079007F7C
:105463000602148BEEF8EFF9E875F005A4C8AAF06C
:105473002AFA75F005E9A42AF974E628227425F0BE
:10548300A3E4F0A32274F71213B9EAFEEBFF890831
:10549300740B12139D125AC8E50860557401650810
:1054A300601574036508603374026508602D740425
:1054B30065086003025563E8497003025563740A83
:1054C30012139DE0F8600874016860030255637469
:1054D300036508600674026508702AEE2460F8EF1D
:1054E300125603507BEC2460F8ED125603401680ED
:1054F3006FEE24E0F8EF1255FA5065EC24E0F8ED76
:105503001255FA505BC3EC9EED9F4054740912137D
:105513009DE0F860057401687046740E12139DE0F7
:10552300FA600F74016A600A74026A600574036AA0
:10553300702E740D12139DE0F9740759F9602190D0
:10554300070FE064017005790C0255F7E508900731
:1055530012F0600C74016508600674046508700538
:1055630079120255F7E9A3F0EAA3F0E8900708706F
:1055730027E4F09003A3E09007091258EE90070A7E
:105583001258E890070B1258E290070C1258DC905F
:10559300070DF09003A8802E7401F09003A9E0900A
:1055A3000709F09003AAE090070AF09003ABE0909C
:1055B300070BF09003ACE090070CF09003ADE09084
:1055C300070DF09003AEE090070EF0EA7004790047
:1055D300801974016A70047901801074026A70047E
:1055E3007902800774036A70057903120AB590077C
:1055F30010125DB90257B6125FBC94E1E9943F22E1
:10560300125FBC9461E9943F2274F61213B9E9FE68
:10561300C39420500BEE900718F0601EEA4B700401
:105623007912801E1257F71215CCEAFCEBFD7A199A
:105633007B07120CA174021213679007177401F011
:1056430079007F0202148B74F41213B9E9FE9003FC
:10565300B6E06409700302574DE0640A7003025711
:105663004DE0640B700302574DE0640C7003025766
:105673004DE0640D700302574D900712E0F8601778
:105683007401686012740368600D740268600874C2
:10569300046860030257B2900708E0F960087401D8
:1056A3006960030257B2740368600574026870107E
:1056B300900710C3E094A0A3E0940050030257B2F4
:1056C300E870030257B274016870030257B274049E
:1056D3006870030257B2EE606B1460030257B29016
:1056E300070FE064016063790112098F90070612C6
:1056F3005AE390070F7401125ADD7043120A258A88
:10570300088B098C0A8D0B908ED678081211959010
:105713008EB278081211E3900706125AB97808126C
:105723001218900706125ACE1207AFE9600E7A06D6
:105733007B0712099590070FE4F0800E1209777921
:105743000002527D90070FE07004792180F3A2AF2D
:10575300E433FFC2AF7A067B0712099590070FE483
:10576300F01209A7E97041120A13906182E0C2E6C0
:10577300F0E5E170FC75E1017591BF75E1F190030E
:10578300BCE0640170187A207B009003B5E0F91245
:105793000D737A207B009003B5E0F9120CFB7A00BD
:1057A3009003B5E0F9120D49EFA2E092AF80907932
:1057B30012808E7F0102148B74F61213B9E9FEC3B3
:1057C3009420500BEE900738F0601EEA4B7004797A
:1057D30012801E1257F71215CCEAFCEBFD7A397BC7
:1057E30007120CA174021213679007177401F07962
:1057F30000025645E0F50875090078082274F7128F
:1058030013B9E9FE600574016E7032740912139DB9
:10581300E0FF600574016F7024125AA1501FEC243D
:10582300FCF8ED125AA65015C3EA9CEB9D400E748A
:105833000A12139DE0F8600A740168600579120288
:1058430058D9900765E064017005790C0258D9EEC8
:10585300A3F0E890076BF0EF90075D7027E4F090FA
:1058630003A3E090075E1258EE90075F1258E8908A
:1058730007601258E29007611258DC900762F090BB
:1058830003A8802E7401F09003A9E090075EF090C6
:1058930003AAE090075FF09003ABE0900760F090FD
:1058A30003ACE0900761F09003ADE0900762F090E5
:1058B30003AEE0900763F0900767125AE3A3ECF09E
:1058C300A3EDF0E87004790080077401687005792E
:1058D30001120ABB79000257B6F09003A7E022F049
:1058E3009003A6E022F09003A5E022F09003A4E049
:1058F3002274F01213B9E9FEEAFF9003B6E06409DB
:105903007003025A05E0640A7003025A05E0640B4F
:105913007003025A05E0640C7003025A05E0640D3B
:105923007003025A05900766E0F860087401686026
:1059330003025A9C90075DE0F860087401686003F5
:10594300025A9C900767125AB3125AA14003025A93
:105953009CA3125AC8E824FCFCE934FFFDC3EC9471
:10596300FDED943F4003025A9CC3EA98EB99500320
:10597300025A9CEF600874016F6003025A9CEE6048
:105983007B146003025A9C900765E064016073799D
:105993000212098F90075B125AE39007657401F0B6
:1059A300900764F0EF90076C125ADD704A1207C734
:1059B300120A258A0C8B0D8C0E8D0F908EAE780CEF
:1059C300121195908EB2780C1211E390075B125A64
:1059D300B9780C12121890075B125ACE900769120D
:1059E3005AAA780C790812118290075B125AFD7833
:1059F3000C1212181209777900025F78900765E09C
:105A03007004792180F3A2AFE433F508C2AF7A5B67
:105A13007B07120995900765E4F01209A7E9704620
:105A2300120A13906182E0C2E6F0E5E170FC75E1D1
:105A3300017591BF7901120AF775E1F19003BCE09A
:105A4300640170187A207B009003B5E0F9120D739E
:105A53007A207B009003B5E0F9120CFB7A009003E7
:105A6300B5E0F9120D49E508A2E092AF90076BE0AB
:105A7300F87401687006120AD90259FAA3E06401A6
:105A830060030259FAE860030259FA120AA9120ADA
:105A9300D97901120AE50259FA79120259FCEA246A
:105AA300FCF8EB125B1022125AEEE4F50AF50B2216
:105AB300E0FAA3E0FB22125ABFA3A322E0F8A3E07B
:105AC300F583888222E0F8A3E0F922E0F8A3E0C896
:105AD3002406125B08E4F0A3F022F09003B6E02260
:105AE300EAF0A3EBF0227F1002148BE0F508A3E0A9
:105AF300F50922F582EF125B0B22E0F8A3E0C8243C
:105B03000E125B0822F582E83400F5832234FFF994
:105B1300C3E894FDE9943F22C082C08390077CE0F0
:105B23006008790412099BE97004790C80379007A7
