:020000040000FA
:0600000002011A020EF8D5
:0300130002137E57
:03001B0002139736
:03002B000213ECD1
:030033000213CEE7
:03005300020F6E2B
:03006B000213A5D8
:10008300020DFBE5C754F84401F5C77901220000CE
:100093000080FB120086B90003020104E4791B7897
:1000A30002B800028004F709D8FCE4791D7802B88D
:1000B30000028004F709D8FCE490028178037903F5
:1000C3008002F0A3D8FCD9FA781A90014A7A01BACF
:1000D30000028007E493A3F608DAF97A837B04909D
:1000E300014B787779018015E493A3AD82AE838ABF
:1000F300828B83F0A3AA82AB838D828E83D8E9D9C6
:10010300E775824C758376740012012C75829175A4
:100113008300740012012C75D00075813F7518811E
:10012300751902759F00020096C09FF59FE473D076
:100133009F22D083D082C09FE493C0E0740193C018
:10014300E0740293F59F2201D301DF01FF0000B4A5
:10015300000028002800283075A000A000A000A0FF
:100163000000080008E001F000100010001000106B
:10017300001000100050005000500010001000D07C
:10018300070000000000000F0001000500307507A4
:10019300001000010081FF00000000FF4103410344
:1001A300410341034103410341034103410341032C
:1001B300410341034103FFFFFF0000000000120160
:1001C30035181400120135101500120135441500BD
:1001D300120135C615001201350E160012013572D3
:1001E3001600120135FF1600120135B9170012016E
:1001F30035C81A00120135531C00120135761C0054
:10020300120135D15E00120135F95E001201352766
:100213005F001201355E5F00120135A95F00120114
:10022300350160001201352F6000120135EC6000CA
:100233001201353771001201354F7100120135A7D4
:100243006500120135B26500120135C46500120163
:10025300359C6600120135A16600120135886700DE
:10026300120135A36700120135CB6700120135086F
:100273006800120135426800120135A968001201B5
:1002830035F268001201351C69001201354169001D
:10029300120135C53B00120135F83B00120135D878
:1002A3003C00120135FD3C001201358F3E00120166
:1002B30035A11D001201353A1F0012013508200037
:1002C3001201358E2000120135FD2000120135E3A5
:1002D30021001201357B3000120135C430001201B8
:1002E30035F130001201352631001201353331006A
:1002F3001201353F3100120135513100120135250C
:100303003200120135823200120135C0320012016F
:10031300350334001201355D3400120135B2340067
:10032300120135EA35001201354036001201354716
:100333006C00120135536C00120135316D0012014E
:1003430035687600120135024600120135984600E1
:100353001201354F47001201357947001201356C00
:100363004900120135944A0012013512240012018A
:10037300353724001201356A2600120135ED2700B6
:100383001201356D2900120135DE29001201351BDA
:100393002A001201353E2A00120135542A001201A7
:1003A30035712A00120135F25700120135685800E1
:1003B3001201357E5800120135BF5800120135F97C
:1003C3005800120135725900120135AD590012015E
:1003D30035205A001201355E5A00120135675A0062
:1003E300120135735A00120135A25A00120135B8B1
:1003F3005A00120135E15A00120135445B00120123
:10040300357A2A001201358D2A00120135A72A00F8
:10041300120135D02A00120135132B001201355277
:100423002B00120135B72B00120135CC2B00120122
:1004330035E32B00120135F12B00120135002C009E
:10044300120135152C001201352A2C001201353505
:100453002C00120135482C001201356B2C001201BF
:1004630035122D00120135272D00120135412D00C3
:100473001201355C2D00120135792D0012013584EE
:100483002D00120135402E001201352C2F001201D0
:1004930035512F001201355C2F00120135712F00E9
:1004A300120135852F00120135E62F00120135FEAA
:1004B3002F001201353D73001201356973001201DB
:1004C30035C47300120135CB4A00120135094B00C4
:1004D300120135634B00120135844B00120135D5EF
:1004E3004B00120135FE4B00120135084C0012017E
:1004F30035744C00120135024D00120135504D0088
:10050300120135864D001201350D4E001201354D95
:100513004E00120135854E00120135974E0012012F
:1005230035B64E00120135BF4E00120135736F0010
:10053300120135A86300120135DE63001201351480
:1005430064001201356D6500120135D67300120186
:1005530035EC7300120135F6730012013540740057
:100563001201359775001201357E4F001201359740
:100573004F001201353B50001201357B5000120130
:1005830035945000120135C8500012013515510041
:10059300120135505100120135505300120135BD7F
:1005A3005300120135E87100120135117200120176
:1005B30035537200120135745B00120135885B00FC
:1005C300120135A75B00120135DB5B00120135F226
:1005D3005B00120135635C00120135B75C00120148
:1005E300355F5D00120135097600120135987200FE
:1005F3001201356D70001201357D70001201353125
:100603007100120135706D00120135F56D00120194
:10061300355B6E00120135706900120135D6690031
:10062300120135F66900120135476A00120135A03F
:100633006A00120135DA6A00120135DD6A0012011F
:10064300352241001201359B4100120135744200ED
:10065300120135324500120135974500120135EE7E
:100663004500120135F87F00120135736100120154
:1006730035FE62001201355F6300120135A5630088
:10068300120135E76A00120135246B00120135535C
:100693006B001201358E6B001201359D6B00120148
:1006A30035AC6B00120135047500120135746E0010
:1006B3001201359E6E001201356736001201352492
:1006C30037001201355F3700120135C137001201BF
:1006D300350D3800120135663800120135F7380040
:1006E300120135B43A00120135363B001201359B35
:1006F3003B00120135DD7500120135CA53001201AA
:10070300356E74001201359874001201352E76008F
:10071300E066701008A3E066700A08A3E066700440
:1007230008A3E06622C3E09608A3E09608A3E09638
:1007330008A3E096A2D265D03322C3E7960809E75F
:10074300960809E7960809E79622C3E09608A3E00E
:100753009608A3E09608A3E09622C008C3E096F5A6
:100763000808A3E096420808A3E096420808A3E01D
:100773009645087001D3D00822080808EAC0E0EBC8
:10078300C0E086F0E7A4FA180986F0E7A42AFA186D
:100793000986F0E7A42AFA180986F0E7A42AFA19C9
:1007A30086F0E7A4FBE5F02AFA190886F0E7A42B04
:1007B300FBE5F03AFA190886F0E7A42BFBE5F03ADB
:1007C300FA18180986F0E7A4C5F02BFBE43AFA19E6
:1007D30008E7C5F0C6A426F6E5F03BFBE43AFA18B1
:1007E30086F0E7A4F6E5F00826F6E43B08F6E43ADB
:1007F30008F6D0E0FBD0E0FA22E4CFC0E0E4CEC0BC
:10080300E0E4CDC0E0E4CCC0E075F020E626F608D5
:10081300E633F608E633F608E633F6181818EC3331
:10082300FCED33FDEE33FEEF33FFC3EC9709ED9799
:1008330009EE9709EF97191919400FFFEC97FC0977
:10084300ED97FD09EE97FE191906D5F0BFECF709F0
:10085300EDF709EEF709EFF7191919D0E0FCD0E02D
:10086300FDD0E0FED0E0FF22E4C396F608E496F65E
:1008730008E496F608E496F6226016080808C6C34C
:1008830013C618C613C618C613C618C613C6D5E0B2
:10089300EA227009080808226016181818C6C3331C
:1008A300C608C633C608C633C608C633C6D5E0EA8B
:1008B30022E627F60809E637F60809E637F60809B7
:1008C300E637F622E026F608A3E036F608A3E0367C
:1008D300F608A3E036F622E026F008A3E036F00897
:1008E300A3E036F008A3E036F022C3E697F6080942
:1008F300E697F60809E697F60809E697F622C3E0B5
:1009030096F008A3E096F008A3E096F008A3E0961B
:10091300F022E056F608A3E056F608A3E056F608E0
:10092300A3E056F622E0F608A3E0F608A3E0F608F3
:10093300A3E0F622E6F008A3E6F008A3E6F008A396
:10094300E6F022E0FAA3E0FBA3E0FCA3E0FD22EA49
:10095300F0A3EBF0A3ECF0A3EDF022E0F8A3E0F9B1
:10096300A3E0FAA3E0FB22E8F0A3E9F0A3EAF0A3F3
:10097300EBF022CAC0E0E6F0A308DAFAD0E0FA22EC
:10098300CAC0E0E0A3C582CCC582C583CDC583F0D0
:10099300A3C582CCC582C583CDC583DAE6D0E0CAC0
:1009A30022B90010BB0008E88AF084F8AAF022E418
:1009B300FBC8FA22EB70227B10C833C8C933C93392
:1009C3005007C39AC3DBF280069A50012ADBEAC8B8
:1009D30033F4C8C933F4C9FA2275F008E4C833C83C
:1009E300C933C933C99AC99B5004C92AC93BD5F035
:1009F300ECFBC833F4C8E4C9FA22600D08C6A2E7C9
:100A030013C618C613C6D5E0F322600C08C6C31379
:100A1300C618C613C6D5E0F422700422600D18C6AA
:100A2300C333C608C633C6D5E0F41822251810AF61
:100A330008F518400C15198008F51840021519D24D
:100A4300AF2200C0D0251810AF08F518500C0519B7
:100A53008008F51850020519D2AFD0D0222518F519
:100A63008210AF08F518400C15198008F5184002DC
:100A73001519D2AF851983222518F582E43519F5A6
:100A830083222518F8E43519F9222518FAE43519D3
:100A9300FB222518FCE43519FD22E4732518C582D1
:100AA300C0E0E51934FFC583C0E0E518C39582248F
:100AB300F810AF0885831985821880088583198506
:100AC3008218D2AFCEF0A3E520F0A37808E608F0B1
:100AD300A3DEFAEFF0A3E58124FAF8E608F0A3E633
:100AE30008F0A3E608F0A30808E608F0A3E608F078
:100AF300A315811581D0E0FED0E0F815811581158D
:100B030081E8C0E0EEC0E0222518C582C0E0E51907
:100B130034FFC583C0E0E518C3958224F910AF08FC
:100B23008583198582188008858319858218D2AF39
:100B3300CEF0A3E520F0A37808E608F0A3DEFAEFF1
:100B4300F0A3E58124FBF8E608F0A3E608F0A30888
:100B530008E608F0A3E608F0A315811581D0E0FEAE
:100B6300D0E0F815811581E8C0E0EEC0E0228519D8
:100B730083851882E0A3FEE0A3F5207808E0A3F6BE
:100B830008DFFAE0A3FFE0A3C0E0E0A3C0E0E0A336
:100B9300C0E0E0A3C0E0E0A3C0E010AF0885821886
:100BA3008583198008858218858319D2AFD083D0B5
:100BB30082020132851983851882E0A3FEE0A3F542
:100BC300207808E0A3F608DFFAE0A3FFE0A3C0E083
:100BD300E0A3C0E0E0A3C0E0E0A3C0E010AF08855D
:100BE30082188583198008858218858319D2AFD02E
:100BF30083D08222C0D02518C582C0E0E51934FF16
:100C0300C583C0E0E518C3958224F310AF0885833C
:100C1300198582188008858319858218D2AFC8F098
:100C2300A3E9F0A3EAF0A3EBF0A37908E709F0A3A3
:100C3300D8FAECF0A3EDF0A3EEF0A3EFF0A3D0E02D
:100C4300F0A3D0E0F0A3D0E0F0A3E520F0A3E5F01B
:100C5300F0A322851983851882E0C0E0A3E0F9A3FD
:100C6300E0FAA3E0FBA37808E0F608A3DFFAE0FCD0
:100C7300A3E0FDA3E0FEA3E0FFA3E0C0E0A3E0C088
:100C8300E0A3E0F5D0A3E0F520A3E0A3F5F010AFD7
:100C9300088583198582188008858319858218D26F
:100CA300AFD082D083D0E0F8D0E0327404800674F1
:100CB3000280027401C0E0F404120A60D0E0120959
:100CC30076227404800474028000CCC0E0EDC0E09E
:100CD300E518C39CCCAD1950011D10AF068C188DBF
:100CE3001980068C188D19D2AF120983D0E0FDD07C
:100CF300E0FC22D083D082E9C0E0E493A3C386F072
:100D0300C5F095F0F908E493A386F0C5F095F0706B
:100D13000BE493A3C3994005E9048002A3E475F0AF
:100D230002A42582F582E5F03583F583D0E0F9E46A
:100D330093A3C0E0E493C0E022D083D082ECC0E070
:100D4300EDC0E0E493A3FCE493A3FDED4C600D122E
:100D53000D88EC24FFFCED34FFFD80EFE493A3FC4E
:100D6300E493A3FDED4C600D120DC7EC24FFFCEDE5
:100D730034FFFD80EFD0E0FDD0E0FCE493A3C0E0BE
:100D8300E493C0E022C0E0C3E49396087401939611
:100D930018400FE493667008087401936618700096
:100DA3007019A3A3C3E49396087401939618A3A39D
:100DB300400DD0E0D0E0D0E0020D78A3A3A3A3A31D
:100DC300A3D0E022C0E0C0F088F0E4936670080886
:100DD30074019366187000A8F0A3A3700BD0F0D031
:0F0DE300E0D0E0D0E0020D78A3A3D0F0D0E02262
:100DF400851B87851CC622C0E074EF120BF7A2AFD7
:100E0400E433FEC2AF759B00906182E0A2E050091A
:100E1400E591A2E050037591FEE0A2E55009E59149
:100E2400A2E550037591DFE0A2E64003020ECEE591
:100E340091A2E64003020ECE7591BF9002C2E06417
:100E44000570081203D71203E380031203DD751B38
:100E540000120449E99002C3F0790012042B120233
:100E6400F97A017B009002C1E0F912050990780338
:100E7400E0644270559002F8E014F0704DC2AF1275
:100E84000E8600781ED0E0F618D0E0F6E59F5407F1
:100E940070057509FF800375097FC4C0E0781DE6FD
:100EA400F50808E65509F509740B7808120A0DD0FF
:100EB400E02508F8906270E0A2E740F8E8C33390B8
:100EC4006272F0906270E0D2E0F0906181E0A2E39F
:100ED4005009E5E9A2E3500375E9F7A3E0A2E7505E
:100EE40009E591A2E7500375917FEEA2E092AF7FEE
:100EF40004020C56C0E0C0D0C082C083906183E07D
:100F0400A2E05009E5BFA2E0500375BFFEE0A2E1F4
:100F14005009E5BFA2E1500375BFFDE0A2E250090C
:100F2400E5BFA2E2500375BFFBE0A2E35009E5BFB1
:100F3400A2E3500375BFF7E0A2E45009E5BFA2E4C1
:100F4400500375BFEFE0A2E55009E5BFA2E55003E9
:100F540075BFDFE0A2E65009E5BFA2E6500375BF06
:100F6400BFD083D082D0D0D0E032C0E074F2120B74
:100F7400F7E5A7A2E4500FE5A1A2E4500953A7EFB7
:100F840075A1EF120FC2E5A7A2E5500CE5A1A2E5F9
:100F9400500653A7DF75A1DFE5A7A2E15009E5A13B
:100FA400A2E1500375A1FDE5A7A2E2500CE5A1A2C0
:100FB400E2500653A7FB75A1FB7F01020C5674F89F
:100FC400120B0B751B019002C2E0640670077A00D5
:100FD4007B001203BFA2AFE433FED2AF9002C8E09D
:100FE400640170187A207B009002C1E0F912058D2B
:100FF4007A207B009002C1E0F912050F906182E033
:10100400D2E6F09002F5E0602185C61C80169002BD
:10101400C7E064017008E5C654F84405F5C653BE3C
:10102400FC120DF47401651B60E4EEA2E092AF7F44
:1010340001020BB774E9120B0B74FA120A2FEAFEC1
:10104400EBFF8C088D099002C2E024F7C39405508D
:101054000675100102116312038F8A0A8B0BEA458D
:101064000B70030211601203EF8A0C8B0D1203EF55
:10107400EA650C7003EB650D60ECEEFCEFFD851882
:1010840082851983AA82AB831203F5850A82850BB4
:1010940083A3A3780C120928908E39780C120915B1
:1010A4008518828519837814120928908E3978144A
:1010B400120915780C791412073D501F780C791415
:1010C4001208ED908E55780C12075D4047850C1080
:1010D400850D11850E12850F138045908E5585144C
:1010E400108515118516128517137810790C1208BE
:1010F400ED781012075D501C751000751100751203
:1011040000751301781079141208ED7810790C1217
:1011140008B4800C75100175110075120075130068
:1011240074097810120895908E79780C1209287831
:1011340010790C1207FC9002C2E06408600AE064B3
:10114400066005E064057020908E59781012075DE2
:101154005016908E5D78101208C7800C75100075BB
:1011640011007512007513008508828509837810B3
:101174001209377406120A457F10020BB774F7126E
:101184000B0B1204079002F3E064017010906245A7
:10119400E4F0A3F053F4F343FE0C5390F31203ADC5
:1011A400E5C654804449F5C6E59E547F644970F809
:1011B400906185740FF09002F1E0F47002A3E06096
:1011C4002C7508017509009002F1E07808120A1CD8
:1011D400E508F4FAA3E0600814600A14600C800DBA
:1011E400EA52808008EA52908003EA52A079007F94
:1011F40002020BB774F7120B0BE9FEEAFF74016EDF
:10120400700C7A807B009002C1E0F91205099014F9
:1012140010E493F46008E493F91202DB800953C6E6
:1012240080E59E547F70FA1203B39002F3E06401E8
:1012340070031203119002F1E0F47002A3E0602A3B
:101244007508017509009002F1E07808120A1CAAD9
:1012540008A3E0600814600A14600C800DEA428060
:101264008008EA42908003EA42A012038F8A088B26
:1012740009A808A909E8496017E5E170FCE8241405
:10128400F582E93400F583E0F874FF68600288E1D0
:1012940074016F700A7A019002C1E0F912055702D5
:1012A40011F374F1120B0B8A088B098C0A8D0B90C5
:1012B4008E397808120915740F120A7B780C1209FA
:1012C40028908E39780C1209157808790C12073D8C
:1012D400908E5550107808790C1208ED7808120792
:1012E4005D4014800E780C79081208ED780C120712
:1012F4005D50047901800279007F08020BB774ED18
:10130400120B0B8A088B098C0A8D0B908E39780886
:101314001209157413120A7B780C120928908E395D
:10132400780C120915780C790812073D40117808D9
:10133400790C1208EDAA08AB09AC0AAD0B80227532
:1013440010007511007512007513017810790C12D4
:1013540008ED781079081208B4AA10AB11AC12ADDC
:10136400137F0C020BB7C082C083E9906000F0D0F9
:1013740083D08222C2AF02000022C0E0C0D0C0826B
:10138400C083C28BE5C19003DBF0D083D082D0D080
:10139400D0E032C0E0C0D0C082C083C28FE5F98003
:1013A400E5C0E074F2120BF7A2AFE433FED2AFE56E
:1013B40089A2E1500312062F758900C2C5751A006F
:1013C400EEA2E092AF7F01020C56C0E074F2120B61
:1013D400F7A2AFE433FED2AFE58BA2E050031206CE
:1013E4002F758B00C2E880D5C0E0C0D0E8C0E0E92A
:1013F400C0E0E5A8D2AFC2C7751A00A2E7A2E7927F
:10140400AFD0E0F9D0E0F8D0D0D0E032FFFFFFFF5A
:10141400FFFFFFFF74F4120A9FEAFEEBFF121505AB
:10142400600579110214F5900284E0540A7005797C
:10143400120214F57A047B0012053F90029DEAF033
:10144400A3EBF012150570030214F3750804750973
:10145400007808120CB2EEFCEFFD1214FA1204C765
:101464007402120A45120251E9600F7A0C7B0012D1
:1014740002098A088B097A0D80268E828F83A3E065
:101484006402700F7A127B001202098A088B097AAF
:1014940013800D7A107B001202098A088B097A11D5
:1014A4007B001202098A0A8B0BAC0AAD0B8E828F69
:1014B40083A3A3A3E06004780180027800900285EE
:1014C400E07004790080027901E8F50A780A120CC8
:1014D400B6E9F50A780A120CB6AA08AB098E828F0F
:1014E40083A3A3E0F912026F7402120A4580027901
:1014F400137F04020B7190029DE0FAA3E0FB22E942
:10150400FE90029DE0F8A3E0F9E8492274F7120A7C
:101514009F121503700479128021121608E06E6080
:1015240004790380167A017B0090029FE0F912058A
:101534008D79301201F179001201F77F01020B71EC
:1015440074F7120A9F89087A01900283E0F9120164
:10155400E5900284E0540A605AE508900283F07A28
:10156400837B0412025D900281121508704190027F
:1015740083E0604975F00CA4FEAFF0FAEFFB1205AE
:101584003F900281EAF0A3EBF0900281121508600B
:101594001EEEFCEFFD79001204D37B008005EB12F4
:1015A40017920B900283E0F8EBC39840F1800E7918
:1015B40013800C900283E4F0FAFB12025D790002BE
:1015C400153F74F6120A9F79018A088B097808126C
:1015D4000CF60B2001FF15EE15DF158C828D83A30D
:1015E400A3A3A3A3121605E060128C828D83A3A388
:1015F400A3A3A3121C481201D98001197F02020B74
:1016040071E0F8A3E0F58388822274F4120A9F1231
:1016140015036055EE703A121608A3E064027004D4
:101624007A0380027A027B001202098A088B09E499
:10163400F50AF50B7808120CAE7A017B0090029F34
:10164400E0F91205817404120A4579011201F7E9DF
:10165400FEEE60117A017B0090029FE0F912058D85
:10166400EEF91201F17901800279000214F574F4A3
:10167400120A9FEA4B7011121505607C7900120161
:10168400F179001201F78070EA2403F508EB3400C5
:10169400F509850882F583E0605E8A828B83A3A3C3
:1016A400A3A3E0FEA3E0FFEE4F604D7A247B00127B
:1016B4000209EAF50B750A008030EE2428F582EF62
:1016C4003400F583E0C3950BA2D265D0334011EE0C
:1016D400FAEFFB1201EBE96007EEFAEFFB1201FDF2
:1016E400EE2429FEEF3400FF050A8508828509836C
:1016F400E0F8E50AC39840C20214F574F5120A9F93
:1017040089088A09900281121508607D750A008093
:101714002FE50A75F00CA4FEAFF0121799121AC047
:10172400600A120545121799E4F0A3F01217B312D8
:101734001AC0600A1205451217B3E4F0A3F0050AB3
:10174400E50AC3950840CAE509900281600F1214A6
:10175400FD120545900281E4F0A3F0802C121508D7
:101764006027E50875F00CA4FCADF07900900281C7
:101774001214FD1204D3750A008007E50A121792A9
:10178400050AE50AC3950840F27F03020B71121C97
:101794000F74FFF02212179D22900281E02EF8A30D
:1017A400E03F8882F583A3A3A3A3A3A3A3A3221248
:1017B400179DA3A32274E8120A9F74FF120A2FEA4A
:1017C400FEEBFF7508007A007B001215056075EECC
:1017D4002408F50AEF3400F50BEE2409F512EF3472
:1017E40000F5138E828F83E0640160347812120C4A
:1017F400B2850A82850B83E0FC7402120A7BAA82FA
:10180400AB8379011202397402120A45EA4B60076C
:101814008A828B83E0F5088E828F83E06404603BC8
:1018240090029D121605A3E0F8740368602DE87019
:1018340004E5086026EA4B600B74016870127403B7
:101844005508701779007401120A457F10020B7154
:1018540074026870EFE508A2E050E98E828F83A3DA
:1018640085820E85830FEE2402F50CEF3400F50D0E
:10187400AA0CFBE0F9120221E9F8850E82850F8398
:10188400F0850C16850D17881190028112150860D9
:101894006A75100080020510900283E0F8E510C319
:1018A400985058E51075F00CA4F508E5F0F509908A
:1018B4000281E02508FAA3E03509FB8A828B83E0E4
:1018C400F460D3A3E0651170CD7514067515007826
:1018D40014120CB2AC16AD17EA2402FAEB3400FB76
:1018E4001204CD7402120A45E960AB900281E0252E
:1018F40008F508A3E03509F509800675080075099F
:10190400008E828F83E0FAE508450970030219C648
:10191400E508240AF50EE5093400F50FE508240866
:10192400F50CE5093400F50D74046A600C850C822D
:10193400850D83E0FAA3E0800E850E82850F83E097
:10194400F8A3E0F9E8FAE9FBEA4B7003021A3385DD
:101954000A82850B83E0F5148A828B83E065147018
:10196400257515007814120CB2AC12AD138A828B53
:1019740083A3AA82AB831204CD7402120A45E964DC
:101984000170030218488E828F83E0640460198515
:101994000C82850D83121AC07003021A3312054596
:1019A400850C82850D838014850E82850F83121A1F
:1019B400C0607C120545850E82850F83E4F0A3F098
:1019C400806D74046A70030218489002811215082D
:1019D400602B7C0080010C900283E0F8ECC39850EB
:1019E4001CEC75F00CA4F8A9F0900281E028F8A38F
:1019F400E039F988828983E0F470DB80067582001F
:101A0400758300858208858309E50845097003020A
:101A14001848EAF0850E82850F83121C2F120CB22F
:101A2400AC0CAD0D121C241204C77402120A4585B5
:101A34000A82850B83E02401FAE43400FB12053F9B
:101A4400EA4B605E8E828F83E064046014850882B2
:101A5400850983A3A3A3A3A3A3A3A3EAF0A3EB8071
:101A640018EAF8EBF9850882850983A3A3A3A3A345
:101A7400A3A3A3A3A3E8F0A3E9121AB78A828B83D2
:101A8400121AB7F5087509007808120CB2AC12AD39
:101A9400138A828B83A3AA82AB831204C7740212B3
:101AA4000A45850A82850B83E07003021848790190
:101AB40002184AF0850A82850B83E022E0FAA3E04B
:101AC400FBEA4B2274F0120A9F890B750A00121567
:101AD400057003021C0A9002811215087003021C8F
:101AE4000AE50B701D750C00800DE50C121C0FE04F
:101AF400F46002050A050C900283E0F8E50CC39833
:101B040040E8850A0875090074037808120A1CE580
:101B1400082406FAE5093400FB1204D98A088B0963
:101B2400AE08AF09EE4F70157A067B001204D98A0D
:101B3400088B09AE08AF09750A00750B13EE4F70D8
:101B440003021BF38E828F8374D0F0A3E50B121D66
:101B5400907401121D90A3E50AF0EE2404F582EFBF
:101B64003400F583E50A607DEE2406F508EF3400C1
:101B7400F509E508F0A3E509F0750C00900283E08F
:101B8400F8E50CC3985062E50A605EE50C75F00C4C
:101B9400A4F8A9F0900281E028F8A3E039F9E8FA62
:101BA400E9FB8A828B83E0F874FF686034E8850877
:101BB40082850983F08A828B83A3121C2F120CB2B4
:101BC400EA2402FCEB3400FD121C241204C7740244
:101BD400120A45E5082408F508E5093400F5091555
:101BE4000A050C8097E4F0A3F0121C411204E57A74
:101BF40000900283E0F91201E51214FA12054590EF
:101C0400029DE4F0A3F07F08020B7175F00CA4F8B8
:101C1400A9F0900281E028FAA3E0398A82F58322B0
:101C2400E5082402FAE5093400FB22E085088285F0
:101C34000983A3F0750E06750F00780E22EEFAEFF5
:101C4400FB90029DE0F8A3E0F5838882E0F922741A
:101C5400F6120A9FE9FE7A237B001202098B09EA35
:101C6400450960047A0180027A00EEF912027502D5
:101C7400160074F2120A9F8A088B09121505700364
:101C8400021D8BEA2408F50AEB3400F50B850A8261
:101C9400F583E0240FFAE43400FB1204D98A0C8B98
:101CA4000DAE0CAF0DEE4F7003021D8B8E828F8331
:101CB40074D0F0A3E4121D90740DF0850882850998
:101CC40083121D98F0E5082428F582E5093400F50F
:101CD40083E0C0E0EE240BF582EF3400F583D0E01E
:101CE400F0850882850983A3121D98A3F0750C065C
:101CF400750D00780C120CB2E5082402FCE50934D9
:101D040000FDEE2405FAEF3400FB1204C77402123E
:101D14000A45850A82850B83E0F50AEE240CF8EF68
:101D24003400F9E8FCE9FD8C828D83E50AF0EE24A9
:101D34000D08EF3400F9E8FAE9FBE50A603BEE240C
:101D44000FF8EF3400F98A828B83E8F0A3E9F08C72
:101D5400828D83E0F50A750B00780A120CB2E5084F
:101D64002409FCE5093400FD8A828B831214FD12D8
:101D740004C77402120A4580088A828B83E4F0A3A4
:101D8400F0121C411204E57F06020B71F08E828F63
:101D940083A3A322E08E828F83A3A3A32274F412CD
:101DA4000A9FE99002C1F0120401907800E0C45443
:101DB4000F540764037004793F8002797F75080625
:101DC4007509007808120CB27CAF7D027AEA7B07B1
:101DD4001206057402120A459002AFE0F47049A39A
:101DE400E0F47044A3E0F4703FA3E0F4703AA3E09D
:101DF400F47035A3E0F4703090780EE09002AFF008
:101E040090780FE09002B0F0907810E09002B1F07A
:101E1400907811E09002B2F0907812E09002B3F062
:101E2400907813E09002B4F09002B5121F3112239F
:101E3400E19002D37406F0A3740D1220E37440F011
:101E4400A37401F09002DD121F319002DCE4F090E3
:101E540002E3041220E3121F28121F281220E304B5
:101E6400F0A31220E374251220E3F09002F174FF32
:101E7400F0A3E4F09002F3F09002F504F09002F67F
:101E84007490F0A37401F012030B1202BD1203A7A5
:101E940079017AF87B021203359002F8E075F014A8
:101EA40084E5F004F012033B7A009002C1E0F912D9
:101EB4000557907803E0644270559002F8E014F0FE
:101EC400704DC2AF121ECB00781ED0E0F618D0E0E1
:101ED400F6E59F540770057509FF800375097FC4F3
:101EE400C0E0781DE6F50808E65509F509740B7895
:101EF40008120A0DD0E02508F8906270E0A2E740CD
:101F0400F8E8C333906272F0906270E0D2E0F0902F
:101F140002D8E4F0A3F07A80FB9002C1E0F9120544
:101F2400090220DEF0A37480F0A374022274FF126D
:101F340020E9F0A3F02274F4120A9FEAFEEBFFEE0C
:101F4400A2E0503F9002C3E0C39480E0500FC3333B
:101F5400F8E433F974D728F5827404800EF4C3339B
:101F6400F8E433F974E528F582740439F58312230F
:101F7400BF120A9D7A009002C1E0F9120557EE647F
:101F8400018033548060339002F61223AAF9E849A1
:101F9400602179001205519002F61223C7780812C5
:101FA4000CAE7A007B019002C1E0F9120581740441
:101FB400120A45EE6480FAEF802DEF5401600C792B
:101FC40001120551EEFAEF6401801CEF5402600A1D
:101FD400C2AF75C9AB75C95B80FEEF5404600B12C8
:101FE4001378EEFAEF6404FB80179002C8E06401F2
:101FF400700BEE54206006EE6420FA80047A007BB5
:10200400000220DEC082C083C2AF1203DDE5E170AE
:10201400FC75E1011202E175E1F11204191202D515
:10202400790712049179011204977902120431128A
:102034000455120479790012048B790112048B90EF
:102044008E611209461204259002E4E4F012036B37
:10205400120329790012049D906012E4F0A3F09019
:102064006063F0751B009002C2F09002C4F0A3F00C
:102074009002C7F09002C804F09002D27403F0906A
:1020840002F4E4F0D2AFF90220D7C082C0839002F8
:10209400AF1220CEF09002B01220C1F09002B11223
:1020A40020C1A3F09002B21220C1A3A3F09002B306
:1020B4001220C6F09002B41220C6A380131220CEC0
:1020C400A3221220CEA3A3A3A322E08A828B83227D
:1020D400F07900D083D0820201327F04020B71F0C8
:1020E400A3E4F0A322F0A3F0A3F0A3F0A3227F01C2
:1020F400020B71E0FAA3E0FB2274F7120A9FE9FED7
:10210400600574016E70327409120A7BE0FF600589
:1021140074016F70241223AF501FEC24FCF8ED12ED
:1021240023B45015C3EA9CEB9D400E740A120A7B3B
:10213400E0F8600A740168600579120221E09002F7
:10214400E4E064017005790C0221E0EEA3F0E8906C
:1021540002EAF0EF9002DC702FE4F09002AFE0901E
:1021640002DDF09002B0E09002DEF09002B1E09067
:1021740002DFF09002B2E09002E0F09002B3E0904F
:1021840002E1F09002B4802E7401F09002B5E09068
:1021940002DDF09002B6E09002DEF09002B7E0902B
:1021A40002DFF09002B8E09002E0F09002B9E09013
:1021B40002E1F09002BAE09002E2F09002E6EAF066
:1021C400A3EBF0A3ECF0A3EDF0E870047900800732
:1021D4007401687005790112046179000220F274B7
:1021E400F0120A9FE9FEEAFF9002C2E0640970035C
:1021F40002230BE0640A700302230BE0640B7003F8
:1022040002230BE0640C700302230BE0640D7003E3
:1022140002230B9002E5E0F8600874016860030291
:1022240023A29002DCE0F8600874016860030223D2
:10223400A29002E61220F71223AF40030223A2A3C6
:102244001223AAF9E824FCFCE934FFFDC3EC94FD55
:10225400ED943F40030223A2C3EA98EB9950030292
:1022640023A2EF600874016F60030223A2EE7003DF
:102274000223051460030223A29002E4E0640170C7
:102284000302230B79021203839002DAEAF0A3EB30
:10229400F09002E47401F09002E3F0EF9002EBF0AE
:1022A4009002C2E0705612031D1203E98A0C8B0DD2
:1022B4008C0E8D0F908E45780C1208C7908E39784D
:1022C4000C1209159002DA1223BFA3A3780C120989
:1022D400371223A7C824061223D9E4F0A3F09002EE
:1022E400E81223C7780C79081208B41223A7C8246B
:1022F4000E1223D9780C12093712037179000223C4
:10230400D49002E4E07004792180F3A2AFE433F5C1
:1023140008C2AF7ADA7B021203899002E4E4F01275
:1023240003A1E970461203DD906182E0C2E6F0E5A4
:10233400E170FC75E1017591BF790112049775E1B3
:10234400F19002C8E0640170187A207B009002C109
:10235400E0F912058D7A207B009002C1E0F91205A4
:102364000F7A009002C1E0F9120557E508A2E09245
:10237400AF9002EAE0F8740168700612047902234F
:1023840000A3E064016003022300E8600302230069
:10239400120455120479790112048502230079127A
:1023A4000223029002DAE0F8A3E022EA24FCF8EB2C
:1023B40034FFF9C3E894FDE9943F221223AAF5837C
:1023C400888222E0F508A3E0F509E4F50AF50B227A
:1023D4007F08020B71F582E83400F583229002AF86
:1023E400E09002BBF09002B0E09002BCF09002B129
:1023F400E09002BDF09002B2E09002BEF09002B311
:10240400E09002BFF09002B4E09002C0F022C082DB
:10241400C083900324E4F090032374FFF09003201E
:10242400F090031FE4F090031EF0900321F0A3F05A
:10243400022A3774EC120A9F900321E0F50CA3E002
:10244400F50DE50C450D70061202F9022652850CB5
:1024540082850D83E0F914600A14600724FE60038A
:1024640002265212037D8A088B09AE08AF09EE24B6
:102474000EF50AEF3400F50B1227D1FAA80CA90DBA
:10248400EE687002EF69600302259F74026A6003BC
:1024940002264BEE2415F510EF3400F51185108259
:1024A400F583E060391227E17003A3E069602F121D
:1024B40003E98A0C8B0D8C0E8D0F908E65780C12AF
:1024C40008C7780C120CAE85088285098312094668
:1024D4001212A67404120A45E9600302264B120381
:1024E400E98A0C8B0D8C0E8D0F908E49780C120896
:1024F400C7908E39780C120915850882850983E501
:102504000CF0A3E50DF0A3E50EF0A3E50FF08508AC
:1025140082850983780C120928851082851183E04D
:10252400640170269002E8E0F508A3E0850810F540
:1025340011E4F512F513780C79101208B4850A82A7
:10254400850B83780C120937804E850A82850B83AC
:10255400120CC5AA0CAB0DAC0EAD0F1212A674046E
:10256400120A45E964017030850882850983C082B6
:10257400C083122657D083D082780C1208C7850AEC
:1025840082850B83780C1209379002EEE064277081
:102594000474258002E004F002264B74026A60038E
:1025A40002265212031D9002EBE0640170169002A1
:1025B400EAE07010790112047F120455120479794B
:1025C400001204851227E17003A3E069602C120352
:1025D400E98A0C8B0D8C0E8D0F908E65780C120889
:1025E400C7780C120CAE850882850983120946123D
:1025F40012A67404120A45E970471203E98A0C8B87
:102604000D8C0E8D0F908E49780C1208C7908E3960
:10261400780C120915850882850983780C1209370C
:10262400850882850983C082C083122657D083D04F
:1026340082780C1208C7850A82850B83780C1209EC
:10264400379003207402F0EEFAEFFB1203777F0C4D
:10265400020B719002E8E0F508A3E085080CF50D83
:10266400E4F50EF50F2274F0120A9FEAFEEBFF8EDA
:10267400828F83A3A3A3A3A3A3E0FAA3E0FB120383
:10268400D1EE2402F8EF3400F9880889098882F52C
:10269400831209461203C5850882850983120946F7
:1026A4001203B9EE240E1227BD1209461203CB8E73
:1026B400828F83E06440701CEE2412F8EF3400F93A
:1026C40088828983E0906064F088828983A3E090A3
:1026D40060658006906064E4F0A3F0900321EEF05E
:1026E400A3EFF0EE24161227BDE0F8A3E0F58388EB
:1026F40082120A9D906054E41227C5A31227C59044
:102704006182E0C2E6F07591BFEE2415F8EF340063
:10271400F9880A890B8882F583E064017003120446
:1027240007E5E170FCEE24141227BDE0F874FF689D
:10273400600288E1850A82850B837401F09002C8E7
:10274400E06401706F1203E98A0C8B0D8C0E8D0FFF
:10275400780C120CAE85088285098312094612137F
:10276400027404120A458A088B098C0A8D0B908E18
:102774004D780C1209287808790C12077C740378B8
:102784000812087CE50824F4F508E5093401F50984
:102794009002F5E0600312052DE4F50AF50B7808C4
:1027A400120CAE7A207B009002C1E0F9120581740C
:1027B40004120A457F08020B71F582EF3400F58399
:1027C40022F0A3F0A3F0A3F0A3F0A3F022EE2402DE
:1027D400F508EF3400F5098E828F83E0229002E63B
:1027E400E0F8A3E0F9A3E0682274EE120A9F8908D6
:1027F40074FF6508703990031FE0540770030229C1
:10280400647904120395E9640170047904801A79E7
:1028140001120395E9640170047901800C790212B4
:102824000395E964017008790212039B022968A9DF
:102834000812039B8A108B11A908120395E96401FD
:1028440070057509018003750900E5102402F50A75
:10285400E5113400F50BE50814600D14607A24FECC
:1028640070030228FC0229647902120395E96401C9
:102874007049790212039B8A0C8B0DAE0CAF0DE5E7
:1028840009A2E0502F8E828F83A3A3780C1209280B
:10289400908E51780C1208C7780C120CAE850A82FF
:1028A400850B831209461212A67404120A45E970B4
:1028B4000302295EEEFAEFFB0229687904120395FC
:1028C400E96401601DE509A2E05006AA10AB11807D
:1028D400047A007B000229687904120395E96401F3
:1028E40070047904802C7901120395E96401601263
:1028F400E509A2E0506A80627901120395E9640156
:1029040070047901800C7902120395E96401704422
:10291400790212039B8A0C8B0DAE0CAF0DE509A254
:10292400E050918E828F83A3A3780C120928908E95
:1029340051780C1208C7780C120CAE850A82850BEC
:10294400831209461212A67404120A45E9600302AE
:1029540028B88006E509A2E05006AA10AB1180044D
:102964007A007B007F0A020B7174F7120A9FE9FE5A
:10297400900324E0705B7401F0EE900323F01203E3
:10298400E9900325120952900329E4F0A3F090037F
:102994003174FFF0A3F0A3F0A3F09003377401F0B7
:1029A400A3F0A3E4F0A3F090031FE04EF090031E05
:1029B400E004F06401600A74806E600574406E7017
:1029C4000A9003217423F0A37403F07A237B038019
:1029D400047A007B007F01020B71C082C0838A826B
:1029E4008B83E0F8A3E0F98A828B83E4F0A3F08878
:1029F400828983A3F088828983E0F4F890031FE03E
:102A040058F090031EE014F0700B900321E4F0A33F
:102A1400F09002C2F0801CC082C08390031EE0606C
:102A24000A900321E0FAA3E0FB80047A007B008093
:102A340002E0F9D083D082020132C082C083E9F877
:102A4400900323E0687005A3E0F98002790080E335
:102A5400C082C083900323E069700CA3E06401701A
:102A6400067A237B0380047A007B0080C6C082C080
:102A74008390031E80BBC082C08312040D12041312
:102A8400120419120407022FF1C082C0839061B1AD
:102A9400E0C2E0F0E0D2E0F0906188E0640470F815
:102AA400022FF1C082C0839061B1E0C2E0F0906176
:102AB400F3E4F09061F2F0F8F9122B079061F01250
:102AC4002B4294FEE9940D40F0022FF1C082C083A2
:102AD4009061F3E4F09061F2F0F8F99061F0E0FABB
:102AE400122B076A700A122B4794FEE9940D40EBEF
:102AF40074FE687003740D697004790080027901B2
:102B0400022FF1740028F582748039F583E022C025
:102B140082C0839061C0E0FAE4F0F8F9E82400F59B
:102B240082E93460F583E4122B429480E9940140F5
:102B3400EBEA9061C0F090618A7401022FECF0120C
:102B44002B4722E8240108E93400F9C3E822C082B3
:102B5400C0838A828B83E0906016122F1DA3E090BD
:102B64006017122B90906018122B99906019122BF9
:102B74009E90601A122BA390601BF0E99060157070
:102B840005E0C2E08003E0D2E0022FF0F08A828BFD
:102B940083A3A3E022122BAEE022122BA9E022127F
:102BA4002BA9A3E022122BAEA322F08A828B83A34B
:102BB400A3A32274F0120A9FEA906005F0EBA3F03D
:102BC400ECA3F07F08020B71C082C083740169908A
:102BD40060037005E0D2E08003E0C2E0022FF0C0A1
:102BE40082C083906003E054F949022FF0C082C090
:102BF40083EA90600AF0EB5401022FEFC082C08395
:102C0400E990600C7005E0C2E08003E0D2E0022F9E
:102C1400F0C082C083E990600C7005E0C2E18003DB
:102C2400E0D2E1022FF0C082C083906061E0022C08
:102C34006774F0120A9F9061947420F0EAA3122F33
:102C44007C022BC5C082C08390033BE4F0906022D9
:102C5400F0A3F0A37830F0A3D8FC022FF1F07F02A8
:102C6400020B71F9022FF174F4120A9FEAFEEBFFD2
:102C740089088C0990033BE0640870047903807C24
:102C84001204AFE9F470687900750A01750B00E964
:102C9400780A120A1CAC0A906022E05C7055E04C81
:102CA400122D05FA74603BFB78068E828F83122FF7
:102CB400488E828F83A3AE82AF838A828B83A3AA3A
:102CC40082AB8318E870E3E508700AECF4F89060CE
:102CD40023E0588005906023E04CF090033BE0042F
:102CE400F074016509700512046780031204737996
:102CF40000800909E9C39408408F79017F04020B1D
:102D040071F0E975F006A4FAABF074242A22C082AB
:102D1400C083E99060147005E0C2E28003E0D2E26F
:102D2400022FF074F6120A9F750801750900E978FC
:102D340008120A1C906009E04508022C6174F7121D
:102D44000A9F1204AF74FF69600712046779008058
:102D54000279057F01020B7174F6120A9F7508014E
:102D6400750900E97808120A1CE508F4F89060096E
:102D7400E058022C61C082C083906009E4022FF005
:102D840074F2120A9F74FA120A2F7A007B60E970B7
:102D9400027A33906009E0F8906022E0F50BA3E03A
:102DA400F99061C07401F0E88A828B83F0A3E50B8B
:102DB400F0A3E9F0A3AA82AB839061C0E4F0F50A22
:102DC400750C01750D00E50A780C120A1CE50C550A
:102DD4000B6056750900E50A75F006A4F8A9F0859C
:102DE4000982AC82742428FE746039FFEE2CF582CB
:102DF400EF122F12C0E0122EEED0E0122F2340DF8C
:102E04009061C07401F0750900122F00C0E0E82C35
:102E1400FCE93400FDEA2CF582EB3DF583D0E012A9
:102E24002F2340E59061C0E4F0050AE50AC3940845
:102E3400408E7406120A457F06020B7174F2120A60
:102E44009F74FA120A2F7A007B60E970027A3312B7
:102E54002F18E0F8A3E0F50BA3E0F9A3AA82AB8353
:102E64009061C0E4F0E8906009F0E50B906022F016
:102E7400E9A3F0750A00750C01750D00E50A780CDC
:102E8400120A1CE50C550B60559061C07401F07575
:102E94000900E50A75F006A4F8A9F0850982AC8258
:102EA400EA28FEEB39FFEE2CF582EF122F12C0E078
:102EB400122EEED0E0122F2340E19061C0E4F0F531
:102EC40009122F00C0E0E82CFCE93400FD74242C26
:102ED400F58274603DF583D0E0122F2340E3050AA8
:102EE400E50AC39408408F022E368518828519831B
:102EF400E5822CF582E5833400F58322850982ACD2
:102F040082851882851983E5822CF582E583340055
:102F1400F583E0229061C07401F08A828B8322F0F1
:102F24000509E509C3940622C082C0837A007B6048
:102F3400E970027A33122F18E4F0A3F0A3F0906141
:102F4400C0022FF0122F4C22122FF8F022C082C0A0
:102F540083E9906002022FF0C082C083E99060028E
:102F64007005E0D2E38003E0C2E3022FF0C082C028
:102F740083E99061C6022FF0F0EBA3F0ECA3F0ED2F
:102F840022C082C083E9601714601C14601E1460A0
:102F94002314602514602A14603314603C8041902B
:102FA40061E9E054FC80389061E9801C9061E9E0BB
:102FB400C2E0802B9061E9801B9061E9E0C2E1806E
:102FC4001E9061E9E0C2E1F0E0D2E080129061E994
:102FD400E0C2E0F0E0D2E180069061E9E04403F071
:102FE400800B75E182020132F0A3F0A3F0D083D00C
:102FF40082020132E08A828B832274F5120A9F894D
:103004000A7900750801750900E97808120A1C900C
:103014006022E055086052E975F006A4FCADF07436
:10302400242CFC74603DFD750800850882AE82EC9A
:103034002EF582ED122F12F8EA2EF582EB122F12E2
:103044006870090508E508C3940640DE740665083F
:103054007017906023E0F508750900E978081209F3
:10306400FDE5085401650A600909E9C39408409321
:1030740079FF7F03020B71C082C083906190740456
:10308400F0A37448F0A3E4F09061807440F0906180
:10309400BC7407F09061877469F09061B67416F09F
:1030A40079001202FF7902120305901410E493F4DC
:1030B4006006E493F91202DB79051204A30232B923
:1030C400C082C083E9540FF9906185E0696012E51C
:1030D400C654804449F5C6E59E547F644970F8E9B6
:1030E400F053C680E59E547F70FA0232B974F71229
:1030F4000A9FE5A8FE53A87E1202E7C2BA539AFEBD
:10310400C289759B00C2C21202ED75A91175B90579
:103114001202F3D2BA439A0174805E42A87F01027C
:103124000B71C082C083906181E4F0A30232B67552
:10313400E90075910075BF00020132C082C083901E
:103144006181E4F0A374C0F0A3E40232B8C082C089
:103154008374F8120A2F9002C412360EE8497003E1
:1031640002321D9002C4E05440602379088518821D
:10317400851983AA82AB8312033585188285198346
:10318400AA82AB8312027B9002C4E054BFF0E0A297
:10319400E0500F79001202FF1202819002C4E05441
:1031A400FEF0E05402600F79011202FF12028190D6
:1031B40002C4E054FDF0E05404600F7900120305EA
:1031C4001202879002C4E054FBF0E05408600F79C7
:1031D400011203051202879002C4E054F7F0E05490
:1031E40010600F79021203051202879002C4E054A2
:1031F400EFF0E05420600F79031203051202879068
:1032040002C4E054DFF0A3E05401600D1203111274
:10321400028D9002C5E054FEF07408120A45023291
:10322400B9C082C083E9600514602A804F90619A16
:103234007433F0A37455F09061A0743AF09002F3E3
:10324400E064017009C2919002C67467802D9002F7
:10325400C67461802690619A743FF0A3745AF0900A
:1032640061A0747FF09002F3E064017009D2919040
:1032740002C6747180059002C6746AF08037C082F9
:10328400C083E9600B14600D14601714600C802077
:10329400901414801590141580109002F3E06401CA
:1032A40070059014168003901417E493906186F0CF
:1032B4008003F0A3F0D083D08202013274EE120AAC
:1032C4009F74F4120A2F851882851983AC82AD830A
:1032D40075838E758235740412098390141493F4E3
:1032E40060030233EA907808E0C394025003023387
:1032F400CA7404120A7BAC82AD8375838E758227EF
:103304007408120983FC7EFF7FFF8E0C7D008C8283
:1033140085820E800F74086D606D74096D60687429
:103324000A6D60638D0875090074027808120A1C1E
:103334001233F4120928A909E50AC9F88810741887
:10334400780812087CE5104508FAE9FBE50EC3335A
:10335400F8E433F97404120A7BE58228F582E583E4
:103364003912360CC3E89AE99B4008E8C39AF8E995
:103374009B8006EAC398F8EB99F9C3E89EE99F504D
:1033840006E8FEE9FF8D0C0DEDC39413408774FF2E
:103394006E700374FF6F6024850C08740278081241
:1033A4000A1C1233F4120928851882851983E582D0
:1033B400250EF582E583123618E508F00CECC3946B
:1033C40004500302330A7508017509007808120CC9
:1033D400B27402120A7BAC82AD837A057B051206B5
:1033E4000B7402120A45740C120A457F0A020B710F
:1033F40074482508F58274783509F583780822C065
:1034040082C083906186E0F8901417E49368700991
:10341400901416E493906186F09061AE7468F0A302
:10342400746AF090624574FBF0A304F053F4FD4316
:10343400FE029002F37401F09061A0E0643A70041B
:103444007900800279011202FF0232B91236249403
:103454000622E0C4333354C022C082C0839002EEFB
:103464007425F09002EC7401F0A3E4F07A01FB12ED
:1034740004371234A92416F582E81236187423F09E
:10348400A37403F09002EBE0640170169002EAE08A
:103494007010790112047F12045512047979001214
:1034A400048B0232B99002DAE0F8A3E0C82274F681
:1034B400120A9F74FA120A2F9002E3E06401700862
:1034C4001203179002E3E4F075E1F11234A9241514
:1034D400F582E81236187401F09002E5E064017098
:1034E40053908E2FC082851882851983AC82AD8358
:1034F40075838ED082740612098375D90D9002DC0F
:103504001234564403F5D97800880874DD12366203
:10351400740212345040F2780088088518828519A4
:1035240083E582123662E58312345040EC75E195EE
:1035340079018002790012043D9004D71235B174E8
:103544004DF0A37403F0A31235B11235B11235BA9C
:103554007453F0A374031235CF9002DCE0F97ADDE2
:103564007B0212041F9002EEE0F912136A79011231
:103574000443908E3D12094612044F908E61120945
:103584004612042579001204979002DA1235A61225
:1035940036187416F09002C27405F004120A45023B
:1035A4003630E0F8A3E0C82414F582E8227447F02A
:1035B400A37403F0A3221235BE227441F0A3740352
:1035C400F0A37441F0A37403F0A3221235D322F0C4
:1035D4009004E51235DFA31235DF221235BE7441A3
:1035E400F0A37403F022C082C0839002DA12360280
:1035F400F0A3F09002EEE0F912136A0232B9123429
:10360400AC240612361CE422F58312361222E0F8AA
:10361400A3E0F92212361F22F582E83400F5832252
:103624003400F583E0F5D908E8C322F07F02020BE9
:1036340071123639223400F583E4F02274F6120A4A
:103644009F7800880874CA123662740212363508EC
:10365400E8C3940840ED9002CA740102362F25088D
:10366400F5822274F4120A9F74FC120A2F7F0090D0
:103674000482E4F090047FF07E7D750804750900EF
:103684007808120CB27402120A957A007B00EEF9E3
:103694001206057402120A45908E697808120928E8
:1036A4008518828519837808120713701990047F8E
:1036B400E0600FF91206CBEEF91206CB90047FE41A
:1036C4008001EEF0801885188285198312095EE85E
:1036D400494A4B7004EEFF8005EEF91206CB0EEE5C
:1036E400C3947F409590047FE07026EF7018797D35
:1036F4001206BF9004807404F0A3E4F0900482E006
:10370400601979008017F01206D1EFF91206DD80F6
:103714000AEF6004F91206C51206D179010237B71F
:1037240074F7120A9F74FC120A2FE9FE8518828529
:103734001983E4F0A3F0A37410F0A3E4F0AC18AD83
:1037440019FAFB1206E9900482E07005EE90047FFA
:10375400F07404120A457F01020B7174F4120A9F7B
:1037640074FF120A2F8908900482E0703212061145
:103774007E007F00750A01750B00780A120CB27482
:1037840002120A95EEFAEFFBA9081206057402125A
:103794000A45851882851983E0F4600890048274D0
:1037A40001F0800B0EEE70010FC3EF940840C57456
:1037B4000180027404120A457F04020B7174F4122E
:1037C4000A9F74FF120A2F89087E007F00750A0180
:1037D400750B00780A120CB27402120A95EEFAEF15
:1037E400FBA9081206057402120A45851882851978
:1037F40083E0F46007A9081206C5800B0EEE700181
:103804000FC3EF940840C680A674F4120A9F74FC98
:10381400120A2F7EFC7F07750804750900780812C8
:103824000CB27402120A95EEFAEFFB90047FE0F9F1
:103834001206057402120A45908E9578081209281A
:103844008518828519837808120713700AEE24FC00
:10385400FEEF1238EC50C0123BBAE8F0A3E9F002D4
:1038640037B774F4120A9F74FC120A2F8908EAFE0F
:10387400EBFF8C09EE24FCFEEF1238EC4063750A72
:1038840004750B00780A120CB27402120A95EEFA4F
:10389400EFFBA9081206057402120A457402120A03
:1038A4007B123AA785188285198385090AE0650A7F
:1038B4007002A3E0700AEEC398FAEF9400FB80252F
:1038C400E9548070AFE82404FAE439FBC3EE9AEFBC
:1038D4009B400EEEC398F8EF99F9E824FCFEE980CA
:1038E400987A007B000237B734FFFFC3EE9404EFED
:1038F40094002274F0120A9F74F3120A2FE98518B7
:1039040082851983F0750FFF647D7005750E7E80C6
:1039140003750E7D750A04750B00900480E024FC89
:10392400FEA3E0023A207403120A7BA3E0548060F1
:1039340003023A0F7403120A7B850F08E0650870CE
:1039440002A3E07003023A0F7403120A7BE0F50F3E
:10395400FCAA0AAB0BA90E1206D78B09EA4509602B
:1039640003023A0F7405120A7B123AADF508EF9977
:10397400F5097407120A7BE8F0A3E9F07401120A4E
:103984007BE4F0A3F0750C04750D00780C120CB2F6
:10399400740B120A957403120A7BE02508FAA3E05B
:1039A4003509FB90047FE0F91206057402120A45FA
:1039B4007409120A957401120A7BE0250AFAA3E03D
:1039C400350BFBA90E1206E97401120A7BE02404EC
:1039D400F0A3E03400F07407120A7BC082C0837441
:1039E40001120A7B123AA7D083D082C3E098A3E0E5
:1039F4009950927405120A7BE02404F8A3E0340081
:103A0400F9E50A28F50AE50B39F50B7405120A7B6A
:103A1400123AADF8EF99F9E824FCFEE91238EC40CB
:103A24005D900482E07077750804750900780812C7
:103A34000CB27405120A95EEFAEFFB7402120A7BBB
:103A4400E0F91206057402120A457403120A7BE0B7
:103A5400F47003A3E0F4600302392A7405120A7BAC
:103A6400123AA754806007EE24FCFEEF80AEE824EF
:103A740004F8500109C3EE98EF99508F8020A90EE5
:103A84001206BF900482E0700A900480E50AF0A355
:103A9400E50BF0851882851983E0F91206C5740DCB
:103AA400023BB2E0F8A3E0F922123AA7EEC398224F
:103AB40074F1120A9F74FC120A2F890E8A088B096A
:103AC4008C0C8D0D7413120A7BE0FE8015E508241E
:103AD40004F508E43509F509E50C2404F50C500255
:103AE400050DEEFF74FF2F1E04603D750A04750B6F
:103AF40000780A120CB27402120A95AA08AB09A93A
:103B04000E1206057402120A45780A120CB2AC0CA5
:103B1400AD0D7402120A8D1204CD7402120A45E925
:103B240070AB9004827401F07404120A457F07029A
:103B34000B7174F0120A9F890AEAFEEBFF8C0E8D5A
:103B44000F900482E0704D75080175090078081221
:103B54000CB28E088F0974027808120A0D890CF5CC
:103B64000D7409780C120A1CE5082400FAE50935DD
:103B74000DFB12060B7402120A457508017808122F
:103B84000CB6AC0EAD0FEEFAEFFBA90A1206E37405
:103B940001120A45023BB5C082C0831206B9E9701E
:103BA40004790180027900D083D082020132120AA2
:103BB400457F08020B71EE2404F8E43FF990048079
:103BC40022C082C0839002A774FFF0A3F0A3F0A3E5
:103BD400F0A3F0A3749FF0A3E4F0A37420F0900288
:103BE400A614F0D083D0820201327F02020B717FCF
:103BF4000A020B7174EE120A9F8A088B09890B8CD6
:103C04000E8D0F90033EE07009900340E0700302B4
:103C14003CC49002A4E06003023CC4898285820C07
:103C2400750D00E92407FAE43400FB1204D98A1064
:103C34008B11AE10AF11EE4F7003023CD5741865B2
:103C440008700474206509600C74176508700474A6
:103C54002065097010900340E0600AF50A8E828F97
:103C6400837492800C90033EE0F50A8E828F8374F5
:103C740091F0A3740E123CF78E828F83A3A3F08E6F
:103C8400828F83124108EE2405F8EF3400F9E8FA34
:103C9400E9FBEE2407F8EF123E6DF0780C120CB23B
:103CA400AC0EAD0F8A828B83E0FAA3E0FB1204C74B
:103CB4007402120A45EEFAEFFBA90A1204E5801118
:103CC400780E120CB2AC0B790E1202A57402120A11
:103CD40045023BF374F6120A9FE9FE8C088D0978BD
:103CE40008120CB2EEFC79FF1202A57402120A4506
:103CF400023BEEF09002A5E02274F2120A9F8909B9
:103D04008A0A8B0B8C0874072508FA74FF6509600E
:103D140004780380027802E82AFA7B001204D98A24
:103D24000C8B0DAE0CAF0DEE4F7003023E1F8E8256
:103D34008F837401F0A374FFF0EE2402FAEF3400D1
:103D4400FBEE2404F8EF123E5DE509123E53E02435
:103D540002F8A3E03400F9890DA90B740E120A7B52
:103D64001240C874FF65096032740325088882858F
:103D74000D83123CF7C0E0123E24D0E0123E4CE525
:103D84000A123E4CA3E9F085080A750B00780A1262
:103D94000CB28A828B83E02406806674022508882C
:103DA40082850D83F08C828D83E0C0E0123E24D0A6
:103DB400E0F08C828D83A3E0C0E0123E38D0E0F0C6
:103DC4008C828D83A3A3E0C0E0123E38A3D0E0121E
:103DD4003E472406123E3D123E47124118E9F08543
:103DE400080AE50A24FDF50AE434FFF50B780A1203
:103DF4000CB2EC2403FCED3400FD8A828B83E024B6
:103E040008FAA3E03400FB1204C77402120A45EE58
:103E1400FAEFFB90033CE0F91204E57F06020B7114
:103E2400123E28228A828B83E0F8A3E0F5838882FD
:103E3400A3A3A322123E28A322F582E83400F5832B
:103E4400E50A22123E79C822123E86A3A3A32212B7
:103E54003E5722F08A828B8322123E6D123E79F500
:103E64008388827404123E86223400F98A828B830A
:103E7400E8F0A3E922123E7D22F08A828B8312406D
:103E8400FE22123E7DF5838882A32274E8120A9FE3
:103E940089148A118C168D178B0D8B82AE8274183F
:103EA400120A7B1240FEF97418120A7BE8F0A3E9A7
:103EB400F0741A120A7BE0F51090033EE0700302DE
:103EC4003F997A2F7B001204D98A0A8B0BEA450B9F
:103ED40070030240951240D77402F0EA2403F50EF1
:103EE400EB3400F50F850E82F5837401F0EA2406A5
:103EF400F508EB3400F509124103750C00807B854D
:103F04000882850983E514F0A3E511F0751206759E
:103F140013007812120CB2AC16AD17E5082402FA9D
:103F2400E5093400FB1204C77402120A45850882AD
:103F3400850983A3A3A3A3A3A3A3A3EEF08E12785E
:103F440012120CB2741A120A7B1240C8E508240932
:103F5400FAE5093400FB1204C77402120A45E508A5
:103F64002428F582E50912411DE510F0050CE50849
:103F74002429F508E5093400F509850E82850F83A7
:103F8400E0F8E50CC3985003023F03AA0AAB0B9078
:103F9400033E0240909002AEE0A2E5400302409549
:103FA4009002A6E0A2E14003024095740C250DF5B1
:103FB4000C7407250CFA7B001204D98A0A8B0BEACD
:103FC400450B70030240951240EBF508EB3400F505
:103FD400091240CE850882850983E8F0A3E91240DE
:103FE4009A740412409AA3743E1240B5E50C124030
:103FF400B5A374021240C274011240C2A3E51412A4
:1040040040A1124113240612411AE511F0750E065F
:10401400750F00780E120CB2AC16AD1785088285A8
:104024000983E02407FAA3E03400FB1204C77402F6
:10403400120A45850882850983124113240D124111
:104044001AEEF08E0E780E120CB2741A120A7B124B
:1040540040C8850882850983E0240EFAA3E0340071
:10406400FB1204C77402120A45A80D85088285094B
:1040740083E028F8A3E03400F9E8240EF582E9127D
:10408400411DE510F0AA0AAB0B90033CE0F91204C1
:10409400E57F10020B711240A11240A922F085089D
:1040A40082850983221240AD221240FEF583888264
:1040B400221240B9221240A11240ADA3A322124001
:1040C400B9A3A322E0FCA3E0FD22EA2404F8EB3424
:1040D40000F9228A828B8374911240E122F0A37446
:1040E4003E123E57A3A3221240EF228A828B83748E
:1040F40001F0A374FFF0EA240222E0F8A3E0228A8C
:10410400828B83A3A3A3A3E508F0A3E509F02212FD
:1041140040FEC8222407F582E83400F5832274F5B2
:10412400120A9F89088A09EA602F14602C14600A15
:1041340024FE601B24FC6021800B7CE87D037B054E
:104144007A0112064790040DE0F97F03020B717C9B
:10415400E87D037B057A0A80E9750A0153080F7E1E
:10416400107F04801CE06401F0E0FAA90A120653EF
:10417400E50A6208E50AC333F50AEE2409FE500194
:104184000FE50860C0550A60EB740865098E828FDC
:104194008360D2E50980D174F2120A9F89088A0BE0
:1041A4008B0A8C0C8D0DE9700302426AEB700302DA
:1041B400426AEC450D700302426AEBC39464400307
:1041C40002426675090153080F7E107F04807555FD
:1041D4000960648E828F83E0C39402500D90040DB5
:1041E400E05509F890040FE048F08E828F83E4F0E4
:1041F400A3A3A3E50CF0A3E50DF08E828F83A3A304
:10420400E50AF08E828F83A3E50BF070078E828F10
:10421400837404F012059FEAF8EBF9ECFAEDFB8ED7
:10422400828F83A3A3A3A3A312096A8E828F83E040
:10423400D2E1F0E5096208E509C333F509EE240982
:10424400FE50010FE50870877A207B00900407E098
:10425400F912058D7A207B00900407E0F912050914
:1042640080097A0180027A001206417F06020B71EE
:1042740074F0120A9F74F3120A2F7405120A7BE475
:10428400F0A3F085188285198304F07403120A7B65
:10429400740FF07401120A7B7410F0A37404F0908C
:1042A4000434E060030244EC851882851983E0F845
:1042B4007403120A7BE05870030244937401120AD7
:1042C4007B12451F400302448312059F7409120A9E
:1042D4007B1209527401120A7BE02405F8A3E0342E
:1042E40000F97407120A7BE8F0A3E9F07407120AD4
:1042F4007B1245091209287409120A7B78081207EF
:104304004D500302444B7401120A7BE02401F8A3CC
:10431400E03400F9E8FEE9FF7401120A7B18124444
:10432400FDA2E050437401120A7B1244F6F874644F
:10433400C398C0E07404120A7BD0E0F07401120A3E
:104344007B124511C2E0F07A00851882851983E05A
:10435400F91206537401120A7B124511A2E240526B
:104364008E828F83E014801D8E828F83E070197497
:1043740001120A7B1244FDA2E2400D7401120A7B71
:104384001244FD6402F0802A7401120A7B1244F67E
:10439400C0E07404120A7BD0E0F07401120A7B12AC
:1043A4004511D2E0F07A01851882851983E0F9126B
:1043B40006537401120A7B12451F50567404120AE4
:1043C4007BE0F50CE4F50DF50EF50F04120A7B12F3
:1043D4004502A3A3A3124525780C790812077C9003
:1043E4008E757808120928780C79081207FCAE0C2F
:1043F400AF0D7409120A7B8E088F09E4F50AF50BD8
:1044040078081208C77407120A7B12450912093783
:10441400804A7E007F00851882851983E0F8900425
:104424000FE05860047A0180027A008518828519A9
:1044340083E0F9120641851882851983E0F4F89027
:10444400040FE058F080157409120A7B780C1209E5
:1044540028E508C3950CFEE509950DFF7405120ABD
:104464007BE0F8A3E0F9E849600BEE4F6011C3EE7E
:1044740098EF99500A7405120A7BEEF0A3EFF085C9
:104484001882851983E0F87403120A7BE068F085CA
:104494001882851983E0C333F07401120A7BE02487
:1044A40009F8A3E03400F97401120A7BE8F0A3E9E7
:1044B400F07403120A7BE060030242AC7405120A32
:1044C4007BE0F8A3E0F9E849601E7405120A7B1248
:1044D40045257808120CAE7A207B00900407E0F999
:1044E4001205817404120A45740D120A457F0802EC
:1044F4000B71124502A3A3E022124502E022A3E0BD
:10450400F583888222E0F8124502780822124515C4
:1045140022E0F8A3E0F5838882E022124515A2E1A7
:1045240022E0F508A3E0F509E4F50AF50B22C082C0
:10453400C083E9A2E0500B74016A7004D290800237
:10454400C290E9A2E1500B74016A7004D291800216
:10455400C291E9A2E2500B74016A7004D294800201
:10456400C294E9A2E3500B74016A7004D2908005EE
:10457400C290EA600790040DE049800974FF69F86D
:1045840090040DE0588004900434E4F0D083D08289
:10459400020132C082C0839004347401F0E590FBC0
:1045A400E590F8E590F9E590FAE8A2E15004D2F03C
:1045B4008002C2F0E9A2E45004D2F18002C2F1EA1E
:1045C400A2E0E433333333FAA2F1E4333333F9A210
:1045D400F0E43333F8EBA2E0E43348494A90040EA4
:1045E400F07A00790F12065380A2C082C0837A0148
:1045F40090040EE0F912065312064D02458B74F432
:10460400120A9F907803E0644270559002F8E01417
:10461400F0704DC2AF12461C00781ED0E0F618D0E0
:10462400E0F6E59F540770057509FF800375097F5F
:10463400C4C0E0781DE6F50808E65509F509740BD1
:104644007808120A0DD0E02508F8906270E0A2E71D
:1046540040F8E8C333906272F0906270E0D2E0F008
:104664007902120395E964017022E5A1A2E55008DC
:1046740075A1DF12034D80179002C3E07004790125
:104684008002790012035912473DE4F01203717F4E
:1046940004020B7174F4120A9F7902120395E964FF
:1046A40001600302473279011203599002EEE0647B
:1046B40027700474258002E004F09002DAE02402FA
:1046C400F8A3E03400F9E8FAE9FB9002E6E0F50823
:1046D400A3E0F509E4F50AF50B8A828B83780812C6
:1046E40008DA1247382406124747E4F0A3F0900290
:1046F400E8E0F508A3E0F50989838A8278081208BE
:10470400C7124738240E1247477808120937124750
:104714003824141247477416F012473824161247E7
:10472400477423F0A37403F012473D7401F012039D
:1047340071024693124A8CC822124A8CC82415125C
:10474400474722F582E83400F58322C082C08353B0
:10475400BFEF7902120395E96401700C7ADA7B02E7
:104764001203899002E4E4F075E1F1120371D0833D
:10477400D08202013274F6120A9F74FC120A2FE9E5
:10478400FE9061C8E070030249597401120A7B85E6
:1047940082088583097808120CB27508FF7509022E
:1047A4007808120CB27406120A7B85820885830984
:1047B4007808120CB27508F97509027808120CB25F
:1047C4007408120A7BAC82AD83740B120A7BAA8232
:1047D400AB8312035F7408120A459002EBE0640194
:1047E400702E9002EAE0F870137C01851882851916
:1047F40083E0F97AF97B0212045B80147401687017
:104804000F851882851983E0F97AF97B0212046D09
:104814007401120A7BE0F5087808120CB67508FFDB
:104824007509027808120CB27405120A7B124963E6
:10483400120A7BE0FA7406120A7BE0F91202AB74E6
:1048440003120A451204A99061C8E0700302495991
:1048540074016E600302491C7401120A7B8582088C
:104864008583097808120CB27508FF750902780867
:10487400120CB27406120A7B8582088583097808B3
:10488400120CB27508F97509027808120CB2740892
:10489400120A7BAC82AD83740B120A7BAA82AB83AF
:1048A40012035F7408120A457401120A7BE0F508CA
:1048B4007808120CB67508FF7509027808120CB254
:1048C4007405120A7B124963120A7BE0FA74061219
:1048D4000A7BE0F91202AB7403120A459002F0E479
:1048E400F09002EFE004F0640270259002EC124AAA
:1048F4008FC313F9E813F89002ECF0A3E9F0E84948
:1049040070099002EC7401F0A3E4F09002EFE4F07B
:104914001203651204A9803D75E1819002EFE4F071
:10492400A3E004F06402702A9002EC124A86C333B6
:10493400F8E933F99002ECE8F0A3E9F0C3E8940154
:10494400E9940140089002ECE4F0A304F09002F032
:10495400E4F01203657404120A457F02020B71E04D
:10496400FB7CF97D0274032274F6120A9F74FE1212
:104974000A2FE5D924F9FE740E120A7B124A8FF924
:10498400EE88828983F0E5D9FF740F5F60101460AC
:104994001414602124FE602D24FE6021802F8A825D
:1049A4008B83E4802E8A828B837401F088828983CE
:1049B400E024FA801E8A828B83740380168A828B99
:1049C400837402800E8A828B83740480068A828BAD
:1049D4008374FFF0EFA2E6E4338C828D83F0740CD1
:1049E400120A7B124A8649700A7806E5D918E860EB
:1049F4001580F87A00E5D9C0E0124A7AD0E0F00ACE
:104A0400EAC3940640EF7410120A7B124A86497A6C
:104A1400007015EAC39E5015E5D90A80F6E5D9C0A1
:104A2400E0124A7AD0E0F00AEAC39E40F0E5D98564
:104A34001882851983F0E5D9C0E07401120A7BD08D
:104A4400E0F07412120A7B124A8FF98518828519D4
:104A540083E06480700888828983747F8012900266
:104A6400C6E0FA851882851983E0C39A888289830F
:104A7400F0740202495B8A08E82508F582E91247C6
:104A84004A22124A8FF9E8229002DAE0F8A3E022DF
:104A940074F6120A9F9002ECE064017002A3E070C5
:104AA400067A017B00801A12032FE9F8790090023C
:104AB400ECE0FAA3E0FB1209A4EA24010AEB3400B7
:104AC400FB12043702495E74F7120A9F7409120A32
:104AD4007B124D80801C8C828D83E08A828B83F0D4
:104AE4008C828D83A3AC82AD838A828B83A3AA82BA
:104AF400AB83E8FEE9FFEE24FF18EF34FFF9EE4F35
:104B040070D4024D4074F5120A9FECF8EDF9740B61
:104B1400120A7BE0F508A3E0F509AC08AD09EC2422
:104B2400FFF508ED34FFF509EC4D602CEAFCEBFDD4
:104B34008C828D83A3AA82AB83E8FEE9FF8E828FE9
:104B440083A3A882A9838C828D83E0FC8E828F83C9
:104B5400E06C60C67900800279017F03020B7174F6
:104B6400F6120A9FE9FE8C088D097808120CB28EA1
:104B740008AC087D001206F57402120A45024D4580
:104B840074F6120A9FEAFEEBFFEE4F603DEE240539
:104B9400FAE43FFB12053F8A088B09A808A909E833
:104BA40049602788828983E4F0A3F088828983A3FB
:104BB400A3EEF0A3EFF088828983A3A3A3A374FFD9
:104BC400F0E82405FAE439FB80047A007B00024D06
:104BD40045C082C083EA4B700479058016124C6785
:104BE40060047904800DEA24FBFAEB34FFFB120520
:104BF400457900D083D08202013274F7120A9F7C77
:104C040000024D3D74F7120A9FE9FEECFFEA4B6087
:104C140021908E99E0F8EEC39840071204DF7903DF
:104C2400803E124DF5124D4A7005124C6760071212
:104C340004DF7905802AEEF074016F700DEAFCEB55
:104C4400FD7A427B031204FD800BEAFCEBFD7A4201
:104C54007B031204F77A007B80EEF91205097900D0
:104C6400024D40EA24FFF582EB34FFF583E0F422A1
:104C740074F4120A9F8908750A00750B007E007F80
:104C840000A2AFE433F509C2AF9003428011EE4FA6
:104C94007004880A890BE824FBF582E9124DFB12A3
:104CA4004D4A6023E824FFF582E9124DFBE06508D4
:104CB40070DCEE4F7006E8FEE9FF80DA7A007B8054
:104CC400A908120509800D7A007B80A90812050F36
:104CD400EE4F6015780A120CB2EEFCEFFD7A427BBF
:104CE400031205037402120A45E509A2E092AFEE2D
:104CF400FAEFFB7F04020B71E0FAA3E0FB2274F7E6
:104D0400120A9FEAFEEBFFA2AFE433FAC2AFEC242F
:104D1400FBF582ED124DFBE4F0A3F08003124E008C
:104D24008E828F83124D4A70F48E828F83ECF0A3AF
:104D3400EDF0EAA2E092AF80031204EB7F01020BD4
:104D4400717F02020B71124D80E8492274F7120A36
:104D54009FE5A8FEC2AF8A828B83124D80EC24FBB0
:104D6400F582ED124DFBE8F0A3E9F08A828B83EC27
:104D7400F0A3EDF0EEA2E7A2E7024D39E0F8A3E0DC
:104D8400F92274F4120A9FA2AFE433FEC2AFEC24FA
:104D9400FBF8ED34FFF9880889098882F583124D00
:104DA400808A828B83E0F50AA3E0F50BEC650A7038
:104DB40003ED650B70068A828B838012740C120AD1
:104DC4007BE0FAA3E0CA24FBF582EA124DFBE8F08B
:104DD400A3E9F0850882850983E4F0A3F0EC24FFBD
:104DE400F582ED124DFB74FFF0EEA2E092AF024C9F
:104DF400F7EA24FBF582EB34FFF58322E824FBF881
:104E0400E934FFF9E8FEE9FF2274F7120A9FE9FD8D
:104E1400908E99E0F8EDC398502AE5A8FEC2AFED54
:104E240029F8E433F9900356E028FCA3E0398C8296
:104E3400F583E04AF0A3E04BF0EEA2E7A2E792AFDD
:104E4400790080027903024D4074F7120A9FE9FE4B
:104E5400908E99E0F8EEC3985022E5A8FFC2AFEA1D
:104E6400F4FCEBF4FDEE29124F6CE05CF0A3E05D82
:104E7400F0EFA2E7A2E792AF790080027903024D36
:104E840040E9F874FF687006C2AF790080027907C0
:104E9400020132C082C083120533900342E4F0A3BE
:104EA400F012056912054B120563120539790002E7
:104EB4004BF7C082C08312052780FB74F4120A9F4B
:104EC40075080012052D1205FFA808E828124F6C7A
:104ED400124D4A700D0508908E99E0F8E508C398C4
:104EE40040E7908E99E0F8E508C398506CE5A8FC7B
:104EF400C2AFAE08EE2EFEE433FF900356E02EF868
:104F0400A3E03FF988828983124CFC88828983E478
:104F1400F0A3F0ECA2E7A2E792AFE5089004F1F069
:104F2400F974192EF582748E3FF583124F63120AB9
:104F34009D9004F174FFF0E5A8F9C2AF900356E028
:104F44002EF8A3E03F8882F583E04AF0A3E04BF01B
:104F5400E9A2E7A2E792AF800312055D024CF7E0F5
:104F6400F8A3E0F583888222F8E433F9900356E04D
:104F740028FAA3E0398A82F5832274F7120A9F90F3
:104F8400035A124F8FF07F01020B71E4F0A3F0A3D8
:104F9400F0A32274F1120A9F890EEAFEEBFF1205B8
:104FA40075740F120A7B7808120928EA4B600D8A7F
:104FB400828B83A3A37808120937806A7A0D7B0059
:104FC40012053FEA4B605B8A828B83A3A3A3A3A34E
:104FD400A3A3A3E50E12502FEEF0A3EFF08A828B69
:104FE40083A3A378081209378A828B83E4F0A3127F
:104FF400502FA3A3A3124F90F0900358125348903C
:1050040003586017E0FCA3E08003E8FCE9FD8C8210
:105014008D8312534870F38C828D83EAF0A3EBF0F6
:1050240080047A007B007F07020B71F08A828B83F5
:10503400A3A3A3A3A3A322C082C083900358800484
:105044008C828D83E0FCA3E0FDEC4D60238C828D8B
:1050540083A3A3A3A3A3A3E06A7003A3E06B70E0FC
:105064008C828D83A3A3A3A3A3A3A3A3E06970D07D
:10507400ECFAEDFB025149C082C083EA4B600E8A10
:10508400828B83A3A3A3A3A3A3E4F0A3F0025149B7
:1050940074F6120A9FE5A8FFC2AF740A120A7B12C3
:1050A4000CC512056F7404120A458B09A909EFA2F5
:1050B400E7A2E792AFEA4960047900800279087FA9
:1050C40002020B7174F2120A9FA2AFE433FEC2AF64
:1050D400740E120A7B78081209287808120CAE1292
:1050E400056F7404120A45EA4B60128A828B83A30B
:1050F400A3A3A3A3A3A3A3A37808120937EEA2E052
:1051040092AFEA4B60047900800279087F06020BB3
:105114007174F4120A9FA2AFE433F509C2AF120509
:10512400758A0A8B0BAE0AAF0BEE4F600312057B38
:10513400E509A2E092AFEE4F60047900800279069F
:105144007F04020B71D083D08202013274F0120A00
:105154009F74F9120A2F8A088B098C0A8D0B740329
:10516400120A7B7808120937E5A8F9C2AF90035AEE
:1051740078081208DAE9A2E7A2E792AF900358127E
:1051840053487003025338900358E0FEA3E0FF74C1
:1051940001120A7BE4F0A3F0750C00750D00A2AFB8
:1051A400E433851882851983F0C2AFEE2402F50E2C
:1051B400E43FF50F7405120A7B12534870257404FA
:1051C400120A7BE0701D7403120A7BE0F88E828F52
:1051D40083A3A3E0C398400B8E828F83A3A3E0C371
:1051E400988037850E82850F837808120928740306
:1051F400120A7B780812074D50177403120A7B7841
:1052040008120928850E82850F8378081209018007
:105214000A850E82850F83124F8FF0EE2404F50A5F
:10522400E43FF50B1253427054850A82850B8312B6
:105234005348704EEE2409F508E43FF509850882C9
:10524400F58312095EE8494A4B604F8E828F83A32F
:10525400A3A3A3A3A31253B760408E828F83A3A3F7
:10526400A3A3A3A3A3A3E0F91205098508828509D2
:105274008312095E850E82850F8312096A125342D6
:10528400700B850A82850B83125348600D8E828FC2
:1052940083A3A3A3A3125346702E8E828F83E0F8B8
:1052A400A3E0F97401120A7B1253B77005900358F6
:1052B400800B7401120A7BA3E0F5838A82E8F0A3D1
:1052C400E9F08E0C8F0D800A7401120A7BEEF0A3B4
:1052D400EFF08E828F83E0FEA3E0FF8518828519AC
:1052E40083E0A2E092AFE50C450D6041850C828518
:1052F4000D83125346702F850C82850D83A3A31250
:1053040053467022850C82850D83A3A3A3A3A3A374
:105314001253B1850C82850D83A3A3A3A3A3A3A3D6
:10532400A3E0F9120509AA0CAB0D120545EE4F6076
:105334000302519C7407120A457F08020B718E8286
:105344008F83A3A3E0F8A3E0F9E8492274F0120ADA
:105354009F900358125348603D9003581253B175FF
:105364000C8E750DC2750EF5750F288A828B83A37A
:10537400A37808120928780C790812073D500C8587
:10538400080C85090D850A0E850B0F8A828B831202
:1053940053B7600E80D5750C00750D00750E007541
:1053A4000F00AA0CAB0DAC0EAD0F02533DE0FAA3F7
:1053B400E0FB221253B1EA4B22C082C08390035A0D
:1053C40012094602514974F0120A9F74F1120A2F0D
:1053D4007401120A7BEAF0A3EBF07409120A7BEC65
:1053E400F0A3EDF07407120A7BE4F0A3801B741F92
:1053F400120A7B1257A57409120A7B1257AB120AC0
:105404009D7407120A7B1257E9F07401120A7B1289
:1054140057BCF97401120A7B1257D3120A7BEAF0C3
:10542400A3EBF07425696015E970C37407120A7B55
:105434001257A5740F120A457F08020B71750800F4
:1054440079007401120A7B1257D3120A7B1257BCDB
:105454002498600824FC701109E98005750801741A
:1054640001120A7BEAF0A3EBF07401120A7B1257D3
:10547400BCF87401120A7B1257D3120A7BEAF0A318
:10548400EBF0E8851882851983F0E508A2E092F034
:10549400E9A2E0B372F092F0E824A8700302557612
:1054A40024F5601714700302554F24F5607B24FC27
:1054B400603424FB700302557680187421120A7B31
:1054C4001257C1851882851983F0125785120A7BF9
:1054D4001257A0741F120A7B1257A58518828519CA
:1054E40083E0F90253FA7421120A7B1257C1FEA316
:1054F400E0FF125785120A7B12578FF08E828F833A
:10550400E0F9A3AE82AF83700302540E741F120A33
:105514007B1257A57409120A7B1257AB120A9D74A9
:1055240007120A7B1257E980D27E087F00A2F0742A
:1055340003500A120A7BE4F0A374808046120A7BAB
:10554400E4F0A3F0A3F0A37440804A7E0A7F00A293
:10555400F07403500B120A7B7410F0A37427802399
:10556400120A7BE4F0A374CAF0A3749AF0A3743B08
:1055740080237E107F00A2F07403500E120A7BE495
:10558400F0A3EEF0A3E4F0A3800B120A7BE4F0A3F3
:10559400F0A3F0A3EEF0E508A2E05031851882856F
:1055A4001983E0646470030256E67421120A7B12C4
:1055B40057DFE4F50AF50B740B120A7B780812091D
:1055C40037125785120A7B12578F025658E9A2E008
:1055D40040030256DB7421120A7B1257BCFCA3E081
:1055E400FD8C828D8312095E740B120A7B12096A88
:1055F400EC2404F8E43DF97421120A7B1257A085C7
:105604001882851983E06464704B9004F57808125D
:105614000928740B120A7B78081207285037740B78
:10562400120A7B7808120928780812086B740B1286
:105634000A7B7808120937741F120A7B1257A5795E
:105644002D7409120A7B1257AB120A9D7407120AB1
:105654007B1257E9F07403120A7B78081209287444
:105664000B120A7B780812074D50387403120A7B18
:10567400780C1209288E088F09E4F50AF50B780CCA
:1056840079081207FC7403120A7B780C120937900C
:105694008E4178081209287403120A7B78081207CD
:1056A4004D50B2740B120A7B780C12092874031241
:1056B4000A7B7808120928780C79081207FCE50C93
:1056C4002430F9C3943A4040851882851983E064F4
:1056D4007870317427802F851882851983E064647B
:1056E400701F7421120A7B1257DF3395E0F50AF517
:1056F4000B740B120A7B7808120937EC240202554A
:10570400F70255AE740729F9741F120A7B1257A5C4
:105714007409120A7B1257AB120A9D7407120A7B92
:105724001257E9F0740B120A7B780C1209287403DF
:10573400120A7B7808120928780C79081207FC747D
:105744000B120A7B78081209377403120A7B780C4F
:105754001209288E088F09E4F50AF50B780C7908EC
:105764001207FC7403120A7B780C120937740312B3
:105774000A7B12095EE8494A4B60030256A70254A9
:105784000EEC2402F8E43DF974212212579322E02E
:10579400FAA3E0F5838A82E8F0A3E922125793F092
:1057A40022E0FAA3E0FB221257AF221257B322E001
:1057B400F8A3E0F5838882221257AFE0221257C57E
:1057C400221257B3E0FCA3E0FD8C828D83E022E03B
:1057D4002401FAA3E03400FB7401221257C5F50832
:1057E400A3E0F50922E02401F0A3E0340022C08202
:1057F400C0831203AD75A70075A100759C7775C3AE
:105804000075A20075A30075A40075A50075A60017
:1058140075C31175A20075A30075A40075A5007564
:10582400A60075C33375A20075A30075A40075A501
:105834000075A60075C34475A20075A30075A40085
:1058440075A50075A60075C32275A22075A34E75B3
:10585400A40075A50075A6007594081203B34394BB
:105864000202596BA2AFE433F8C2AF5394FEE5943D
:10587400A2E240FAE8A2E0025A8AA2AFE433F8C2F4
:10588400AF439401E594A2E250FA80E8E8A2E7A2CB
:10589400E792AF802175C303851882851983E0F5EB
:1058A400A2740122E8A2E7A2E792AF8518828519C3
:1058B40083E0FAA3E0FB7402025968C082C08374D7
:1058C400FC120A2F1259A11258EA120A7B12599B90
:1058D400120A7BE0F5A675A1EF43A710E8A2E7A2A0
:1058E400E792AF02596675C330851882851983E043
:1058F400F5A4740122C082C08374FE120A2F1259C7
:105904001C75A1FD125899120A7BE0F5A3E59C547D
:10591400F04401F59C02589012592353A7FD2285A7
:105924001882851983EAF0A3EBF0E5A8F8C2AF2248
:10593400E5A4851882851983F0E5A5C0E0740112F9
:105944000A7BD0E0F0E5A6C0E07402120A7BD0E046
:10595400F07403120A7B125A9885188285198312EF
:1059640009467404120A45D083D082020132C082EF
:10597400C08374FC120A2F1259A175A1EF1258EAC0
:10598400120A7B12599B120A7BE0F5A6E59C54F09F
:105994004404F59C0258E0E0F5A5740222125A0E64
:1059A400E5A8F8C2AF53A7EF2274F4120A9F74FC5F
:1059B400120A2F125A0AA2AFE433F9C2AF53A7DF77
:1059C40075A1DF908E9578081209288518828519AB
:1059D4008378081207137005439C70801A75C340BE
:1059E4001258ED120A7B12599B120A7BE0F5A6E5C8
:1059F4009C540F4450F59CE9A2E092AF7404120A3F
:105A0400457F04020B71125A0E2285188285198370
:105A1400EAF0A3EBF0A3ECF0A3EDF022C082C08384
:105A240074FE120A2F851882851983EAF0A3EBF01D
:105A3400851882851983E0F8A3E0F9E8496018E540
:105A4400A8F8C2AF75C30012589C120A7BE0F5A3F4
:105A5400E8A2E7A2E792AF0258BAE5A8C2AF53A7FB
:105A6400C9801CE5A8C2AF53A7C9759C778010E50F
:105A7400A8F8C2AFE59C54F04407F59CE880037590
:105A8400A1C9A2E7A2E792AF020132A3A3A3125ACB
:105A94009802596BE4F0E8A2E7A2E792AF22C08231
:105AA400C08374FC120A2FE5A8F8C2AF75C300E5E1
:105AB400A2025934C082C08374FE120A2FE5A8F8EA
:105AC400C2AF75C300E5A2851882851983F0E5A3EA
:105AD400C0E07401120A7BD0E0F00258A8C082C072
:105AE40083E5A8F8C2AF75C300E5A28A828B83A3BD
:105AF400A3A3A3F0E5958C828D83F0E5A38A828B22
:105B040083A3A3A3A3125B29A3A3A3E4F0E5968C28
:105B1400828D83A3F0E5978C828D83A3A3F08C827E
:105B24008D83025A8FA3F0E5A48A828B83F0E5A5C6
