:020000040000FA
:0600000002011A020ED7F6
:0300130002141BB9
:03001B0002143498
:03002B0002148933
:0300330002146B49
:03005300020F4A4F
:03006B000214423A
:10008300020D97E5C754F84401F5C7790122000032
:100093000080FB120086B90003020104E4791B7897
:1000A30002B800028004F709D8FCE4791D7802B88D
:1000B30000028004F709D8FCE49002817885790274
:1000C3008002F0A3D8FCD9FA781A90014A7A01BACF
:1000D30000028007E493A3F608DAF97A057B04901B
:1000E300014B787A79018015E493A3AD82AE838ABC
:1000F300828B83F0A3AA82AB838D828E83D8E9D9C6
:10010300E775825B758374740012012C7582917597
:100113008300740012012C75D00075813F7518811E
:10012300751902759F00020096C09FF59FE473D076
:100133009F22D083D082C09FE493C0E0740193C018
:10014300E0740293F59F2201D601E201FF0000B49F
:10015300000028002800283075A000A000A000A0FF
:100163000000080008E001F000100010001000106B
:10017300001000100050005000500010001000D07C
:10018300070000000000000F0001000500307507A4
:10019300001000010081FF00000000FF260326037A
:1001A3002603260326032603260326032603260304
:1001B300260326032603FFFF0000000000020000C1
:1001C30000120135B81400120135B01500120135C3
:1001D300E41500120135661600120135AE16001241
:1001E30001351217001201359F17001201355918F6
:1001F30000120135681B00120135F31C0012013592
:10020300161D00120135855C00120135AD5C00122C
:100213000135DB5C00120135125D001201355D5DB5
:1002230000120135B55D00120135E35D00120135A1
:10023300A05E00120135FB6F00120135137000122E
:100243000135EC6500120135F765001201350966C9
:1002530000120135E16600120135E6660012013530
:10026300CD6700120135E8670012013510680012EE
:1002730001354D6800120135876800120135EE68BB
:100283000012013537690012013561690012013529
:100293008669001201357A3C00120135AD3C00122B
:1002A30001358D3D00120135B23D00120135443F49
:1002B30000120135411E001201351D2000120135C7
:1002C300FA2000120135812100120135DF210012CD
:1002D3000135D82200120135E72400120135962595
:1002E30000120135C325001201350926001201351C
:1002F300312700120135C728001201353C290012AD
:1003030001358E2900120135FF2A00120135232BF6
:10031300001201350E6B001201351A6B0012013504
:10032300006C00120135AD1400120135D7410012E3
:1003330001357B42001201354D43001201357743ED
:1003430000120135C545001201354D2B0012013550
:10035300722B00120135F72D001201357C2F00128C
:100363000135A130001201351231001201354F3130
:100373000012013572310012013588310012013546
:10038300E658001201357C590012013592590012CA
:100393000135085A001201357C5A00120135BA5A48
:1003A300001201352E5B00120135A75B00120135E7
:1003B300B05B00120135BC5B00120135E05B00123B
:1003C3000135F65B00120135555C001201359131A0
:1003D300001201359E3100120135B831001201358A
:1003E300F731001201355C3200120135713200120F
:1003F3000135883200120135963200120135A532DB
:1004030000120135BA3200120135CF320012013524
:10041300DA3200120135E932001201350C330012D1
:100423000135B33300120135C83300120135E2330D
:1004330000120135FD33001201351A340012013563
:10044300253400120135E13400120135CD35001297
:100453000135F23500120135FD3500120135123632
:100463000012013526360012013587360012013598
:100473009F36001201355171001201357D71001252
:100483000135D87100120135D14B001201350F4CE3
:1004930000120135694C001201358A4C00120135F6
:1004A300DB4C00120135044D001201350E4D0012D4
:1004B30001357A4D00120135084E00120135564EB2
:1004C300001201358C4E00120135134F0012013515
:1004D300534F001201358B4F00120135AA4F001202
:1004E3000135B34F001201353A6E00120135ED6349
:1004F30000120135236400120135596400120135DD
:10050300B26500120135EA71001201350072001262
:1005130001350A7200120135547200120135AB73B2
:10052300001201357250001201358B500012013553
:100533002F51001201356F510012013588510012FD
:100543000135BC51001201350952001201354452E4
:1005530000120135445400120135B1540012013523
:10056300275F00120135435F00120135625F0012FD
:1005730001359D5F00120135B15F00120135206026
:1005830000120135746000120135D6600012013586
:10059300187400120135AC7000120135707400122A
:1005A3000135376C00120135BC6C00120135226D28
:1005B300001201353B6F001201355B6F00120135EC
:1005C300B46F00120135EE6F00120135F16F0012A6
:1005D3000135F146001201356A47001201354348DF
:1005E30000120135014B00120135664B0012013533
:1005F300BD4B00120135F87F00120135BB610012BB
:100603000135466300120135A76300120135AE6957
:1006130000120135EB69001201351A6A0012013527
:10062300556A00120135646A00120135736A0012BB
:1006330001351873001201353B6D00120135656DEC
:10064300001201351C3700120135D937001201356C
:10065300143800120135763800120135C238001201
:1006630001351B3900120135AC3900120135693BE4
:1006730000120135EB3B00120135503C00120135ED
:10068300EC7300120135BE54001201358272001260
:100693000135AC72001201353D7400E0667010083C
:1006A300A3E066700A08A3E066700408A3E066226C
:1006B300C3E09608A3E09608A3E09608A3E096A2F9
:1006C300D265D03322C3E7960809E7960809E7966F
:1006D3000809E79622C3E09608A3E09608A3E096EC
:1006E30008A3E09622C008C3E096F50808A3E096A5
:1006F300420808A3E096420808A3E0964508700163
:10070300D3D00822080808EAC0E0EBC0E086F0E78F
:10071300A4FA180986F0E7A42AFA180986F0E7A4D0
:100723002AFA180986F0E7A42AFA1986F0E7A4FB47
:10073300E5F02AFA190886F0E7A42BFBE5F03AFA6C
:10074300190886F0E7A42BFBE5F03AFA1818098696
:10075300F0E7A4C5F02BFBE43AFA1908E7C5F0C6A5
:10076300A426F6E5F03BFBE43AFA1886F0E7A4F694
:10077300E5F00826F6E43B08F6E43A08F6D0E0FB99
:10078300D0E0FA22E4CFC0E0E4CEC0E0E4CDC0E0A4
:10079300E4CCC0E075F020E626F608E633F608E67A
:1007A30033F608E633F6181818EC33FCED33FDEE98
:1007B30033FEEF33FFC3EC9709ED9709EE9709EF8B
:1007C30097191919400FFFEC97FC09ED97FD09EEF6
:1007D30097FE191906D5F0BFECF709EDF709EEF707
:1007E30009EFF7191919D0E0FCD0E0FDD0E0FED0F5
:1007F300E0FF22E4C396F608E496F608E496F608CA
:10080300E496F6226016080808C6C313C618C61372
:10081300C618C613C618C613C6D5E0EA227009085F
:100823000808226016181818C6C333C608C633C68C
:1008330008C633C608C633C6D5E0EA22E627F6085B
:1008430009E637F60809E637F60809E637F622E03F
:1008530026F608A3E036F608A3E036F608A3E0364A
:10086300F622E026F008A3E036F008A3E036F0080D
:10087300A3E036F022C3E697F60809E697F60809DF
:10088300E697F60809E697F622C3E096F008A3E098
:1008930096F008A3E096F008A3E096F022E657F658
:1008A3000809E657F60809E657F60809E657F62257
:1008B300E056F608A3E056F608A3E056F608A3E0D0
:1008C30056F622E0F608A3E0F608A3E0F608A3E054
:1008D300F622E6F008A3E6F008A3E6F008A3E6F0A4
:1008E30022E0FAA3E0FBA3E0FCA3E0FD22EAF0A3ED
:1008F300EBF0A3ECF0A3EDF022E0F8A3E0F9A3E022
:10090300FAA3E0FB22E8F0A3E9F0A3EAF0A3EBF0FB
:1009130022CAC0E0E6F0A308DAFAD0E0FA22CAC09D
:10092300E0E0A3C582CCC582C583CDC583F0A3C552
:1009330082CCC582C583CDC583DAE6D0E0CA22B9AD
:100943000010BB0008E88AF084F8AAF022E4FBC890
:10095300FA22EB70227B10C833C8C933C93350075E
:10096300C39AC3DBF280069A50012ADBEAC833F448
:10097300C8C933F4C9FA2275F008E4C833C8C933C7
:10098300C933C99AC99B5004C92AC93BD5F0ECFBAA
:10099300C833F4C8E4C9FA22600D08C6A2E713C637
:1009A30018C613C6D5E0F322600C08C6C313C618D5
:1009B300C613C6D5E0F422700422600D18C6C333F3
:1009C300C608C633C6D5E0F41822251810AF08F5BB
:1009D30018400C15198008F51840021519D2AF22DA
:1009E30000C0D0251810AF08F518500C0519800861
:1009F300F51850020519D2AFD0D0222518F5821070
:100A0300AF08F518400C15198008F51840021519A0
:100A1300D2AF851983222518F582E43519F583228F
:100A23002518F8E43519F9222518FAE43519FB22BB
:100A33002518FCE43519FD22E4732518C582C0E0AE
:100A4300E51934FFC583C0E0E518C3958224F81087
:100A5300AF088583198582188008858319858218D4
:100A6300D2AFCEF0A3E520F0A37808E608F0A3DE2A
:100A7300FAEFF0A3E58124FAF8E608F0A3E608F01C
:100A8300A3E608F0A30808E608F0A3E608F0A31518
:100A9300811581D0E0FED0E0F8158115811581E83C
:100AA300C0E0EEC0E0222518C582C0E0E51934FF9E
:100AB300C583C0E0E518C3958224F910AF08858388
:100AC300198582188008858319858218D2AFCEF0E4
:100AD300A3E520F0A37808E608F0A3DEFAEFF0A37D
:100AE300E58124FBF8E608F0A3E608F0A30808E68E
:100AF30008F0A3E608F0A315811581D0E0FED0E04D
:100B0300F815811581E8C0E0EEC0E02285198385E0
:100B13001882E0A3FEE0A3F5207808E0A3F608DF3F
:100B2300FAE0A3FFE0A3C0E0E0A3C0E0E0A3C0E0DD
:100B3300E0A3C0E0E0A3C0E010AF0885821885837E
:100B4300198008858218858319D2AFD083D0820299
:100B53000132851983851882E0A3FEE0A3F520788E
:100B630008E0A3F608DFFAE0A3FFE0A3C0E0E0A3F8
:100B7300C0E0E0A3C0E0E0A3C0E010AF08858218A6
:100B83008583198008858218858319D2AFD083D0D5
:100B93008222C0D02518C582C0E0E51934FFC58381
:100BA300C0E0E518C3958224F310AF088583198547
:100BB30082188008858319858218D2AFC8F0A3E90B
:100BC300F0A3EAF0A3EBF0A37908E709F0A3D8FABE
:100BD300ECF0A3EDF0A3EEF0A3EFF0A3D0E0F0A3CD
:100BE300D0E0F0A3D0E0F0A3E520F0A3E5F0F0A37C
:100BF30022851983851882E0C0E0A3E0F9A3E0FA17
:100C0300A3E0FBA37808E0F608A3DFFAE0FCA3E087
:100C1300FDA3E0FEA3E0FFA3E0C0E0A3E0C0E0A3E8
:100C2300E0F5D0A3E0F520A3E0A3F5F010AF08852D
:100C330083198582188008858319858218D2AFD0DD
:100C430082D083D0E0F8D0E032740480067402804E
:100C5300027401C0E0F4041209FED0E01209142268
:100C63007404800474028000CCC0E0EDC0E0E51899
:100C7300C39CCCAD1950011D10AF068C188D198083
:100C8300068C188D19D2AF120921D0E0FDD0E0FCFB
:100C930022D083D082E9C0E0E493A3C386F0C5F0F9
:100CA30095F0F908E493A386F0C5F095F0700BE492
:100CB30093A3C3994005E9048002A3E475F002A459
:100CC3002582F582E5F03583F583D0E0F9E493A33B
:100CD300C0E0E493C0E022D083D082ECC0E0EDC05A
:100CE300E0E493A3FCE493A3FDED4C600D120D2609
:100CF300EC24FFFCED34FFFD80EFE493A3FCE493CD
:100D0300A3FDED4C600D120D65EC24FFFCED34FFEB
:100D1300FD80EFD0E0FDD0E0FCE493A3C0E0E493DA
:100D2300C0E022C0E0C3E493960874019396184090
:100D33000FE49366700808740193661870007019C5
:100D4300A3A3C3E49396087401939618A3A3400D39
:100D5300D0E0D0E0D0E0020D16A3A3A3A3A3A3D0B9
:100D6300E022C0E0C0F088F0E493667008087401E4
:100D73009366187000A8F0A3A3700BD0F0D0E0D056
:100D8300E0D0E0020D16A3A3D0F0D0E022851B87AC
:100D9300851CC622C0E0C0D0E8C0E0E9C0E0EAC0DC
:100DA300E0EBC0E0ECC0E0EDC0E0EEC0E0C008C0A6
:100DB30009C00AC00BC082C083C0F0A2AFE433FEF7
:100DC300C2AF759B00906182E0A2E05009E591A259
:100DD300E050037591FEE0A2E55009E591A2E550CC
:100DE300037591DFE0A2E64003020E8AE591A2E6D5
:100DF3004003020E8A7591BF9002C2E06405700839
:100E03001203AA1203B680031203B0751B00120467
:100E13000AE99002C3F079001203EC1202EA7A01A4
:100E23007B009002C1E0F91204CA907803E06442A7
:100E330070559002F8E014F0704DC2AF120E4200EC
:100E4300781ED0E0F618D0E0F6E59F5407700575DC
:100E530009FF800375097FC4C0E0781DE6F5080823
:100E6300E65509F509740B78081209ABD0E025089B
:100E7300F8906270E0A2E740F8E8C333906272F042
:100E8300906270E0D2E0F0906181E0A2E35009E566
:100E9300E9A2E3500375E9F7A3E0A2E75009E5915E
:100EA300A2E7500375917FEEA2E092AFD0F0D0831A
:100EB300D082D00BD00AD009D008D0E0FED0E0FD1C
:100EC300D0E0FCD0E0FBD0E0FAD0E0F9D0E0F8D0FD
:100ED300D0D0E032C0E0C0D0C082C083906183E054
:100EE300A2E05009E5BFA2E0500375BFFEE0A2E116
:100EF3005009E5BFA2E1500375BFFDE0A2E250092E
:100F0300E5BFA2E2500375BFFBE0A2E35009E5BFD2
:100F1300A2E3500375BFF7E0A2E45009E5BFA2E4E2
:100F2300500375BFEFE0A2E55009E5BFA2E550030A
:100F330075BFDFE0A2E65009E5BFA2E6500375BF27
:100F4300BFD083D0828088C0E0C0D0E8C0E0E9C0D1
:100F5300E0EAC0E0EBC0E0ECC0E0EDC0E0C0F0E5EB
:100F6300A7A2E6500FE5A1A2E6500953A7BF75A1BA
:100F7300BF120FAFE5A7A2E5500CE5A1A2E550060D
:100F830053A7DF75A1DFE5A7A2E15009E5A1A2E11F
:100F9300500375A1FDE5A7A2E2500CE5A1A2E25022
:100FA3000653A7FB75A1FBD0F0020EC074F8120A1A
:100FB300A9751B019002C2E06406701512036E8AC4
:100FC300828B83A3A3A3A3A3A3E0FAA3E0FB12034F
:100FD30098A2AFE433FED2AF9002C8E06401701868
:100FE3007A207B009002C1E0F91205487A207B0049
:100FF3009002C1E0F91204D0906182E0D2E6F09051
:1010030002F5E0602185C61C80169002C7E06401EA
:101013007008E5C654F84405F5C653BEFC120D909E
:101023007401651B60E4EEA2E092AF7F01020B55F1
:1010330074E9120AA974F81209CD851882851983F7
:10104300ECF0A3EDF08A088B099002C2E024F7C309
:10105300940550067508010211CA12036E8A0A8BA1
:101063000BAE0AAF0BEE4F70030211C7AC08AD090C
:101073007402120A19AA82AB831203C28E828F836F
:10108300A3A3750CFF750DFF750EFF750F00780C8C
:101093001208B37402120A197510FF7511FF751245
:1010A300FF75130078101208B3780C79101206C874
:1010B300502A780C79101208787508017509C875DB
:1010C3000A00750B007808790C1206C85052850C7B
:1010D30008850D09850E0A850F0B8050751401755F
:1010E30015C8751600751700851008851109851236
:1010F3000A85130B7808790C12087878147908128A
:1011030006C8401C750800750900750A00750B01B7
:10111300780879101208787808790C12083F800C47
:10112300750801750900750A00750B0074097808C4
:10113300120820750C19F50DF50EF50F7808790CCA
:101143001207878E828F83A3A3A3A3A3A3E0F8A38D
:10115300E0F97AD07B03120942880C890DE4F50E7D
:10116300F50F7808790C12083F7406120A19E0F893
:10117300A3E0F97AD07B03120942E8FA8A0CE4F57A
:101183000D7808790C1206C850077808790C1208F4
:10119300789002C2E06408600AE064066005E064D7
:1011A30005702D750C0D780C79081206C840217551
:1011B3000CF4750DFF750EFF750FFF7808790C128F
:1011C300083F800C750800750900750A00750B004F
:1011D300851882851983E0F8A3E0F583888278086F
:1011E3001208D574081209E37F10020B5574F71225
:1011F3000AA91203D49002F3E064017010906245CF
:10120300E4F0A3F053F4F343FE0C5390F31203867C
:10121300E5C654804449F5C6E59E547F644970F899
:10122300906185740FF09002F1E0F47002A3E06026
:101233004E9002F2E0600814601B14602E8040752B
:1012430008017509009002F1E078081209BAE5086F
:10125300F45280802A7508017509009002F1E07844
:10126300081209BAE508F45290801475080175094B
:10127300009002F1E078081209BAE508F452A07967
:10128300007F02020B5574F7120AA9E9FEEAFF7404
:10129300016E700C7A807B009002C1E0F91204CADF
:1012A3009014B0E493F46008E493F91202DE800929
:1012B30053C680E59E547F70FA12038C9002F3E0CC
:1012C300640170031202F69002F1E0F47002A3E0ED
:1012D300604B9002F2E0600814601A14602C803DA9
:1012E3007508017509009002F1E078081209BAE562
:1012F30008428080287508017509009002F1E078A2
:10130300081209BAE50842908013750801750900AF
:101313009002F1E078081209BAE50842A01203D45A
:1013230012036E8A088B09A808A909E8496015E524
:10133300E170FCE82414F582E93400F583E0F460FD
:1013430003E0F5E174016F700A7A019002C1E0F9DC
:1013530012051202128474ED120AA98A088B098CF1
:101363000A8D0B7413120A19780C1208C6780879BF
:101373000C1206C87510017511C87512007513009B
:1013830050127808790C120878781079081206C878
:1013930050168010780C79081208787810790C129E
:1013A30006C840047901800279007F0C020B557452
:1013B300ED120AA98A088B098C0A8D0B7413120A81
:1013C30019780C1208C6780C79081206C8401178EF
:1013D30008790C120878AA08AB09AC0AAD0B802275
:1013E3007510007511007512007513017810790CD2
:1013F3001208787810790812083FAA10AB11AC12C2
:10140300AD1380A6C082C083E9906000F0D083D082
:101413008222C2AF02000022C0E0C0D0C082C083DB
:10142300C28BE5C1900362F0D083D082D0D0D0E0EC
:1014330032C0E0C0D0C082C083C28FE5F980E5C06E
:10144300E074F2120B95A2AFE433FED2AFE589A2AA
:10145300E150031205C0758900C2C5751A00EEA2DA
:10146300E092AF7F01020BF4C0E074F2120B95A27D
:10147300AFE433FED2AFE58BA2E050031205C07593
:101483008B00C2E880D5C0E0C0D0E8C0E0E9C0E08E
:10149300E5A8D2AFC2C7751A00A2E7A2E792AFD000
:1014A300E0F9D0E0F8D0D0D0E032020132FFFFFF04
:1014B300FFFFFFFFFF74F4120A3DEAFEEBFF121574
:1014C300A560057911021595900284E0540A700510
:1014D30079120215957A047B001204FA90029DEAB0
:1014E300F0A3EBF01215A5700302159375080475AC
:1014F30009007808120C50EEFCEFFD12159A120445
:101503008874021209E3120254E9600F7A0C7B001B
:1015130012020C8A088B097A0D80268E828F83A390
:10152300E06402700F7A127B0012020C8A088B09A6
:101533007A13800D7A107B0012020C8A088B097AC9
:10154300117B0012020C8A0A8B0BAC0AAD0B8E8244
:101553008F83A3A3A3E06004780180027800900244
:1015630085E07004790080027901E8F50A780A12AF
:101573000C54E9F50A780A120C54AA08AB098E82B6
:101583008F83A3A3E0F912027274021209E38002AB
:1015930079137F04020B0F90029DE0FAA3E0FB2274
:1015A300E9FE90029DE0F8A3E0F9E8492274F712FE
:1015B3000A3D1215A37004791280211216A8E06E59
:1015C3006004790380167A017B0090029FE0F91290
:1015D300054879301201F479001201FA7F01020BF8
:1015E3000F74F7120A3D89087A01900283E0F91219
:1015F30001E8900284E0540A605AE508900283F0FF
:101603007A057B041202609002811215A870419042
:101613000283E0604975F00CA4FEAFF0FAEFFB1211
:1016230004FA900281EAF0A3EBF09002811215A86C
:10163300601EEEFCEFFD79001204947B008005EB45
:101643001218320B900283E0F8EBC39840F1800E3E
:101653007913800C900283E4F0FAFB1202607900A4
:101663000215DF74F6120A3D79018A088B0978089E
:10167300120C940B20019F168E167F168C828D837D
:10168300A3A3A3A3A31216A5E060128C828D83A348
:10169300A3A3A3A3121CE81201DC8001197F020299
:1016A3000B0FE0F8A3E0F58388822274F4120A3D5D
:1016B3001215A36055EE703A1216A8A3E0640270E7
:1016C300047A0380027A027B0012020C8A088B09D7
:1016D300E4F50AF50B7808120C4C7A017B009002B2
:1016E3009FE0F912053C74041209E379011201FA2F
:1016F300E9FEEE60117A017B0090029FE0F912058A
:1017030048EEF91201F4790180027900021595740B
:10171300F4120A3DEA4B70111215A5607C79001290
:1017230001F479001201FA8070EA2403F508EB341E
:1017330000F509850882F583E0605E8A828B83A3C6
:10174300A3A3A3E0FEA3E0FFEE4F604D7A247B004A
:1017530012020CEAF50B750A008030EE2428F5829C
:10176300EF3400F583E0C3950BA2D265D03340116B
:10177300EEFAEFFB1201EEE96007EEFAEFFB12025D
:1017830000EE2429FEEF3400FF050A85088285094F
:1017930083E0F8E50AC39840C202159574F5120A6E
:1017A3003D89088A099002811215A8607D750A0097
:1017B300802FE50A75F00CA4FEAFF0121839121B46
:1017C30060600A120500121839E4F0A3F0121853EE
:1017D300121B60600A120500121853E4F0A3F0050F
:1017E3000AE50AC3950840CAE509900281600F1211
:1017F300159D120500900281E4F0A3F0802C1215D0
:10180300A86027E50875F00CA4FCADF07900900200
:101813008112159D120494750A008007E50A1218B7
:1018230032050AE50AC3950840F27F03020B0F1243
:101833001CAF74FFF02212183D22900281E02EF8B3
:10184300A3E03F8882F583A3A3A3A3A3A3A3A32217
:1018530012183DA3A32274E8120A3D74FF1209CDA6
:10186300EAFEEBFF7508007A007B001215A5607590
:10187300EE2408F50AEF3400F50BEE2409F512EF18
:101883003400F5138E828F83E06401603478121282
:101893000C50850A82850B83E0FC7402120A19AA94
:1018A30082AB83790112023C74021209E3EA4B60B2
:1018B300078A828B83E0F5088E828F83E06404605D
:1018C3003B90029D1216A5A3E0F8740368602DE80F
:1018D3007004E5086026EA4B600B740168701274AB
:1018E3000355087017790074011209E37F10020B86
:1018F3000F74026870EFE508A2E050E98E828F83CF
:10190300A385820E85830FEE2402F50CEF3400F5D8
:101913000DAA0CFBE0F9120224E9F8850E82850F6B
:1019230083F0850C16850D1788119002811215A876
:10193300606A75100080020510900283E0F8E510DC
:10194300C3985058E51075F00CA4F508E5F0F509B7
:10195300900281E02508FAA3E03509FB8A828B8394
:10196300E0F460D3A3E0651170CD7514067515001E
:101973007814120C50AC16AD17EA2402FAEB3400BB
:10198300FB12048E74021209E3E960AB900281E05A
:101993002508F508A3E03509F509800675080075E3
:1019A30009008E828F83E0FAE50845097003021A65
:1019B30066E508240AF50EE5093400F50FE5082469
:1019C30008F50CE5093400F50D74046A600C850C08
:1019D30082850D83E0FAA3E0800E850E82850F8356
:1019E300E0F8A3E0F9E8FAE9FBEA4B7003021AD343
:1019F300850A82850B83E0F5148A828B83E0651464
:101A030070257515007814120C50AC12AD138A8230
:101A13008B83A3AA82AB8312048E74021209E3E9B7
:101A2300640170030218E88E828F83E064046019F6
:101A3300850C82850D83121B607003021AD3120575
:101A430000850C82850D838014850E82850F831299
:101A53001B60607C120500850E82850F83E4F0A372
:101A6300F0806D74046A70030218E8900281121505
:101A7300A8602B7C0080010C900283E0F8ECC398F3
:101A8300501CEC75F00CA4F8A9F0900281E028F842
:101A9300A3E039F988828983E0F470DB80067582DC
:101AA30000758300858208858309E508450970036D
:101AB3000218E8EAF0850E82850F83121CCF120C00
:101AC30050AC0CAD0D121CC412048874021209E34D
:101AD300850A82850B83E02401FAE43400FB1204B7
:101AE300FAEA4B605E8E828F83E06404601485089B
:101AF30082850983A3A3A3A3A3A3A3A3EAF0A3EBD0
:101B03008018EAF8EBF9850882850983A3A3A3A3C8
:101B1300A3A3A3A3A3A3E8F0A3E9121B578A828B71
:101B230083121B57F5087509007808120C50AC1284
:101B3300AD138A828B83A3AA82AB831204887402B7
:101B43001209E3850A82850B83E070030218E879A2
:101B5300010218EAF0850A82850B83E022E0FAA3EA
:101B6300E0FBEA4B2274F0120A3D890B750A00125E
:101B730015A57003021CAA9002811215A870030216
:101B83001CAAE50B701D750C00800DE50C121CAF33
:101B9300E0F46002050A050C900283E0F8E50CC34B
:101BA3009840E8850A08750900740378081209BA91
:101BB300E5082406FAE5093400FB12049A8A088B27
:101BC30009AE08AF09EE4F70157A067B0012049A2E
:101BD3008A088B09AE08AF09750A00750B13EE4F1F
:101BE3007003021C938E828F8374D0F0A3E50B12D3
:101BF3001E307401121E30A3E50AF0EE2404F582B0
:101C0300EF3400F583E50A607DEE2406F508EF3432
:101C130000F509E508F0A3E509F0750C00900283CF
:101C2300E0F8E50CC3985062E50A605EE50C75F0D8
:101C33000CA4F8A9F0900281E028F8A3E039F9E8B0
:101C4300FAE9FB8A828B83E0F874FF686034E885E5
:101C53000882850983F08A828B83A3121CCF120C1E
:101C630050EA2402FCEB3400FD121CC412048874F5
:101C7300021209E3E5082408F508E5093400F5092B
:101C8300150A050C8097E4F0A3F0121CE11204A6D8
:101C93007A00900283E0F91201E812159A12050006
:101CA30090029DE4F0A3F07F08020B0F75F00CA4E3
:101CB300F8A9F0900281E028FAA3E0398A82F5833B
:101CC30022E5082402FAE5093400FB22E0850882B4
:101CD300850983A3F0750E06750F00780E22EEFAC0
:101CE300EFFB90029DE0F8A3E0F5838882E0F92200
:101CF30074F6120A3DE9FE7A237B0012020C8B096B
:101D0300EA450960047A0180027A00EEF91202784A
:101D13000216A074F2120A3D8A088B091215A570E7
:101D230003021E2BEA2408F50AEB3400F50B850A9F
:101D330082F583E0240FFAE43400FB12049A8A0C40
:101D43008B0DAE0CAF0DEE4F7003021E2B8E828FE8
:101D53008374D0F0A3E4121E30740DF085088285DD
:101D63000983121E38F0E5082428F582E5093400BA
:101D7300F583E0C0E0EE240BF582EF3400F583D069
:101D8300E0F0850882850983A3121E38A3F0750C41
:101D930006750D00780C120C50E5082402FCE509C9
:101DA3003400FDEE2405FAEF3400FB1204887402BC
:101DB3001209E3850A82850B83E0F50AEE240CF809
:101DC300EF3400F9E8FCE9FD8C828D83E50AF0EE3F
:101DD300240D08EF3400F9E8FAE9FBE50A603BEE6D
:101DE300240FF8EF3400F98A828B83E8F0A3E9F03B
:101DF3008C828D83E0F50A750B00780A120C50E58E
:101E0300082409FCE5093400FD8A828B8312159DA1
:101E130012048874021209E380088A828B83E4F037
:101E2300A3F0121CE11204A67F06020B0FF08E82B0
:101E33008F83A3A322E08E828F83A3A3A32274F4B0
:101E4300120A3DE99002C1F01203CE907800E0C47B
:101E5300540F540764037004793F8002797F750837
:101E6300067509007808120C507CAF7D027AEA7B74
:101E7300071205A274021209E39002AFE0F470495D
:101E8300A3E0F47044A3E0F4703FA3E0F4703AA33A
:101E9300E0F47035A3E0F4703090780EE09002AF78
:101EA300F090780FE09002B0F0907810E09002B1DB
:101EB300F0907811E09002B2F0907812E09002B3C3
:101EC300F0907813E09002B4F09002B574FFF0A3A1
:101ED300F0A3F0A3F0A3F0A3F09002AFE09002BB55
:101EE300F09002B0E09002BCF09002B1E09002BD2D
:101EF300F09002B2E09002BEF09002B3E09002BF15
:101F0300F09002B4E09002C0F09002D37406F0A304
:101F1300740DF0A3E4F0A37440F0A37401F09002F5
:101F2300DD74FFF0A3F0A3F0A3F0A3F0A3F09002FD
:101F3300DCE4F09002E304F0A3E4F0A3F0A37480E4
:101F4300F0A37402F0A37480F0A37402F0A3E4F08E
:101F5300A304F0A3F0A3E4F0A37425F0A3E4F0A397
:101F6300F09002F174FFF0A3E4F09002F3F090021A
:101F7300F504F09002F67490F0A37401F01202F0ED
:101F83001202C012038079017AF87B0212031A90BD
:101F930002F8E075F01484E5F004F01203207A00EF
:101FA3009002C1E0F9120512907803E06442705583
:101FB3009002F8E014F0704DC2AF121FC000781EFB
:101FC300D0E0F618D0E0F6E59F540770057509FFD9
:101FD300800375097FC4C0E0781DE6F50808E6555F
:101FE30009F509740B78081209ABD0E02508F890BD
:101FF3006270E0A2E740F8E8C333906272F0906247
:1020030070E0D2E0F09002D8E4F0A3F07A80FB9085
:1020130002C1E0F91204CA0221D574F4120A3DEA9E
:10202300FEEBFFEEA2E050449002C3E0C39480E0D5
:10203300500FC333F8E433F9745928F582740480DC
:102043000EF4C333F8E433F9746728F58274043962
:10205300F583E0F8A3E0F5838882120A3B7A0090C7
:1020630002C1E0F9120512EE6401803D5480603D27
:102073009002F6E0F8A3E0F9E849602A7900120536
:102083000C9002F6E0F508A3E0F509E4F50AF50B78
:102093007808120C4C7A007B019002C1E0F912051A
:1020A3003C74041209E3EE6480FAEF802DEF5401CF
:1020B300600C790112050CEEFAEF6401801CEF54F9
:1020C30002600AC2AF75C9AB75C95B80FEEF5404E9
:1020D300600B121415EEFAEF6404FB80179002C82C
:1020E300E06401700BEE54206006EE6420FA800475
:1020F3007A007B000221D5C082C083C2AF1203B035
:10210300E5E170FC75E1011202E475E1F11203DA15
:102113001202D87907120452790112045879021273
:1021230003F212041612043A790012044C790112D4
:10213300044C7A557B557C557D001203E69002E4EE
:10214300E4F012034A12030E790012045E90601247
:10215300E4F0A3F0906063F0751B009002C2F0906E
:1021630002C4F0A3F09002C7F09002C804F09002FA
:10217300D204F09002F4E4F0D2AFF90221CEC0828F
:10218300C0839002AFE08A828B83F09002B0E08A32
:10219300828B83A3F09002B1E08A828B83A3A3F0A6
:1021A3009002B2E08A828B83A3A3A3F09002B3E0F0
:1021B3008A828B83A3A3A3A3F09002B4E08A828BC9
:1021C30083A3A3A3A3A38000F07900D083D08202CA
:1021D30001327F04020B0F7F01020B0F74F7120A07
:1021E3003DE9FE600574016E70457409120A19E039
:1021F300FF600574016F7037EA24FCF8EB34FFF9D4
:10220300C3E894FDE9943F5026EC24FCF8ED34FF39
:10221300F9C3E894FDE9943F5015C3EA9CEB9D4054
:102223000E740A120A19E0F8600A740168600579ED
:10223300120222D59002E4E064017005790C0222B7
:10224300D5EEA3F0E89002EAF0EF9002DC702FE401
:10225300F09002AFE09002DDF09002B0E09002DE79
:10226300F09002B1E09002DFF09002B2E09002E061
:10227300F09002B3E09002E1F09002B4802E74017A
:10228300F09002B5E09002DDF09002B6E09002DE3D
:10229300F09002B7E09002DFF09002B8E09002E025
:1022A300F09002B9E09002E1F09002BAE09002E20D
:1022B300F09002E6EAF0A3EBF0A3ECF0A3EDF0E874
:1022C3007004790080077401687005790112042293
:1022D30079000221DA74F0120A3DE9FEEAFF900266
:1022E300C2E06409700302244AE0640A7003022412
:1022F3004AE0640B700302244AE0640C7003022476
:102303004AE0640D700302244A9002E5E06007642A
:102313000160030224E29002DCE0600764016003D1
:102323000224E29002E6E024FCF8A3E034FFF9C3C0
:10233300E894FDE9943F40030224E2A3E024FCF87F
:10234300A3E034FFF9C3E894FDE9943F400302247A
:10235300E29002E6C0829002E8E0F8A3E0F9758318
:1023630002D082C3E098A3E09950030224E2EF6015
:102373000874016F60030224E2EE70030224441424
:1023830060030224E29002E4E06401700302244A41
:1023930079021203629002DAEAF0A3EBF09002E40E
:1023A3007401F09002E3F0EF9002EBF09002C2E0D0
:1023B300600302243D1203021203BC8A0C8B0D8CB2
:1023C3000E8D0F750810750900750A00750B0078DE
:1023D3000C790812083F7508FF7509FF750AFF7825
:1023E3000C79081208A09002DAE0F8A3E0F58388DC
:1023F30082A3A3780C1208D59002DAE0F8A3E0C810
:102403002406F582E83400F583E4F0A3F09002E8B3
:10241300E0F508A3E0F509E4F50A780C7908120859
:102423003F9002DAE0F8A3E0C8240EF582E8340016
:10243300F583780C1208D512035079007F08020B3C
:102443000F9002E4E07004792180F1A2AFE433F548
:1024530008C2AF7ADA7B021203689002E4E4F01256
:10246300037AE970461203B0906182E0C2E6F0E5B8
:10247300E170FC75E1017591BF790112045875E1B2
:10248300F19002C8E0640170187A207B009002C1C9
:10249300E0F91205487A207B009002C1E0F91204AA
:1024A300D07A009002C1E0F9120512E508A2E09289
:1024B300AF9002EAE06401700612043A02243DA3DD
:1024C300E06401600302243D9002EAE06003022419
:1024D3003D12041612043A790112044602243D798E
:1024E3001202243FC082C0839061907404F0A374ED
:1024F30048F0A37402F09061807440F09061BC7462
:1025030003F09061877419F0906265741BF0906218
:1025130049E0C3941390619C400A7409F09060668B
:1025230074018007740DF0906066E4F090619A7412
:1025330033F0A37455F09061A0743AF09002F3E085
:1025430064017009C2919002C6746780059002C647
:102553007461F09014B6E493906186F09014B0E443
:1025630093F46027E493540FF8906185E068601258
:10257300E5C654804449F5C6E59E547F644970F826
:10258300E8F053C680E59E547F70FA79051204641F
:1025930002272AC082C083E9540FF9906185E0695C
:1025A3006012E5C654804449F5C6E59E547F6449EC
:1025B30070F8E9F053C680E59E547F70FA02272A2B
:1025C300C082C083E5A8F853A87E906181E4F0A39C
:1025D300F0A3F0C2BA539AFEC289759B00C2C275BA
:1025E300E90075910075BF0075A91175B905906172
:1025F30081F0A374C0F0A3E4F0D2BA439A017480CB
:102603005842A802272AC082C08374F81209CD90C9
:1026130002C4E0F8A3E0F9E849700302272290021C
:10262300C4E0544060237908851882851983AA82FF
:10263300AB8312031A851882851983AA82AB83128E
:10264300027E9002C4E054BFF0E0A2E050319061FA
:102653009A7433F0A37455F09061A0743AF0900229
:10266300F3E064017009C2919002C674678005901B
:1026730002C67461F01202849002C4E054FEF0E0DA
:102683005402603190619A743FF0A3745AF09061E0
:10269300A0747FF09002F3E064017009D29190027C
:1026A300C6747180059002C6746AF01202849002A7
:1026B300C4E054FDF0E0540460139014B4E4939028
:1026C3006186F012028A9002C4E054FBF0E05408E1
:1026D30060139014B5E493906186F012028A90021D
:1026E300C4E054F7F0E0541060139014B6E49390F0
:1026F3006186F012028A9002C4E054EFF0E05420A5
:10270300600A12028A9002C4E054DFF0A3E054018D
:10271300600D1202F61202909002C5E054FEF074AE
:10272300081209E38001F0D083D08202013274ECF5
:10273300120A3D74F41209CD851882851983AC827F
:10274300AD8375838075823C74041209219014B49F
:1027530093F460030228BD907808E0C39402500309
:1027630002289D7404120A19AC82AD8375838075A7
:10277300822674081209218518828519838582129D
:102783008583137404120A19AC82AD83750EFF7529
:102793000FFF7FFF7E00750C48750D788015740858
:1027A3006E700302283174096E7003022831740AB3
:1027B3006E607B850C82850D8378081208C68C8237
:1027C3008D83A909E50AC9F88810741878081208D6
:1027D30007E5104508F8C3E098A3E099850C8285C6
:1027E3000D8378081208C640188C828D837418787C
:1027F30008120807E5104508F8E0C398F8A3E0803D
:102803001C74187808120807E5104508FAE9FB8CD0
:10281300828D83E0F8A3E0F9EAC398F8EB99F9C352
:10282300E8950EE9950F5006880E890FEEFF0EE529
:102833000C2404F50CE50D3400F50DEEC394135090
:10284300030227A174FF650E700474FF650F6023F4
:102853008F08740278081209BA74482508F582743F
:10286300783509F58378081208C6851282851383A3
:10287300E508F0EC2402FCED3400FD85128285139B
:1028830083A3858212858313740C120A19E5826C63
:102893007003E5836D600302278F750801750900D6
:1028A3007808120C507402120A19AC82AD837A2D87
:1028B3007B051205A874021209E3740C1209E37F65
:1028C3000C020B0FC082C0839061AE7468F0A374D6
:1028D3006AF090624574FBF0A304F053F4FD43FEE9
:1028E300029002F37401F09061A0E0643A90619A5F
:1028F30070237433F0A37455F09061A0743AF074AC
:102903000164017009C2919002C674678028900225
:10291300C674618021743FF0A3745AF09061A0746F
:102923007FF0740164017009D2919002C6747180C2
:10293300059002C6746A022729C082C0839002EE02
:102943007425F09002EC7401F0A3E4F07A01FB1219
:1029530003F89002DAE0F8A3E0C82416F582E8341D
:1029630000F5837408F0A37403F09002EBE06401B4
:1029730070169002EAE070107901120440120416F6
:1029830012043A790012044C02272AC082C08374CD
:10299300FA1209CD9002E3E0640170081202FC9080
:1029A30002E3E4F075E1F19002DAE0F8A3E0C82471
:1029B30015F582E83400F5837401F09002E5E064D4
:1029C30001707690802EC082851882851983AC822F
:1029D300AD83758380D082740612092175D90D9059
:1029E30002DCE0C4333354C04403F5D978DA790206
:1029F30088828983A3A3A3E0F5D988828983A3A8C6
:102A030082A983E864E07003E9640270E3851882B5
:102A1300851983A882A98388828983E0F5D9A3A82D
:102A230082A9837406120A19E582687003E5836933
:102A330070E575E1957901800279001203FE900437
:102A430059742CF0A37403F0A37432F0A37403F04D
:102A5300A3742CF0A37403F0A3742CF0A37403F0F9
:102A6300A37426F0A37403F0A37426F0A37403F0F5
:102A7300A37438F0A37403F09004677426F0A3746E
:102A830003F0A37426F0A37403F0A37426F0A374D5
:102A930003F0A37426F0A37403F0A37426F0A374C5
:102AA30003F0A37426F0A37403F09002DCE0F97A38
:102AB300DD7B021203E09002EEE0F91214077901C4
:102AC3001204047AD67BBE7C897D8E1204107A555B
:102AD3007B557C557D001203E67900120458900261
:102AE300DAE0F8A3E0C82414F582E83400F583742F
:102AF30016F09002C27405F004022724C082C0833A
:102B03009002DAE0F8A3E0C82406F582E83400F581
:102B130083E4F0A3F09002EEE0F912140702272AEF
:102B2300C082C08378C9790288828983A3E4F0884C
:102B3300828983A3A882A983E864D17003E964022C
:102B430070E69002CA7401022729C082C0839003F1
:102B530024E4F090032374FFF0900320F090031F0C
:102B6300E4F090031EF0900321F0A3F002316B74A4
:102B7300EC120A3D900321E0F508A3E0F509E5080E
:102B8300450970061202EA022DF28508828509833F
:102B9300E014600A14600724FE6003022DF2E0F9DA
:102BA30012035C8A0A8B0BAE0AAF0BEE6508700347
:102BB300EF65098E828F836003022CFDE06402605F
:102BC30003022DEBEE2415F582EF3400F583E0606C
:102BD3004C9002E6E0F8A3E0F9A3E0687003A3E0F9
:102BE30069603A1203BC8A088B098C0A8D0B750C39
:102BF3000A750D00750E00750F007808790C120820
:102C03003F7808120C4C8E828F83A3A31208E41220
:102C1300135974041209E3E96003022DEB1203BC98
:102C23008A088B098C0A8D0B750C03750D00750EC4
:102C330000750F007808790C12083F750CFF750DAD
:102C4300FF750EFF7808790C1208A08E828F83A37C
:102C5300A378081208D5EE2415F582EF3400F58326
:102C6300E0640170318E828F83A3A3C082C08390FE
:102C730002E8E0F508A3E0F509E4F50AD083D08281
:102C83007808120852EE240EF582EF3400F58378AB
:102C9300081208D58061EE240EF582EF3400F58327
:102CA300120C638E828F83A3A31208E41213597448
:102CB300041209E3E96401703E8E828F83A3A3C0EB
:102CC30082C0839002E8E0F508A3E0F509E4F50A81
:102CD300D083D0827808120852EE240EF582EF34A6
:102CE30000F58378081208D59002EEE0642770049B
:102CF30074258002E004F0022DEBE064026003021D
:102D03002DF21203029002EBE0640170169002EAC6
:102D1300E07010790112044012041612043A79008B
:102D23001204469002E6E0F8A3E0F9A3E06870031A
:102D3300A3E06960371203BC8A088B098C0A8D0BE8
:102D4300750C0A750D00750E00750F007808790C67
:102D530012083F7808120C4C8E828F83A3A31208AB
:102D6300E412135974041209E3E97076EE2402F8AD
:102D7300EF3400F9880889091203BC8A0C8B0D8C87
:102D83000E8D0F7510037511007512007513007801
:102D93000C791012083F7510FF7511FF7512FF783B
:102DA3000C79101208A0850882850983780C120813
:102DB300D5850882850983C082C0839002E8E0F547
:102DC30008A3E0F509E4F50AF50BD083D08278086F
:102DD300120852EE240EF582EF3400F583780812C0
:102DE30008D59003207402F0EEFAEFFB1203567F2E
:102DF3000C020B0F74F0120A3DEAFEEBFFEE240205
:102E0300F8EF3400F988088909EE2406F8EF340056
:102E1300F9880A890B8882F583120C6785088285F5
:102E230009831208E412039E74021209E3850A82DD
:102E3300850B83120C678508828509831208E412C7
:102E4300039274021209E3EE240EF582EF3400F5C7
:102E5300831208E41203A48E828F83E06440701C03
:102E6300EE2412F8EF3400F988828983E0906064DD
:102E7300F088828983A3E09060658006906064E4B3
:102E8300F0A3F0900321EEF0A3EFF0EE2416F58209
:102E9300EF3400F583E0F8A3E0F5838882120A3B60
:102EA300906054E4F0A3F0A3F0A3F0A3F0A3F0A385
:102EB300F0A3F0A3F0A3F0A3F0A3F0906182E0C22B
:102EC300E6F07591BFEE2415F582EF3400F583E04B
:102ED300640170031203D4E5E170FCEE2414F5825F
:102EE300EF3400F583E0F46003E0F5E1EE2415F53B
:102EF30082EF3400F5837401F09002C8E06401703E
:102F0300731203BC8A088B098C0A8D0B7808120C88
:102F13004C8E828F83A3A31208E41213B27404129B
:102F230009E38A088B098C0A8D0B750C05750D0056
:102F3300750E00750F007808790C12070774037873
:102F430008120807E50824F4F508E5093401F50932
:102F53009002F5E060031204E8E4F50AF50B780843
:102F6300120C4C7A207B009002C1E0F912053C74EC
:102F7300041209E37F08020B0F74F0120A3D89085B
:102F830074FF6508702A90031FE054077003023032
:102F93009A900323E06404700DA3E0640170257A22
:102FA300237B0302309EE0640160EEE0640260E98B
:102FB300900323E06508700CA3E0640170067E2390
:102FC3007F0380127E007F00900323E06508700A70
:102FD300A3E064017004780180027800E914600AB8
:102FE30014603424FE605202309A900323E064029A
:102FF3007008A3E06401700D805AE064047006A3B6
:10300300E06401604FE8A2E05006EEFAEFFB8004B3
:103013007A007B0002309E900323E064047008A3CF
:10302300E06401700D802DE064017006A3E064018B
:103033006022E8A2E050608058900323E0640170AE
:1030430008A3E064017045800BE06402703EA3E0D6
:1030530064017038E8A2E04003022FA2A3750CF6C6
:10306300750DFF750EFF750FFF780C120852780C63
:10307300120C4C8E828F83A3A31208E4121359748B
:10308300041209E3E96003022FA28005E8A2E050DD
:1030930006EEFAEFFB80047A007B00022F7774F7C9
:1030A300120A3DE9FE900324E0705B7401F0EE9098
:1030B3000323F01203BC9003251208F0900329E4C4
:1030C300F0A3F090033174FFF0A3F0A3F0A3F0900A
:1030D30003377401F0A3F0A3E4F0A3F090031FE01F
:1030E3004EF090031EE004F06401600A74806E6089
:1030F3000574406E700A9003217423F0A37403F0E7
:103103007A237B0380047A007B007F01020B0FC0CC
:1031130082C0838A828B83E0F8A3E0F98A828B835F
:10312300E4F0A3F088828983A3F088828983E0F4A2
:10313300F890031FE058F090031EE014F0700B901A
:103143000321E4F0A3F09002C2F0801CC082C0838C
:1031530090031EE0600A900321E0FAA3E0FB8004E1
:103163007A007B008002E0F9D083D082020132C072
:1031730082C083E9F8900323E0687005A3E0F98037
:1031830002790080E3C082C08390031E80D8C0828E
:10319300C0831203DA1203D4023692C082C0839032
:1031A30061B1E0C2E0F0E04403F0906188E06404C0
:1031B30070F8023692C082C0839061C0E0FAE4F0F6
:1031C300F8F9E82400F582E93460F583E41231E785
:1031D3009480E9940140EBEA9061C0F090618A74B5
:1031E3000102368DF01231EC22E8240108E93400A3
:1031F300F9C3E822C082C0838A828B83E090601681
:103203001235BEA3E0906017123235906018123267
:103213003E90601912324390601A12324890601B3C
:10322300F0E99060157005E0C2E08003E0D2E002AF
:103233003691F08A828B83A3A3E022123253E022D9
:1032430012324EE02212324EA3E022123253A32254
:10325300F08A828B83A3A3A32274F0120A3DEA901F
:103263006005F0EBA3F0ECA3F07F08020B0FC08224
:10327300C0837401699060037005E0D2E08003E0CD
:10328300C2E0023691C082C083906003E054F949E2
:10329300023691C082C083EA90600AF0EB540102C7
:1032A3003690C082C083E990600C7005E0C2E08074
:1032B30003E0D2E0023691C082C083E990600C70D3
:1032C30005E0C2E18003E0D2E1023691C082C0830F
:1032D300906061E002330874F0120A3DEA90619550
:1032E30012361D02326AC082C08390033BE4F09021
:1032F3006022F0A3F0A37830F0A3D8FC023692F05A
:103303007F02020B0FF902369274F4120A3DEAFEB1
:10331300EBFF89088C0990033BE064087004790390
:10332300807C120470E9F470687900750A01750BEA
:1033330000E9780A1209BAAC0A906022E05C705581
:10334300E04C1233A6FA74603BFB78068E828F83BF
:103353001235E98E828F83A3AE82AF838A828B83F9
:10336300A3AA82AB8318E870E3E508700AECF4F8CB
:10337300906023E0588005906023E04CF090033B7D
:10338300E004F07401650970051204288003120437
:10339300347900800909E9C39408408F79017F04D7
:1033A300020B0FF0E975F006A4FAABF074242A229D
:1033B300C082C083E99060147005E0C2E28003E03C
:1033C300D2E202369174F6120A3D750801750900BE
:1033D300E978081209BA906009E0450802330274DB
:1033E300F7120A3D12047074FF696007120428790A
:1033F30000800279057F01020B0F74F6120A3D75F6
:103403000801750900E978081209BAE508F4F8908B
:103413006009E058023302C082C083906009E4026D
:10342300369174F2120A3D74FA1209CD7A007B6068
:10343300E970027A33906009E0F8906022E0F50BBE
:10344300A3E0F99061C07401F0E88A828B83F0A352
:10345300E50BF0A3E9F0A3AA82AB839061C0E4F08B
:10346300F50A750C01750D00E50A780C1209BAE529
:103473000C550B6056750900E50A75F006A4F8A90A
:10348300F0850982AC82742428FE746039FFEE2C27
:10349300F582EF1235B3C0E012358FD0E01235C498
:1034A30040DF9061C07401F07509001235A1C0E0DE
:1034B300E82CFCE93400FDEA2CF582EB3DF583D0E2
:1034C300E01235C440E59061C0E4F0050AE50AC3A3
:1034D3009408408E74061209E37F06020B0F74F200
:1034E300120A3D74FA1209CD7A007B60E970027A00
:1034F300331235B9E0F8A3E0F50BA3E0F9A3AA82F0
:10350300AB839061C0E4F0E8906009F0E50B906054
:1035130022F0E9A3F0750A00750C01750D00E50AA8
:10352300780C1209BAE50C550B60559061C0740113
:10353300F0750900E50A75F006A4F8A9F08509827B
:10354300AC82EA28FEEB39FFEE2CF582EF1235B39D
:10355300C0E012358FD0E01235C440E19061C0E481
:10356300F0F5091235A1C0E0E82CFCE93400FD7444
:10357300242CF58274603DF583D0E01235C440E31A
:10358300050AE50AC39408408F0234D7851882855B
:103593001983E5822CF582E5833400F583228509BE
:1035A30082AC82851882851983E5822CF582E583B6
:1035B3003400F583E0229061C07401F08A828B832A
:1035C30022F00509E509C3940622C082C0837A006C
:1035D3007B60E970027A331235B9E4F0A3F0A3F00B
:1035E3009061C00236911235ED22123699F022C055
:1035F30082C083E9906002023691C082C083E99061
:1036030060027005E0D2E38003E0C2E3023691C0BA
:1036130082C083E99061C6023691F0EBA3F0ECA37C
:10362300F0ED22C082C083E9601714601C14601E91
:1036330014602314602514602A14603314603C80E2
:10364300419061E9E054FC80389061E9801C90610D
:10365300E9E0C2E0802B9061E9801B9061E9E0C260
:10366300E1801E9061E9E0C2E1F0E0D2E0801290D7
:1036730061E9E0C2E0F0E0D2E180069061E9E04474
:1036830003F0800B75E182020132F0A3F0A3F0D0C6
:1036930083D082020132E08A828B832274F5120A7C
:1036A3003D890A7900750801750900E9780812094E
:1036B300BA906022E055086052E975F006A4FCADAB
:1036C300F074242CFC74603DFD750800850882AEFF
:1036D30082EC2EF582ED1235B3F8EA2EF582EB1269
:1036E30035B36870090508E508C3940640DE74061F
:1036F30065087017906023E0F508750900E97808FC
:1037030012099BE5085401650A600909E9C3940895
:10371300409379FF7F03020B0F74F4120A3D74FC8C
:103723001209CD7F00900404E4F0900401F07E7D43
:103733007508047509007808120C507402120A33D4
:103743007A007B00EEF91205A274021209E390805D
:103753003478081208C685188285198378081206FA
:103763009E7019900401E0600FF9120656EEF912EB
:103773000656900401E48001EEF0801885188285D6
:1037830019831208FCE8494A4B7004EEFF8005EEEA
:10379300F91206560EEEC3947F4095900401E07033
:1037A30026EF7018797D12064A9004027404F0A380
:1037B300E4F0900404E0601979008017F012065CCD
:1037C300EFF9120668800AEF6004F9120650120638
:1037D3005C790102386C74F7120A3D74FC1209CD4E
:1037E300E9FE851882851983E4F0A3F0A37410F031
:1037F300A3E4F0AC18AD19FAFB120674900404E0CC
:103803007005EE900401F074041209E37F01020BCA
:103813000F74F4120A3D74FF1209CD890890040451
:10382300E070321205AE7E007F00750A01750B0051
:10383300780A120C507402120A33EEFAEFFBA9084D
:103843001205A274021209E3851882851983E0F434
:1038530060089004047401F0800B0EEE70010FC336
:10386300EF940840C57401800274041209E37F04D5
:10387300020B0F74F4120A3D74FF1209CD89087EFE
:10388300007F00750A01750B00780A120C50740250
:10389300120A33EEFAEFFBA9081205A27402120909
:1038A300E3851882851983E0F46007A9081206509E
:1038B300800B0EEE70010FC3EF940840C680A67410
:1038C300F4120A3D74FC1209CD7EFC7F07750804CF
:1038D3007509007808120C507402120A33EEFAEFDD
:1038E300FB900401E0F91205A274021209E390802F
:1038F3006478081208C68518828519837808120629
:103903009E700AEE24FCFEEF1239A150C0123C6FE8
:10391300E8F0A3E9F002386C74F4120A3D74FC1267
:1039230009CD8908EAFEEBFF8C09EE24FCFEEF12B9
:1039330039A14063750A04750B00780A120C5074A0
:1039430002120A33EEFAEFFBA9081205A27402125F
:1039530009E37402120A19123B5C851882851983E4
:1039630085090AE0650A7002A3E0700AEEC398FABB
:10397300EF9400FB8025E9548070AFE82404FAE457
:1039830039FBC3EE9AEF9B400EEEC398F8EF99F91B
:10399300E824FCFEE980987A007B0002386C34FF4F
:1039A300FFC3EE9404EF94002274F0120A3D74F303
:1039B3001209CDE9851882851983F0750FFF647D9F
:1039C3007005750E7E8003750E7D750A04750B00F8
:1039D300900402E024FCFEA3E0023AD57403120A29
:1039E30019A3E054806003023AC47403120A1985D0
:1039F3000F08E065087002A3E07003023AC4740381
:103A0300120A19E0F50FFCAA0AAB0BA90E12066203
:103A13008B09EA45096003023AC47405120A1912B4
:103A23003B62F508EF99F5097407120A19E8F0A348
:103A3300E9F07401120A19E4F0A3F0750C04750D92
:103A430000780C120C50740B120A337403120A1907
:103A5300E02508FAA3E03509FB900401E0F912051B
:103A6300A274021209E37409120A337401120A19C7
:103A7300E0250AFAA3E0350BFBA90E1206747401C4
:103A8300120A19E02404F0A3E03400F07407120AC8
:103A930019C082C0837401120A19123B5CD083D00F
:103AA30082C3E098A3E09950927405120A19E024A6
:103AB30004F8A3E03400F9E50A28F50AE50B39F523
:103AC3000B7405120A19123B62F8EF99F9E824FC0A
:103AD300FEE91239A1405D900404E0707775080493
:103AE3007509007808120C507405120A33EEFAEFC8
:103AF300FB7402120A19E0F91205A274021209E317
:103B03007403120A19E0F47003A3E0F460030239AA
:103B1300DF7405120A19123B5C54806007EE24FC23
:103B2300FEEF80AEE82404F8500109C3EE98EF9944
:103B3300508F8020A90E12064A900404E0700A9068
:103B43000402E50AF0A3E50BF0851882851983E0EA
:103B5300F9120650740D023C67E0F8A3E0F9221253
:103B63003B5CEEC3982274F1120A3D74FC1209CD3A
:103B7300890E8A088B098C0C8D0D7413120A19E0B7
:103B8300FE8015E5082404F508E43509F509E50C7C
:103B93002404F50C5002050DEEFF74FF2F1E046084
:103BA3003D750A04750B00780A120C507402120A50
:103BB30033AA08AB09A90E1205A274021209E3780D
:103BC3000A120C50AC0CAD0D7402120A2B12048EA7
:103BD30074021209E3E970AB9004047401F07404F5
:103BE3001209E37F07020B0F74F0120A3D890AEAF8
:103BF300FEEBFF8C0E8D0F900404E0704D750801F1
:103C03007509007808120C508E088F097402780821
:103C13001209AB890CF50D7409780C1209BAE50881
:103C23002400FAE509350DFB1205A874021209E315
:103C33007508017808120C54AC0EAD0FEEFAEFFBC9
:103C4300A90A12066E74011209E3023C6AC082C01B
:103C530083120644E97004790180027900D083D08D
:103C6300820201321209E37F08020B0FEE2404F8EB
:103C7300E43FF990040222C082C0839002A774FF3C
:103C8300F0A3F0A3F0A3F0A3F0A3749FF0A3E4F0D8
:103C9300A37420F09002A614F0D083D082020132E4
:103CA3007F02020B0F7F0A020B0F74EE120A3D8A8A
:103CB300088B09890B8C0E8D0F90033EE0700990E1
:103CC3000340E07003023D799002A4E06003023DEB
:103CD30079898285820C750D00E92407FAE43400A2
:103CE300FB12049A8A108B11AE10AF11EE4F7003C2
:103CF300023D8A74186508700474206509600C74A9
:103D03001765087004742065097010900340E06023
:103D13000AF50A8E828F837492800C90033EE0F53D
:103D23000A8E828F837491F0A3740E123DAC8E823F
:103D33008F83A3A3F08E828F831241BDEE2405F8F7
:103D4300EF3400F9E8FAE9FBEE2407F8EF123F221B
:103D5300F0780C120C50AC0EAD0F8A828B83E0FA14
:103D6300A3E0FB12048874021209E3EEFAEFFBA945
:103D73000A1204A68011780E120C50AC0B790E12A5
:103D830002A874021209E3023CA874F6120A3DE980
:103D9300FE8C088D097808120C50EEFC79FF120294
:103DA300A874021209E3023CA3F09002A5E0227476
:103DB300F2120A3D89098A0A8B0B8C0874072508BD
:103DC300FA74FF65096004780380027802E82AFA2E
:103DD3007B0012049A8A0C8B0DAE0CAF0DEE4F7064
:103DE30003023ED48E828F837401F0A374FFF0EE3E
:103DF3002402FAEF3400FBEE2404F8EF123F12E53D
:103E030009123F08E02402F8A3E03400F9890DA960
:103E13000B740E120A1912417D74FF650960327426
:103E23000325088882850D83123DACC0E0123ED97C
:103E3300D0E0123F01E50A123F01A3E9F085080A29
:103E4300750B00780A120C508A828B83E02406805B
:103E530066740225088882850D83F08C828D83E049
:103E6300C0E0123ED9D0E0F08C828D83A3E0C0E0A5
:103E7300123EEDD0E0F08C828D83A3A3E0C0E0126C
:103E83003EEDA3D0E0123EFC2406123EF2123EFCAD
:103E93001241CDE9F085080AE50A24FDF50AE43468
:103EA300FFF50B780A120C50EC2403FCED3400FDF3
:103EB3008A828B83E02408FAA3E03400FB1204888F
:103EC30074021209E3EEFAEFFB90033CE0F91204EB
:103ED300A67F06020B0F123EDD228A828B83E0F857
:103EE300A3E0F5838882A3A3A322123EDDA322F5D8
:103EF30082E83400F583E50A22123F2EC822123FDE
:103F03003BA3A3A322123F0C22F08A828B832212AB
:103F13003F22123F2EF58388827404123F3B2234E2
:103F230000F98A828B83E8F0A3E922123F3222F060
:103F33008A828B831241B322123F32F5838882A394
:103F43002274E8120A3D89148A118C168D178B0D81
:103F53008B82AE827418120A191241B3F9741812C3
:103F63000A19E8F0A3E9F0741A120A19E0F510909F
:103F7300033EE0700302404E7A2F7B0012049A8ABC
:103F83000A8B0BEA450B700302414A12418C7402FF
:103F9300F0EA2403F50EEB3400F50F850E82F5836A
:103FA3007401F0EA2406F508EB3400F5091241B870
:103FB300750C00807B850882850983E514F0A3E5F1
:103FC30011F07512067513007812120C50AC16AD71
:103FD30017E5082402FAE5093400FB120488740289
:103FE3001209E3850882850983A3A3A3A3A3A3A33B
:103FF300A3EEF08E127812120C50741A120A1912D0
:10400300417DE5082409FAE5093400FB12048874AC
:10401300021209E3E5082428F582E5091241D2E5F5
:1040230010F0050CE5082429F508E5093400F50925
:10403300850E82850F83E0F8E50CC3985003023F99
:10404300B8AA0AAB0B90033E0241459002AEE0A230
:10405300E5400302414A9002A6E0A2E14003024187
:104063004A740C250DF50C7407250CFA7B00120419
:104073009A8A0A8B0BEA450B700302414A1241A04C
:10408300F508EB3400F5091241838508828509831D
:10409300E8F0A3E912414F740412414FA3743E1296
:1040A300416AE50C12416AA374021241777401124A
:1040B3004177A3E5141241561241C824061241CF99
:1040C300E511F0750E06750F00780E120C50AC1644
:1040D300AD17850882850983E02407FAA3E034003D
:1040E300FB12048874021209E3850882850983128E
:1040F30041C8240D1241CFEEF08E0E780E120C50F3
:10410300741A120A1912417D850882850983E024F5
:104113000EFAA3E03400FB12048874021209E3A828
:104123000D850882850983E028F8A3E03400F9E8C7
:10413300240EF582E91241D2E510F0AA0AAB0B90E6
:10414300033CE0F91204A67F10020B0F1241561232
:10415300415E22F085088285098322124162221280
:1041630041B3F58388822212416E221241561241D5
:1041730062A3A32212416EA3A322E0FCA3E0FD22CB
:10418300EA2404F8EB3400F9228A828B83749112B7
:10419300419622F0A3743E123F0CA3A3221241A422
:1041A300228A828B837401F0A374FFF0EA24022233
:1041B300E0F8A3E0228A828B83A3A3A3A3E508F0FC
:1041C300A3E509F0221241B3C8222407F582E8349B
:1041D30000F5832274F4120A3D907803E064427080
:1041E300559002F8E014F0704DC2AF1241F100781F
:1041F3001ED0E0F618D0E0F6E59F54077005750968
:10420300FF800375097FC4C0E0781DE6F50808E662
:104213005509F509740B78081209ABD0E02508F8A5
:10422300906270E0A2E740F8E8C333906272F090C6
:104233006270E0D2E0F07902120374E96401703035
:10424300E5A1A2E5500875A1DF1203328025900293
:10425300C3E0700479018002790012033E9002DA10
:10426300E0F8A3E0C82415F582E83400F583E4F010
:104273001203507F04020B0F74F4120A3D790212E9
:104283000374E964016003024347790112033E901A
:1042930002EEE06427700474258002E004F09002CB
:1042A300DAE02402F8A3E03400F9E8FAE9FB90022B
:1042B300E6E0F508A3E0F509E4F50AF50B8A828B3D
:1042C3008378081208659002DAE0F8A3E0C82406B0
:1042D300F582E83400F583E4F0A3F09002E8E0F51A
:1042E30008A3E0F50989838A8278081208529002AC
:1042F300DAE0F8A3E0C8240EF582E83400F5837809
:10430300081208D59002DAE0F8A3E0C82414F58275
:10431300E83400F5837416F09002DAE0F8A3E0C8FD
:104323002416F582E83400F5837408F0A37403F0CF
:104333009002DAE0F8A3E0C82415F582E83400F52A
:10434300837401F0120350024276C082C08353BFCC
:10435300EF7902120374E96401700C7ADA7B0212BA
:1043630003689002E4E4F075E1F1120350D083D0C6
:104373008202013274F6120A3D74FC1209CDE9FE81
:104383009061C8E070030245BB7401120A1985826B
:10439300088583097808120C507508FF750902789F
:1043A30008120C507406120A19858208858309784D
:1043B30008120C507508F97509027808120C50742C
:1043C30008120A19AC82AD83740B120A19AA82ABC4
:1043D3008312034474081209E39002EBE064017052
:1043E3002C9002EAE070137C01851882851983E022
:1043F300F97AF97B0212041C80136401700F85188B
:1044030082851983E0F97AF97B0212042E74011272
:104413000A19E0F5087808120C547508FF750902AB
:104423007808120C507405120A19E0FB7CF97D021E
:104433007403120A19E0FA7406120A19E0F9120257
:10444300AE74031209E312046A9061C8E0700302B8
:1044530045BB74016E600302454F7401120A19854E
:1044630082088583097808120C507508FF750902C4
:104473007808120C507406120A198582088583097C
:104483007808120C507508F97509027808120C5057
:104493007408120A19AC82AD83740B120A19AA822A
:1044A300AB8312034474081209E37401120A19E07E
:1044B300F5087808120C547508FF7509027808127C
:1044C3000C507405120A19E0FB7CF97D0274031287
:1044D3000A19E0FA7406120A19E0F91202AE74031B
:1044E3001209E39002F0E4F09002EFE004F06402BA
:1044F30070269002ECE0F8A3E0C313F9E813F890F8
:1045030002ECF0A3E9F0E84970099002EC7401F0C1
:10451300A3E4F09002EFE4F09002ECE06401700297
:10452300A3E070067A017B00801A120314E9F8797C
:10453300009002ECE0FAA3E0FB120942EA24010A2C
:10454300EB3400FB1203F812046A806C75E181906E
:1045530002EFE4F0A3E004F06402702D9002ECE0BB
:10456300F8A3E0F9E8C333F8E933F99002ECE8F093
:10457300A3E9F0C3E89401E9940140089002ECE454
:10458300F0A304F09002F0E4F09002ECE064017018
:1045930002A3E070067A017B00801A120314E9F883
:1045A30079009002ECE0FAA3E0FB120942EA24014D
:1045B3000AEB3400FB1203F874041209E37F0202CE
:1045C3000B0F74F7120A3D74FE1209CDECF8EDF9E6
:1045D300E5D924F9FC740D120A19E0FEA3E0FFECFF
:1045E3008E828F83F0E5D9FD740F5D601014601423
:1045F30014602124FE602D24FE6021802F8A828B8B
:1046030083E4802E8A828B837401F08E828F83E011
:1046130024FA801E8A828B83740380168A828B839A
:104623007402800E8A828B83740480068A828B8351
:1046330074FFF0EDA2E6E43388828983F0740B12F1
:104643000A19E0F8A3E0F988828983E5824583703B
:104653000A7806E5D918E8601A80F8E5822406F896
:10466300E5833400F9E5D9F0A3E865827003E965D1
:104673008370F2740F120A19E0F8A3E0F9888289B3
:1046830083E5824583700CEC6015FAE5D91AEA607C
:104693000E80F8EC6009FBE5D9F0A31BEB70F8E59D
:1046A300D9851882851983F0E5D9C0E07401120A0F
:1046B30019D0E0F07411120A19E0F8A3E0F9851893
:1046C30082851983E06480700888828983747F807F
:1046D300129002C6E0FC851882851983E0C39C888A
:1046E300828983F074021209E37F01020B0F74F5D0
:1046F300120A3D89088A09EA602F14602C14600AA3
:1047030024FE601B24FC6021800B7CE87D037B0579
:104713007A011205D890038FE0F97F03020B0F7C17
:10472300E87D037B057A0A80E9750A0153080F7E49
:10473300927F03801CE06401F0E0FAA90A1205E409
:10474300E50A6208E50AC333F50AEE2409FE5001BF
:104753000FE50860C0550A60EB740865098E828F07
:104763008360D2E50980D174F2120A3D89088A0B6D
:104773008B0A8C0C8D0DE97003024839EB70030230
:104783004839EC450D7003024839EBC39464400388
:1047930002483575090153080F7E927F03807555D2
:1047A3000960648E828F83E0C39402500D90038F5F
:1047B300E05509F8900391E048F08E828F83E4F08E
:1047C300A3A3A3E50CF0A3E50DF08E828F83A3A32F
:1047D300E50AF08E828F83A3E50BF070078E828F3C
:1047E300837404F012055AEAF8EBF9ECFAEDFB8E48
:1047F300828F83A3A3A3A3A31209088E828F83E0CE
:10480300D2E1F0E5096208E509C333F509EE2409AD
:10481300FE50010FE50870877A207B0090038EE03D
:10482300F91205487A207B0090038EE0F91204CA3E
:1048330080097A0180027A001205D27F06020B0FEB
:1048430074F0120A3D74F31209CD7405120A19E4C7
:10485300F0A3F085188285198304F07403120A19F2
:10486300740FF07401120A197492F0A37403F09098
:1048730003B6E06003024ABB851882851983E0F81A
:104883007403120A19E0587003024A627401120A8F
:1048930019124AEE4003024A5212055A7409120AC7
:1048A300191208F07401120A19E02405F8A3E03480
:1048B30000F97407120A19E8F0A3E9F07407120A61
:1048C30019124AD81208C67409120A19780812066E
:1048D300D85003024A1A7401120A19E02401F8A3FA
:1048E300E03400F9E8FEE9FF7401120A1918124ACC
:1048F300CCA2E050437401120A19124AC5F8746439
:10490300C398C0E07404120A19D0E0F07401120ACB
:1049130019124AE0C2E0F07A00851882851983E013
:10492300F91205E47401120A19124AE0A2E2405294
:104933008E828F83E014801D8E828F83E0701974C2
:1049430001120A19124ACCA2E2400D7401120A198B
:10495300124ACC6402F0802A7401120A19124AC561
:10496300C0E07404120A19D0E0F07401120A19129B
:104973004AE0D2E0F07A01851882851983E0F912C2
:1049830005E47401120A19124AEE50567404120A0D
:1049930019E0F50CE4F50DF50EF50F04120A1912E2
:1049A3004AD1A3A3A3124AF4780C790812070790FB
:1049B300804478081208C6780C7908120787AE0C71
:1049C300AF0D7409120A198E088F09E4F50AF50B65
:1049D30078081208527407120A19124AD81208D515
:1049E300804A7E007F00851882851983E0F8900352
:1049F30091E05860047A0180027A00851882851953
:104A030083E0F91205D2851882851983E0F4F890C2
:104A13000391E058F080157409120A19780C1208F2
:104A2300C6E508C3950CFEE509950DFF7405120A4A
:104A330019E0F8A3E0F9E849600BEE4F6011C3EE0B
:104A430098EF99500A7405120A19EEF0A3EFF08556
:104A53001882851983E0F87403120A19E068F08557
:104A63001882851983E0C333F07401120A19E02414
:104A730009F8A3E03400F97401120A19E8F0A3E974
:104A8300F07403120A19E0600302487B7405120AEA
:104A930019E0F8A3E0F9E849601E7405120A191237
:104AA3004AF47808120C4C7A207B0090038EE0F9CC
:104AB30012053C74041209E3740D1209E37F080222
:104AC3000B0F124AD1A3A3E022124AD1E022A3E0A2
:104AD300F583888222E0F8124AD1780822124AE448
:104AE30022E0F8A3E0F5838882E022124AE4A2E1FF
:104AF30022E0F508A3E0F509E4F50AF50B22C082EC
:104B0300C083E9A2E0500B74016A7004D290800262
:104B1300C290E9A2E1500B74016A7004D291800241
:104B2300C291E9A2E2500B74016A7004D29480022C
:104B3300C294E9A2E3500B74016A7004D290800519
:104B4300C290EA600790038FE049800974FF69F817
:104B530090038FE05880049003B6E4F0D083D082B2
:104B6300020132C082C0839003B67401F0E590FB6A
:104B7300E590F8E590F9E590FAE8A2E15004D2F067
:104B83008002C2F0E9A2E45004D2F18002C2F1EA49
:104B9300A2E0E433333333FAA2F1E4333333F9A23B
:104BA300F0E43333F8EBA2E0E43348494A9003904E
:104BB300F07A00790F1205E480A2C082C0837A01E3
:104BC300900390E0F91205E41205DE024B5A74F7E4
:104BD300120A3D7409120A19124E86801C8C828DAA
:104BE30083E08A828B83F08C828D83A3AC82AD8336
:104BF3008A828B83A3AA82AB83E8FEE9FFEE24FFBC
:104C030018EF34FFF9EE4F70D4024E4674F5120AD2
:104C13003DECF8EDF9740B120A19E0F508A3E0F581
:104C230009AC08AD09EC24FFF508ED34FFF509ECF8
:104C33004D602CEAFCEBFD8C828D83A3AA82AB83AF
:104C4300E8FEE9FF8E828F83A3A882A9838C828DDD
:104C530083E0FC8E828F83E06C60C67900800279EA
:104C6300017F03020B0F74F6120A3DE9FE8C088DD7
:104C7300097808120C508E08AC087D001206807467
:104C8300021209E3024E4B74F6120A3DEAFEEBFFF1
:104C9300EE4F603DEE2405FAE43FFB1204FA8A0866
:104CA3008B09A808A909E849602788828983E4F069
:104CB300A3F088828983A3A3EEF0A3EFF08882890F
:104CC30083A3A3A3A374FFF0E82405FAE439FB80CC
:104CD300047A007B00024E4BC082C083EA4B70040F
:104CE30079058016124D6D60047904800DEA24FB6A
:104CF300FAEB34FFFB1205007900D083D082020166
:104D03003274F7120A3D7C00024E4374F7120A3DD7
:104D1300E9FEECFFEA4B6021908068E0F8EEC3986F
:104D230040071204A07903803E124EFB124E5070CE
:104D330005124D6D60071204A07905802AEEF07408
:104D4300016F700DEAFCEBFD7A427B031204BE8017
:104D53000BEAFCEBFD7A427B031204B87A007B80FA
:104D6300EEF91204CA7900024E46EA24FFF582EBFB
:104D730034FFF583E0F42274F4120A3D8908750ABE
:104D830000750B007E007F00A2AFE433F509C2AFCC
:104D93009003428011EE4F7004880A890BE824FBCC
:104DA300F582E9124F01124E506023E824FFF58289
:104DB300E9124F01E0650870DCEE4F7006E8FEE98A
:104DC300FF80DA7A007B80A9081204CA800D7A007A
:104DD3007B80A9081204D0EE4F6015780A120C509C
:104DE300EEFCEFFD7A427B031204C474021209E362
:104DF300E509A2E092AFEEFAEFFB7F04020B0FE0AE
:104E0300FAA3E0FB2274F7120A3DEAFEEBFFA2AF1E
:104E1300E433FAC2AFEC24FBF582ED124F01E4F068
:104E2300A3F08003124F068E828F83124E5070F4CC
:104E33008E828F83ECF0A3EDF0EAA2E092AF8003C1
:104E43001204AC7F01020B0F7F02020B0F124E867E
:104E5300E8492274F7120A3DE5A8FEC2AF8A828BA5
:104E630083124E86EC24FBF582ED124F01E8F0A38A
:104E7300E9F08A828B83ECF0A3EDF0EEA2E7A2E7E0
:104E8300024E3FE0F8A3E0F92274F4120A3DA2AF08
:104E9300E433FEC2AFEC24FBF8ED34FFF988088954
:104EA300098882F583124E868A828B83E0F50AA3F2
:104EB300E0F50BEC650A7003ED650B70068A828BD7
:104EC300838012740C120A19E0FAA3E0CA24FBF5DA
:104ED30082EA124F01E8F0A3E9F08508828509838D
:104EE300E4F0A3F0EC24FFF582ED124F0174FFF020
:104EF300EEA2E092AF024DFDEA24FBF582EB34FF14
:104F0300F58322E824FBF8E934FFF9E8FEE9FF2200
:104F130074F7120A3DE9FD908068E0F8EDC39850FC
:104F23002AE5A8FEC2AFED29F8E433F9900356E071
:104F330028FCA3E0398C82F583E04AF0A3E04BF030
:104F4300EEA2E7A2E792AF790080027903024E4610
:104F530074F7120A3DE9FE908068E0F8EEC39850BA
:104F630022E5A8FFC2AFEAF4FCEBF4FDEE291250F0
:104F730060E05CF0A3E05DF0EFA2E7A2E792AF7917
:104F83000080027903024E46C082C0831204EE9071
:104F93000342E4F0A3F012052412050612051E12C3
:104FA30004F47900024CFDC082C0831204E280FB4A
:104FB30074F4120A3D7508001204E812059CA8084F
:104FC300E828125060124E50700D0508908068E07A
:104FD300F8E508C39840E7908068E0F8E508C398CF
:104FE300506CE5A8FCC2AFAE08EE2EFEE433FF9092
:104FF3000356E02EF8A3E03FF988828983124E021C
:1050030088828983E4F0A3F0ECA2E7A2E792AFE5FC
:1050130008900473F0F9741A2EF58274803FF583B7
:10502300125057120A3B90047374FFF0E5A8F9C2BB
:10503300AF900356E02EF8A3E03F8882F583E04A61
:10504300F0A3E04BF0E9A2E7A2E792AF80031205D9
:1050530018024DFDE0F8A3E0F583888222F8E433DB
:10506300F9900356E028FAA3E0398A82F583227483
:10507300F7120A3D90035A125083F07F01020B0F7F
:10508300E4F0A3F0A3F0A32274F1120A3D890EEA1F
:10509300FEEBFF120530740F120A1978081208C6C6
:1050A300EA4B600D8A828B83A3A378081208D5800C
:1050B3006A7A0D7B001204FAEA4B605B8A828B8367
:1050C300A3A3A3A3A3A3A3A3E50E125123EEF0A3CB
:1050D300EFF08A828B83A3A378081208D58A828B88
:1050E30083E4F0A3125123A3A3A3125084F09003EB
:1050F3005812543C9003586017E0FCA3E08003E887
:10510300FCE9FD8C828D8312543C70F38C828D8379
:10511300EAF0A3EBF080047A007B007F07020B0F19
:10512300F08A828B83A3A3A3A3A3A322C082C083F9
:1051330090035880048C828D83E0FCA3E0FDEC4D4A
:1051430060238C828D83A3A3A3A3A3A3E06A70032C
:10515300A3E06B70E08C828D83A3A3A3A3A3A3A37B
:10516300A3E06970D0ECFAEDFB02523DC082C0832C
:10517300EA4B600E8A828B83A3A3A3A3A3A3E4F0C9
:10518300A3F002523D74F6120A3DE5A8FFC2AF74C4
:105193000A120A19120C6312052A74041209E38B0A
:1051A30009A909EFA2E7A2E792AFEA4960047900EF
:1051B300800279087F02020B0F74F2120A3DA2AF3C
:1051C300E433FEC2AF740E120A1978081208C678C7
:1051D30008120C4C12052A74041209E3EA4B6012FC
:1051E3008A828B83A3A3A3A3A3A3A3A3A378081255
:1051F30008D5EEA2E092AFEA4B6004790080027911
:10520300087F06020B0F74F4120A3DA2AFE433F5D4
:1052130009C2AF1205308A0A8B0BAE0AAF0BEE4FF1
:105223006003120536E509A2E092AFEE4F60047900
:1052330000800279067F04020B0FD083D082020123
:105243003274F0120A3D74F91209CD8A088B098C65
:105253000A8D0B7403120A1978081208D5E5A8F908
:10526300C2AF90035A7808120865E9A2E7A2E79251
:10527300AF90035812543C700302542C900358E02F
:10528300FEA3E0FF7401120A19E4F0A3F0750C0009
:10529300750D00A2AFE433851882851983F0C2AF80
:1052A300EE2402F50EE43FF50F7405120A191254A9
:1052B3003C70257404120A19E0701D7403120A1954
:1052C300E0F88E828F83A3A3E0C398400B8E828F76
:1052D30083A3A3E0C3988037850E82850F83780864
:1052E3001208C67403120A1978081206D8501774E4
:1052F30003120A1978081208C6850E82850F83786F
:105303000812088C800A850E82850F83125083F061
:10531300EE2404F50AE43FF50B1254367054850A63
:1053230082850B8312543C704EEE2409F508E43F4A
:10533300F509850882F5831208FCE8494A4B604F5A
:105343008E828F83A3A3A3A3A3A31254AB60408E27
:10535300828F83A3A3A3A3A3A3A3A3E0F91204CAE5
:105363008508828509831208FC850E82850F8312C6
:105373000908125436700B850A82850B8312543C3C
:10538300600D8E828F83A3A3A3A312543A702E8E33
:10539300828F83E0F8A3E0F97401120A191254AB67
:1053A3007005900358800B7401120A19A3E0F5836A
:1053B3008A82E8F0A3E9F08E0C8F0D800A74011243
:1053C3000A19EEF0A3EFF08E828F83E0FEA3E0FFD5
:1053D300851882851983E0A2E092AFE50C450D6044
:1053E30041850C82850D8312543A702F850C82857A
:1053F3000D83A3A312543A7022850C82850D83A3D7
:10540300A3A3A3A3A31254A5850C82850D83A3A3F1
:10541300A3A3A3A3A3A3E0F91204CAAA0CAB0D127E
:105423000500EE4F600302529074071209E37F08F0
:10543300020B0F8E828F83A3A3E0F8A3E0F9E84960
:105443002274F0120A3D90035812543C603D9003BD
:10545300581254A5750C8E750DC2750EF5750F286F
:105463008A828B83A3A378081208C6780C79081262
:1054730006C8500C85080C85090D850A0E850B0F8F
:105483008A828B831254AB600E80D5750C00750D28
:1054930000750E00750F00AA0CAB0DAC0EAD0F021C
:1054A3005431E0FAA3E0FB221254A5EA4B22C08256
:1054B300C08390035A1208E402523D74F0120A3D6D
:1054C30074F11209CD7401120A19EAF0A3EBF07416
:1054D30009120A19ECF0A3EDF07407120A19E4F0AB
:1054E300A3801B741F120A191258997409120A19FE
:1054F30012589F120A3B7407120A191258DDF074EE
:1055030001120A191258B0F97401120A191258C774
:10551300120A19EAF0A3EBF07425696015E970C368
:105523007407120A19125899740F1209E37F0802BB
:105533000B0F75080079007401120A191258C7126B
:105543000A191258B02498600824FC701109E980E4
:10555300057508017401120A19EAF0A3EBF074014E
:10556300120A191258B0F87401120A191258C71204
:105573000A19EAF0A3EBF0E8851882851983F0E5B0
:1055830008A2E092F0E9A2E0B372F092F0E824A856
:10559300700302566A24F5601714700302564324FD
:1055A300F5607B24FC603424FB700302566A801888
:1055B3007421120A191258B5851882851983F012BD
:1055C3005879120A19125894741F120A1912589909
:1055D300851882851983E0F90254EE7421120A19A1
:1055E3001258B5FEA3E0FF125879120A1912588314
:1055F300F08E828F83E0F9A3AE82AF8370030255EE
:1056030002741F120A191258997409120A191258AE
:105613009F120A3B7407120A191258DD80D27E08C2
:105623007F00A2F07403500A120A19E4F0A37480F5
:105633008046120A19E4F0A3F0A3F0A37440804A51
:105643007E0A7F00A2F07403500B120A197410F043
:10565300A374278023120A19E4F0A374CAF0A37475
:105663009AF0A3743B80237E107F00A2F074035052
:105673000E120A19E4F0A3EEF0A3E4F0A3800B12D8
:105683000A19E4F0A3F0A3F0A3EEF0E508A2E050BA
:1056930031851882851983E0646470030257DA74D4
:1056A30021120A191258D3E4F50AF50B740B120AE6
:1056B3001978081208D5125879120A191258830258
:1056C300574CE9A2E040030257CF7421120A191282
:1056D30058B0FCA3E0FD8C828D831208FC740B127E
:1056E3000A19120908EC2404F8E43DF97421120A9A
:1056F30019125894851882851983E06464704B905D
:10570300047678081208C6740B120A197808120670
:10571300B35037740B120A1978081208C6780812A6
:1057230007F6740B120A1978081208D5741F120AA7
:1057330019125899792D7409120A1912589F120ACD
:105743003B7407120A191258DDF07403120A197810
:10575300081208C6740B120A1978081206D85038B2
:105763007403120A19780C1208C68E088F09E4F51F
:105773000AF50B780C79081207877403120A197853
:105783000C1208D590047A78081208C67403120A1A
:105793001978081206D850B2740B120A19780C1231
:1057A30008C67403120A1978081208C6780C790817
:1057B300120787E50C2430F9C3943A4040851882D8
:1057C300851983E0647870317427802F851882856A
:1057D3001983E06464701F7421120A191258D333B9
:1057E30095E0F50AF50B740B120A1978081208D51F
:1057F300EC24020256EB0256A2740729F9741F1215
:105803000A191258997409120A1912589F120A3B5D
:105813007407120A191258DDF0740B120A19780C66
:105823001208C67403120A1978081208C6780C798C
:1058330008120787740B120A1978081208D5740323
:10584300120A19780C1208C68E088F09E4F50AF5B6
:105853000B780C79081207877403120A19780C1253
:1058630008D57403120A191208FCE8494A4B60036D
:1058730002579B025502EC2402F8E43DF9742122FD
:1058830012588722E0FAA3E0F5838A82E8F0A3E9BD
:1058930022125887F022E0FAA3E0FB221258A32237
:1058A3001258A722E0F8A3E0F5838882221258A3B6
:1058B300E0221258B9221258A7E0FCA3E0FD8C8223
:1058C3008D83E022E02401FAA3E03400FB7401227B
:1058D3001258B9F508A3E0F50922E02401F0A3E08A
:1058E300340022A2AFE433F8C2AF5394FEE594A28E
:1058F300E240FAE8A2E092AF75A70075A100759C9B
:10590300FF75C30075A20075A30075A40075A500FB
:1059130075A60075C31175A20075A30075A4007563
:10592300A50075A60075C33375A20075A30075A401
:105933000075A50075A60075C34475A20075A30084
:1059430075A40075A50075A60075C32275A2207500
:10595300A34E75A40075A50075A600759408A2AFA3
:10596300E433F8C2AF439401E594A2E250FAE8A20B
:10597300E092AF439402020132A2AFE433F8C2AF24
:105983005394FEE594A2E240FAE8A2E0025BCCA2C3
:10599300AFE433F8C2AF439401E594A2E250FA8036
:1059A300E8E8A2E7A2E792AF025A04E5A4851882C9
:1059B300851983F0E5A5C0E07401120A19D0E0F05F
:1059C300E5A6C0E07402120A19D0E0F07403120ACB
:1059D30019E4F0E8A2E7A2E792AF8518828519835C
:1059E3001208E474041209E3D083D082020132E87E
:1059F300A2E7A2E792AF851882851983E0FAA3E0B4
:105A0300FB740280E0C082C08374FC1209CD851848
:105A130082851983EAF0A3EBF0A3ECF0A3EDF0E5A4
:105A2300A8FAC2AF53A7BF75C333851882851983FC
:105A3300E0F5A47401120A19E0F5A57402120A191B
:105A4300E0F5A67404120A19E0F8A3E0F97404124D
:105A53000A19E8F0A3E9F07404120A19E0F5A27434
:105A630005120A19E0F5A375A1BF43A740EA800018
:105A7300A2E7A2E792AF0259E6C082C08374FE1286
:105A830009CD851882851983EAF0A3EBF0E5A8F820
:105A9300C2AF53A7FD75A1FD75C303851882851990
:105AA30083E0F5A27401120A19E0F5A3E59C54F012
:105AB3004401F59C0259A4C082C08374FC1209CD31
:105AC300851882851983EAF0A3EBF0A3ECF0A3ED2C
:105AD300F0E5A8FAC2AF53A7BF75A1BF439C0F75EA
:105AE300C333851882851983E0F5A47401120A195A
:105AF300E0F5A57402120A19E0F5A67404120A1956
:105B0300E0F8A3E0F97404120A19E8F0A3E9F074C9
:105B130004120A19E0F5A27405120A19E0F5A3E5C7
:105B23009C54F04408F59CEA025A7374F4120A3D3B
