:1000000002011A020E93FFFFFFFFFFFFFFFFFFFF3A
:10001000FFFFFFFFFFFFFFFFFFFFFFFFFFFFFFFFF0
:10002000FFFFFFFFFFFFFFFFFFFFFF021410FFFFB7
:10003000FFFFFF0213F2FFFFFFFFFFFFFFFFFFFFC6
:10004000FFFFFFFFFFFFFFFFFFFFFFFFFFFFFFFFC0
:10005000FFFFFF020F06FFFFFFFFFFFFFFFFFFFF96
:10006000FFFFFFFFFFFFFFFFFFFFFF0213C9FFFFBF
:10007000FFFFFFFFFFFFFFFFFFFFFFFFFFFFFFFF90
:10008000FFFFFF020D53E5C754F84401F5C779019E
:100090002200000080FB120086B90003020104E484
:1000A000791B7802B800028004F709D8FCE4791DB6
:1000B0007802B800028004F709D8FCE49002817845
:1000C000A179028002F0A3D8FCD9FA781A90014AEB
:1000D0007A01BA00028007E493A3F608DAF97A21DC
:1000E0007B0490014B78CF79018015E493A3AD8216
:1000F000AE838A828B83F0A3AA82AB838D828E83A8
:10010000D8E9D9E7758234758364740012012C75BF
:100110008291758300740012012C75D00075813FA7
:10012000751881751902759F00020096C09FF59F92
:10013000E473D09F22D083D082C09FE493C0E07448
:100140000193C0E0740293F59F22010D09424154CE
:100150004D4F4E313030364235020A00B50610CBD5
:10016000EB800201050303B0FB13FF000180EACA24
:100170001006B500000200EE09000038000025025C
:100180000000FF0000B4000028002800283075A0FF
:1001900000A000A000A00000080008E001F000108E
:1001A000001000100010001000100050005000500F
:1001B0000010001000D0070000000000000F000138
:1001C000000500307507001000010081FF000000ED
:1001D00000FF7F029D028502FFCF03CF03CF03CF35
:1001E00003CF03CF03CF03CF03CF03CF03CF03CF7F
:1001F00003CF03FF0130750302010400000000007B
:1002000000000000000000000000000000000000EE
:1002100000000000000000FF00120135085A001223
:100220000135C85A001201359B5B001201358B4C19
:1002300000120135B34C00120135E14C00120135BA
:10024000184D00120135634D00120135AE4D0012FC
:100250000135EE4D00120135AB4E001201358B60B9
:1002600000120135A360001201351F240012013570
:10027000F224001201359B2500120135EE250012F3
:1002800001359E26001201352A2700120135162855
:100290000012013545280012013558290012013598
:1002A000A02900120135752A00120135B12A001269
:1002B0000135CD2A001201350D58001201351858AC
:1002C000001201352A580012013502590012013579
:1002D000075900120135FA59001201353A4F001240
:1002E0000135624F001201359F4F00120135145045
:1002F000001201352950001201353E50001201351F
:10030000A85000120135E550001201352E5100129F
:1003100001355851001201357D5100120135A149B6
:1003200000120135D44900120135B44A00120135DA
:10033000D94A001201353C14001201351116001281
:100340000135EE1600120135921700120135EC1737
:10035000001201358C1900120135CD19001201353A
:100360006D1B00120135B81B001201354446001206
:1003700001350F4800120135774900120135B21CD2
:1003800000120135601D001201358C1D001201356F
:10039000DB1D00120135FC1E0012013592200012F7
:1003A0000135072100120135712100120135762235
:1003B00000120135D62300120135F5230012013554
:1003C0009E5B00120135AA5B00120135905C0012A1
:1003D0000135556400120135A03000120135C530D9
:1003E00000120135DD310012013560330012013594
:1003F000853400120135F634001201353335001210
:1004000001355635001201356C3500120135A54213
:10041000001201353B4300120135514300120135F2
:10042000C743001201353B440012013579440012E4
:100430000135ED44001201356645001201356F4566
:10044000001201357B45001201359F450012013530
:10045000B54500120135144600120135A5510012B0
:100460000135B25100120135CC51001201350B5249
:10047000001201357052001201358552001201350B
:100480009052001201359D5200120135B4520012F3
:100490000135C25200120135CD5200120135DC5235
:1004A00000120135F95200120135095300120135CD
:1004B0001F53001201353B53001201354653001201
:1004C00001355B53001201356F5300120135E161B4
:1004D000001201350D62001201356862001201350B
:1004E000753500120135B335001201350D36001295
:1004F00001352E36001201357F3600120135A8363F
:1005000000120135B236001201351E3700120135D6
:10051000AC3700120135FA370012013530380012BD
:100520000135B73800120135F738001201352F397F
:10053000001201354E3900120135573900120135CC
:10054000A56300120135CA5E001201350E56001275
:1005500001354456001201357A5600120135D35741
:10056000001201357A6200120135906200120135E5
:100570009A6200120135E46200120135663E0012F3
:1005800001357F3E00120135233F00120135633FE4
:10059000001201357C3F00120135B03F00120135D9
:1005A000FD3F00120135384000120135384200127B
:1005B0000135163A00120135D93B00120135223CB3
:1005C00000120135553C00120135423D0012013543
:1005D0001264001201353C610012013549640012B9
:1005E0000135C75C001201354C5D00120135B25D6A
:1005F00000120135CB5F00120135EB5F00120135AF
:100600004460001201357E600012013581600012E5
:1006100001354F6400120135526400120135F87F34
:1006200000120135DC530012013567550012013507
:10063000C85500120135126300120135CB5D00125E
:100640000135F55D00120135422B00120135FF2BFB
:10065000001201353A2C001201359C2C0012013594
:10066000E82C00120135412D00120135D22D001267
:1006700001358F2F0012013511300012013576300F
:1006800000120135E66300E066701008A3E06670B2
:100690000A08A3E066700408A3E06622C3E7960890
:1006A00009E7960809E7960809E79622C3E0960845
:1006B000A3E09608A3E09608A3E09622C008C3E052
:1006C00096F50808A3E096420808A3E096420808B9
:1006D000A3E09645087001D3D00822080808EAC0B4
:1006E000E0EBC0E086F0E7A4FA180986F0E7A42A58
:1006F000FA180986F0E7A42AFA180986F0E7A42A6E
:10070000FA1986F0E7A4FBE5F02AFA190886F0E763
:10071000A42BFBE5F03AFA190886F0E7A42BFBE5D9
:10072000F03AFA18180986F0E7A4C5F02BFBE43A72
:10073000FA1908E7C5F0C6A426F6E5F03BFBE43A53
:10074000FA1886F0E7A4F6E5F00826F6E43B08F68A
:10075000E43A08F6D0E0FBD0E0FA22E4CFC0E0E4CF
:10076000CEC0E0E4CDC0E0E4CCC0E075F020E626E9
:10077000F608E633F608E633F608E633F6181818F6
:10078000EC33FCED33FDEE33FEEF33FFC3EC9709A2
:10079000ED9709EE9709EF97191919400FFFEC979C
:1007A000FC09ED97FD09EE97FE191906D5F0BFEC8F
:1007B000F709EDF709EEF709EFF7191919D0E0FC81
:1007C000D0E0FDD0E0FED0E0FF226016080808C6A9
:1007D000C313C618C613C618C613C618C613C6D583
:1007E000E0EA227009080808226016181818C6C323
:1007F00033C608C633C608C633C608C633C6D5E0F6
:10080000EA22E627F60809E637F60809E637F60889
:1008100009E637F622E026F608A3E036F608A3E05C
:1008200036F608A3E036F622E026F008A3E036F01C
:1008300008A3E036F008A3E036F022C3E697F608F6
:1008400009E697F60809E697F60809E697F622C33F
:10085000E096F008A3E096F008A3E096F008A3E085
:1008600096F022E657F60809E657F60809E657F625
:100870000809E657F622E056F608A3E056F608A364
:10088000E056F608A3E056F622E0F608A3E0F608E4
:10089000A3E0F608A3E0F622E6F008A3E6F008A33A
:1008A000E6F008A3E6F022E0FAA3E0FBA3E0FCA355
:1008B000E0FD22EAF0A3EBF0A3ECF0A3EDF022E0E0
:1008C000F8A3E0F9A3E0FAA3E0FB22E8F0A3E9F043
:1008D000A3EAF0A3EBF022CAC0E0E6F0A308DAFA3C
:1008E000D0E0FA22CAC0E0E0A3C582CCC582C583AD
:1008F000CDC583F0A3C582CCC582C583CDC583DABF
:10090000E6D0E0CA22B90010BB0008E88AF084F8FB
:10091000AAF022E4FBC8FA22EB70227B10C833C88D
:10092000C933C9335007C39AC3DBF280069A50011A
:100930002ADBEAC833F4C8C933F4C9FA2275F008CF
:10094000E4C833C8C933C933C99AC99B5004C92AFA
:10095000C93BD5F0ECFBC833F4C8E4C9FA22600DFA
:1009600008C6A2E713C618C613C6D5E0F322600C6A
:1009700008C6C313C618C613C6D5E0F422700422F5
:10098000600D18C6C333C608C633C6D5E0F41822B6
:10099000251810AF08F518400C15198008F51840F7
:1009A000021519D2AF2200C0D0251810AF08F518D3
:1009B000500C05198008F51850020519D2AFD0D097
:1009C000222518F58210AF08F518400C151980087B
:1009D000F51840021519D2AF851983222518F58222
:1009E000E43519F583222518FAE43519FB22251878
:1009F000FCE43519FD22E4732518C582C0E0E51931
:100A000034FFC583C0E0E518C3958224F810AF0811
:100A10008583198582188008858319858218D2AF4D
:100A2000CEF0A3E520F0A37808E608F0A3DEFAEF05
:100A3000F0A3E58124FAF8E608F0A3E608F0A3E6BF
:100A400008F0A30808E608F0A3E608F0A31581154E
:100A500081D0E0FED0E0F8158115811581E8C0E075
:100A6000EEC0E0222518C582C0E0E51934FFC58339
:100A7000C0E0E518C3958224F910AF088583198575
:100A800082188008858319858218D2AFCEF0A3E53D
:100A900020F0A37808E608F0A3DEFAEFF0A3E581E2
:100AA00024FBF8E608F0A3E608F0A30808E608F03F
:100AB000A3E608F0A315811581D0E0FED0E0F8157B
:100AC000811581E8C0E0EEC0E02285198385188297
:100AD000E0A3FEE0A3F5207808E0A3F608DFFAE043
:100AE000A3FFE0A3C0E0E0A3C0E0E0A3C0E0E0A378
:100AF000C0E0E0A3C0E010AF0885821885831980AC
:100B000008858218858319D2AFD083D08202013242
:100B1000851983851882E0A3FEE0A3F5207808E01C
:100B2000A3F608DFFAE0A3FFE0A3C0E0E0A3C0E083
:100B3000E0A3C0E0E0A3C0E010AF08858218858381
:100B4000198008858218858319D2AFD083D082227C
:100B5000C0D02518C582C0E0E51934FFC583C0E0C8
:100B6000E518C3958224F310AF0885831985821890
:100B70008008858319858218D2AFC8F0A3E9F0A355
:100B8000EAF0A3EBF0A37908E709F0A3D8FAECF0B8
:100B9000A3EDF0A3EEF0A3EFF0A3D0E0F0A3D0E03C
:100BA000F0A3D0E0F0A3E520F0A3E5F0F0A32285C8
:100BB0001983851882E0C0E0A3E0F9A3E0FAA3E07E
:100BC000FBA37808E0F608A3DFFAE0FCA3E0FDA3AE
:100BD000E0FEA3E0FFA3E0C0E0A3E0C0E0A3E0F5F7
:100BE000D0A3E0F520A3E0A3F5F010AF08858319AA
:100BF0008582188008858319858218D2AFD082D06B
:100C000083D0E0F8D0E0327404800674028002746D
:100C100001C0E0F4041209C1D0E01208D722740424
:100C2000800474028000CCC0E0EDC0E0E518C39CF5
:100C3000CCAD1950011D10AF068C188D1980068C93
:100C4000188D19D2AF1208E4D0E0FDD0E0FC22D01C
:100C500083D082E9C0E0E493A3C386F0C5F095F0A9
:100C6000F908E493A386F0C5F095F0700BE493A324
:100C7000C3994005E9048002A3E475F002A425822B
:100C8000F582E5F03583F583D0E0F9E493A3C0E085
:100C9000E493C0E022D083D082ECC0E0EDC0E0E479
:100CA00093A3FCE493A3FDED4C600D120CE1EC2446
:100CB000FFFCED34FFFD80EFE493A3FCE493A3FD80
:100CC000ED4C600D120D20EC24FFFCED34FFFD8097
:100CD000EFD0E0FDD0E0FCE493A3C0E0E493C0E0FB
:100CE00022C0E0C3E49396087401939618400FE481
:100CF0009366700808740193661870007019A3A3B6
:100D0000C3E49396087401939618A3A3400DD0E012
:100D1000D0E0D0E0020CD1A3A3A3A3A3A3D0E022F0
:100D2000C0E0C0F088F0E493667008087401936630
:100D3000187000A8F0A3A3700BD0F0D0E0D0E0D0E2
:100D4000E0020CD1A3A3D0F0D0E022FF851B878561
:100D50001CC622C0E0C0D0E8C0E0E9C0E0EAC0E0C4
:100D6000EBC0E0ECC0E0EDC0E0EEC0E0C008C009C0
:100D7000C00AC00BC082C083C0F0A2AFE433FEC281
:100D8000AF759B00906182E0A2E05009E591A2E07E
:100D900050037591FEE0A2E55009E591A2E55003EC
:100DA0007591DFE0A2E64003020E46E591A2E6401F
:100DB00003020E467591BF9002C9E06405700812E7
:100DC0000435120441800312043B751B0012048F8A
:100DD000E99002CAF0790012048312038D7A017B34
:100DE000009002C8E0F912051F907803E064427099
:100DF0005590033DE014F0704DC2AF120DFE007827
:100E00001ED0E0F618D0E0F6E59F5407700575098E
:100E1000FF800375097FC4C0E0781DE6F50808E689
:100E20005509F509740B780812096ED0E02508F809
:100E3000906270E0A2E740F8E8C333906272F090ED
:100E40006270E0D2E0F0906181E0A2E35009E5E950
:100E5000A2E3500375E9F7A3E0A2E75009E591A2E8
:100E6000E7500375917FEEA2E092AFD0F0D083D02F
:100E700082D00BD00AD009D008D0E0FED0E0FDD05F
:100E8000E0FCD0E0FBD0E0FAD0E0F9D0E0F8D0D040
:100E9000D0E032C0E0C0D0C082C083906183E0A2C5
:100EA000E05009E5BFA2E0500375BFFEE0A2E150AB
:100EB00009E5BFA2E1500375BFFDE0A2E25009E5DC
:100EC000BFA2E2500375BFFBE0A2E35009E5BFA259
:100ED000E3500375BFF7E0A2E45009E5BFA2E45078
:100EE0000375BFEFE0A2E55009E5BFA2E550037529
:100EF000BFDFE0A2E65009E5BFA2E6500375BFBF21
:100F0000D083D0828088C0E0C0D0E8C0E0E9C0E0F3
:100F1000EAC0E0EBC0E0ECC0E0EDC0E0C0F0E5A767
:100F2000A2E6500FE5A1A2E6500953A7BF75A1BFE5
:100F3000120F6BE5A7A2E5500CE5A1A2E550065300
:100F4000A7DF75A1DFE5A7A2E15009E5A1A2E15065
:100F50000375A1FDE5A7A2E2500CE5A1A2E25006AF
:100F600053A7FB75A1FBD0F0020E7C74F8120A6443
:100F7000751B019002C9E0640670151203F98A829C
:100F80008B83A3A3A3A3A3A3E0FAA3E0FB120423F0
:100F9000A2AFE433FED2AF9002CFE0640170187AC2
:100FA000207B009002C8E0F912059D7A207B00901A
:100FB00002C8E0F9120525906182E0D2E6F09003C4
:100FC0003AE0602185C61C80169002CEE064017074
:100FD00008E5C654F84405F5C653BEFC120D4C7422
:100FE00001651B60E4EEA2E092AF7F01020B10747A
:100FF000E9120A6474F8120990851882851983EC45
:10100000F0A3EDF08A088B099002C9E024F7C3949D
:101010000550067508010211861203F98A0A8B0B26
:10102000AE0AAF0BEE4F7003021183AC08AD09742A
:10103000021209DCAA82AB8312044D8E828F83A335
:10104000A3750CFF750DFF750EFF750F00780C1260
:10105000087674021209DC7510FF7511FF7512FF16
:101060007513007810120876780C791012069C50CF
:101070002A780C791012083B7508017509C8750AA1
:1010800000750B007808790C12069C5052850C08EC
:10109000850D09850E0A850F0B8050751401751595
:1010A000C875160075170085100885110985120A84
:1010B00085130B7808790C12083B7814790812060E
:1010C0009C401C750800750900750A00750B0178B5
:1010D00008791012083B7808790C120802800C7508
:1010E0000801750900750A00750B0074097808126B
:1010F00007E3750C19F50DF50EF50F7808790C124C
:10110000075B8E828F83A3A3A3A3A3A3E0F8A3E02E
:10111000F97AD07B03120905880C890DE4F50EF5E8
:101120000F7808790C12080274061209DCE0F8A3A3
:10113000E0F97AD07B03120905E8FA8A0CE4F50D90
:101140007808790C12069C50077808790C12083B35
:101150009002C9E06408600AE064066005E0640586
:10116000702D750C0D780C790812069C4021750CB9
:10117000F4750DFF750EFF750FFF7808790C1208D6
:1011800002800C750800750900750A00750B008552
:101190001882851983E0F8A3E0F583888278081225
:1011A000089874081209A67F10020B1074F7120A2F
:1011B0006412045F900338E064017010906245E4AB
:1011C000F0A3F053F4F343FE0C5390F3120411E533
:1011D000C654804449F5C6E59E547F644970F89032
:1011E0006185740FF0900336E0F47002A3E0604E66
:1011F000900337E0600814601B14602E804075086F
:1012000001750900900336E0780812097DE508F4BD
:101210005280802A750801750900900336E078082D
:1012200012097DE508F452908014750801750900D3
:10123000900336E0780812097DE508F452A07900A1
:101240007F02020B1074F7120A64E9FEEAFF7401D0
:101250006E700C7A807B009002C8E0F912051F9036
:101260001434E493F46008E493F912038180095381
:10127000C680E59E547F70FA120417900338E0642C
:10128000017003120399900336E0F47002A3E0604A
:101290004B900337E0600814601A14602C803D7591
:1012A0000801750900900336E0780812097DE50809
:1012B00042808028750801750900900336E078089F
:1012C00012097DE5084290801375080175090090A8
:1012D0000336E0780812097DE50842A012045F1287
:1012E00003F98A088B09A808A909E8496015E5E10E
:1012F00070FCE82414F582E93400F583E0F460031F
:10130000E0F5E174016F700A7A019002C8E0F91209
:10131000056D02124074ED120A648A088B098C0A6A
:101320008D0B74131209DC780C1208897808790C7B
:1013300012069C7510017511C875120075130050C6
:10134000127808790C12083B7810790812069C5024
:10135000168010780C790812083B7810790C120668
:101360009C40047901800279007F0C020B1074ED1F
:10137000120A648A088B098C0A8D0B74131209DC1B
:10138000780C120889780C790812069C40117808AC
:10139000790C12083BAA08AB09AC0AAD0B80227588
:1013A00010007511007512007513017810790C1278
:1013B000083B78107908120802AA10AB11AC12ADE4
:1013C0001380A6C2AF02000022C0E074F2120B50DC
:1013D000A2AFE433FED2AFE589A2E150031205FDCE
:1013E000758900C2C5751A00EEA2E092AF7F0102B6
:1013F0000BAFC0E074F2120B50A2AFE433FED2AFD9
:10140000E58BA2E050031205FD758B00C2E880D584
:10141000C0E0C0D0E8C0E0E9C0E0E5A8D2AFC2C7F4
:10142000751A00A2E7A2E792AFD0E0F9D0E0F8D0B9
:10143000D0D0E032FFFFFFFFFFFFFFFF74F412097F
:10144000F8E99002C8F0120459907800E0C4540FF3
:10145000540764037004793F8002797F750806752C
:1014600009007808120C0B7CB67D027AEA7B071221
:1014700005DF74021209A69002B6E0F47049A3E0F9
:10148000F47044A3E0F4703FA3E0F4703AA3E0F4F6
:101490007035A3E0F4703090780EE09002B6F090D2
:1014A000780FE09002B7F0907810E09002B8F090DA
:1014B0007811E09002B9F0907812E09002BAF090C2
:1014C0007813E09002BBF09002BC74FFF0A3F0A38D
:1014D000F0A3F0A3F0A3F09002B6E09002C2F09067
:1014E00002B7E09002C3F09002B8E09002C4F0901E
:1014F00002B9E09002C5F09002BAE09002C6F09006
:1015000002BBE09002C7F09002DA7406F0A3740DFB
:10151000F0A3E4F0A37440F0A37401F09002E4742B
:10152000FFF0A3F0A3F0A3F0A3F0A3F09002E3E494
:10153000F09002EAF0A374A0F0A3E4F0A37403F027
:10154000A37407F0A3E4F0A37428F0A3E4F0A304C9
:10155000F0A3E4F0900313F090033674FFF0A3E4DB
:10156000F0900338F090033A04F090033B7490F04D
:10157000A37401F012039312033F12040B79017A52
:101580003D7B031203C390033DE075F01484E5F046
:1015900004F01203C97A009002C8E0F912056D90B8
:1015A0007803E06442705590033DE014F0704DC242
:1015B000AF1215B400781ED0E0F618D0E0F6E59F23
:1015C000540770057509FF800375097FC4C0E07872
:1015D0001DE6F50808E65509F509740B78081209A7
:1015E0006ED0E02508F8906270E0A2E740F8E8C30A
:1015F00033906272F0906270E0D2E0F09002DFE42B
:10160000F0A3F07A80FB9002C8E0F912051F0217E0
:10161000DD74F41209F8EAFEEBFFEEA2E05044900C
:1016200002CAE0C39480E0500FC333F8E433F97486
:10163000AF28F5827404800EF4C333F8E433F974F0
:10164000BD28F582740439F583E0F8A3E0F58388BA
:10165000821209F67A009002C8E0F912056DEE6474
:1016600001803D5480603D90033BE0F8A3E0F9E841
:1016700049602A790012056790033BE0F508A3E072
:10168000F509E4F50AF50B7808120C077A007B01DE
:101690009002C8E0F912059174041209A6EE648064
:1016A000FAEF802DEF5401600C7901120567EEFA14
:1016B000EF6401801CEF5402600AC2AF75C9AB75BC
:1016C000C95B80FEEF5404600B1213C3EEFAEF64A3
:1016D00004FB80179002CFE06401700BEE54206091
:1016E00006EE6420FA80047A007B000217DDC082D7
:1016F000C083C2AF12043BE5E170FC75E101120347
:101700008775E1F112046512037B79071204B3793E
:10171000011204B9790212048912049B1204A779F8
:10172000001204AD79011204AD7A557B557C557DCC
:10173000001204719002EAE4F0A3F0A3F09002EE2C
:101740007407F09002ED7403F09002F3E4F090025D
:10175000F2F0900313F01203D51203B779001204CC
:10176000BF906012E4F0A3F0906063F0751B0090EE
:1017700002C9F09002CBF0A3F09002CEF09002CF1D
:1017800004F09002D904F0900339E4F0D2AFF902EA
:101790001BB1C082C0839002B6E08A828B83F09036
:1017A00002B7E08A828B83A3F09002B8E08A828B32
:1017B00083A3A3F09002B9E08A828B83A3A3A3F052
:1017C0009002BAE08A828B83A3A3A3A3F09002BB0A
:1017D000E08A828B83A3A3A3A3A3021BAE7F040290
:1017E0000ACA7F01020ACA7F02020ACA74F71209F2
:1017F000F8EAFEEBFF8908740B1209DCE0F8A3E0BD
:10180000F9E5086066740165086015740365086091
:101810003374026508602D7404650860030218E7DC
:10182000E84970030218E7740A1209DCE0F860085E
:1018300074016860030218E77403650860067402A7
:1018400065087049EE2460F8EF34FFF9C3E894614D
:10185000E9943F40030218E7EC2460F8ED34FFF907
:10186000C3E89461E9943F4024807CEE24E0F8EFE3
:1018700034FFF9C3E894E1E9943F506BEC24E0F8BD
:10188000ED34FFF9C3E894E1E9943F505AC3EC9E6C
:10189000ED9F405374091209DCE0F860057401689B
:1018A0007045740E1209DCE0FA600F74016A600A78
:1018B00074026A600574036A702D740D1209DCE00D
:1018C000F974075960219002EAE064017005790C0F
:1018D000021989E5089002EDF0600C74016508605A
:1018E000067404650870057912021989740759A3F2
:1018F000F0EAA3F0E89002E3702FE4F09002B6E083
:101900009002E4F09002B7E09002E5F09002B8E0B7
:101910009002E6F09002B9E09002E7F09002BAE09F
:101920009002E8F09002BB802E7401F09002BCE0BF
:101930009002E4F09002BDE09002E5F09002BEE07B
:101940009002E6F09002BFE09002E7F09002C0E063
:101950009002E8F09002C1E09002E9F0EA700479A8
:1019600000801974016A70047901801074026A7031
:10197000047902800774036A700579031204A19048
:1019800002EBEEF0A3EFF079000217E274F6120911
:10199000F8E9FEC39420500BEE9002F3F06023EAC6
:1019A0004B700479128023E0F5087509007808125D
:1019B0000C0BEAFCEBFD7AF47B021204DD740212DC
:1019C00009A69002F27401F079000217E774F01290
:1019D00009F8E9FE9002C9E064097003021AF4E014
:1019E000640A7003021AF4E0640B7003021AF4E054
:1019F000640C7003021AF4E0640D7003021AF49090
:101A000002EDE0601664016012E06403600DE064C2
:101A1000026008E064046003021B699002E3E06076
:101A20000764016003021B699002EDE06403600536
:101A3000E0640270109002EBC3E094A0A3E0940075
:101A40005003021B699002EDE07003021B69640100
:101A50007003021B69E064047003021B69EE7003EB
:101A6000021B02146003021B699002EAE064017029
:101A700003021AF479011203ED9002E1EAF0A3EBFC
:101A8000F09002EA7401F09002C9E0706E1204470F
:101A90008A088B098C0A8D0B750C03750D00750E69
:101AA00000750F007808790C120802750CFF750D8F
:101AB000FF750EFF7808790C1208639002E1E0F8D8
:101AC000A3E0F5838882A3A378081208989002E126
:101AD000E0F8A3E0C82406F582E83400F583E4F0DA
:101AE000A3F012039FE960107AE17B021203F390E6
:101AF00002EAE4F0792180051203DB79007F080215
:101B00000ACA9002EAE060ECA2AFE433FFC2AF7A07
:101B1000E17B021203F39002EAE4F0120405E9709B
:101B20004112043B906182E0C2E6F0E5E170FC7591
:101B3000E1017591BF75E1F19002CFE06401701889
:101B40007A207B009002C8E0F912059D7A207B0084
:101B50009002C8E0F91205257A009002C8E0F91257
:101B6000056DEFA2E092AF80927912809074F61228
:101B700009F8E9FEC39420500BEE900313F06023A4
:101B8000EA4B700479128023E0F5087509007808A3
:101B9000120C0BEAFCEBFD7A147B031204DD7402D9
:101BA0001209A69002F27401F079000217E7F079A9
:101BB00000D083D082020132C082C083EA4B70051C
:101BC0007912021CAF9002C9E06005790C021CAFCB
:101BD0008A828B83E0F47060A3E0F4705B8A828B6E
:101BE00083A3A3E0F470518A828B83A3A3A3E0F4C0
:101BF00070468A828B83A3A3A3A3E0F4703A8A82FF
:101C00008B83A3A3A3A3A3E0F4702D9002C2E09062
:101C100002B6F09002C3E09002B7F09002C4E090E8
:101C200002B8F09002C5E09002B9F09002C6E090D0
:101C300002BAF09002C780709002B6E09002C2F043
:101C40009002B7E09002C3F09002B8E09002C4F0B6
:101C50009002B9E09002C5F09002BAE09002C6F09E
:101C60009002BBE09002C7F08A828B83E09002B6BC
:101C7000F08A828B83A3E09002B7F08A828B83A3E1
:101C8000A3E09002B8F08A828B83A3A3A3E0900222
:101C9000B9F08A828B83A3A3A3A3E09002BAF08A4F
:101CA000828B83A3A3A3A3A3E09002BBF0790002DD
:101CB0001BB1C082C0839061907404F0A37448F09B
:101CC000A37402F09061807440F09061BC7403F0E2
:101CD0009061877419F0906265741BF0906249E01E
:101CE000C3941390619C400A7409F090606674017B
:101CF0008007740DF0906066E4F090619A7433F0A0
:101D0000A37455F09061A0743AF0900338E0640138
:101D10007009C2919002CD746780059002CD746104
:101D2000F090143AE493906186F0901434E493F4C4
:101D30006027E493540FF8906185E0686012E5C66F
:101D400054804449F5C6E59E547F644970F8E8F034
:101D500053C680E59E547F70FA79051204C58074DD
:101D6000C082C083E9540FF9906185E0696012E593
:101D7000C654804449F5C6E59E547F644970F8E92D
:101D8000F053C680E59E547F70FA8048C082C083BD
:101D9000E5A8F853A87E906181E4F0A3F0A3F0C217
:101DA000BA539AFEC289759B00C2C275E90075914B
:101DB0000075BF0075A91175B905906181F0A37414
:101DC000C0F0A3E4F0D2BA439A0174805842A880CC
:101DD00003F0A3F0D083D082020132C082C08374AA
:101DE000F81209909002CBE0F8A3E0F9E8497003FB
:101DF000021EF49002CBE0544060237908851882DB
:101E0000851983AA82AB831203C38518828519833F
:101E1000AA82AB831203039002CBE054BFF0E0A28E
:101E2000E0503190619A7433F0A37455F09061A042
:101E3000743AF0900338E064017009C2919002CDC9
:101E4000746780059002CD7461F01203099002CB93
:101E5000E054FEF0E05402603190619A743FF0A3C8
:101E6000745AF09061A0747FF0900338E0640170C0
:101E700009D2919002CD747180059002CD746AF000
:101E80001203099002CBE054FDF0E054046013907B
:101E90001438E493906186F012030F9002CBE05463
:101EA000FBF0E054086013901439E493906186F0DD
:101EB00012030F9002CBE054F7F0E054106013903F
:101EC000143AE493906186F012030F9002CBE05431
:101ED000EFF0E05420600A12030F9002CBE054DFD1
:101EE000F0A3E05401600D1203991203159002CC87
:101EF000E054FEF074081209A6021DD474EC120915
:101F0000F874F4120990851882851983AC82AD8328
:101F100075838075821474041208E490143893F465
:101F20006003022088907808E0C3940250030220E6
:101F30006874041209DCAC82AD8375838075820CF1
:101F400074081208E48518828519838582128583B6
:101F50001374041209DCAC82AD83750EFF750FFF9C
:101F60007FFF7E00750C48750D78801574086E70C3
:101F700003021FFC74096E7003021FFC740A6E607A
:101F80007B850C82850D8378081208898C828D836D
:101F9000A909E50AC9F88810741878081207CAE573
:101FA000104508F8C3E098A3E099850C82850D835D
:101FB000780812088940188C828D8374187808126A
:101FC00007CAE5104508F8E0C398F8A3E0801C7440
:101FD0001878081207CAE5104508FAE9FB8C828DCB
:101FE00083E0F8A3E0F9EAC398F8EB99F9C3E89520
:101FF0000EE9950F5006880E890FEEFF0EE50C24B2
:1020000004F50CE50D3400F50DEEC39413500302F6
:102010001F6C74FF650E700474FF650F60238F08DA
:102020007402780812097D74482508F582747835A1
:1020300009F5837808120889851282851383E508DB
:10204000F0EC2402FCED3400FD851282851383A39D
:10205000858212858313740C1209DCE5826C70038F
:10206000E5836D6003021F5A750801750900780841
:10207000120C0B74021209DCAC82AD837A0E7B0564
:102080001205E574021209A6740C1209A67F0C024F
:102090000ACAC082C0839061AE7468F0A3746AF00B
:1020A00090624574FBF0A304F053F4FD43FE0290EC
:1020B00003387401F09061A0E0643A90619A702353
:1020C0007433F0A37455F09061A0743AF074016415
:1020D000017009C2919002CD746780289002CD747E
:1020E000618021743FF0A3745AF09061A0747FF076
:1020F000740164017009D2919002CD7471800590D1
:1021000002CD746A021DD3C082C08375E1F19002D2
:10211000EDE024FE60521470541203A59002E3E037
:10212000F97AE47B0212046B7AD67BBE7C897D8EC1
:102130001204957A557B557C557D001204719002EE
:10214000EEE0F912047D79011204B99002E1E0F8A1
:10215000A3E0C82416F582E83400F58374B1F0A337
:102160007403F07900021DD41203AB80AF791280A2
:10217000F474F71209F89002F3E02407F5D99002FD
:10218000E3E0C4333354C04402F5D978E1790288DE
:10219000828983A3A3A3E0F5D988828983A3A88237
:1021A000A983E864E77003E9640270E39002F3E056
:1021B000601F78E17902FAE82413F582E93400F52A
:1021C00083E0F5D988828983A3A882A9831AEA705B
:1021D000E675E1959004AF746FF0A37403F0A374F7
:1021E0006FF0A37403F0A3746FF0A37403F0A374EF
:1021F0006FF0A37403F0A3746FF0A37403F0A374DF
:102200006FF0A37403F0A37475F0A37403F090044B
:10221000BD74CFF0A37403F0A374CFF0A37403F0E4
:10222000A374CFF0A37403F0A374CFF0A37403F0EE
:10223000A374CFF0A37403F0A374CFF0A37403F0DE
:102240009002E1E0F8A3E0C8240EF582E83400F53E
:102250008374FFF0A3F0A3F0A3F09002E1E0F8A3F1
:10226000E0C82414F582E83400F5837414F0900279
:10227000C974040223EF74F71209F89002F3E02402
:1022800007F5D99002E3E0C4333354C04406F5D9CE
:1022900078E1790288828983A3A3A3E0F5D98882B3
:1022A0008983A3A882A983E864E77003E9640270C4
:1022B000E39002F3E0601F78E17902FAE82413F575
:1022C00082E93400F583E0F5D988828983A3A88266
:1022D000A9831AEA70E6900313E02407F5D9900267
:1022E000E3E0C4333354C04404F5D978E17902887B
:1022F000828983A3A3A3E0F5D988828983A3A882D6
:10230000A983E864E77003E9640270E3900313E0D3
:10231000601F78E17902FAE82433F582E93400F5A8
:1023200083E0F5D988828983A3A882A9831AEA70F9
:10233000E675E1959004AF7469F0A37403F0A3749B
:10234000CFF0A37403F0A374CFF0A37403F0A374CD
:10235000CFF0A37403F0A374CFF0A37403F0A374BD
:10236000CFF0A37403F0A37475F0A37403F090048A
:10237000BD74CFF0A37403F0A374CFF0A37403F083
:10238000A374CFF0A37403F0A374CFF0A37403F08D
:10239000A374CFF0A37403F0A374CFF0A37403F07D
:1023A0009002E1E0F8A3E0C8240EF582E83400F5DD
:1023B0008374FFF0A3F0A3F0A3F09002E1E0F8A390
:1023C000E0C82414F582E83400F5837415F0900217
:1023D000C974030223EFC082C0839002E1E0F8A336
:1023E000E0C82406F582E83400F583E4021DD1F04C
:1023F0007F01020ACAC082C08378D07902888289AC
:1024000083A3E4F088828983A3A882A983E864D89F
:102410007003E9640270E69002D17401021DD37466
:10242000F41209F8122B33600579110224EF90029F
:1024300083E0540560309002A0122B3C6005122B03
:102440002E700579100224EF900283E0A2E040068E
:102450001202C7E960158E828F83E0F8740368600A
:102460000A740268600579120224EF7A0C7B00126C
:10247000055590029E122698122B39606E12295231
:10248000E508122939E4F0750A0AF50B780A120CEE
:102490000BEEFCEFFD90029EE02402FAA3E0340074
:1024A000FB1204DD74021209A6120285E9FE600522
:1024B0001202A98038900284E0640370307A1D7B98
:1024C00000120231900285122698900285122B3C50
:1024D000601B90801C120C1E7A047B009002A6E008
:1024E000F912059774041209A680027E13EEF90210
:1024F0002A6174EE1209F8890C8A0A8B0B8C0E8DF6
:102500000F900283E0540570030225947401650A5C
:10251000700D9002A0122B3C607A9002A0800B906C
:1025200002A2122B3C606D9002A2E0FEA3E0FFEB42
:10253000C394205008EB6009EC450F7004790280C9
:1025400055E50C9004A7F08E828F83A385820885C1
:1025500083097C1F7D007900AA08AB091204E98574
:102560000B107511007810120C0BAC0EAD0FAA08F1
:10257000AB091204DD74021209A68E828F83E50B6B
:10258000F0F9E50AAA08AB0960051202EB80071210
:1025900002F1800279127F0A020ACA74F71209F85E
:1025A000E9FE122B39700479128039122B2E6E60DD
:1025B000047903802F7A027B009002A6E0F91205CD
:1025C0009D9002A4E4F0A3F07A04FB9002A6E0F947
:1025D00012059D900285E4F0A31229397403F07965
:1025E000001202F7022690D083D08202013274F7E3
:1025F0001209F89002A0122B3C600D122A661205F7
:102600005B9002A0E4F0A3F09002A2122B3C6010B9
:102610009002A2122A6912055B9002A2E4F0A3F0D4
:10262000900283E05405605F7AA87B041202D37E97
:1026300000900283E05405604A7A207B0012055521
:102640001226959002A0122B3C60367C207D0079EA
:10265000001204E97A207B001205559002A212268E
:10266000989002A2122B3C600B7C207D0079001216
:1026700004E9800F122A6612055B9002A0E4F0A321
:10268000F07E13EEF980097A007B001202D3790004
:102690007F01020ACA9002A0EAF0A3EBF02274F6CE
:1026A0001209F87E018A828B83A3A3A3E0FCA3E036
:1026B000FD8C088D097808120C4F0620042427C9C8
:1026C00026242704270427DA268A828B83A3A3A340
:1026D000A3A312294912028B80268A828B83A3A38B
:1026E000A3A3A3122A6F88828983A3E0FC8882892E
:1026F00083A3A3E0FBECFA88828983E0F9120291BC
:10270000E9FE802174086C700374206D70047901F7
:10271000800279008A828B83A3A3A3122B29FA1249
:10272000029780011EEEF902299374F21209F81241
:102730002B397003022802122940A3E0F50A120285
:10274000C7E960137A0A7B001202318A088B09AE4E
:1027500008AF097A0B802A1202AFE960137A067B70
:10276000001202318A088B09AE08AF097A0780117E
:102770007A087B001202318A088B09AE08AF097A09
:10278000097B001202318A088B09900284E07005EF
:10279000750B008003750B0190029EE02404FAA3E0
:1027A000E03400FB12293AA3A3E0F9120249900297
:1027B0009EE0F8A3E0C8240B122809120C0F900227
:1027C0009EE0F8A3E0C8240A122809120C0F900218
:1027D0009EE02404F50CA3E03400F50D780C120CF7
:1027E0000BE9F50C780C120C0F780B120C0FA90AE0
:1027F000AC08AD09EEFAEFFB1202E574061209A669
:10280000800279017F06020ACAF582E83400F58366
:10281000E0F50C780C2274F71209F8E9FE122B3956
:10282000601EEE700C1229407401F0F91202F7E9F3
:10283000FEEE60087A007B00F91202A379018002A3
:10284000790002269074EC1209F8890A122B35706F
:1028500003022932122940E06401600302290512B3
:1028600002AFE960557A017B001202318A0C8B0DB0
:10287000E4F50EF50FC3EA9442EB9400402B9080F0
:102880001C120C1E7A027B009002A6E0F91205973A
:1028900074041209A6E50C24C4F8E50D34FFF99080
:1028A00002A4E8F0A3E9F0804190801878101208A3
:1028B00089780C79101206DB80107A007B001202F6
:1028C000318A0C8B0DE4F50EF50FE50C450D450E28
:1028D000450F6016780C120C077A027B009002A656
:1028E000E0F912059174041209A612293A7402F053
:1028F000900287E0700BEEFAEFFBA90A1202A380A8
:102900002DE4F08029900287E070237A037B001287
:1029100004EFEA4B60158A828B8374D0F0A3E50A3A
:1029200012299874041229451204FB1202A9790194
:10293000800279007F0C020ACAF090029EE0F8A3A0
:10294000122952A322F090029EE0F8A3122952E02D
:10295000F922E0F58388822274F61209F8E9FEEA8A
:10296000FF9004A7E0F4602B7A047B001204EFEAE6
:102970004B60208A828B8374D0F0EFA31229987465
:1029800002F0EE8A828B83A3A3A3F09004A7E0F960
:102990001204FB7F02020ACAF08A828B83A3A3225D
:1029A00074F41209F8E9FE74016E6003022A3C9087
:1029B00002A4122B3C6006900287E06012122B39B1
:1029C0007003022A5F122B2EF9120273022A5F9003
:1029D00002A4C3E0943CA3E09400400D9002A4E064
:1029E00024C4F0A3E034FF80507A027B009002A65A
:1029F000E0F912059D9002A4E0F508A3E0F509E5D1
:102A00000875F0E8A4C508A8F075F003A428F875C7
:102A1000F0E8E509A428F509E4F50AF50B780812B1
:102A20000C077A027B009002A6E0F912059174046B
:102A30001209A69002A4E4F0A3F08023122B3960BF
:102A40001E900283E0A2E250167A027B009002A65A
:102A5000E0F912059D9002A4E4F0A3F01202A9800F
:102A6000007F04020ACA9002A0E0FAA3E0FB22E081
:102A7000F8A3E0F92274F41209F8122B33602F7ACC
:102A8000057B001204EFEA4B601D8A828B8374D0B1
:102A9000F0A3E5081229987403122998A3EEF0A375
:102AA000EF1229451204FBE50860031202A9022A6D
:102AB00061C082C083122B39601090029E122A6975
:102AC00012055B90029EE4F0A3F00225E774F61273
:102AD00009F874FF1209909002A0122B3C604090FC
:102AE00002A0E02401F508A3E03400F509780812FB
:102AF0000C0B9002A0122B2BFC74021209DCAA8290
:102B0000AB83790112026174021209A68A828B8357
:102B1000E58245836009E0A2E050047901800279F2
:102B20000074011209A6022993A3A3E0F8A31229B5
:102B300052E0228908EAFEEBFF90029E122A6FE81B
:102B4000492274F41209F874FC1209907F00900471
:102B500020E4F090041DF07E7D750804750900786E
:102B600008120C0B74021209EE7A007B00EEF912C7
:102B700005DF74021209A69080247808120889855E
:102B800018828519837808120687701990041DE051
:102B9000600FF9120657EEF912065790041DE480F3
:102BA00001EEF080188518828519831208BFE84964
:102BB0004A4B7004EEFF8005EEF91206570EEEC385
:102BC000947F409590041DE07026EF7018797D1277
:102BD000064B90041E7404F0A3E4F0900420E0601F
:102BE0001979008017F012065DEFF9120669800A64
:102BF000EF6004F912065112065D7901022C9274FD
:102C0000F71209F874FC120990E9FE8518828519FB
:102C100083E4F0A3F0A37410F0A3E4F0AC18AD19B2
:102C2000FAFB120675900420E07005EE90041DF08A
:102C300074041209A67F01020ACA74F41209F87416
:102C4000FF1209908908900420E070321205EB7E93
:102C5000007F00750A01750B00780A120C0B7402D4
:102C60001209EEEEFAEFFBA9081205DF7402120951
:102C7000A6851882851983E0F46008900420740109
:102C8000F0800B0EEE70010FC3EF940840C5740185
:102C9000800274041209A67F04020ACA74F412099D
:102CA000F874FF12099089087E007F00750A01758B
:102CB0000B00780A120C0B74021209EEEEFAEFFB0D
:102CC000A9081205DF74021209A6851882851983E6
:102CD000E0F46007A908120651800B0EEE70010F98
:102CE000C3EF940840C680A674F41209F874FC126D
:102CF00009907EFC7F077508047509007808120C9E
:102D00000B74021209EEEEFAEFFB90041DE0F912CB
:102D100005DF74021209A69080447808120889859C
:102D200018828519837808120687700AEE24FCFE43
:102D3000EF122DC750C0123095E8F0A3E9F0022C35
:102D40009274F41209F874FC1209908908EAFEEBF7
:102D5000FF8C09EE24FCFEEF122DC74063750A04B8
:102D6000750B00780A120C0B74021209EEEEFAEFE2
:102D7000FBA9081205DF74021209A674021209DC0D
:102D8000122F8285188285198385090AE0650A70E9
:102D900002A3E0700AEEC398FAEF9400FB8025E9E5
:102DA000548070AFE82404FAE439FBC3EE9AEF9B39
:102DB000400EEEC398F8EF99F9E824FCFEE98098FC
:102DC0007A007B00022C9234FFFFC3EE9404EF9450
:102DD000002274F01209F874F3120990E985188240
:102DE000851983F0750FFF647D7005750E7E800375
:102DF000750E7D750A04750B0090041EE024FCFE20
:102E0000A3E0022EFB74031209DCA3E054806003EC
:102E1000022EEA74031209DC850F08E065087002CF
:102E2000A3E07003022EEA74031209DCE0F50FFC44
:102E3000AA0AAB0BA90E1206638B09EA45096003C7
:102E4000022EEA74051209DC122F88F508EF99F5B5
:102E50000974071209DCE8F0A3E9F074011209DC37
:102E6000E4F0A3F0750C04750D00780C120C0B74D3
:102E70000B1209EE74031209DCE02508FAA3E03511
:102E800009FB90041DE0F91205DF74021209A67413
:102E9000091209EE74011209DCE0250AFAA3E035F3
:102EA0000BFBA90E12067574011209DCE02404F074
:102EB000A3E03400F074071209DCC082C0837401FF
:102EC0001209DC122F82D083D082C3E098A3E0994C
:102ED000509274051209DCE02404F8A3E03400F9F0
:102EE000E50A28F50AE50B39F50B74051209DC1221
:102EF0002F88F8EF99F9E824FCFEE9122DC7405D10
:102F0000900420E070777508047509007808120CA9
:102F10000B74051209EEEEFAEFFB74021209DCE005
:102F2000F91205DF74021209A674031209DCE0F439
:102F30007003A3E0F46003022E0574051209DC128D
:102F40002F8254806007EE24FCFEEF80AEE824045C
:102F5000F8500109C3EE98EF99508F8020A90E1206
:102F6000064B900420E0700A90041EE50AF0A3E5E9
:102F70000BF0851882851983E0F9120651740D0251
:102F8000308DE0F8A3E0F922122F82EEC39822746C
:102F9000F11209F874FC120990890E8A088B098CC9
:102FA0000C8D0D74131209DCE0FE8015E508240475
:102FB000F508E43509F509E50C2404F50C50020583
:102FC0000DEEFF74FF2F1E04603D750A04750B00A3
:102FD000780A120C0B74021209EEAA08AB09A90EAA
:102FE0001205DF74021209A6780A120C0BAC0CADA4
:102FF0000D74021209E61204E374021209A6E970C4
:10300000AB9004207401F074041209A67F07020A31
:10301000CA74F01209F8890AEAFEEBFF8C0E8D0FD4
:10302000900420E0704D7508017509007808120CB5
:103030000B8E088F097402780812096E890CF50D41
:103040007409780C12097DE5082400FAE509350DAC
:10305000FB1205E574021209A67508017808120C26
:103060000FAC0EAD0FEEFAEFFBA90A12066F74015A
:103070001209A6023090C082C083120645E970048E
:10308000790180027900D083D0820201321209A630
:103090007F08020ACAEE2404F8E43FF990041E22D5
:1030A000C082C083900344E4F090034374FFF09027
:1030B0000340F090033FE4F090033EF0900341F0B2
:1030C000A3F002354F74F01209F8900341E0F508BF
:1030D000A3E0F509E5084509700612038D0231D811
:1030E000850882850983E014600A14600724FE6065
:1030F000030231D8E0F91203E78A0A8B0BAE0AAF5C
:103100000BEE65087003EF650970030231D58E82FE
:103110008F83E0640160030231D812039F120447D9
:103120008A088B098C0A8D0B750C0A750D00750EBB
:1031300000750F007808790C1208027808120C0745
:103140008E828F83A3A31208A71213157404120989
:10315000A6E970771204478A088B098C0A8D0B75D3
:103160000C037808790C120802750CFF750DFF75B9
:103170000EFF7808790C1208638E828F83A3A378E0
:10318000081208989002C9E06402702C8E828F8326
:10319000A3A3750800750908750A007808120815B8
:1031A0007808790C120863EE240EF582EF3400F5EE
:1031B0008378081208988013EE240EF582EF34000D
:1031C000F58374FFF0A3F0A3F0A3F0900340740123
:1031D000F0EEFAEFFB1203E17F08020ACA74F01264
:1031E00009F8EAFEEBFFEE2402F8EF3400F9880854
:1031F0008909EE2406F8EF3400F9880A890B8882E1
:10320000F583120C228508828509831208A712040F
:103210002974021209A6850A82850B83120C228565
:1032200008828509831208A712041D74021209A6D8
:10323000EE240EF582EF3400F5831208A712042F56
:103240008E828F83E06440701CEE2412F8EF34000D
:10325000F988828983E0906064F088828983A3E0A2
:103260009060658006906064E4F0A3F0900341EE06
:10327000F0A3EFF0EE2416F582EF3400F583E0F8CA
:10328000A3E0F58388821209F6906054E4F0A3F07D
:10329000A3F0A3F0A3F0A3F0A3F0A3F0A3F0A3F096
:1032A000A3F0A3F0906182E0C2E6F07591BFEE2436
:1032B00015F582EF3400F583E06401700312045FBA
:1032C000E5E170FCEE2414F582EF3400F583E0F4C0
:1032D0006003E0F5E1EE2415F582EF3400F5837428
:1032E00001F09002CFE0640170731204478A088BEA
:1032F000098C0A8D0B7808120C078E828F83A3A38A
:103300001208A712136E74041209A68A088B098C7E
:103310000A8D0B750C05750D00750E00750F007884
:1033200008790C1206DB740378081207CAE5082432
:10333000F4F508E5093401F50990033AE060031259
:103340000543E4F50AF50B7808120C077A207B0098
:103350009002C8E0F912059174041209A60231D84E
:1033600074F01209F8890874FF6508702A90033F09
:10337000E05407700302347E900343E06404700D50
:10338000A3E0640170257A437B03023482E0640188
:1033900060EEE0640260E9900343E06508700CA30E
:1033A000E0640170067E437F0380127E007F009000
:1033B0000343E06508700AA3E064017004780180AB
:1033C000027800E914600A14603424FE605202346A
:1033D0007E900343E064027008A3E06401700D80F6
:1033E0005AE064047006A3E06401604FE8A2E05074
:1033F00006EEFAEFFB80047A007B00023482900331
:1034000043E064047008A3E06401700D802DE06463
:10341000017006A3E064016022E8A2E050608058D9
:10342000900343E064017008A3E064017045800BE1
:10343000E06402703EA3E064017038E8A2E040035B
:10344000023386A3750CF6750DFF750EFF750FFF21
:10345000780C120815780C120C078E828F83A3A3A8
:103460001208A712131574041209A6E960030233A7
:10347000868005E8A2E05006EEFAEFFB80047A00B1
:103480007B000231D874F71209F8E9FE900344E09A
:10349000705B7401F0EE900343F012044790034513
:1034A0001208B3900349E4F0A3F090035174FFF0C5
:1034B000A3F0A3F0A3F09003577401F0A3F0A3E4EA
:1034C000F0A3F090033FE04EF090033EE004F06480
:1034D00001600A74806E600574406E700A9003414A
:1034E0007443F0A37403F07A437B0380047A007B77
:1034F000007F01020ACAC082C0838A828B83E0F8FF
:10350000A3E0F98A828B83E4F0A3F088828983A305
:10351000F088828983E0F4F890033FE058F090034C
:103520003EE014F0700B900341E4F0A3F09002C968
:10353000F0801CC082C08390033EE0600A9003418B
:10354000E0FAA3E0FB80047A007B008002E0F9D07F
:1035500083D082020132C082C083E9F8900343E045
:10356000687005A3E0F98002790080E3C082C0831F
:1035700090033E80D874F71209F874091209DC121E
:10358000382A801C8C828D83E08A828B83F08C8227
:103590008D83A3AC82AD838A828B83A3AA82AB8303
:1035A000E8FEE9FFEE24FF18EF34FFF9EE4F70D488
:1035B0000237EA74F51209F8ECF8EDF9740B120908
:1035C000DCE0F508A3E0F509AC08AD09EC24FFF553
:1035D00008ED34FFF509EC4D602CEAFCEBFD8C8224
:1035E0008D83A3AA82AB83E8FEE9FF8E828F83A33B
:1035F000A882A9838C828D83E0FC8E828F83E06C0D
:1036000060C67900800279017F03020ACA74F6124B
:1036100009F8E9FE8C088D097808120C0B8E08ACAD
:10362000087D0012068174021209A60237EF74F6B3
:103630001209F8EAFEEBFFEE4F603DEE2405FAE4D6
:103640003FFB1205558A088B09A808A909E84960BB
:103650002788828983E4F0A3F088828983A3A3EE7C
:10366000F0A3EFF088828983A3A3A3A374FFF0E8FB
:103670002405FAE439FB80047A007B000237EFC0AE
:1036800082C083EA4B7004790580161237116004FA
:103690007904800DEA24FBFAEB34FFFB12055B7919
:1036A00000D083D08202013274F71209F87C000244
:1036B00037E774F71209F8E9FEECFFEA4B60219056
:1036C0008048E0F8EEC39840071204F57903803E85
:1036D00012389F1237F4700512371160071204F583
:1036E0007905802AEEF074016F700DEAFCEBFD7A2B
:1036F000627B03120513800BEAFCEBFD7A627B030D
:1037000012050D7A007B80EEF912051F7900023751
:10371000EAEA24FFF582EB34FFF583E0F42274F447
:103720001209F88908750A00750B007E007F00A257
:10373000AFE433F509C2AF9003628011EE4F70041D
:10374000880A890BE824FBF582E91238A51237F4C0
:103750006023E824FFF582E91238A5E0650870DCF3
:10376000EE4F7006E8FEE9FF80DA7A007B80A90858
:1037700012051F800D7A007B80A908120525EE4FE7
:103780006015780A120C0BEEFCEFFD7A627B0312D7
:10379000051974021209A6E509A2E092AFEEFAEF4C
:1037A000FB7F04020ACAE0FAA3E0FB2274F71209C5
:1037B000F8EAFEEBFFA2AFE433FAC2AFEC24FBF56C
:1037C00082ED1238A5E4F0A3F080031238AA8E82AD
:1037D0008F831237F470F48E828F83ECF0A3EDF0B8
:1037E000EAA2E092AF80031205017F01020ACA7FBC
:1037F00002020ACA12382AE8492274F71209F8E5C7
:10380000A8FEC2AF8A828B8312382AEC24FBF58291
:10381000ED1238A5E8F0A3E9F08A828B83ECF0A3DF
:10382000EDF0EEA2E7A2E70237E3E0F8A3E0F92229
:1038300074F41209F8A2AFE433FEC2AFEC24FBF833
:10384000ED34FFF9880889098882F58312382A8ABD
:10385000828B83E0F50AA3E0F50BEC650A7003EDBB
:10386000650B70068A828B838012740C1209DCE06F
:10387000FAA3E0CA24FBF582EA1238A5E8F0A3E92E
:10388000F0850882850983E4F0A3F0EC24FFF5823B
:10389000ED1238A574FFF0EEA2E092AF0237A1EA74
:1038A00024FBF582EB34FFF58322E824FBF8E934AE
:1038B000FFF9E8FEE9FF2274F71209F8E9FD9080AC
:1038C00048E0F8EDC398502AE5A8FEC2AFED29F80C
:1038D000E433F9900364E028FCA3E0398C82F5839B
:1038E000E04AF0A3E04BF0EEA2E7A2E792AF790046
:1038F000800279030237EA74F71209F8E9FE908032
:1039000048E0F8EEC3985022E5A8FFC2AFEAF4FC05
:10391000EBF4FDEE29123A04E05CF0A3E05DF0EF79
:10392000A2E7A2E792AF7900800279030237EAC0EA
:1039300082C083120549900362E4F0A3F012057976
:1039400012056112053D12054F79000236A1C082B1
:10395000C08312053780FB74F41209F87508001251
:1039600005431205D9A808E828123A041237F47062
:103970000D0508908048E0F8E508C39840E790807E
:1039800048E0F8E508C398506CE5A8FCC2AFAE0863
:10399000EE2EFEE433FF900364E02EF8A3E03FF93F
:1039A000888289831237A688828983E4F0A3F0ECA9
:1039B000A2E7A2E792AFE5089004C9F0F974002EDF
:1039C000F58274803FF5831239FB1209F69004C921
:1039D00074FFF0E5A8F9C2AF900364E02EF8A3E00D
:1039E0003F8882F583E04AF0A3E04BF0E9A2E7A22A
:1039F000E792AF80031205730237A1E0F8A3E0F568
:103A000083888222F8E433F9900364E028FAA3E083
:103A1000398A82F5832274F21209F889088C0C8D98
:103A20000D7509008982AE827F008A0A8B0B780AA5
:103A3000120C4F020308AA3B4A3AA53ABF3AF53A9C
:103A40002A3B413B583B763B8D3B74016508600344
:103A5000023BA59004CAE0F88C828D83E09004CAF2
:103A6000F0E8601CE06003023BCD90037FE064025D
:103A70006003023BCD90037EE0F9120273023BCD5E
:103A8000E07003023BCD90037FE064016008E064D6
:103A9000036003023BCD7A017B0090037EE0F912C4
:103AA000051F023BCD740265086003023BA58C82B2
:103AB0008D83123E609004CBE8F0A3E9023BA2E9BB
:103AC000C394204003023BA57C1F7D0079007ACE81
:103AD0007B041204E98E0A8F0B780A120C0BAC0CD3
:103AE000AD0D7ACE7B041204DD74021209A6EE90AD
:103AF00004CD023BA2E9C394204003023BA57C1FF6
:103B00007D0079007A887B031204E98E0A8F0B7896
:103B10000A120C0BAC0CAD0D7A887B031204DD7419
:103B2000021209A6EE90038780787401650870750B
:103B30008C828D83E0F8C39405506AE89003A780D7
:103B40006174016508705E8C828D83E0F8C3940413
:103B50005053E89003A8804A740665087047750AB8
:103B6000068F0B780A120C0B7AA97B031204DD7402
:103B7000021209A680577401650870298C828D8312
:103B8000E0F8C39408501EE89003AF8015740165F7
:103B90000870128C828D83E0F8C394045007E8907B
:103BA00003B0F080287509188023C3EA9427EB94AA
:103BB0000050177402650870118C828D83E0FCA39D
:103BC000E0FD12022BE9F5098003750902A9097FBE
:103BD00006020ACA7F04020ACA74F61209F89003A0
:103BE0007FE07037EA4B60089003B1EAF0A3EBF096
:103BF000E4F508F5097808120C0B7808120C0B7C18
:103C0000007D007B00900380E0FA90037EE0F912D3
:103C100005CD74041209A67900800279117F020291
:103C20000ACA74F71209F8E990037EF090037FE462
:103C3000F01202B59003807401F09003A77403F0B2
:103C40009003A8E4F09003AF7407F09003B0E4F0A1
:103C50007F01020ACA74F41209F874F6120990EA94
:103C6000FEEBFF5480602C90037EE0F91205078A7A
:103C7000088B09EA450960138A828B83E064D0705F
:103C8000031205C7AA08AB091204F5EEFAEF648027
:103C9000023D2AEEA2E04003023D2D9004CAE070EE
:103CA00003023D259003A7E0851882851983F090D3
:103CB00003A8E0C0E074011209DCD0E0F07508064A
:103CC0007509007808120C0B7CA97D037404120995
:103CD000DCAA82AB831204DD74021209A69003AF42
:103CE000E0C0E074081209DCD0E0F09003B0E0C05E
:103CF000E074091209DCD0E0F0AA18AB1990037E39
:103D0000E0F9120267E9601D90037F7404F0123D30
:103D1000396012123E5788828983E58245836005A7
:103D200079041209F6EE6401FAEFFB80047A007B55
:103D300000740A1209A6023BD49003B1123E60E857
:103D4000492274F41209F88A828B83A3A3E0F8EA6B
:103D50002403FCE43BFD8A828B83A3AE82AF83E81D
:103D6000601224FE6069147003023E09147003029D
:103D70003E098058E0703175080675090078081210
:103D80000C0B7A817B031204DD74021209A69003E6
:103D90007F7401F07CCE7D049004CDE0FB7A01902D
:103DA000037EE0F912026DE9600690037F7404F06F
:103DB000123D396017123E57E8FAE9FBEA4B600CF6
:103DC00090037FE0F98A828B831209F6023BD4E0EC
:103DD000702E8C828D83E0601B7C887D039003872E
:103DE000E0FB7A0090037EE0F912026DE98E828F8B
:103DF00083F0800C7A017B0090037EE0F912051FAE
:103E00008E828F83E070A380C3E0709E740368701D
:103E10000790037F740280979004CB123D3C90047E
:103E2000CA602AE060299004CBE0F508A3E0F50918
:103E3000E4F50AF50B7808120C077A017B00900371
:103E40007EE0F912059174041209A68002E4F09054
:103E5000037F7403023DAFE0F5838882123E602247
:103E6000E0F8A3E0F92274F71209F890037A123E01
:103E700077F07F01020ACAE4F0A3F0A3F0A3227452
:103E8000F11209F8890EEAFEEBFF120585740F1294
:103E900009DC7808120889EA4B600D8A828B83A3BB
:103EA000A37808120898806A7A0D7B00120555EAFB
:103EB0004B605B8A828B83A3A3A3A3A3A3A3A3E5E5
:103EC0000E123F17EEF0A3EFF08A828B83A3A37844
:103ED000081208988A828B83E4F0A3123F17A3A3E9
:103EE000A3123E78F0900378124230900378601766
:103EF000E0FCA3E08003E8FCE9FD8C828D831242A4
:103F00003070F38C828D83EAF0A3EBF080047A00AA
:103F10007B007F07020ACAF08A828B83A3A3A3A334
:103F2000A3A322C082C08390037880048C828D83F7
:103F3000E0FCA3E0FDEC4D60238C828D83A3A3A362
:103F4000A3A3A3E06A7003A3E06B70E08C828D836F
:103F5000A3A3A3A3A3A3A3A3E06970D0ECFAEDFBF2
:103F6000024031C082C083EA4B600E8A828B83A3F9
:103F7000A3A3A3A3A3E4F0A3F002403174F61209B3
:103F8000F8E5A8FFC2AF740A1209DC120C1E120574
:103F90007F74041209A68B09A909EFA2E7A2E79290
:103FA000AFEA4960047900800279087F02020ACAF8
:103FB00074F21209F8A2AFE433FEC2AF740E120914
:103FC000DC78081208897808120C0712057F74043F
:103FD0001209A6EA4B60128A828B83A3A3A3A3A330
:103FE000A3A3A3A37808120898EEA2E092AFEA4B2D
:103FF00060047900800279087F06020ACA74F4120C
:1040000009F8A2AFE433F509C2AF1205858A0A8B1D
:104010000BAE0AAF0BEE4F600312058BE509A2E071
:1040200092AFEE4F60047900800279067F04020AA5
:10403000CAD083D08202013274F01209F874F912E6
:1040400009908A088B098C0A8D0B74031209DC789D
:1040500008120898E5A8F9C2AF90037A7808120808
:1040600028E9A2E7A2E792AF9003781242307003EA
:10407000024220900378E0FEA3E0FF74011209DC05
:10408000E4F0A3F0750C00750D00A2AFE4338518C1
:1040900082851983F0C2AFEE2402F50EE43FF50FDE
:1040A00074051209DC124230702574041209DCE038
:1040B000701D74031209DCE0F88E828F83A3A3E0E5
:1040C000C398400B8E828F83A3A3E0C3988037856B
:1040D0000E82850F83780812088974031209DC7830
:1040E000081206AC501774031209DC78081208890C
:1040F000850E82850F83780812084F800A850E820C
:10410000850F83123E77F0EE2404F50AE43FF50BA9
:1041100012422A7054850A82850B83124230704EF7
:10412000EE2409F508E43FF509850882F5831208B5
:10413000BFE8494A4B604F8E828F83A3A3A3A3A3FA
:10414000A312429F60408E828F83A3A3A3A3A3A345
:10415000A3A3E0F912051F8508828509831208BF11
:10416000850E82850F831208CB12422A700B850AB6
:1041700082850B83124230600D8E828F83A3A3A3AE
:10418000A312422E702E8E828F83E0F8A3E0F97482
:10419000011209DC12429F7005900378800B7401B4
:1041A0001209DCA3E0F5838A82E8F0A3E9F08E0C23
:1041B0008F0D800A74011209DCEEF0A3EFF08E82FD
:1041C0008F83E0FEA3E0FF851882851983E0A2E0DB
:1041D00092AFE50C450D6041850C82850D8312423E
:1041E0002E702F850C82850D83A3A312422E702280
:1041F000850C82850D83A3A3A3A3A3A31242998553
:104200000C82850D83A3A3A3A3A3A3A3A3E0F91208
:10421000051FAA0CAB0D12055BEE4F600302408434
:1042200074071209A67F08020ACA8E828F83A3A38D
:10423000E0F8A3E0F9E8492274F01209F890037855
:10424000124230603D900378124299750C8E750DC4
:10425000C2750EF5750F288A828B83A3A378081286
:104260000889780C790812069C500C85080C850981
:104270000D850A0E850B0F8A828B8312429F600E7A
:1042800080D5750C00750D00750E00750F00AA0C19
:10429000AB0DAC0EAD0F024225E0FAA3E0FB2212FB
:1042A0004299EA4B22A2AFE433F8C2AF5394FEE541
:1042B00094A2E240FAE8A2E092AF75A70075A100CF
:1042C000759CFF75C30075A20075A30075A40075E9
:1042D000A50075A60075C31175A20075A30075A48D
:1042E0000075A50075A60075C33375A20075A300FF
:1042F00075A40075A50075A60075C34475A2007568
:10430000A30075A40075A50075A60075C32275A24B
:104310002075A34E75A40075A50075A600759408B8
:10432000A2AFE433F8C2AF439401E594A2E250FA9D
:10433000E8A2E092AF439402020132A2AFE433F864
:10434000C2AF5394FEE594A2E240FAE8A2E002452F
:104350008BA2AFE433F8C2AF439401E594A2E250DC
:10436000FA80E8E8A2E7A2E792AF0243C3E5A4859A
:104370001882851983F0E5A5C0E074011209DCD02C
:10438000E0F0E5A6C0E074021209DCD0E0F07403AE
:104390001209DCE4F0E8A2E7A2E792AF8518828573
:1043A00019831208A774041209A6D083D0820201CF
:1043B00032E8A2E7A2E792AF851882851983E0FA76
:1043C000A3E0FB740280E0C082C08374FC120990F9
:1043D000851882851983EAF0A3EBF0A3ECF0A3ED36
:1043E000F0E5A8FAC2AF53A7BF75C333851882851D
:1043F0001983E0F5A474011209DCE0F5A57402123A
:1044000009DCE0F5A674041209DCE0F8A3E0F97415
:10441000041209DCE8F0A3E9F074041209DCE0F509
:10442000A274051209DCE0F5A375A1BF43A740EA19
:104430008000A2E7A2E792AF0243A5C082C08374C6
:10444000FE120990851882851983EAF0A3EBF0E546
:10445000A8F8C2AF53A7FD75A1FD75C303851882E7
:10446000851983E0F5A274011209DCE0F5A3E59C4F
:1044700054F04401F59C024363C082C08374FC1273
:104480000990851882851983EAF0A3EBF0A3ECF07C
:10449000A3EDF0E5A8FAC2AF53A7BF75A1BF439C37
:1044A0000F75C333851882851983E0F5A474011252
:1044B00009DCE0F5A574021209DCE0F5A67404122B
:1044C00009DCE0F8A3E0F974041209DCE8F0A3E9E0
:1044D000F074041209DCE0F5A274051209DCE0F5C1
:1044E000A3E59C54F04408F59CEA02443274F412AB
:1044F00009F874FC120990851882851983EAF0A3E3
:10450000EBF0A3ECF0A3EDF0A2AFE433F9C2AF53AC
:10451000A7DF75A1DF7508FF7509FF750AFF750B29
:10452000FF85188285198378081206877005439CD9
:10453000F0802475C340851882851983E0F5A47442
:10454000011209DCE0F5A574021209DCE0F5A6E52C
:104550009C540F4450F59CE9A2E092AF74041209F8
:10456000A67F04020ACAE5A8C2AF53A7098015E5D1
:10457000A8C2AF53A709759CFF8009E5A8C2AF4345
:104580009C0F800375A109A2E7A2E792AF02013256
:10459000A3A3A3E4F0E8A2E7A2E792AF0243AAC074
:1045A00082C08374FC120990E5A8F8C2AF75C300FD
:1045B000E5A202436DC082C083E5A8F8C2AF75C30F
:1045C00000E5A28A828B83A3A3A3A3F0E5958C8246
:1045D0008D83F0E5A38A828B83A3A3A3A3A3F0E535
:1045E000A48A828B83F0E5A5A3F0E5A68A828B835B
:1045F000A3A3F08A828B83A3A3A3E4F0E5968C8225
:104600008D83A3F0E5978C828D83A3A3F08C828D9C
:1046100083024590C082C08374FE120990E5A8F819
:10462000C2AFE5C3F975C300E5A2E5A4851882858C
:104630001983F0E5A5C0E074011209DCD0E0F0892F
:10464000C30243B174F01209F875E181120477E9ED
:1046500070089002EEE0F912047D79011203FFE97F
:1046600064016003024807900334E0F8A3E0F9E82E
:10467000496010900334E0FAA3E0FB900333E0F9C3
:1046800012051F9002F2E06401600302474D75E1DC
:1046900091A3E02407F5D99002E3E0C4333354C07A
:1046A0004406F5D978E1790288828983A3A3A3E03F
:1046B000F5D988828983A3A882A983E864E7700377
:1046C000E9640270E39002F3E0601F78E17902FA96
:1046D000E82413F582E93400F583E0F5D98882896E
:1046E00083A3A882A9831AEA70E6900313E0240743
:1046F000F5D99002E3E0C4333354C04404F5D978CB
:10470000E1790288828983A3A3A3E0F5D98882890D
:1047100083A3A882A983E864E77003E9640270E3D5
:10472000900313E0601F78E17902FAE82433F58200
:10473000E93400F583E0F5D988828983A3A882A9AA
:10474000831AEA70E675E1959002F2E4F01203BD77
:10475000E9FC9002E1E02402F8A3E03400F9E8FA71
:10476000E9FB8A828B83EC75F0118485F00885085B
:104770000CE4F50DF50EF50F780C1208159002EB10
:10478000E0F508A3E0F509E4F50AF50B780C7908E3
:104790001208027508FF7509FF750AFF780C790881
:1047A0001208638A828B83780C1208989002E1E0E9
:1047B000F8A3E0C82406F582E83400F583E4F0A30A
:1047C000F09002E1E0F8A3E0C8240EF582E834009E
:1047D000F58374FFF0A3F0A3F0A3F09002E1E0F8FA
:1047E000A3E0C82414F582E83400F5837415F09032
:1047F00002E1E0F8A3E0C82416F582E83400F5836E
:1048000074B1F0A37403F01203DB7F08020ACA74C8
:10481000F01209F875E181120477E970089002EE50
:10482000E0F912047D79011203FFE96401600302DB
:104830004974900334E0F8A3E0F9E849601090036C
:1048400034E0FAA3E0FB900333E0F912051F900275
:10485000F2E06401706475E191A3E02407F5D9905A
:1048600002E3E0C4333354C04402F5D978E179025D
:1048700088828983A3A3A3E0F5D988828983A3A82A
:1048800082A983E864E77003E9640270E39002F3AD
:10489000E0601F78E17902FAE82413F582E9340038
:1048A000F583E0F5D988828983A3A882A9831AEACF
:1048B00070E675E1959002F2E4F01203BDE9FC9018
:1048C00002E1E02402F8A3E03400F9E8FAE9FB8A07
:1048D000828B83EC75F0118485F00885080CE4F573
:1048E0000DF50EF50F780C1208159002EBE0F508A7
:1048F000A3E0F509E4F50AF50B780C790812080233
:104900007508FF7509FF750AFF780C7908120863AE
:104910008A828B83780C1208989002E1E0F8A3E079
:10492000C82406F582E83400F583E4F0A3F0900291
:10493000E1E0F8A3E0C8240EF582E83400F58374C2
:10494000FFF0A3F0A3F0A3F09002E1E0F8A3E0C829
:104950002414F582E83400F5837414F09002E1E049
:10496000F8A3E0C82416F582E83400F58374B1F0AA
:10497000A37403F0024807C082C08353BFEF7901DC
:104980001203FFE96401700C7AE17B021203F390D9
:1049900002EAE4F075E1F11203DBD083D082020178
:1049A00032C082C0839002AE74FFF0A3F0A3F0A3E4
:1049B000F0A3F0A3749FF0A3E4F0A37420F090029E
:1049C000AD14F0D083D0820201327F02020ACA7F86
:1049D0000A020ACA74EE1209F88A088B09890B8C3C
:1049E0000E8D0F90035EE07009900360E07003028B
:1049F0004AA09002ABE06003024AA0898285820C43
:104A0000750D00E92407FAE43400FB1204EF8A1064
:104A10008B11AE10AF11EE4F7003024AB1741865DE
:104A200008700474206509600C74176508700474BC
:104A30002065097010900360E0600AF50A8E828F8D
:104A4000837492800C90035EE0F50A8E828F8374EB
:104A500091F0A3740E124AD38E828F83A3A3F08E9B
:104A6000828F83124C76EE2405F8EF3400F9E8FAD1
:104A7000E9FBEE2407F8EF124C49F0780C120C0B0E
:104A8000AC0EAD0F8A828B83E0FAA3E0FB1204DD4B
:104A900074021209A6EEFAEFFBA90A1204FB8011B8
:104AA000780E120C0BAC0B790E12032D7402120946
:104AB000A60249CF74F61209F8E9FE8C088D097830
:104AC00008120C0BEEFC79FF12032D74021209A6DA
:104AD0000249CAF09002ACE02274F21209F8890986
:104AE0008A0A8B0B8C0874072508FA74FF65096025
:104AF00004780380027802E82AFA7B001204EF8A25
:104B00000C8B0DAE0CAF0DEE4F7003024BFB8E8283
:104B10008F837401F0A374FFF0EE2402FAEF3400E7
:104B2000FBEE2404F8EF124C39E509124C2FE02477
:104B300002F8A3E03400F9890DA90B740E1209DC08
:104B4000124C6B74FF6509603274032508888285F6
:104B50000D83124AD3C0E0124C00D0E0124C28E57D
:104B60000A124C28A3E9F085080A750B00780A128E
:104B70000C0B8A828B83E0240680667402250888E9
:104B800082850D83F08C828D83E0C0E0124C00D0D2
:104B9000E0F08C828D83A3E0C0E0124C14D0E0F0F2
:104BA0008C828D83A3A3E0C0E0124C14A3D0E0124A
:104BB0004C232406124C19124C23124C81E9F08527
:104BC000080AE50A24FDF50AE434FFF50B780A1219
:104BD0000C0BEC2403FCED3400FD8A828B83E02473
:104BE00008FAA3E03400FB1204DD74021209A6EEF9
:104BF000FAEFFB90035CE0F91204FB7F06020ACA9D
:104C0000124C04228A828B83E0F8A3E0F583888229
:104C1000A3A3A322124C04A322F582E83400F58357
:104C2000E50A22124C55C822124C62A3A3A32212F9
:104C30004C3322F08A828B8322124C49124C55F558
:104C40008388827404124C62223400F98A828B8336
:104C5000E8F0A3E922124C5922F08A828B83124C8D
:104C60007122124C59F5838882A322E0FCA3E0FD57
:104C700022E0F8A3E022A3A3A3E508F0A3E509F04E
:104C8000222407F582E83400F58322C082C083C362
:104C9000EA9427EB9400501674FF6C700374FF6D58
:104CA000600C124CCFECF0A3EDF079008002790299
:104CB000024DE1C082C083C3EA9427EB9400500800
:104CC000124CCF124DE880047AFF7BFF024DE1EADF
:104CD000C333FAEB33FB74592AF58274043BF58332
:104CE0002274F71209F8E9FEEAFF7C107D007900D2
:104CF0007A887B021204E9EE900458F0EF90028368
:104D0000F01202D9E990028870057401F08004E481
:104D1000F079127F01020ACA74F61209F8E9FF7EDF
:104D200000701EEA4B601A7508068E097808120C8E
:104D30000BEAFCEBFD7A8F7B021204DD7402120990
:104D4000A6900288E0640170130EEF70087402F000
:104D50001202DF8007E4F0EFF9120255EEF97F024C
:104D6000020ACA74F71209F87E00EA4B603B8A8295
:104D70008B83E07012124E92900295E8F0A3E91234
:104D80004F29E0900297F0900288E06402701A0EBA
:104D90008A828B83E0900288700474038001E4F0BF
:104DA0008A828B83E0F9120255EEF9024D13C0821C
:104DB000C083E9F87900EA4B6025E86022EA24051F
:104DC000F582EB3400F5837401687005E044C0801F
:104DD0000CE0543FF07403687004E0D2E6F0098000
:104DE00000D083D082020132E0FAA3E0FB2274F407
:104DF0001209F88908900458E0F460507A0A7B00A0
:104E00001204EF8A0A8B0BAE0AAF0BEE4F603D1215
:104E10004E997408F0900284E08E828F83A3A3A33E
:104E2000F0750A06750B00780A120C0B7C987D024F
:104E3000EE2404FAEF3400FB1204DD74021209A61A
:104E4000EEFAEFFB900458E0F91204FB900287E0C1
:104E5000640170399002A7124E93E8496018E0F59A
:104E6000838882A3A3A3124E9288828983E5824518
:104E70008360031209F690801C120C1E7A047B00DA
:104E80009002A6E0F912059774041209A67F0402A5
:104E90000ACAA3E0F8A3E0F9228E828F8374D0F0CF
:104EA000A3E508F08E828F83A3A32274F41209F87D
:104EB0008908900458E0F4606D7A0C7B001204EFCE
:104EC0008A0A8B0BAE0AAF0BEE4F605A124E99E472
:104ED000F0750A06F50B780A120C0B7C8F7D02EE3A
:104EE0002403FAEF3400FB1204DD74021209A690C9
:104EF0000295124E938E828F83A3A3A3A3A3A3A391
:104F0000A3A3E8F0A3E9F0900297E0C0E0EE240B41
:104F1000F582EF3400F583D0E0F0EEFAEFFB900479
:104F200058E0F91204FB024E8DF08A828B83A3A312
:104F3000A32212507EAC82AD8322C082C08374F95A
:104F400012099074011209DCAA82AB831203451284
:104F5000505379077A097B101203217900740702F4
:104F60005097C082C08374FC1209908518828519FD
:104F700083E4F0041209DC741BF074021209DCE40F
:104F8000F074031209DC740C124F997A027B201220
:104F9000032179007404025097124F32790422746D
:104FA000F41209F874FF120990E9FE740D1209DC7D
:104FB000E0F9740E1209DCE0FF740F1209DCE0F571
:104FC00008A3E0F50974111209DCE0F50A74121265
:104FD00009DCE0F50B780B120C0F780A120C0F7835
:104FE00008120C0BEFF5087808120C0FE9F5087899
:104FF00008120C0FEEF912034B74061209A6125098
:10500000607A067B20120321790074011209A67FC1
:1050100004020ACA74F71209F874FF120990120305
:10502000511250607A0802508674F71209F874FF22
:1050300012099012035D1250607A0902508674F7CB
:105040001209F874FF1209901203571250607A0A7D
:10505000025086E9851882851983F0AC82AD8322DF
:10506000E9851882851983F0AC82AD83790122121B
:1050700009A67F02020ACA79007403025097F085DC
:105080001882851983227B20120321790074011272
:1050900009A67F01020ACA1209A6D083D0820201A2
:1050A00032E9124F32790322C082C08374FD1209A3
:1050B00090851882851983740CF074011209DC74D0
:1050C00004F012036374021209DC1250A17A0C7B03
:1050D000FC12032790035DE060087A007B40F91220
:1050E000051F02507774F61209F874F712099085BB
:1050F0001882851983E4F0750808F5097808120C00
:105100000BEAFCEBFD74031209DCAA82AB831204E8
:10511000DD74021209A6851882851983AC82AD83DD
:1051200079097A187B20120321740902506FC0821A
:10513000C08374FD120990851882851983E4F004F8
:105140001209DC7404F074021209DCE41250A2FAB1
:105150007BFC120327025079C082C08374FD1209C0
:10516000908518828519837401F01209DC7404F0AB
:1051700074021209DCE41250A27A0180D3C082C00A
:105180008374FD1209908518828519837416F07452
:10519000011209DC7404F074021209DCE41250A25A
:1051A0007A16025150C082C08312046512045F0255
:1051B00053D5C082C0839061B1E0C2E0F0E0440307
:1051C000F0906188E0640470F80253D5C082C08317
:1051D0009061C0E0FAE4F0F8F9E82400F582E934DF
:1051E00060F583E41251FB9480E9940140EBEA906E
:1051F00061C0F090618A74010253D0F01252002213
:10520000E8240108E93400F9C3E822C082C0838A97
:10521000828B83E0906016125319A3E090601712FE
:105220005249906018125252906019125257906071
:105230001A12525C90601BF0E99060157005E0C294
:10524000E08003E0D2E00253D4F08A828B83A3A3F0
:10525000E022125267E022125262E022125262A34E
:10526000E022125267A322F08A828B83A3A3A32297
:1052700074F01209F8EA906005F0EBA3F0ECA3F0EB
:105280007F08020ACAC082C083906001E00252F522
:10529000C082C0837407599060010253D4C082C099
:1052A000837401699060037005E0D2E08003E0C27E
:1052B000E00253D4C082C083906003E054F94902F5
:1052C00053D4C082C083906061E00252F574F01242
:1052D00009F8EA90619512536602527EC082C0833B
:1052E00090035BE4F0906022F0A3F0A37830F0A389
:1052F000D8FC0253D5F90253D5C082C08390601404
:10530000E054FCF0E0490253D4C082C083906009AD
:10531000E40253D49061C07401F08A828B8322C06E
:1053200082C0837A007B60E970027A33125314E4FE
:10533000F0A3F0A3F09061C00253D4C082C083E90F
:105340009060020253D4C082C083E990600270056D
:10535000E0D2E38003E0C2E30253D4C082C083E919
:105360009061C60253D4F0EBA3F0ECA3F0ED22C0A1
:1053700082C083E9601714601C14601E146023143B
:10538000602514602A14603314603C80419061E908
:10539000E054FC80389061E9801C9061E9E0C2E053
:1053A000802B9061E9801B9061E9E0C2E1801E9052
:1053B00061E9E0C2E1F0E0D2E080129061E9E0C290
:1053C000E0F0E0D2E180069061E9E04403F080057E
:1053D000F0A3F0A3F0D083D08202013274F012095E
:1053E000F874F81209908A088B098C0A8D0B90804A
:1053F0002C78081206BC500C75084075099C750A7B
:1054000000750B00AC18AD1974041209E6120FEF09
:1054100012555E706C851882851983780812088988
:1054200012555E60559003DE7401F09003DD740246
:10543000F090803078081206BC400812555E600378
:10544000025554C2AFE51A70030255529003DDE0D5
:10545000F91211ACE9600302555212060312060F4D
:1054600012555E70030254F790803478081206BC1F
:105470005070908038120C1E806D9003DEE4F08036
:1054800058740C78081207E390803C780C12088955
:105490007808790C12075B8518828519831208BF7A
:1054A000E8494A4B601B85188285198378081206E3
:1054B000AC500E8518828519837808120889025429
:1054C0002512062D74041209DC1208B39003DEE4E1
:1054D000F012555E600302542B9003DD7403F0025A
:1054E000543B7808120C0774081209DC1208A71242
:1054F000062774041209A653BEFC9003DDE042BEE9
:10550000E5ADA2E050FA751A01E5A8FEE5B8FFE5A1
:105510009AF50853A82053B820539A12D2AF120616
:105520001B9003DEE064017006A2C74002E4F08E27
:10553000A88FB885089A9003DDE0640370047901B0
:10554000800279009003DEE0FA121245120615126D
:105550000609D2AF74081209A67F08020ACAE50834
:105560004509450A450B2274F41209F874FC120926
:1055700090851882851983EAF0A3EBF0A3ECF0A3E1
:10558000EDF0C2AD74101209DC7808120889908021
:105590004078081208158518828519837808120842
:1055A0002874021209DCE0F59774011209DCE0F5B9
:1055B00096851882851983E0F595C2C7D2AD74042B
:1055C0001209A67F04020ACAC082C08374FC1209B1
:1055D00090E595851882851983F0E596C0E0740101
:1055E0001209DCD0E0F0E597C0E074021209DCD0CB
:1055F000E0F074031209DCE4F08518828519831247
:1056000008A774041209A6D083D082020132C08296
:10561000C083900CEDE4F0A3F0900CEF74EFF0A3D6
:105620007404F09004EF7448F0A37402F09007370C
:10563000F0A37480F0A374B4F0A37405F0D083D009
:105640008202013274F61209F87A017B00120555C4
:10565000E5A8FEC2AFEA24FEF8EB34FFF9900CEFA8
:10566000E8F0A3E9F012055B9003707401F0EEA27C
:10567000E7A2E792AF7F02020ACA74F21209F87C2D
:10568000007D007F00EA2402FAE43BFBA2AFE43392
:10569000FEC2AF900370E06008EA9411EB940050F2
:1056A0000A900CEFE0F8A3E0F980047839790788D4
:1056B000828983E0F508A3E0F509548060057F0046
:1056C000025757EFA2E0507C8C828D83E0F50AA34D
:1056D000E0F50B5480F50DE50A2508F508E50B35D6
:1056E00009547FF509E50D4509F5098C828D83E59F
:1056F00008F0A3E509F0547FF509C3E5089AE50928
:105700009B4054ECF8EDF9E84970030257C58882D4
:105710008983E0FCA3E0547FFDECC39AFCED9BFD84
:10572000C3EC9404ED9400405DE82AF582E93BF572
:1057300083ECF0A3EDF0EB4480FB88828983EAF0F0
:10574000A3EB804AE509547FFDC3E5089AED9B5021
:10575000B67F01E8FCE9FD88828983E0F508A3E0D3
:10576000547FF509E82508F8E93509F98882898325
:10577000E0F508A3E0F509E508450960030256AF26
:1057800078007900803F88828983A3E04480F0908C
:105790000370E06029900CEFE0FAA3E0FBE86A7088
:1057A00002E96B701988828983E0FAA3E0547FFBD9
:1057B000E82AFAE93BFB900CEFEAF0A3EBF0E824CF
:1057C00002F8500109EEA2E092AFE8FAE9FB7F0689
:1057D000020ACAC082C083EA24FEF8EB34FFF9A2B1
:1057E000AFE433FCC2AF88828983A3E0547FF0909A
:1057F0000CEFE0FAA3E0FBE89AE99B5008900CEF6D
:10580000E8F0A3E9F0ECA2E092AF02563DC082C0FE
:1058100083E99004AE0259F274F71209F8E9900294
:10582000A6F01204D77F01020ACA74F41209F88A9A
:10583000088B09EB548060799002A6E0F912050705
:105840008A0A8B0BAE0AAF0BEE4F605C8E828F83A1
:10585000E064917039A3E024F2602924D0702F75A0
:105860000B018E828F83A3A3E06402700F1259E3B1
:10587000600D1258F560081209F68003750B00855B
:105880000B0A80061202CDE9F50AE50A70139004AE
:10589000AEE0F4600CEEFAEFFBE0F91204FBE96015
:1058A00007EEFAEFFB1204F5AA08E5096480FB8015
:1058B0003FEAA2E050171259E3600C1258F5600756
:1058C0007A007B001209F6E5086401801A54026030
:1058D0001B9002A71259E6600A1258F5600579017B
:1058E0001209F6E5086402FAAB0980047A007B002D
:1058F0007F04020ACA1259CCA3A31259C2E58245F9
:105900008322790002013274F51209F8750A018ABE
:10591000828B83A3A3A3E0FEA3E0FF8E088F097808
:1059200008120C95010008200A20A0590700091050
:1059300068590220555905204C590620A0590B20C2
:1059400089590C2084590E20BB59B8591259D2F9E3
:1059500012024F80668A828B83A3A3A3A3A3E0FADB
:10596000A3E0FB120243804B8A828B83A3A3A3A3F1
:10597000A31259C2A3AA82AB8388828983E0F91259
:10598000023D802F1259D260321259E3602D125914
:10599000CC1258FA6025EAFCEBFDEEFAEFFB801022
:1059A0009002A71259E660131259CC1258FA600BF4
:1059B0001209F6E9F50A8003750A00A90A7F0302B5
:1059C0000ACAE0F8A3E0F98882898322E0F5838897
:1059D00082228A828B83A3A3A3A3A3E0F8A31259F4
:1059E000CCE0229002A9E0F8A3E0F9E84922EAF02D
:1059F000A3EBF0D083D082020132C082C083900238
:105A0000A780EB7F02020ACA74F71209F874FB122E
:105A10000990E9900282F074021209DC7401F0909E
:105A20000281E4F074031209DC7403F0A3E4F07A59
:105A3000327B041202FD74011209DC7402F01209B7
:105A4000EE79017A027B031205AF74031209EE7935
:105A5000027A037B031205AF7C217D0479117A055C
:105A60007B031205AF7C387D04791C7A047B03121A
:105A700005AF74011209EE79017A067B031205AFB6
:105A8000125B881205AF7C807D0C7A067B001202C7
:105A90002B7C807D0C7A077B0012022B7C807D0C96
:105AA0007A087B0012022B7C807D0C7A097B001225
:105AB000022B7A017B00900282E0F912051F740527
:105AC0001209A67F01020ACA74F61209F874FF12BD
:105AD0000990EAFEEBFF54806006EF6480025B7978
