:020000040000FA
:0600000002011A020EBF0E
:03002B0002143C80
:0300330002141E96
:03005300020F3267
:03006B000213F588
:10008300020D7FE5C754F84401F5C779012200004A
:100093000080FB120086B90003020104E4791B7897
:1000A30002B800028004F709D8FCE4791D7802B88D
:1000B30000028004F709D8FCE490028178A8790251
:1000C3008002F0A3D8FCD9FA781A90014A7A01BACF
:1000D30000028007E493A3F608DAF97A287B0490F8
:1000E300014B78E879018015E493A3AD82AE838A4E
:1000F300828B83F0A3AA82AB838D828E83D8E9D9C6
:10010300E7758234758366740012012C75829175CC
:100113008300740012012C75D00075813F7518811E
:10012300751902759F00020096C09FF59FE473D076
:100133009F22D083D082C09FE493C0E0740193C018
:10014300E0740293F59F2201303132333435363770
:100153003839414243444546200D094241544D4FED
:100163004E313030364235020A00B50610CBEB80F3
:100173000201050303B0FB13FF000180EBCB100664
:10018300B50000000000090000380000FF0000B4C3
:10019300000028002800283075A000A000A000A0BF
:1001A3000000080008E001F000100010001000102B
:1001B300001000100050005000500010001000D03C
:1001C300070000000000000F000100050030750764
:1001D300001000010081FF00000000FF9E02BC022E
:1001E300A402FFEE03EE03EE03EE03EE03EE03EED3
:1001F30003EE03EE03EE03EE03EE03EE03FF013023
:10020300750302010400000000000000000000006C
:1002130000000000000000000000000000000000DB
:1002230000FF00010000006D4EC64139300000128E
:100233000135CD4900120135024A00120135CC4A7D
:1002430000120135294C00120135C74F0012013548
:10025300EF4F001201351D500012013554500012AA
:1002630001359F5000120135EA50001201352A5121
:1002730000120135E751001201352C6200120135DD
:100283004462001201354B24001201351E25001271
:100293000135C725001201351A2600120135CA2679
:1002A300001201355627001201354228001201358C
:1002B300712800120135842900120135CC2900125E
:1002C3000135A12A00120135DD2A00120135F92A70
:1002D30000120135495B00120135545B00120135F0
:1002E300665B001201353E5C00120135435C00126F
:1002F3000135365D001201357652001201359E52EA
:1003030000120135DB520012013550530012013542
:100313006553001201357A5300120135E45300127C
:1003230001352154001201356A54001201359454E9
:1003330000120135B95400120135DD4C00120135AC
:10034300104D00120135F04D00120135154E00120B
:1003530001356814001201353D16001201351A17D4
:1003630000120135BE1700120135181800120135AD
:10037300B81900120135F91900120135991B001241
:100383000135E41B001201357046001201353B486C
:1003930000120135A34900120135DE1C001201359C
:1003A3008C1D00120135B81D00120135071E001205
:1003B3000135281F00120135BE20001201353321FB
:1003C300001201359D2100120135A22200120135D0
:1003D3000224001201352124001201353F5D001271
:1003E30001354B5D00120135315E00120135506657
:1003F30000120135CC3000120135F1300012013505
:100403000932001201358C3300120135B134001268
:1004130001352235001201355F3500120135823571
:1004230000120135983500120135D1420012013511
:100433006743001201357D4300120135F343001277
:100443000135674400120135A544001201351945F1
:10045300001201359245001201359B45001201350A
:10046300A74500120135CB4500120135E1450012C5
:100473000135404600120135E15400120135EE54B6
:100483000012013508550012013547550012013598
:10049300AC5500120135C15500120135CC5500127F
:1004A3000135D95500120135F05500120135FE55BD
:1004B3000012013509560012013518560012013594
:1004C3003556001201354556001201355B560012B0
:1004D30001357756001201358256001201359756C1
:1004E30000120135AB56001201358263001201354B
:1004F300AE6300120135096400120135A135001203
:100503000135DF35001201353936001201355A360F
:1005130000120135AB3600120135D4360012013515
:10052300DE36001201354A3700120135D837001282
:1005330001352638001201355C3800120135E338E5
:10054300001201352339001201355B3900120135E0
:100553007A39001201358339001201358D65001295
:1005630001356B60001201354A590012013580597B
:1005730000120135B659001201350F5B0012013527
:100583001B64001201353164001201353B64001213
:100593000135856400120135923E00120135AB3EF0
:1005A300001201354F3F001201358F3F0012013514
:1005B300A83F00120135DC3F00120135294000122B
:1005C3000135644000120135644200120135423A9C
:1005D30000120135053C001201354E3C0012013575
:1005E300813C001201356E3D00120135FA6500129F
:1005F3000135DD6200120135446600120135685E83
:1006030000120135ED5E00120135535F0012013512
:100613006C61001201358C6100120135E561001235
:1006230001351F62001201352262001201354A664C
:10063300001201354D6600120135F87F00120135B5
:10064300185700120135A35800120135045900123E
:100653000135B364001201356C5F00120135965FFA
:10066300001201356E2B001201352B2C00120135BF
:10067300662C00120135C82C00120135142D00120E
:1006830001356D2D00120135FE2D00120135BB2FF2
:10069300001201353D3000120135A2300012013540
:1006A300CE65001201354665001201351C6600E077
:1006B30066701008A3E066700A08A3E06670040879
:1006C300A3E06622C3E7960809E7960809E79608B8
:1006D30009E79622C3E09608A3E09608A3E09608EC
:1006E300A3E09622C008C3E096F50808A3E096426B
:1006F3000808A3E096420808A3E09645087001D3D2
:10070300D00822080808EAC0E0EBC0E086F0E7A4BE
:10071300FA180986F0E7A42AFA180986F0E7A42A4A
:10072300FA180986F0E7A42AFA1986F0E7A4FBE58C
:10073300F02AFA190886F0E7A42BFBE5F03AFA1938
:100743000886F0E7A42BFBE5F03AFA18180986F0BF
:10075300E7A4C5F02BFBE43AFA1908E7C5F0C6A4F1
:1007630026F6E5F03BFBE43AFA1886F0E7A4F6E553
:10077300F00826F6E43B08F6E43A08F6D0E0FBD0AE
:10078300E0FA22E4CFC0E0E4CEC0E0E4CDC0E0E490
:10079300CCC0E075F020E626F608E633F608E6332B
:1007A300F608E633F6181818EC33FCED33FDEE3398
:1007B300FEEF33FFC3EC9709ED9709EE9709EF9727
:1007C300191919400FFFEC97FC09ED97FD09EE97F6
:1007D300FE191906D5F0BFECF709EDF709EEF70995
:1007E300EFF7191919D0E0FCD0E0FDD0E0FED0E01E
:1007F300FF226016080808C6C313C618C613C61816
:10080300C613C618C613C6D5E0EA2270090808083D
:10081300226016181818C6C333C608C633C608C6DE
:1008230033C608C633C6D5E0EA22E627F60809E64A
:1008330037F60809E637F60809E637F622E026F622
:1008430008A3E036F608A3E036F608A3E036F6225E
:10085300E026F008A3E036F008A3E036F008A3E0B2
:1008630036F022C3E697F60809E697F60809E697F5
:10087300F60809E697F622C3E096F008A3E096F09F
:1008830008A3E096F008A3E096F022E657F60809DD
:10089300E657F60809E657F60809E657F622E05642
:1008A300F608A3E056F608A3E056F608A3E056F6CA
:1008B30022E0F608A3E0F608A3E0F608A3E0F62298
:1008C300E6F008A3E6F008A3E6F008A3E6F022E0CA
:1008D300FAA3E0FBA3E0FCA3E0FD22EAF0A3EBF024
:1008E300A3ECF0A3EDF022E0F8A3E0F9A3E0FAA370
:1008F300E0FB22E8F0A3E9F0A3EAF0A3EBF022CABD
:10090300C0E0E6F0A308DAFAD0E0FA22CAC0E0E0D9
:10091300A3C582CCC582C583CDC583F0A3C582CCD4
:10092300C582C583CDC583DAE6D0E0CA22B90010FB
:10093300BB0008E88AF084F8AAF022E4FBC8FA2294
:10094300EB70227B10C833C8C933C9335007C39A2D
:10095300C3DBF280069A50012ADBEAC833F4C8C924
:1009630033F4C9FA2275F008E4C833C8C933C9336C
:10097300C99AC99B5004C92AC93BD5F0ECFBC833BB
:10098300F4C8E4C9FA22600D08C6A2E713C618C664
:1009930013C6D5E0F322600C08C6C313C618C613EA
:1009A300C6D5E0F422700422600D18C6C333C6080E
:1009B300C633C6D5E0F41822251810AF08F5184041
:1009C3000C15198008F51840021519D2AF2200C082
:1009D300D0251810AF08F518500C05198008F51824
:1009E30050020519D2AFD0D0222518F58210AF08D6
:1009F300F518400C15198008F51840021519D2AFE7
:100A0300851983222518F582E43519F583222518E3
:100A1300FAE43519FB222518FCE43519FD22E473A9
:100A23002518C582C0E0E51934FFC583C0E0E51889
:100A3300C3958224F810AF0885831985821880082E
:100A4300858319858218D2AFCEF0A3E520F0A37871
:100A530008E608F0A3DEFAEFF0A3E58124FAF8E64E
:100A630008F0A3E608F0A3E608F0A30808E608F0F8
:100A7300A3E608F0A315811581D0E0FED0E0F815B8
:100A83008115811581E8C0E0EEC0E0222518C582FA
:100A9300C0E0E51934FFC583C0E0E518C39582249F
:100AA300F910AF0885831985821880088583198515
:100AB3008218D2AFCEF0A3E520F0A37808E608F0C1
:100AC300A3DEFAEFF0A3E58124FBF8E608F0A3E642
:100AD30008F0A30808E608F0A3E608F0A3158115BB
:100AE30081D0E0FED0E0F815811581E8C0E0EEC0CA
:100AF300E022851983851882E0A3FEE0A3F5207820
:100B030008E0A3F608DFFAE0A3FFE0A3C0E0E0A358
:100B1300C0E0E0A3C0E0E0A3C0E0E0A3C0E010AF0A
:100B2300088582188583198008858218858319D2E0
:100B3300AFD083D082020132851983851882E0A366
:100B4300FEE0A3F5207808E0A3F608DFFAE0A3FFB0
:100B5300E0A3C0E0E0A3C0E0E0A3C0E0E0A3C0E006
:100B630010AF0885821885831980088582188583CC
:100B730019D2AFD083D08222C0D02518C582C0E05D
:100B8300E51934FFC583C0E0E518C3958224F3104B
:100B9300AF08858319858218800885831985821893
:100BA300D2AFC8F0A3E9F0A3EAF0A3EBF0A379086E
:100BB300E709F0A3D8FAECF0A3EDF0A3EEF0A3EF6E
:100BC300F0A3D0E0F0A3D0E0F0A3D0E0F0A3E520C1
:100BD300F0A3E5F0F0A322851983851882E0C0E035
:100BE300A3E0F9A3E0FAA3E0FBA37808E0F608A3E7
:100BF300DFFAE0FCA3E0FDA3E0FEA3E0FFA3E0C077
:100C0300E0A3E0C0E0A3E0F5D0A3E0F520A3E0A3D8
:100C1300F5F010AF0885831985821880088583193C
:100C2300858218D2AFD082D083D0E0F8D0E032747E
:100C3300048006740280027401C0E0F4041209EC1B
:100C4300D0E0120902227404800474028000CCC034
:100C5300E0EDC0E0E518C39CCCAD1950011D10AF09
:100C6300068C188D1980068C188D19D2AF12090FB6
:100C7300D0E0FDD0E0FC22D083D082E9C0E0E49351
:100C8300A3C386F0C5F095F0F908E493A386F0C5F5
:100C9300F095F0700BE493A3C3994005E904800237
:100CA300A3E475F002A42582F582E5F03583F5838C
:100CB300D0E0F9E493A3C0E0E493C0E022D083D072
:100CC30082ECC0E0EDC0E0E493A3FCE493A3FDED6C
:100CD3004C600D120D0CEC24FFFCED34FFFD80EF96
:100CE300E493A3FCE493A3FDED4C600D120D4BECD8
:100CF30024FFFCED34FFFD80EFD0E0FDD0E0FCE409
:100D030093A3C0E0E493C0E022C0E0C3E493960859
:100D13007401939618400FE4936670080874019366
:100D2300661870007019A3A3C3E493960874019323
:100D33009618A3A3400DD0E0D0E0D0E0020CFCA3B2
:100D4300A3A3A3A3A3D0E022C0E0C0F088F0E49360
:100D53006670080874019366187000A8F0A3A37066
:100D63000BD0F0D0E0D0E0D0E0020CFCA3A3D0F095
:030D7300D0E022AB
:100D7800851B87851CC622C0E0C0D0E8C0E0E9C05A
:100D8800E0EAC0E0EBC0E0ECC0E0EDC0E0EEC0E0BF
:100D9800C008C009C00AC00BC082C083C0F0A2AF9F
:100DA800E433FEC2AF759B00906182E0A2E0500977
:100DB800E591A2E050037591FEE0A2E55009E591A6
:100DC800A2E550037591DFE0A2E64003020E72E54A
:100DD80091A2E64003020E727591BF9002D0E064C2
:100DE800057008120454120460800312045A751B1B
:100DF800001204AEE99002D1F079001204A21203A5
:100E0800AC7A017B009002CFE0F912053E9078039E
:100E1800E064427055900344E014F0704DC2AF1284
:100E28000E2A00781ED0E0F618D0E0F6E59F5407A9
:100E380070057509FF800375097FC4C0E0781DE659
:100E4800F50808E65509F509740B7808120999D0D0
:100E5800E02508F8906270E0A2E740F8E8C3339014
:100E68006272F0906270E0D2E0F0906181E0A2E3FB
:100E78005009E5E9A2E3500375E9F7A3E0A2E750BA
:100E880009E591A2E7500375917FEEA2E092AFD0F9
:100E9800F0D083D082D00BD00AD009D008D0E0FEA1
:100EA800D0E0FDD0E0FCD0E0FBD0E0FAD0E0F9D013
:100EB800E0F8D0D0D0E032C0E0C0D0C082C083908B
:100EC8006183E0A2E05009E5BFA2E0500375BFFED0
:100ED800E0A2E15009E5BFA2E1500375BFFDE0A221
:100EE800E25009E5BFA2E2500375BFFBE0A2E35060
:100EF80009E5BFA2E3500375BFF7E0A2E45009E596
:100F0800BFA2E4500375BFEFE0A2E55009E5BFA218
:100F1800E5500375BFDFE0A2E65009E5BFA2E65041
:100F28000375BFBFD083D0828088C0E0C0D0E8C03E
:100F3800E0E9C0E0EAC0E0EBC0E0ECC0E0EDC0E012
:100F4800C0F0E5A7A2E6500FE5A1A2E6500953A715
:100F5800BF75A1BF120F97E5A7A2E5500CE5A1A2A6
:100F6800E5500653A7DF75A1DFE5A7A2E15009E523
:100F7800A1A2E1500375A1FDE5A7A2E2500CE5A1ED
:100F8800A2E2500653A7FB75A1FBD0F0020EA8748D
:100F9800F8120A8F751B019002D0E06406701512D2
:100FA80004188A828B83A3A3A3A3A3A3E0FAA3E0D4
:100FB800FB120442A2AFE433FED2AF9002D6E06443
:100FC8000170187A207B009002CFE0F91205BC7AF4
:100FD800207B009002CFE0F9120544906182E0D2B4
:100FE800E6F0900341E0602185C61C80169002D58A
:100FF800E064017008E5C654F84405F5C653BEFC24
:10100800120D787401651B60E4EEA2E092AF7F01D7
:10101800020B3B74E9120A8F74F81209BB85188217
:10102800851983ECF0A3EDF08A088B099002D0E0D3
:1010380024F7C3940550067508010211B21204186A
:101048008A0A8B0BAE0AAF0BEE4F70030211AFACDE
:1010580008AD097402120A07AA82AB8312046C8EC7
:10106800828F83A3A3750CFF750DFF750EFF750F97
:1010780000780C1208A17402120A077510FF751186
:10108800FF7512FF75130078101208A1780C7910FB
:101098001206C7502A780C7910120866750801756F
:1010A80009C8750A00750B007808790C1206C75034
:1010B80052850C08850D09850E0A850F0B80507521
:1010C80014017515C8751600751700851008851167
:1010D8000985120A85130B7808790C1208667814AA
:1010E80079081206C7401C750800750900750A00C2
:1010F800750B01780879101208667808790C1208BF
:101108002D800C750801750900750A00750B0074AF
:1011180009780812080E750C19F50DF50EF50F78FB
:1011280008790C1207868E828F83A3A3A3A3A3A397
:10113800E0F8A3E0F97AD07B03120930880C890D16
:10114800E4F50EF50F7808790C12082D7406120ACA
:1011580007E0F8A3E0F97AD07B03120930E8FA8AAD
:101168000CE4F50D7808790C1206C7500778087951
:101178000C1208669002D0E06408600AE064066019
:1011880005E06405702D750C0D780C79081206C7FA
:101198004021750CF4750DFF750EFF750FFF78086B
:1011A800790C12082D800C750800750900750A0065
:1011B800750B00851882851983E0F8A3E0F583880C
:1011C8008278081208C374081209D17F10020B3BF9
:1011D80074F7120A8F12047E90033FE064017010C6
:1011E800906245E4F0A3F053F4F343FE0C5390F3FC
:1011F800120430E5C654804449F5C6E59E547F6420
:101208004970F8906185740FF090033DE0F4700226
:10121800A3E0604E90033EE0600814601B14602E4B
:10122800804075080175090090033DE078081209AF
:10123800A8E508F45280802A750801750900900312
:101248003DE078081209A8E508F452908014750862
:101258000175090090033DE078081209A8E508F433
:1012680052A079007F02020B3B74F7120A8FE9FE45
:10127800EAFF74016E700C7A807B009002CFE0F96F
:1012880012053E901460E493F46008E493F91203A5
:10129800A0800953C680E59E547F70FA12043690E8
:1012A800033FE0640170031203B890033DE0F4705B
:1012B80002A3E0604B90033EE0600814601A1460DB
:1012C8002C803D75080175090090033DE0780812EF
:1012D80009A8E5084280802875080175090090036F
:1012E8003DE078081209A8E50842908013750801C6
:1012F80075090090033DE078081209A8E50842A0A6
:1013080012047E1204188A088B09A808A909E8495A
:101318006015E5E170FCE82414F582E93400F583F2
:10132800E0F46003E0F5E174016F700A7A0190025D
:10133800CFE0F912058C02126C74ED120A8F8A083C
:101348008B098C0A8D0B7413120A07780C1208B4D7
:101358007808790C1206C77510017511C875120046
:1013680075130050127808790C12086678107908FD
:101378001206C750168010780C7908120866781083
:10138800790C1206C740047901800279007F0C02AB
:101398000B3B74ED120A8F8A088B098C0A8D0B742B
:1013A80013120A07780C1208B4780C79081206C7C9
:1013B80040117808790C120866AA08AB09AC0AAD86
:1013C8000B802275100075110075120075130178D5
:1013D80010790C1208667810790812082DAA10AB3B
:1013E80011AC12AD1380A6C2AF02000022C0E07497
:1013F800F2120B7BA2AFE433FED2AFE589A2E15033
:101408000312061C758900C2C5751A00EEA2E09287
:10141800AF7F01020BDAC0E074F2120B7BA2AFE4DB
:1014280033FED2AFE58BA2E0500312061C758B0089
:10143800C2E880D5C0E0C0D0E8C0E0E9C0E0E5A8D7
:10144800D2AFC2C7751A00A2E7A2E792AFD0E0F9FF
:10145800D0E0F8D0D0D0E032FFFFFFFFFFFFFFFF62
:1014680074F4120A23E99002CFF0120478907800FD
:10147800E0C4540F540764037004793F8002797FF5
:101488007508067509007808120C367CBD7D027A4D
:10149800EA7B071205FE74021209D19002BDE0F43E
:1014A8007049A3E0F47044A3E0F4703FA3E0F47043
:1014B8003AA3E0F47035A3E0F4703090780EE09031
:1014C80002BDF090780FE09002BEF0907810E090A6
:1014D80002BFF0907811E09002C0F0907812E0908E
:1014E80002C1F0907813E09002C2F09002C374FF3A
:1014F800F0A3F0A3F0A3F0A3F0A3F09002BDE09056
:1015080002C9F09002BEE09002CAF09002BFE090DB
:1015180002CBF09002C0E09002CCF09002C1E090C3
:1015280002CDF09002C2E09002CEF09002E1740683
:10153800F0A3740DF0A3E4F0A37440F0A37401F0D9
:101548009002EB74FFF0A3F0A3F0A3F0A3F0A3F0D4
:101558009002EAE4F09002F1F0A374A0F0A3E4F0A2
:10156800A37403F0A37407F0A3E4F0A37428F0A312
:10157800E4F0A304F0A3E4F090031AF090033D74A0
:10158800FFF0A3E4F090033FF090034104F09003D0
:10159800427490F0A37401F01203B212035E1204B5
:1015A8002A79017A447B031203E2900344E075F040
:1015B8001484E5F004F01203E87A009002CFE0F911
:1015C80012058C907803E064427055900344E0144F
:1015D800F0704DC2AF1215E000781ED0E0F618D0BA
:1015E800E0F6E59F540770057509FF800375097FCC
:1015F800C4C0E0781DE6F50808E65509F509740B3E
:101608007808120999D0E02508F8906270E0A2E7FE
:1016180040F8E8C333906272F0906270E0D2E0F074
:101628009002E6E4F0A3F07A80FB9002CFE0F91292
:10163800053E02180974F4120A23EAFEEBFFEEA233
:10164800E050449002D1E0C39480E0500FC333F8D7
:10165800E433F974C328F5827404800EF4C333F8B4
:10166800E433F974D128F582740439F583E0F8A3DA
:10167800E0F5838882120A217A009002CFE0F912FD
:10168800058CEE6401803D5480603D900342E0F893
:10169800A3E0F9E849602A7900120586900342E040
:1016A800F508A3E0F509E4F50AF50B7808120C3201
:1016B8007A007B019002CFE0F91205B07404120998
:1016C800D1EE6480FAEF802DEF5401600C7901129D
:1016D8000586EEFAEF6401801CEF5402600AC2AF7F
:1016E80075C9AB75C95B80FEEF5404600B1213EF2C
:1016F800EEFAEF6404FB80179002D6E06401700BE9
:10170800EE54206006EE6420FA80047A007B000222
:101718001809C082C083C2AF12045AE5E170FC7593
:10172800E1011203A675E1F112048412039A790704
:101738001204D279011204D879021204A81204BA48
:101748001204C679001204CC79011204CC7A557BB4
:10175800557C557D001204909002F1E4F0A3F0A3AB
:10176800F09002F57407F09002F47403F09002FA16
:10177800E4F09002F9F090031AF01203F41203D681
:1017880079001204DE906012E4F0A3F0906063F038
:10179800751B009002D0F09002D2F0A3F09002D511
:1017A800F09002D604F09002E004F0900340E4F0D8
:1017B800D2AFF9021BDDC082C0839002BDE08A82ED
:1017C8008B83F09002BEE08A828B83A3F09002BFE5
:1017D800E08A828B83A3A3F09002C0E08A828B8385
:1017E800A3A3A3F09002C1E08A828B83A3A3A3A33F
:1017F800F09002C2E08A828B83A3A3A3A3A3021B57
:10180800DA7F04020AF57F01020AF57F02020AF56F
:1018180074F7120A23EAFEEBFF8908740B120A0711
:10182800E0F8A3E0F9E508606674016508601574DE
:10183800036508603374026508602D7404650860E8
:1018480003021913E8497003021913740A120A07EC
:10185800E0F86008740168600302191374036508EE
:101868006006740265087049EE2460F8EF34FFF9E9
:10187800C3E89461E9943F4003021913EC2460F82B
:10188800ED34FFF9C3E89461E9943F4024807CEE8D
:1018980024E0F8EF34FFF9C3E894E1E9943F506B92
:1018A800EC24E0F8ED34FFF9C3E894E1E9943F5003
:1018B8005AC3EC9EED9F40537409120A07E0F86082
:1018C800057401687045740E120A07E0FA600F7417
:1018D800016A600A74026A600574036A702D740DE7
:1018E800120A07E0F974075960219002F1E06401D7
:1018F8007005790C0219B5E5089002F4F0600C74D3
:10190800016508600674046508700579120219B546
:10191800740759A3F0EAA3F0E89002EA702FE4F004
:101928009002BDE09002EBF09002BEE09002ECF075
:101938009002BFE09002EDF09002C0E09002EEF05D
:101948009002C1E09002EFF09002C2802E7401F084
:101958009002C3E09002EBF09002C4E09002ECF039
:101968009002C5E09002EDF09002C6E09002EEF021
:101978009002C7E09002EFF09002C8E09002F0F009
:10198800EA70047900801974016A70047901801082
:1019980074026A70047902800774036A7005790317
:1019A8001204C09002F2EEF0A3EFF0790002180ED4
:1019B80074F6120A23E9FEC39420500BEE9002FA43
:1019C800F06023EA4B700479128023E0F50875096A
:1019D800007808120C36EAFCEBFD7AFB7B02120455
:1019E800FC74021209D19002F97401F0790002180E
:1019F8001374F0120A23E9FE9002D0E06409700320
:101A0800021B20E0640A7003021B20E0640B7003D1
:101A1800021B20E0640C7003021B20E0640D7003BD
:101A2800021B209002F4E0601664016012E0640377
:101A3800600DE064026008E064046003021B959096
:101A480002EAE0600764016003021B959002F4E07B
:101A580064036005E0640270109002F2C3E094A091
:101A6800A3E094005003021B959002F4E070030277
:101A78001B9564017003021B95E064047003021B4C
:101A880095EE7003021B2E146003021B959002F161
:101A9800E064017003021B20790112040C9002E833
:101AA800EAF0A3EBF09002F17401F09002D0E0703C
:101AB8006E1204668A088B098C0A8D0B750C0375E7
:101AC8000D00750E00750F007808790C12082D7539
:101AD8000CFF750DFF750EFF7808790C12088E90B3
:101AE80002E8E0F8A3E0F5838882A3A37808120847
:101AF800C39002E8E0F8A3E0C82406F582E83400C1
:101B0800F583E4F0A3F01203BEE960107AE87B02E3
:101B18001204129002F1E4F0792180051203FA7997
:101B2800007F08020AF59002F1E060ECA2AFE4330E
:101B3800FFC2AF7AE87B021204129002F1E4F012BD
:101B48000424E9704112045A906182E0C2E6F0E58B
:101B5800E170FC75E1017591BF75E1F19002D6E085
:101B6800640170187A207B009002CFE0F91205BC5E
:101B78007A207B009002CFE0F91205447A009002A7
:101B8800CFE0F912058CEFA2E092AF809279128033
:101B98009074F6120A23E9FEC39420500BEE9003CA
:101BA8001AF06023EA4B700479128023E0F5087577
:101BB80009007808120C36EAFCEBFD7A1B7B03124D
:101BC80004FC74021209D19002F97401F079000240
:101BD8001813F07900D083D082020132C082C0830A
:101BE800EA4B70057912021CDB9002D0E06005799F
:101BF8000C021CDB8A828B83E0F47060A3E0F47033
:101C08005B8A828B83A3A3E0F470518A828B83A3BF
:101C1800A3A3E0F470468A828B83A3A3A3A3E0F472
:101C2800703A8A828B83A3A3A3A3A3E0F4702D90B8
:101C380002C9E09002BDF09002CAE09002BEF090A6
:101C480002CBE09002BFF09002CCE09002C0F0908E
:101C580002CDE09002C1F09002CE80709002BDE00B
:101C68009002C9F09002BEE09002CAF09002BFE074
:101C78009002CBF09002C0E09002CCF09002C1E05C
:101C88009002CDF09002C2E09002CEF08A828B835F
:101C9800E09002BDF08A828B83A3E09002BEF08AB6
:101CA800828B83A3A3E09002BFF08A828B83A3A3D5
:101CB800A3E09002C0F08A828B83A3A3A3A3E09041
:101CC80002C1F08A828B83A3A3A3A3A3E09002C2DC
:101CD800F07900021BDDC082C0839061907404F02B
:101CE800A37448F0A37402F09061807440F090618E
:101CF800BC7403F09061877419F0906265741BF0EE
:101D0800906249E0C3941390619C400A7409F09072
:101D1800606674018007740DF0906066E4F090616D
:101D28009A7433F0A37455F09061A0743AF090035C
:101D38003FE064017009C2919002D47467800590F5
:101D480002D47461F0901466E493906186F0901464
:101D580060E493F46027E493540FF8906185E06899
:101D68006012E5C654804449F5C6E59E547F64492F
:101D780070F8E8F053C680E59E547F70FA79051232
:101D880004E48074C082C083E9540FF9906185E04F
:101D9800696012E5C654804449F5C6E59E547F64DF
:101DA8004970F8E9F053C680E59E547F70FA804880
:101DB800C082C083E5A8F853A87E906181E4F0A3AF
:101DC800F0A3F0C2BA539AFEC289759B00C2C275CD
:101DD800E90075910075BF0075A91175B905906185
:101DE80081F0A374C0F0A3E4F0D2BA439A017480DE
:101DF8005842A88003F0A3F0D083D082020132C0F9
:101E080082C08374F81209BB9002D2E0F8A3E0F90B
:101E1800E8497003021F209002D2E0544060237901
:101E280008851882851983AA82AB831203E2851874
:101E380082851983AA82AB831203229002D2E054CE
:101E4800BFF0E0A2E0503190619A7433F0A374556A
:101E5800F09061A0743AF090033FE064017009C209
:101E6800919002D4746780059002D47461F01203D3
:101E7800289002D2E054FEF0E05402603190619A5A
:101E8800743FF0A3745AF09061A0747FF090033F00
:101E9800E064017009D2919002D4747180059002B7
:101EA800D4746AF01203289002D2E054FDF0E05492
:101EB800046013901464E493906186F012032E90EA
:101EC80002D2E054FBF0E054086013901465E493E8
:101ED800906186F012032E9002D2E054F7F0E0549D
:101EE800106013901466E493906186F012032E90AC
:101EF80002D2E054EFF0E05420600A12032E900260
:101F0800D2E054DFF0A3E05401600D1203B81203CD
:101F1800349002D3E054FEF074081209D1021E0076
:101F280074EC120A2374F41209BB8518828519838C
:101F3800AC82AD83758380758214740412090F9086
:101F4800146493F460030220B4907808E0C3940208
:101F580050030220947404120A07AC82AD8375837F
:101F68008075820C740812090F851882851983857B
:101F780082128583137404120A07AC82AD83750E2E
:101F8800FF750FFF7FFF7E00750C48750D78801573
:101F980074086E700302202874096E7003022028EA
:101FA800740A6E607B850C82850D8378081208B4EC
:101FB8008C828D83A909E50AC9F8881074187808F5
:101FC8001207F5E5104508F8C3E098A3E099850CD9
:101FD80082850D8378081208B440188C828D83742A
:101FE8001878081207F5E5104508F8E0C398F8A333
:101FF800E0801C741878081207F5E5104508FAE91E
:10200800FB8C828D83E0F8A3E0F9EAC398F8EB999A
:10201800F9C3E8950EE9950F5006880E890FEEFF73
:102028000EE50C2404F50CE50D3400F50DEEC39413
:10203800135003021F9874FF650E700474FF650F38
:1020480060238F08740278081209A874482508F5D7
:102058008274783509F58378081208B48512828568
:102068001383E508F0EC2402FCED3400FD851282B0
:10207800851383A3858212858313740C120A07E5DE
:10208800826C7003E5836D6003021F867508017515
:1020980009007808120C367402120A07AC82AD8364
:1020A8007A197B0512060474021209D1740C1209FC
:1020B800D17F0C020AF5C082C0839061AE7468F0CB
:1020C800A3746AF090624574FBF0A304F053F4FD26
:1020D80043FE0290033F7401F09061A0E0643A90DF
:1020E800619A70237433F0A37455F09061A0743A28
:1020F800F0740164017009C2919002D47467802859
:102108009002D474618021743FF0A3745AF09061F6
:10211800A0747FF0740164017009D2919002D474A4
:102128007180059002D4746A021DFFC082C0837555
:10213800E1F19002F4E024FE60521470541203C4DA
:102148009002EAE0F97AEB7B0212048A7AD67BBE27
:102158007C897D8E1204B47A557B557C557D00129E
:1021680004909002F5E0F912049C79011204D890C9
:1021780002E8E0F8A3E0C82416F582E83400F58305
:1021880074D0F0A37403F07900021E001203CA8011
:10219800AF791280F474F7120A239002FAE0240748
:1021A800F5D99002EAE0C4333354C04402F5D97833
:1021B800E8790288828983A3A3A3E0F5D988828974
:1021C80083A3A882A983E864EE7003E9640270E33C
:1021D8009002FAE0601F78E87902FAE82413F582A1
:1021E800E93400F583E0F5D988828983A3A882A918
:1021F800831AEA70E675E1959004C3748EF0A374AF
:1022080003F0A3748EF0A37403F0A3748EF0A37488
:1022180003F0A3748EF0A37403F0A3748EF0A37478
:1022280003F0A3748EF0A37403F0A37494F0A37462
:1022380003F09004D174EEF0A37403F0A374EEF0ED
:10224800A37403F0A374EEF0A37403F0A374EEF088
:10225800A37403F0A374EEF0A37403F0A374EEF078
:10226800A37403F09002E8E0F8A3E0C8240EF58216
:10227800E83400F58374FFF0A3F0A3F0A3F0900214
:10228800E8E0F8A3E0C82414F582E83400F5837484
:1022980014F09002D0740402241B74F7120A2390DD
:1022A80002FAE02407F5D99002EAE0C4333354C0B7
:1022B8004406F5D978E8790288828983A3A3A3E044
:1022C800F5D988828983A3A882A983E864EE70037C
:1022D800E9640270E39002FAE0601F78E87902FA94
:1022E800E82413F582E93400F583E0F5D98882897A
:1022F80083A3A882A9831AEA70E690031AE0240748
:10230800F5D99002EAE0C4333354C04404F5D978CF
:10231800E8790288828983A3A3A3E0F5D988828912
:1023280083A3A882A983E864EE7003E9640270E3DA
:1023380090031AE0601F78E87902FAE82433F582FE
:10234800E93400F583E0F5D988828983A3A882A9B6
:10235800831AEA70E675E1959004C37488F0A37453
:1023680003F0A374EEF0A37403F0A374EEF0A37467
:1023780003F0A374EEF0A37403F0A374EEF0A37457
:1023880003F0A374EEF0A37403F0A37494F0A374A1
:1023980003F09004D174EEF0A37403F0A374EEF08C
:1023A800A37403F0A374EEF0A37403F0A374EEF027
:1023B800A37403F0A374EEF0A37403F0A374EEF017
:1023C800A37403F09002E8E0F8A3E0C8240EF582B5
:1023D800E83400F58374FFF0A3F0A3F0A3F09002B3
:1023E800E8E0F8A3E0C82414F582E83400F5837423
:1023F80015F09002D0740302241BC082C08390029F
:10240800E8E0F8A3E0C82406F582E83400F583E4A0
:10241800021DFDF07F01020AF5C082C08378D779DA
:102428000288828983A3E4F088828983A3A882A989
:1024380083E864DF7003E9640270E69002D87401EF
:10244800021DFF74F4120A23122B5F600579110232
:10245800251B90028AE0540560309002A7122B6871
:102468006005122B5A7005791002251B90028AE02C
:10247800A2E040061202E6E960158E828F83E0F83A
:10248800740368600A7402686005791202251B7A71
:102498000C7B001205749002A51226C4122B6560ED
:1024A8006E12297EE508122965E4F0750A0AF50B13
:1024B800780A120C36EEFCEFFD9002A5E02402FA31
:1024C800A3E03400FB1204FC74021209D11202A426
:1024D800E9FE60051202C8803890028BE064037040
:1024E800307A1D7B0012025090028C1226C4900292
:1024F8008C122B68601B908018120C497A047B00A0
:102508009002ADE0F91205B674041209D180027E7A
:1025180013EEF9022A8D74EE120A23890C8A0A8BAB
:102528000B8C0E8D0F90028AE0540570030225C0B3
:102538007401650A700D9002A7122B68607A9002E8
:10254800A7800B9002A9122B68606D9002A9E0FE8B
:10255800A3E0FFEBC394205008EB6009EC450F7033
:102568000479028055E50C9004BBF08E828F83A31A
:102578008582088583097C1F7D007900AA08AB093C
:10258800120508850B107511007810120C36AC0E68
:10259800AD0FAA08AB091204FC74021209D18E828D
:1025A8008F83E50BF0F9E50AAA08AB096005120369
:1025B8000A8007120310800279127F0A020AF57452
:1025C800F7120A23E9FE122B65700479128039127A
:1025D8002B5A6E60047903802F7A027B009002AD3B
:1025E800E0F91205BC9002ABE4F0A3F07A04FB908A
:1025F80002ADE0F91205BC90028CE4F0A312296543
:102608007403F079001203160226BCD083D082022C
:10261800013274F7120A239002A7122B68600D1278
:102628002A9212057A9002A7E4F0A3F09002A91268
:102638002B6860109002A9122A9512057A9002A9B7
:10264800E4F0A3F090028AE05405605F7ABC7B0452
:102658001202F27E0090028AE05405604A7A207BDA
:10266800001205741226C19002A7122B6860367CEE
:10267800207D0079001205087A207B0012057490ED
:1026880002A91226C49002A9122B68600B7C207D37
:10269800007900120508800F122A9212057A90021A
:1026A800A7E4F0A3F07E13EEF980097A007B00120C
:1026B80002F279007F01020AF59002A7EAF0A3EB83
:1026C800F02274F6120A237E018A828B83A3A3A3C5
:1026D800E0FCA3E0FD8C088D097808120C7A06202E
:1026E800045027F52650273027302706278A828B63
:1026F80083A3A3A3A3A31229751202AA80268A8200
:102708008B83A3A3A3A3A3122A9B88828983A3E014
:10271800FC88828983A3A3E0FBECFA88828983E0A2
:10272800F91202B0E9FE802174086C700374206D00
:1027380070047901800279008A828B83A3A3A31293
:102748002B55FA1202B680011EEEF90229BF74F267
:10275800120A23122B65700302282E12296CA3E09B
:10276800F50A1202E6E960137A0A7B001202508A1F
:10277800088B09AE08AF097A0B802A1202CEE960ED
:10278800137A067B001202508A088B09AE08AF093B
:102798007A0780117A087B001202508A088B09AEEA
:1027A80008AF097A097B001202508A088B09900247
:1027B8008BE07005750B008003750B019002A5E096
:1027C8002404FAA3E03400FB122966A3A3E0F9125B
:1027D80002689002A5E0F8A3E0C8240B122835127D
:1027E8000C3A9002A5E0F8A3E0C8240A1228351292
:1027F8000C3A9002A5E02404F50CA3E03400F50D92
:10280800780C120C36E9F50C780C120C3A780B128D
:102818000C3AA90AAC08AD09EEFAEFFB12030474EE
:10282800061209D1800279017F06020AF5F582E8CD
:102838003400F583E0F50C780C2274F7120A23E9CA
:10284800FE122B65601EEE700C12296C7401F0F9F3
:10285800120316E9FEEE60087A007B00F91202C244
:102868007901800279000226BC74EC120A23890AD5
:10287800122B61700302295E12296CE06401600367
:102888000229311202CEE960557A017B001202500A
:102898008A0C8B0DE4F50EF50FC3EA9442EB940015
:1028A800402B908018120C497A027B009002ADE010
:1028B800F91205B674041209D1E50C24C4F8E50D23
:1028C80034FFF99002ABE8F0A3E9F0804190801C56
:1028D80078101208B4780C791012070680107A0064
:1028E8007B001202508A0C8B0DE4F50EF50FE50CF7
:1028F800450D450E450F6016780C120C327A027B96
:10290800009002ADE0F91205B074041209D1122941
:10291800667402F090028EE0700BEEFAEFFBA90AE3
:102928001202C2802DE4F0802990028EE070237A92
:10293800037B0012050EEA4B60158A828B8374D0E4
:10294800F0A3E50A1229C4740412297112051A1297
:1029580002C87901800279007F0C020AF5F0900222
:10296800A5E0F8A312297EA322F09002A5E0F8A31F
:1029780012297EE0F922E0F58388822274F6120A91
:1029880023E9FEEAFF9004BBE0F4602B7A047B00A5
:1029980012050EEA4B60208A828B8374D0F0EFA375
:1029A8001229C47402F0EE8A828B83A3A3A3F09049
:1029B80004BBE0F912051A7F02020AF5F08A828B3D
:1029C80083A3A32274F4120A23E9FE74016E600340
:1029D800022A689002AB122B68600690028EE060B3
:1029E80012122B657003022A8B122B5AF9120292CB
:1029F800022A8B9002ABC3E0943CA3E09400400D04
:102A08009002ABE024C4F0A3E034FF80507A027B4C
:102A1800009002ADE0F91205BC9002ABE0F508A306
:102A2800E0F509E50875F0E8A4C508A8F075F00315
:102A3800A428F875F0E8E509A428F509E4F50AF5ED
:102A48000B7808120C327A027B009002ADE0F91282
:102A580005B074041209D19002ABE4F0A3F080230E
:102A6800122B65601E90028AE0A2E250167A027B61
:102A7800009002ADE0F91205BC9002ABE4F0A3F0BF
:102A88001202C880007F04020AF59002A7E0FAA3A8
:102A9800E0FB22E0F8A3E0F92274F4120A23122BD7
:102AA8005F602F7A057B0012050EEA4B601D8A8253
:102AB8008B8374D0F0A3E5081229C474031229C4C7
:102AC800A3EEF0A3EF12297112051AE508600312AC
:102AD80002C8022A8DC082C083122B656010900242
:102AE800A5122A9512057A9002A5E4F0A3F0022611
:102AF8001374F6120A2374FF1209BB9002A7122B53
:102B08006860409002A7E02401F508A3E03400F5CE
:102B1800097808120C369002A7122B57FC7402127F
:102B28000A07AA82AB83790112028074021209D1C2
:102B38008A828B83E58245836009E0A2E0500479AC
:102B4800018002790074011209D10229BFA3A3E010
:102B5800F8A312297EE0228908EAFEEBFF9002A57D
:102B6800122A9BE8492274F4120A2374FC1209BB46
:102B78007F00900427E4F0900424F07E7D7508041B
:102B88007509007808120C367402120A197A007B4B
:102B980000EEF91205FE74021209D190802078081F
:102BA8001208B485188285198378081206B270193C
:102BB800900424E0600FF9120676EEF9120676907A
:102BC8000424E48001EEF0801885188285198312A8
:102BD80008EAE8494A4B7004EEFF8005EEF9120650
:102BE800760EEEC3947F4095900424E07026EF7033
:102BF80018797D12066A9004257404F0A3E4F09015
:102C08000427E0601979008017F012067CEFF912AA
:102C18000688800AEF6004F912067012067C7901B2
:102C2800022CBE74F7120A2374FC1209BBE9FE8554
:102C38001882851983E4F0A3F0A37410F0A3E4F0DC
:102C4800AC18AD19FAFB120694900427E07005EE53
:102C5800900424F074041209D17F01020AF574F477
:102C6800120A2374FF1209BB8908900427E0703206
:102C780012060A7E007F00750A01750B00780A1299
:102C88000C367402120A19EEFAEFFBA9081205FEB7
:102C980074021209D1851882851983E0F4600890BE
:102CA80004277401F0800B0EEE70010FC3EF940837
:102CB80040C57401800274041209D17F04020AF528
:102CC80074F4120A2374FF1209BB89087E007F007E
:102CD800750A01750B00780A120C367402120A196B
:102CE800EEFAEFFBA9081205FE74021209D1851845
:102CF80082851983E0F46007A908120670800B0E1C
:102D0800EE70010FC3EF940840C680A674F4120A4F
:102D18002374FC1209BB7EFC7F0775080475090043
:102D28007808120C367402120A19EEFAEFFB9004B6
:102D380024E0F91205FE74021209D1908040780847
:102D48001208B485188285198378081206B2700AA9
:102D5800EE24FCFEEF122DF350C01230C1E8F0A3B0
:102D6800E9F0022CBE74F4120A2374FC1209BB8920
:102D780008EAFEEBFF8C09EE24FCFEEF122DF3406F
:102D880063750A04750B00780A120C367402120A6D
:102D980019EEFAEFFBA9081205FE74021209D174A4
:102DA80002120A07122FAE85188285198385090A2F
:102DB800E0650A7002A3E0700AEEC398FAEF940087
:102DC800FB8025E9548070AFE82404FAE439FBC39A
:102DD800EE9AEF9B400EEEC398F8EF99F9E824FCC1
:102DE800FEE980987A007B00022CBE34FFFFC3EE18
:102DF8009404EF94002274F0120A2374F31209BBAE
:102E0800E9851882851983F0750FFF647D70057553
:102E18000E7E8003750E7D750A04750B00900425DF
:102E2800E024FCFEA3E0022F277403120A07A3E0A4
:102E380054806003022F167403120A07850F08E0F6
:102E480065087002A3E07003022F167403120A07C4
:102E5800E0F50FFCAA0AAB0BA90E1206828B09EA51
:102E680045096003022F167405120A07122FB4F5DC
:102E780008EF99F5097407120A07E8F0A3E9F07456
:102E880001120A07E4F0A3F0750C04750D00780C24
:102E9800120C36740B120A197403120A07E025087B
:102EA800FAA3E03509FB900424E0F91205FE740248
:102EB8001209D17409120A197401120A07E0250AC5
:102EC800FAA3E0350BFBA90E1206947401120A0747
:102ED800E02404F0A3E03400F07407120A07C0826B
:102EE800C0837401120A07122FAED083D082C3E0C8
:102EF80098A3E09950927405120A07E02404F8A3F5
:102F0800E03400F9E50A28F50AE50B39F50B7405F4
:102F1800120A07122FB4F8EF99F9E824FCFEE91217
:102F28002DF3405D900427E070777508047509005B
:102F38007808120C367405120A19EEFAEFFB7402BF
:102F4800120A07E0F91205FE74021209D17403127D
:102F58000A07E0F47003A3E0F46003022E3174055D
:102F6800120A07122FAE54806007EE24FCFEEF8091
:102F7800AEE82404F8500109C3EE98EF99508F8009
:102F880020A90E12066A900427E0700A900425E52D
:102F98000AF0A3E50BF0851882851983E0F912067B
:102FA80070740D0230B9E0F8A3E0F922122FAEEEEA
:102FB800C3982274F1120A2374FC1209BB890E8A81
:102FC800088B098C0C8D0D7413120A07E0FE80150E
:102FD800E5082404F508E43509F509E50C2404F5A9
:102FE8000C5002050DEEFF74FF2F1E04603D750A9C
:102FF80004750B00780A120C367402120A19AA0812
:10300800AB09A90E1205FE74021209D1780A120C36
:1030180036AC0CAD0D7402120A11120502740212BC
:1030280009D1E970AB9004277401F074041209D136
:103038007F07020AF574F0120A23890AEAFEEBFFF9
:103048008C0E8D0F900427E0704D750801750900EE
:103058007808120C368E088F0974027808120999BC
:10306800890CF50D7409780C1209A8E5082400FAF2
:10307800E509350DFB12060474021209D175080121
:103088007808120C3AAC0EAD0FEEFAEFFBA90A1253
:10309800068E74011209D10230BCC082C0831206A8
:1030A80064E97004790180027900D083D08202013A
:1030B800321209D17F08020AF5EE2404F8E43FF938
:1030C80090042522C082C08390034BE4F090034A09
:1030D80074FFF0900347F0900346E4F0900345F046
:1030E800900348F0A3F002357B74F0120A23900392
:1030F80048E0F508A3E0F509E5084509700612035C
:10310800AC023204850882850983E014600A1460E1
:103118000724FE6003023204E0F91204068A0A8BCF
:103128000BAE0AAF0BEE65087003EF65097003027A
:1031380032018E828F83E06401600302320412033D
:10314800BE1204668A088B098C0A8D0B750C0A75E9
:103158000D00750E00750F007808790C12082D788F
:1031680008120C328E828F83A3A31208D212134145
:1031780074041209D1E970771204668A088B098CE5
:103188000A8D0B750C037808790C12082D750CFF45
:10319800750DFF750EFF7808790C12088E8E828FD8
:1031A80083A3A378081208C39002D0E06402702CAD
:1031B8008E828F83A3A3750800750908750A0078A5
:1031C800081208407808790C12088EEE240EF58251
:1031D800EF3400F58378081208C38013EE240EF547
:1031E80082EF3400F58374FFF0A3F0A3F0A3F0900E
:1031F80003477401F0EEFAEFFB1204007F08020A9D
:10320800F574F0120A23EAFEEBFFEE2402F8EF341D
:1032180000F988088909EE2406F8EF3400F9880ACD
:10322800890B8882F583120C4D85088285098312E3
:1032380008D212044874021209D1850A82850B83C8
:10324800120C4D8508828509831208D212043C7439
:10325800021209D1EE240EF582EF3400F58312082C
:10326800D212044E8E828F83E06440701CEE2412CA
:10327800F8EF3400F988828983E0906064F08882EE
:103288008983A3E09060658006906064E4F0A3F011
:10329800900348EEF0A3EFF0EE2416F582EF340029
:1032A800F583E0F8A3E0F5838882120A2190605440
:1032B800E4F0A3F0A3F0A3F0A3F0A3F0A3F0A3F02D
:1032C800A3F0A3F0A3F0A3F0906182E0C2E6F0754A
:1032D80091BFEE2415F582EF3400F583E0640170A8
:1032E8000312047EE5E170FCEE2414F582EF34004D
:1032F800F583E0F46003E0F5E1EE2415F582EF34A0
:1033080000F5837401F09002D6E064017073120432
:10331800668A088B098C0A8D0B7808120C328E820B
:103328008F83A3A31208D212139A74041209D18AA4
:10333800088B098C0A8D0B750C05750D00750E0030
:10334800750F007808790C120706740378081207BD
:10335800F5E50824F4F508E5093401F50990034179
:10336800E06003120562E4F50AF50B7808120C32E6
:103378007A207B009002CFE0F91205B0740412099C
:10338800D102320474F0120A23890874FF650870A8
:103398002A900346E0540770030234AA90034AE0D7
:1033A8006404700DA3E0640170257A4A7B0302343B
:1033B800AEE0640160EEE0640260E990034AE06513
:1033C80008700CA3E0640170067E4A7F0380127EB9
:1033D800007F0090034AE06508700AA3E06401706A
:1033E80004780180027800E914600A14603424FE2D
:1033F80060520234AA90034AE064027008A3E064B1
:1034080001700D805AE064047006A3E06401604F07
:10341800E8A2E05006EEFAEFFB80047A007B000297
:1034280034AE90034AE064047008A3E06401700DB0
:10343800802DE064017006A3E064016022E8A2E048
:103448005060805890034AE064017008A3E064016A
:103458007045800BE06402703EA3E064017038E8B8
:10346800A2E040030233B2A3750CF6750DFF750E8A
:10347800FF750FFF780C120840780C120C328E8200
:103488008F83A3A31208D212134174041209D1E93D
:1034980060030233B28005E8A2E05006EEFAEFFBC3
:1034A80080047A007B0002320474F7120A23E9FED2
:1034B80090034BE0705B7401F0EE90034AF0120445
:1034C8006690034C1208DE900350E4F0A3F09003DA
:1034D8005874FFF0A3F0A3F0A3F090035E7401F01A
:1034E800A3F0A3E4F0A3F0900346E04EF090034568
:1034F800E004F06401600A74806E600574406E70C8
:103508000A900348744AF0A37403F07A4A7B038054
:10351800047A007B007F01020AF5C082C0838A8298
:103528008B83E0F8A3E0F98A828B83E4F0A3F08828
:10353800828983A3F088828983E0F4F8900346E0C7
:1035480058F0900345E014F0700B900348E4F0A3A2
:10355800F09002D0F0801CC082C083900345E060E8
:103568000A900348E0FAA3E0FB80047A007B00801D
:1035780002E0F9D083D082020132C082C083E9F828
:1035880090034AE0687005A3E0F98002790080E3BF
:10359800C082C08390034580D874F7120A23740947
:1035A800120A07123856801C8C828D83E08A828B1F
:1035B80083F08C828D83A3AC82AD838A828B83A3B4
:1035C800AA82AB83E8FEE9FFEE24FF18EF34FFF987
:1035D800EE4F70D402381674F5120A23ECF8EDF9A0
:1035E800740B120A07E0F508A3E0F509AC08AD0969
:1035F800EC24FFF508ED34FFF509EC4D602CEAFCEE
:10360800EBFD8C828D83A3AA82AB83E8FEE9FF8E53
:10361800828F83A3A882A9838C828D83E0FC8E820B
:103628008F83E06C60C67900800279017F03020A0B
:10363800F574F6120A23E9FE8C088D097808120C35
:10364800368E08AC087D001206A074021209D10259
:10365800381B74F6120A23EAFEEBFFEE4F603DEECC
:103668002405FAE43FFB1205748A088B09A808A907
:1036780009E849602788828983E4F0A3F088828971
:1036880083A3A3EEF0A3EFF088828983A3A3A3A367
:1036980074FFF0E82405FAE439FB80047A007B0023
:1036A80002381BC082C083EA4B7004790580161269
:1036B800373D60047904800DEA24FBFAEB34FFFB04
:1036C80012057A7900D083D08202013274F7120A87
:1036D800237C0002381374F7120A23E9FEECFFEA90
:1036E8004B6021908044E0F8EEC39840071205141F
:1036F8007903803E1238CB123820700512373D60AE
:10370800071205147905802AEEF074016F700DEA2E
:10371800FCEBFD7A697B03120532800BEAFCEBFDBA
:103728007A697B0312052C7A007B80EEF912053E3C
:103738007900023816EA24FFF582EB34FFF583E0BE
:10374800F42274F4120A238908750A00750B007EA6
:10375800007F00A2AFE433F509C2AF90036980117E
:10376800EE4F7004880A890BE824FBF582E91238C9
:10377800D11238206023E824FFF582E91238D1E01D
:10378800650870DCEE4F7006E8FEE9FF80DA7A0023
:103798007B80A90812053E800D7A007B80A908125B
:1037A8000544EE4F6015780A120C36EEFCEFFD7AF0
:1037B800697B0312053874021209D1E509A2E09267
:1037C800AFEEFAEFFB7F04020AF5E0FAA3E0FB2272
:1037D80074F7120A23EAFEEBFFA2AFE433FAC2AF92
:1037E800EC24FBF582ED1238D1E4F0A3F08003124B
:1037F80038D68E828F8312382070F48E828F83ECB5
:10380800F0A3EDF0EAA2E092AF80031205207F0159
:10381800020AF57F02020AF5123856E8492274F7BF
:10382800120A23E5A8FEC2AF8A828B83123856ECAF
:1038380024FBF582ED1238D1E8F0A3E9F08A828BF7
:1038480083ECF0A3EDF0EEA2E7A2E702380FE0F870
:10385800A3E0F92274F4120A23A2AFE433FEC2AF44
:10386800EC24FBF8ED34FFF9880889098882F58390
:103878001238568A828B83E0F50AA3E0F50BEC65D3
:103888000A7003ED650B70068A828B838012740CB4
:10389800120A07E0FAA3E0CA24FBF582EA1238D13B
:1038A800E8F0A3E9F0850882850983E4F0A3F0EC49
:1038B80024FFF582ED1238D174FFF0EEA2E092AF4A
:1038C8000237CDEA24FBF582EB34FFF58322E824A6
:1038D800FBF8E934FFF9E8FEE9FF2274F7120A233E
:1038E800E9FD908044E0F8EDC398502AE5A8FEC2AF
:1038F800AFED29F8E433F990036BE028FCA3E03935
:103908008C82F583E04AF0A3E04BF0EEA2E7A2E751
:1039180092AF79008002790302381674F7120A23ED
:10392800E9FE908044E0F8EEC3985022E5A8FFC273
:10393800AFEAF4FCEBF4FDEE29123A30E05CF0A3B8
:10394800E05DF0EFA2E7A2E792AF79008002790389
:10395800023816C082C083120568900369E4F0A398
:10396800F012059812058012055C12056E790002A6
:1039780036CDC082C08312055680FB74F4120A2328
:103988007508001205621205F8A808E828123A30EE
:10399800123820700D0508908044E0F8E508C398B7
:1039A80040E7908044E0F8E508C398506CE5A8FC2F
:1039B800C2AFAE08EE2EFEE433FF90036BE02EF8A4
:1039C800A3E03FF9888289831237D288828983E409
:1039D800F0A3F0ECA2E7A2E792AFE5089004DDF0CF
:1039E800F974002EF58274803FF583123A27120A83
:1039F800219004DD74FFF0E5A8F9C2AF90036BE0F5
:103A08002EF8A3E03F8882F583E04AF0A3E04BF06C
:103A1800E9A2E7A2E792AF80031205920237CDE050
:103A2800F8A3E0F583888222F8E433F990036BE089
:103A380028FAA3E0398A82F5832274F2120A2389CC
:103A4800088C0C8D0D7509008982AE827F008A0A68
:103A58008B0B780A120C7A020308D63B763AD13AD5
:103A6800EB3A213B563B6D3B843BA23BB93B74018F
:103A780065086003023BD19004DEE0F88C828D83F8
:103A8800E09004DEF0E8601CE06003023BF990037C
:103A980086E064026003023BF9900385E0F91202B4
:103AA80092023BF9E07003023BF9900386E064015F
:103AB8006008E064036003023BF97A017B0090032D
:103AC80085E0F912053E023BF974026508600302BD
:103AD8003BD18C828D83123E8C9004DFE8F0A3E901
:103AE800023BCEE9C394204003023BD17C1F7D00FA
:103AF80079007AE27B041205088E0A8F0B780A1285
:103B08000C36AC0CAD0D7AE27B041204FC74021284
:103B180009D1EE9004E1023BCEE9C39420400302B0
:103B28003BD17C1F7D0079007A8F7B031205088EBC
:103B38000A8F0B780A120C36AC0CAD0D7A8F7B030A
:103B48001204FC74021209D1EE90038E807874017D
:103B5800650870758C828D83E0F8C39405506AE817
:103B68009003AE806174016508705E8C828D83E07D
:103B7800F8C394045053E89003AF804A740665086C
:103B88007047750A068F0B780A120C367AB07B03D9
:103B98001204FC74021209D1805774016508702957
:103BA8008C828D83E0F8C39408501EE89003B68099
:103BB800157401650870128C828D83E0F8C3940433
:103BC8005007E89003B7F080287509188023C3EAE6
:103BD8009427EB940050177402650870118C828D3D
:103BE80083E0FCA3E0FD12024AE9F50980037509A8
:103BF80002A9097F06020AF57F04020AF574F61283
:103C08000A23900386E07037EA4B60089003B8EA0D
:103C1800F0A3EBF0E4F508F5097808120C367808FB
:103C2800120C367C007D007B00900387E0FA90033D
:103C380085E0F91205EC74041209D1790080027943
:103C4800117F02020AF574F7120A23E9900385F03E
:103C5800900386E4F01202D49003877401F0900375
:103C6800AE7403F09003AFE4F09003B67407F090DD
:103C780003B7E4F07F01020AF574F4120A2374F61C
:103C88001209BBEAFEEBFF5480602C900385E0F933
:103C98001205268A088B09EA450960138A828B83F4
:103CA800E064D070031205E6AA08AB09120514EE09
:103CB800FAEF6480023D56EEA2E04003023D5990BF
:103CC80004DEE07003023D519003AEE08518828562
:103CD8001983F09003AFE0C0E07401120A07D0E046
:103CE800F07508067509007808120C367CB07D035B
:103CF8007404120A07AA82AB831204FC7402120924
:103D0800D19003B6E0C0E07408120A07D0E0F09042
:103D180003B7E0C0E07409120A07D0E0F0AA18ABB4
:103D280019900385E0F9120286E9601D90038674F4
:103D380004F0123D656012123E8388828983E58211
:103D4800458360057904120A21EE6401FAEFFB80CD
:103D5800047A007B00740A1209D1023C009003B86F
:103D6800123E8CE8492274F4120A238A828B83A3B8
:103D7800A3E0F8EA2403FCE43BFD8A828B83A3AE2C
:103D880082AF83E8601224FE6069147003023E3536
:103D9800147003023E358058E070317508067509C5
:103DA800007808120C367A887B031204FC7402121D
:103DB80009D19003867401F07CE27D049004E1E06F
:103DC800FB7A01900385E0F912028CE96006900302
:103DD800867404F0123D656017123E83E8FAE9FB29
:103DE800EA4B600C900386E0F98A828B83120A21E1
:103DF800023C00E0702E8C828D83E0601B7C8F7DFE
:103E08000390038EE0FB7A00900385E0F912028CA0
:103E1800E98E828F83F0800C7A017B00900385E025
:103E2800F912053E8E828F83E070A380C3E0709EF6
:103E38007403687007900386740280979004DF12F9
:103E48003D689004DE602AE060299004DFE0F50810
:103E5800A3E0F509E4F50AF50B7808120C327A01AB
:103E68007B00900385E0F91205B074041209D18033
:103E780002E4F09003867403023DDBE0F583888258
:103E8800123E8C22E0F8A3E0F92274F7120A23907C
:103E98000381123EA3F07F01020AF5E4F0A3F0A328
:103EA800F0A32274F1120A23890EEAFEEBFF120531
:103EB800A4740F120A0778081208B4EA4B600D8A36
:103EC800828B83A3A378081208C3806A7A0D7B00CB
:103ED800120574EA4B605B8A828B83A3A3A3A3A316
:103EE800A3A3A3E50E123F43EEF0A3EFF08A828B63
:103EF80083A3A378081208C38A828B83E4F0A312F1
:103F08003F43A3A3A3123EA4F090037F12425C9008
:103F1800037F6017E0FCA3E08003E8FCE9FD8C82E6
:103F28008D8312425C70F38C828D83EAF0A3EBF0F0
:103F380080047A007B007F07020AF5F08A828B836F
:103F4800A3A3A3A3A3A322C082C08390037F80045A
:103F58008C828D83E0FCA3E0FDEC4D60238C828D88
:103F680083A3A3A3A3A3A3E06A7003A3E06B70E0F9
:103F78008C828D83A3A3A3A3A3A3A3A3E06970D07A
:103F8800ECFAEDFB02405DC082C083EA4B600E8A0A
:103F9800828B83A3A3A3A3A3A3E4F0A3F002405DB1
:103FA80074F6120A23E5A8FFC2AF740A120A0712B0
:103FB8000C4912059E74041209D18B09A909EFA2B4
:103FC800E7A2E792AFEA4960047900800279087FA6
:103FD80002020AF574F2120A23A2AFE433FEC2AF5A
:103FE800740E120A0778081208B47808120C3212F4
:103FF800059E74041209D1EA4B60128A828B83A34E
:10400800A3A3A3A3A3A3A3A378081208C3EEA2E0C3
:1040180092AFEA4B60047900800279087F06020AB1
:10402800F574F4120A23A2AFE433F509C2AF1205FE
:10403800A48A0A8B0BAE0AAF0BEE4F60031205AAD7
:10404800E509A2E092AFEE4F60047900800279069C
:104058007F04020AF5D083D08202013274F0120A7A
:104068002374F91209BB8A088B098C0A8D0B740317
:10407800120A0778081208C3E5A8F9C2AF900381AD
:104088007808120853E9A2E7A2E792AF90037F12DB
:10409800425C700302424C90037FE0FEA3E0FF7491
:1040A80001120A07E4F0A3F0750C00750D00A2AF29
:1040B800E433851882851983F0C2AFEE2402F50E29
:1040C800E43FF50F7405120A0712425C7025740468
:1040D800120A07E0701D7403120A07E0F88E828F37
:1040E80083A3A3E0C398400B8E828F83A3A3E0C36E
:1040F800988037850E82850F8378081208B4740378
:10410800120A0778081206D750177403120A07789C
:10411800081208B4850E82850F83780812087A8001
:104128000A850E82850F83123EA3F0EE2404F50A59
:10413800E43FF50B1242567054850A82850B8312B0
:10414800425C704EEE2409F508E43FF509850882C3
:10415800F5831208EAE8494A4B604F8E828F83A3A1
:10416800A3A3A3A3A31242CB60408E828F83A3A3F1
:10417800A3A3A3A3A3A3E0F912053E85088285099A
:10418800831208EA850E82850F831208F6124256BA
:10419800700B850A82850B8312425C600D8E828FBC
:1041A80083A3A3A3A312425A702E8E828F83E0F8B2
:1041B800A3E0F97401120A071242CB700590037F3D
:1041C800800B7401120A07A3E0F5838A82E8F0A342
:1041D800E9F08E0C8F0D800A7401120A07EEF0A325
:1041E800EFF08E828F83E0FEA3E0FF8518828519A9
:1041F80083E0A2E092AFE50C450D6041850C828515
:104208000D8312425A702F850C82850D83A3A31249
:10421800425A7022850C82850D83A3A3A3A3A3A36E
:104228001242C5850C82850D83A3A3A3A3A3A3A3D0
:10423800A3E0F912053EAA0CAB0D12057AEE4F6009
:10424800030240B074071209D17F08020AF58E8272
:104258008F83A3A3E0F8A3E0F9E8492274F0120AD7
:104268002390037F12425C603D90037F1242C57524
:104278000C8E750DC2750EF5750F288A828B83A377
:10428800A378081208B4780C79081206C7500C8570
:10429800080C85090D850A0E850B0F8A828B8312FF
:1042A80042CB600E80D5750C00750D00750E00753B
:1042B8000F00AA0CAB0DAC0EAD0F024251E0FAA3F1
:1042C800E0FB221242C5EA4B22A2AFE433F8C2AFA8
:1042D8005394FEE594A2E240FAE8A2E092AF75A7F3
:1042E8000075A100759CFF75C30075A20075A30039
:1042F80075A40075A50075A60075C31175A2007593
:10430800A30075A40075A50075A60075C33375A232
:104318000075A30075A40075A50075A60075C344B3
:1043280075A20075A30075A40075A50075A6007593
:10433800C32275A22075A34E75A40075A50075A6A5
:1043480000759408A2AFE433F8C2AF439401E59432
:10435800A2E250FAE8A2E092AF439402020132A22C
:10436800AFE433F8C2AF5394FEE594A2E240FAE812
:10437800A2E00245B7A2AFE433F8C2AF439401E527
:1043880094A2E250FA80E8E8A2E7A2E792AF0243DB
:10439800EFE5A4851882851983F0E5A5C0E07401CE
:1043A800120A07D0E0F0E5A6C0E07402120A07D0AE
:1043B800E0F07403120A07E4F0E8A2E7A2E792AF7C
:1043C8008518828519831208D274041209D1D08302
:1043D800D082020132E8A2E7A2E792AF851882856F
:1043E8001983E0FAA3E0FB740280E0C082C0837402
:1043F800FC1209BB851882851983EAF0A3EBF0A3A8
:10440800ECF0A3EDF0E5A8FAC2AF53A7BF75C3332C
:10441800851882851983E0F5A47401120A07E0F56E
:10442800A57402120A07E0F5A67404120A07E0F858
:10443800A3E0F97404120A07E8F0A3E9F07404127F
:104448000A07E0F5A27405120A07E0F5A375A1BFF3
:1044580043A740EA8000A2E7A2E792AF0243D1C097
:1044680082C08374FE1209BB851882851983EAF01D
:10447800A3EBF0E5A8F8C2AF53A7FD75A1FD75C37E
:1044880003851882851983E0F5A27401120A07E0F2
:10449800F5A3E59C54F04401F59C02438FC082C00B
:1044A8008374FC1209BB851882851983EAF0A3EB93
:1044B800F0A3ECF0A3EDF0E5A8FAC2AF53A7BF75DF
:1044C800A1BF439C0F75C333851882851983E0F516
:1044D800A47401120A07E0F5A57402120A07E0F5B0
:1044E800A67404120A07E0F8A3E0F97404120A0794
:1044F800E8F0A3E9F07404120A07E0F5A2740512C3
:104508000A07E0F5A3E59C54F04408F59CEA024448
:104518005E74F4120A2374FC1209BB85188285198B
:1045280083EAF0A3EBF0A3ECF0A3EDF0A2AFE43341
:10453800F9C2AF53A7DF75A1DF7508FF7509FF75CD
:104548000AFF750BFF85188285198378081206B251
:104558007005439CF0802475C340851882851983B3
:10456800E0F5A47401120A07E0F5A57402120A071F
:10457800E0F5A6E59C540F4450F59CE9A2E092AF03
:1045880074041209D17F04020AF5E5A8C2AF53A743
:10459800098015E5A8C2AF53A709759CFF8009E5F6
:1045A800A8C2AF439C0F800375A109A2E7A2E792B6
:1045B800AF020132A3A3A3E4F0E8A2E7A2E792AF17
:1045C8000243D6C082C08374FC1209BBE5A8F8C2B6
:1045D800AF75C300E5A2024399C082C083E5A8F87D
:1045E800C2AF75C300E5A28A828B83A3A3A3A3F0FD
:1045F800E5958C828D83F0E5A38A828B83A3A3A3A0
:10460800A3A3F0E5A48A828B83F0E5A5A3F0E5A631
:104618008A828B83A3A3F08A828B83A3A3A3E4F06B
:10462800E5968C828D83A3F0E5978C828D83A3A376
:10463800F08C828D830245BCC082C08374FE12094F
:10464800BBE5A8F8C2AFE5C3F975C300E5A2E5A4C8
:10465800851882851983F0E5A5C0E07401120A0760
:10466800D0E0F089C30243DD74F0120A2375E181BA
:10467800120496E970089002F5E0F912049C790199
:1046880012041EE96401600302483390033BE0F81A
:10469800A3E0F9E849601090033BE0FAA3E0FB903F
:1046A800033AE0F912053E9002F9E0640160030262
:1046B800477975E191A3E02407F5D99002EAE0C4AF
:1046C800333354C04406F5D978E87902888289835F
:1046D800A3A3A3E0F5D988828983A3A882A983E844
:1046E80064EE7003E9640270E39002FAE0601F78F8
:1046F800E87902FAE82413F582E93400F583E0F555
:10470800D988828983A3A882A9831AEA70E69003CC
:104718001AE02407F5D99002EAE0C4333354C044C0
:1047280004F5D978E8790288828983A3A3A3E0F500
:10473800D988828983A3A882A983E864EE7003E9F3
:10474800640270E390031AE0601F78E87902FAE8DF
:104758002433F582E93400F583E0F5D9888289832A
:10476800A3A882A9831AEA70E675E1959002F9E494
:10477800F01203DCE9FC9002E8E02402F8A3E0343C
:1047880000F9E8FAE9FB8A828B83EC75F0118485DD
:10479800F00885080CE4F50DF50EF50F780C1208F5
:1047A800409002F2E0F508A3E0F509E4F50AF50BFC
:1047B800780C790812082D7508FF7509FF750AFF2E
:1047C800780C790812088E8A828B83780C1208C3B9
:1047D8009002E8E0F8A3E0C82406F582E83400F582
:1047E80083E4F0A3F09002E8E0F8A3E0C8240EF513
:1047F80082E83400F58374FFF0A3F0A3F0A3F090EF
:1048080002E8E0F8A3E0C82414F582E83400F58350
:104818007415F09002E8E0F8A3E0C82416F582E8E1
:104828003400F58374D0F0A37403F01203FA7F0800
:10483800020AF574F0120A2375E181120496E970F0
:10484800089002F5E0F912049C790112041EE9644B
:104858000160030249A090033BE0F8A3E0F9E849AE
:10486800601090033BE0FAA3E0FB90033AE0F912F2
:10487800053E9002F9E06401706475E191A3E024BB
:1048880007F5D99002EAE0C4333354C04402F5D99D
:1048980078E8790288828983A3A3A3E0F5D988827E
:1048A8008983A3A882A983E864EE7003E96402708F
:1048B800E39002FAE0601F78E87902FAE82413F539
:1048C80082E93400F583E0F5D988828983A3A88238
:1048D800A9831AEA70E675E1959002F9E4F01203EB
:1048E800DCE9FC9002E8E02402F8A3E03400F9E8EF
:1048F800FAE9FB8A828B83EC75F0118485F00885D0
:10490800080CE4F50DF50EF50F780C12084090022E
:10491800F2E0F508A3E0F509E4F50AF50B780C795F
:104928000812082D7508FF7509FF750AFF780C79BC
:104938000812088E8A828B83780C1208C39002E8CA
:10494800E0F8A3E0C82406F582E83400F583E4F033
:10495800A3F09002E8E0F8A3E0C8240EF582E8345A
:1049680000F58374FFF0A3F0A3F0A3F09002E8E051
:10497800F8A3E0C82414F582E83400F5837414F031
:104988009002E8E0F8A3E0C82416F582E83400F5C0
:104998008374D0F0A37403F0024833C082C08353F9
:1049A800BFEF790112041EE96401700C7AE87B02FA
:1049B8001204129002F1E4F075E1F11203FAD083C7
:1049C800D0820201328020000000000000000000B8
:1049D80000000000000000000000000000000000CF
:1049E80000000000000000EAF8EBF9E824FF1AE9EB
:1049F80034FFFBE84970D002013274F4120A2389AB
:104A08000A8A0B750801E9C39408501378008005D9
:104A1800C333F50808E8C3950AE50840F342F2EA0B
:104A280014600814600914600A800C7900800A79FF
:104A3800108006792080027930900281E0F8E50A3A
:104A48004948F5B67EF57F01E5B4A2E740197AE852
:104A58007B03120232EE24FF1EEF34FFFFEE4F708D
:104A6800E77AFE7BEF8058E50AC39408500674FF86
:104A7800650852F2E5BAF508E5BBAA08FBC394003D
:104A8800A2D265D03350047A007B00E50B1460088D
:104A980014600D14601280188A088B097408801637
:104AA8008A088B097406800E8A088B0974048006AC
:104AB8008A088B0974027808120989AA08AB097F49
:104AC80004020AF574F4120A2374FB1209BBE99074
:104AD8000284F075F30075FD409002817480F075D2
:104AE8008000900282E4F0A3F07A04790712023879
:104AF8008A0A8B0B1206AC1206A6E50A90044AF045
:104B0800E50BA3F0EAA3F090044AE0124C1A9004D3
:104B180046F090044AE0124C19900445F090044B7A
:104B2800E0FA124C1A900444F0EA124C199004432B
:104B3800F090044CE0FB124C1A900442F0EB124C3B
:104B480019900441F090044AE0900460F0EA90045F
:104B58005FF0EB90045EF07A4A7B0412031C740247
:104B6800120A077401F07403120A077464F0A3E4CC
:104B7800F004120A077403F08518828519837401FA
:104B8800F004120A1979017A027B031205CE740324
:104B9800120A1979027A037B031205CE7C397D0447
:104BA80079117A057B031205CE7C507D04791C7A35
:104BB800047B031205CE7401120A1979017A067B67
:104BC800031205CEAC18AD1979017A027B031205E0
:104BD800CE7C407D067A067B0012024A7C407D0628
:104BE8007A077B0012024A7C407D067A087B001215
:104BF800024A7C407D067A097B0012024A7A017BD0
:104C080000900284E0F912053E74051209D1024AA7
:104C1800C7C4540FF8742828F582E43404F583E0F7
:104C28002274F6120A23EAFEEBFF54806006EF6452
:104C380080024CD1EEA2E0502390801C120C497ADD
:104C4800027B00900284E0F91205B074041209D1C5
:104C58007A867B021205D4EE6401806B5402606C84
:104C680090801C120C497A027B00900284E0F912B1
:104C780005B074041209D1900282E02401F0A3E087
:104C88003400F0900285E004F0A2E0500575804001
:104C980080037580007A047907120238EA9004616B
:104CA800F0EBA3F0900282E0900463F0900283E0BE
:104CB800900464F07C507D047B1C7A01900284E0AF
:104CC800F912028CEE6402FAEFFB80047A007B0092
:104CD8007F02020AF5C082C0839002B574FFF0A378
:104CE800F0A3F0A3F0A3F0A3749FF0A3E4F0A374DF
:104CF80020F09002B414F0D083D0820201327F02F7
:104D0800020AF57F0A020AF574EE120A238A088B52
:104D180009890B8C0E8D0F900365E070099003676D
:104D2800E07003024DDC9002B2E06003024DDC89C2
:104D38008285820C750D00E92407FAE43400FB1221
:104D4800050E8A108B11AE10AF11EE4F7003024D95
:104D5800ED74186508700474206509600C74176593
:104D6800087004742065097010900367E0600AF504
:104D78000A8E828F837492800C900365E0F50A8E08
:104D8800828F837491F0A3740E124E0F8E828F83DC
:104D9800A3A3F08E828F83124FB2EE2405F8EF346E
:104DA80000F9E8FAE9FBEE2407F8EF124F85F078EE
:104DB8000C120C36AC0EAD0F8A828B83E0FAA3E09E
:104DC800FB1204FC74021209D1EEFAEFFBA90A12D5
:104DD800051A8011780E120C36AC0B790E12034CA2
:104DE80074021209D1024D0B74F6120A23E9FE8CE3
:104DF800088D097808120C36EEFC79FF12034C7402
:104E0800021209D1024D06F09002B3E02274F212A8
:104E18000A2389098A0A8B0B8C0874072508FA74F7
:104E2800FF65096004780380027802E82AFA7B00AB
:104E380012050E8A0C8B0DAE0CAF0DEE4F700302EF
:104E48004F378E828F837401F0A374FFF0EE240233
:104E5800FAEF3400FBEE2404F8EF124F75E509125F
:104E68004F6BE02402F8A3E03400F9890DA90B7414
:104E78000E120A07124FA774FF65096032740325E2
:104E8800088882850D83124E0FC0E0124F3CD0E097
:104E9800124F64E50A124F64A3E9F085080A750BFE
:104EA80000780A120C368A828B83E02406806674A6
:104EB8000225088882850D83F08C828D83E0C0E00E
:104EC800124F3CD0E0F08C828D83A3E0C0E0124FFB
:104ED80050D0E0F08C828D83A3A3E0C0E0124F5045
:104EE800A3D0E0124F5F2406124F55124F5F124FA6
:104EF800BDE9F085080AE50A24FDF50AE434FFF562
:104F08000B780A120C36EC2403FCED3400FD8A827F
:104F18008B83E02408FAA3E03400FB1204FC74023B
:104F28001209D1EEFAEFFB900363E0F912051A7F3C
:104F380006020AF5124F40228A828B83E0F8A3E02A
:104F4800F5838882A3A3A322124F40A322F582E807
:104F58003400F583E50A22124F91C822124F9EA30E
:104F6800A3A322124F6F22F08A828B8322124F85CD
:104F7800124F91F58388827404124F9E223400F9EF
:104F88008A828B83E8F0A3E922124F9522F08A8265
:104F98008B83124FAD22124F95F5838882A322E0AE
:104FA800FCA3E0FD22E0F8A3E022A3A3A3E508F018
:104FB800A3E509F0222407F582E83400F58322C02E
:104FC80082C083C3EA9427EB9400501674FF6C7078
:104FD8000374FF6D600C12500BECF0A3EDF0790038
:104FE8008002790202511DC082C083C3EA9427EB74
:104FF8009400500812500B12512480047AFF7BFF52
:1050080002511DEAC333FAEB33FB746D2AF582743F
:10501800043BF5832274F7120A23E9FEEAFF7C10A9
:105028007D0079007A8F7B02120508EE90046CF0FF
:10503800EF90028AF01202F8E990028F700574016D
:10504800F08004E4F079127F01020AF574F6120A7E
:1050580023E9FF7E00701EEA4B601A7508068E0968
:105068007808120C36EAFCEBFD7A967B021204FCF7
:1050780074021209D190028FE0640170130EEF7070
:10508800087402F01202FE8007E4F0EFF9120274CD
:10509800EEF97F02020AF574F7120A237E00EA4B42
:1050A800603B8A828B83E070121251CE90029CE89A
:1050B800F0A3E9125265E090029EF090028FE0643E
:1050C80002701A0E8A828B83E090028F7004740338
:1050D8008001E4F08A828B83E0F9120274EEF9020F
:1050E800504FC082C083E9F87900EA4B6025E86038
:1050F80022EA2405F582EB3400F583740168700513
:10510800E044C0800CE0543FF07403687004E0D2BF
:10511800E6F0098000D083D082020132E0FAA3E0F1
:10512800FB2274F4120A23890890046CE0F460509E
:105138007A0A7B0012050E8A0A8B0BAE0AAF0BEEB9
:105148004F603D1251D57408F090028BE08E828F2B
:1051580083A3A3A3F0750A06750B00780A120C3610
:105168007C9F7D02EE2404FAEF3400FB1204FC74E9
:10517800021209D1EEFAEFFB90046CE0F912051A5D
:1051880090028EE0640170399002AE1251CFE84966
:105198006018E0F5838882A3A3A31251CE88828980
:1051A80083E58245836003120A21908018120C4916
:1051B8007A047B009002ADE0F91205B67404120976
:1051C800D17F04020AF5A3E0F8A3E0F9228E828FCA
:1051D8008374D0F0A3E508F08E828F83A3A3227492
:1051E800F4120A23890890046CE0F4606D7A0C7B51
:1051F8000012050E8A0A8B0BAE0AAF0BEE4F605AEF
:105208001251D5E4F0750A06F50B780A120C367CB3
:10521800967D02EE2403FAEF3400FB1204FC7402BC
:105228001209D190029C1251CF8E828F83A3A3A31F
:10523800A3A3A3A3A3A3E8F0A3E9F090029EE0C070
:10524800E0EE240BF582EF3400F583D0E0F0EEFABF
:10525800EFFB90046CE0F912051A0251C9F08A823A
:105268008B83A3A3A3221253BAAC82AD8322C0823C
:10527800C08374F91209BB7401120A07AA82AB83AE
:1052880012036412538F79077A097B10120340794D
:105298000074070253D3C082C08374FC1209BB8513
:1052A8001882851983E4F004120A07741BF074024B
:1052B800120A07E4F07403120A07740C1252D57A22
:1052C800027B20120340790074040253D312526EF9
:1052D80079042274F4120A2374FF1209BBE9FE74DC
:1052E8000D120A07E0F9740E120A07E0FF740F1294
:1052F8000A07E0F508A3E0F5097411120A07E0F5BA
:105308000A7412120A07E0F50B780B120C3A780AA5
:10531800120C3A7808120C36EFF5087808120C3A95
:10532800E9F5087808120C3AEEF912036A740612C5
:1053380009D112539C7A067B20120340790074012C
:105348001209D17F04020AF574F7120A2374FF12B6
:1053580009BB12037012539C7A080253C274F712E5
:105368000A2374FF1209BB12037C12539C7A0902A8
:1053780053C274F7120A2374FF1209BB1203761280
:10538800539C7A0A0253C2E9851882851983F0ACC6
:1053980082AD8322E9851882851983F0AC82AD83BA
:1053A8007901221209D17F02020AF57900740302F9
:1053B80053D3F0851882851983227B201203407904
:1053C8000074011209D17F01020AF51209D1D083B4
:1053D800D082020132E912526E790322C082C08360
:1053E80074FD1209BB851882851983740CF0740149
:1053F800120A077404F01203827402120A07125385
:10540800DD7A0C7BFC120346900364E060087A00A6
:105418007B40F912053E0253B374F6120A2374F75F
:105428001209BB851882851983E4F0750808F50907
:105438007808120C36EAFCEBFD7403120A07AA82FC
:10544800AB831204FC74021209D185188285198372
:10545800AC82AD8379097A187B2012034074090263
:1054680053ABC082C08374FD1209BB8518828519AD
:1054780083E4F004120A077404F07402120A07E4C1
:105488001253DEFA7BFC1203460253B5C082C08376
:1054980074FD1209BB8518828519837401F0120AFC
:1054A800077404F07402120A07E41253DE7A0180CA
:1054B800D3C082C08374FD1209BB85188285198305
:1054C8007416F07401120A077404F07402120A07C1
:1054D800E41253DE7A1602548CC082C0831204840C
:1054E80012047E025711C082C0839061B1E0C2E00D
:1054F800F0E04403F0906188E0640470F80257110A
:10550800C082C0839061C0E0FAE4F0F8F9E82400B2
:10551800F582E93460F583E41255379480E9940103
:1055280040EBEA9061C0F090618A740102570CF078
:1055380012553C22E8240108E93400F9C3E822C0E6
:1055480082C0838A828B83E0906016125655A3E04E
:1055580090601712558590601812558E9060191238
:10556800559390601A12559890601BF0E990601559
:105578007005E0C2E08003E0D2E0025710F08A82B2
:105588008B83A3A3E0221255A3E02212559EE022AA
:1055980012559EA3E0221255A3A322F08A828B8380
:1055A800A3A3A32274F0120A23EA906005F0EBA3E8
:1055B800F0ECA3F07F08020AF5C082C08390600176
:1055C800E0025631C082C0837407599060010257C7
:1055D80010C082C0837401699060037005E0D2E056
:1055E8008003E0C2E0025710C082C083906003E0ED
:1055F80054F949025710C082C083906061E0025696
:105608003174F0120A23EA9061951256A20255BA33
:10561800C082C083900362E4F0906022F0A3F0A3FC
:105628007830F0A3D8FC025711F9025711C082C094
:1056380083906014E054FCF0E049025710C082C027
:1056480083906009E40257109061C07401F08A8267
:105658008B8322C082C0837A007B60E970027A3330
:10566800125650E4F0A3F0A3F09061C0025710C0A6
:1056780082C083E9906002025710C082C083E9901B
:1056880060027005E0D2E38003E0C2E3025710C075
:1056980082C083E99061C6025710F0EBA3F0ECA337
:1056A800F0ED22C082C083E9601714601C14601EEC
:1056B80014602314602514602A14603314603C803D
:1056C800419061E9E054FC80389061E9801C906168
:1056D800E9E0C2E0802B9061E9801B9061E9E0C2BB
:1056E800E1801E9061E9E0C2E1F0E0D2E080129032
:1056F80061E9E0C2E0F0E0D2E180069061E9E044CF
:1057080003F08005F0A3F0A3F0D083D08202013229
:1057180074F0120A2374F81209BB8A088B098C0AE0
:105728008D0B90802878081206E7500C7508407594
:10573800099C750A00750B00AC18AD197404120A9F
:105748001112101B12589A706C851882851983786B
:10575800081208B412589A60559003E57401F09045
:1057680003E47402F090802C78081206E7400812CF
:10577800589A6003025890C2AFE51A700302588E17
:105788009003E4E0F91211D8E9600302588E12067A
:105798002212062E12589A700302583390803078DD
:1057A800081206E75070908034120C49806D9003FF
:1057B800E5E4F08058740C780812080E9080387868
:1057C8000C1208B47808790C120786851882851996
:1057D800831208EAE8494A4B601B851882851983B9
:1057E80078081206D7500E85188285198378081212
:1057F80008B402576112064C7404120A071208DE34
:105808009003E5E4F012589A60030257679003E4A6
:105818007403F00257777808120C327408120A07DA
:105828001208D212064674041209D153BEFC900322
:10583800E4E042BEE5ADA2E050FA751A01E5A8FE23
:10584800E5B8FFE59AF50853A82053B820539A12F3
:10585800D2AF12063A9003E5E064017006A2C74091
:1058680002E4F08EA88FB885089A9003E4E06403F8
:1058780070047901800279009003E5E0FA12127150
:10588800120634120628D2AF74081209D17F080212
:105898000AF5E5084509450A450B2274F4120A235E
:1058A80074FC1209BB851882851983EAF0A3EBF012
:1058B800A3ECF0A3EDF0C2AD7410120A0778081239
:1058C80008B490803C7808120840851882851983AE
:1058D80078081208537402120A07E0F59774011247
:1058E8000A07E0F596851882851983E0F595C2C701
:1058F800D2AD74041209D17F04020AF5C082C083B4
:1059080074FC1209BBE595851882851983F0E59624
:10591800C0E07401120A07D0E0F0E597C0E0740215
:10592800120A07D0E0F07403120A07E4F08518821F
:105938008519831208D274041209D1D083D0820247
:105948000132C082C083900D0DE4F0A3F0900D0FDA
:10595800740FF0A37405F090050F7448F0A3740257
:10596800F0900757F0A37480F0A374B4F0A3740503
:10597800F0D083D08202013274F6120A237A017BB6
:1059880000120574E5A8FEC2AFEA24FEF8EB34FF66
:10599800F9900D0FE8F0A3E9F012057A90037774F7
:1059A80001F0EEA2E7A2E792AF7F02020AF574F2D5
:1059B800120A237C007D007F00EA2402FAE43BFB04
:1059C800A2AFE433FEC2AF900377E06008EA941117
:1059D800EB9400500A900D0FE0F8A3E0F9800478EA
:1059E80059790788828983E0F508A3E0F50954808E
:1059F80060057F00025A93EFA2E0507C8C828D8371
:105A0800E0F50AA3E0F50B5480F50DE50A2508F545
:105A180008E50B3509547FF509E50D4509F5098CAD
:105A2800828D83E508F0A3E509F0547FF509C3E505
:105A3800089AE5099B4054ECF8EDF9E8497003022F
:105A48005B0188828983E0FCA3E0547FFDECC39A64
:105A5800FCED9BFDC3EC9404ED9400405DE82AF551
:105A680082E93BF583ECF0A3EDF0EB4480FB888200
:105A78008983EAF0A3EB804AE509547FFDC3E50872
:105A88009AED9B50B67F01E8FCE9FD88828983E0A6
:105A9800F508A3E0547FF509E82508F8E93509F980
:105AA80088828983E0F508A3E0F509E508450960DF
:105AB800030259EB78007900803F88828983A3E04C
:105AC8004480F0900377E06029900D0FE0FAA3E09E
:105AD800FBE86A7002E96B701988828983E0FAA38F
:105AE800E0547FFBE82AFAE93BFB900D0FEAF0A3AC
:105AF800EBF0E82402F8500109EEA2E092AFE8FAD0
:105B0800E9FB7F06020AF5C082C083EA24FEF8EBAF
:105B180034FFF9A2AFE433FCC2AF88828983A3E0E3
:105B2800547FF0900D0FE0FAA3E0FBE89AE99B5050
