:1000000002075EC2AFF5088114FFFFC2AFF5088199
:1000100026FFFFC2AFF5088138FFFFC2AFF50881A8
:100020004AFFFFC2AFF508815CFFFFC2AFF5088150
:100030006EFFFFC2AFF5088180FFFFC2AFF50881F8
:1000400092FFFFC2AFF50881A4FFFFC2AFF50881A0
:10005000B6FFFFC2AFF50881C8FFFFC2AFF5088148
:10006000DAFFFFC2AFF50881ECFFFFC2AFF50881F0
:10007000FEFFFFC2AFF508A110FFFFC2AFF508A158
:1000800022FFFFC2AFF508A134FFFFC2AFF508A100
:1000900046FFFFFF758701002274FC120724750AD2
:1000A00004750B00780A12074D74021207937A0048
:1000B0007B00790812055C7402120709850D8285A0
:1000C0000E83E0F47003A3E0F470030201FE850DDB
:1000D00082850E83E0F8A3E0F9E84970030201FE8F
:1000E0007402120789E0687003A3E0697010750953
:1000F00001024030C2AF75C9AB75C95B80FE53BE0B
:10010000FBE59DA2E650FAE5C654804449F5C6E5F4
:100110009E547F644970F853C67FE59EA2E740FA7B
:1001200053C680E59E547F70FA43BE04906270749B
:1001300008F0750A00F50B780A12074D7C807D01E6
:100140007A007B00790812055C740212070990019D
:1001500086E0F50AA3E0F50B7409780A12076DE54D
:100160000A2408FF53B4F375BC0075BC007CFC7D09
:10017000077A047B0079081203837E09EFC3940A8F
:10018000401C800774086E70027E467C007D087AF1
:10019000007B00EEF91203830EEEC39F40E6A8BD7C
:1001A000850D82850E83E8F9E5BCF8E0687003A34D
:1001B000E069704A850D82850E83E0F8A3E0F9744A
:1001C00002120789E8F0A3E9F0850D82850E837499
:1001D000FFF0A3F07409F5D575D480750A01780A8B
:1001E00012074D74021207937A007B101205E27415
:1001F00002120709C2AF75C9AB75C95B80FE750AEB
:1002000004780A12074D74021207937A007B007972
:100210000112055C7402120709850D82850E83E0C8
:10022000F47003A3E0F47003020373850D82850E5E
:1002300083E0F8A3E0F9E849700302037374021243
:100240000789E0F8A3E0F9850D82850E83E06870E8
:1002500003A3E0697010750900020830C2AF75C9C8
:10026000AB75C95B80FE74FF68700374FF6960033F
:1002700002037353BEFBE59DA2E650FAE5C6548027
:100280004449F5C6E59E547F644970F853C67FE53E
:100290009EA2E740FA53C680E59E547F70FA43BEA3
:1002A000049062707408F0750A00F50B780A120762
:1002B0004D7C807D017A007B00790112055C74021F
:1002C000120709900186E0F50AA3E0F50B7409789E
:1002D0000A12076DE50A243FFF53B4F375BC00759D
:1002E000BC007CFC7D077A047B0079011203837ECD
:1002F00002EFC39403401C800774086E70027E46B0
:100300007C007D087A007B00EEF91203830EEEC3B9
:100310009F40E6A8BD850D82850E83E8F9E5BCF80F
:10032000E0687003A3E069704A850D82850E83E062
:10033000F8A3E0F97402120789E8F0A3E9F0850D4B
:1003400082850E8374FFF0A3F07409F5D575D4800F
:10035000750A01780A12074D74021207937A007B1E
:10036000021205E27402120709C2AF75C9AB75C962
:100370005B80FE43BE03120094C2AF75C9AB75C962
:100380005B80FE74F7120648E9FEAFC7740F5EF596
:100390000A750B00740B780A12073AEA2400F8EB8E
:1003A000350BF9E82400E93480F9A2AFE433F50A0B
:1003B000C2AFEEC4540FFAE5C754F84AF5C7E99046
:1003C0000980F0E8A3F0A37470F0A374BDF0EC9082
:1003D0000985F0900984E054E0F0EDFCE04CF090E9
:1003E00009867420F0A37442F07409F5D575D480A1
:1003F00075D601000000000000000000000075D765
:1004000001E5D7A2E040FA8FC7E50AA2E092AF7FEC
:10041000020206AEE5096007E508D2AF024033E507
:1004200008D2AF020833E5096007E508D2AF024001
:100430003BE508D2AF02083BE5096007E508D2AF0B
:10044000024043E508D2AF020843E5096007E5082A
:10045000D2AF02404BE508D2AF02084BE509600776
:10046000E508D2AF024053E508D2AF020853E509D0
:100470006007E508D2AF02405BE508D2AF02085B37
:10048000E5096007E508D2AF024063E508D2AF0294
:100490000863E5096007E508D2AF02406BE508D2C2
:1004A000AF02086BE5096007E508D2AF024073E5CB
:1004B00008D2AF020873E5096007E508D2AF024031
:1004C0007BE508D2AF02087BE5096007E508D2AFFB
:1004D000024083E508D2AF020883E5096007E5081A
:1004E000D2AF02408BE508D2AF02088BE509600766
:1004F000E508D2AF024093E508D2AF020893E509C0
:100500006007E508D2AF02409BE508D2AF02089B26
:10051000E5096007E508D2AF0240A3E508D2AF02C3
:1005200008A3E5096007E508D2AF0240ABE508D2B1
:10053000AF0208ABE5096007E508D2AF0240B3E5BA
:1005400008D2AF0208B3E5096007E508D2AF024060
:10055000BBE508D2AF0208BB0002055874F61206CC
:1005600048890C740F550CF50A750B00740B780A4A
:1005700012073AEA2400F8EB3480F9E82400E93560
:100580000BF985C70BA2AFE433F50AC2AFE50CC483
:10059000540FFAE5C754F84AF5C7740A120789E000
:1005A000FEA3E0FFEE4F602CEEFAEFFB888289831A
:1005B000E08C828D83F088828983A3A882A9838CB2
:1005C000828D83A3AC82AD83EA24FF1AEB34FFFB58
:1005D000EA4B70D8850BC7E50AA2E092AF7F030211
:1005E00006AE74F7120648ED900980F0ECA3F0A374
:1005F0007462F0A37473F0A3E0541FF0740912073F
:1006000089E0F50AA3E0F50BE50A333354FC9009C1
:1006100085F07406780A12076DE50A900984F09057
:1006200009867412F0A37442F075D11E75D601EAE2
:10063000906271F0EBA3F0906270E0D2E1F0E0A282
:10064000E740FB7F020206AE250DC582C0E0E50E45
:1006500034FFC583C0E0E50DC3958224F910AF08CF
:1006600085830E85820D800885830E85820DD2AF2D
:10067000CEF0A3E520F0A3780AE608F0A3DEFAEFB7
:10068000F0A3E58124FBF8E608F0A3E608F0A30850
:1006900008E608F0A3E608F0A315811581D0E0FE76
:1006A000D0E0F815811581E8C0E0EEC0E022850EAB
:1006B00083850D82E0A3FEE0A3F520780AE0A3F68F
:1006C00008DFFAE0A3FFE0A3C0E0E0A3C0E0E0A3FE
:1006D000C0E0E0A3C0E010AF0885820D85830E80E6
:1006E0000885820D85830ED2AFD083D08222250D5E
:1006F000F58210AF08F50D400C150E8008F50D4081
:1007000002150ED2AF850E832200C0D0250D10AF8A
:1007100008F50D500C050E8008F50D5002050ED29F
:10072000AFD0D022250D10AF08F50D400C150E806E
:1007300008F50D4002150ED2AF22700422600D188C
:10074000C6C333C608C633C6D5E0F4182274028087
:1007500000C0E0F4041206EED0E012077C2275D04F
:100760000075813F750D80750E0102079B600C08B6
:10077000C6C313C618C613C6D5E0F422CAC0E0E645
:10078000F0A308DAFAD0E0FA22250DF582E4350E5E
:10079000F58322250DFCE4350EFD22120099120787
:1007A000A100000080FBFFFFFFFFFFFFFFFFFFFF37
:1007B000FFFFFFFFFFFFFFFFFFFFFFFFFFFFFFFF49
:1007C000FFFFFFFFFFFFFFFFFFFFFFFFFFFFFFFF39
:1007D000FFFFFFFFFFFFFFFFFFFFFFFFFFFFFFFF29
:1007E000FFFFFFFFFFFFFFFFFFFFFFFFFFFFFFFF19
:1007F000FFFFFFFFFFFFFFFFFFFFFFFFFFFFFFFF09
:10080000817E817E0C00007C41414141FFFFFFFF62
:10081000FFFFFFFFFFFFFFFFFFFFFFFFFFFFFFFFE8
:10082000000102030405060708090A0BFFFFFFFF8A
:10083000020CDE0222ADFFFFFFFFFFFFFFFFFFFF05
:10084000FFFFFFFFFFFFFFFFFFFFFFFFFFFFFFFFB8
:10085000FFFFFFFFFFFFFFFFFFFFFF0229A8FFFFD2
:10086000FFFFFFFFFFFFFFFFFFFFFFFFFFFFFFFF98
:10087000FFFFFFFFFFFFFFFFFFFFFFFFFFFFFFFF88
:10088000FFFFFF022323FFFFFFFFFFFFFFFFFFFF2D
:10089000FFFFFFFFFFFFFFFFFFFFFFFFFFFFFFFF68
:1008A000FFFFFFFFFFFFFFFFFFFFFFFFFFFFFFFF58
:1008B000FFFFFF02210301FF0000B4000028002811
:1008C00000283075A000A000A000A00000080008CB
:1008D000E001F000100010001000100010001000E7
:1008E00050005000500010001000D0070000000021
:1008F00000000F0001000500307507001000010026
:1009000081FF00000000FFFFFF412C5F2C472C837C
:100910002CFF02020208025000A0000000E80302BF
:10092000D686010000C08602D286010000201A028D
:10093000CC86010000C70202D286010000211A0203
:10094000CA86010000DD0202D286010000221A02DE
:10095000C886010000DF0202D286010000231A02CD
:10096000C686080000E00202D286010000241A02B6
:10097000DC86010000251AFF0100FF2002D6860157
:100980000000B78602D286010000891A02DE8600C6
:100990000000000002CE860300000E0317000D3396
:1009A0000D330D330D330D330D330D330D330D3347
:1009B0000D330D330D330D33CB35DD35C535020227
:1009C00002020202020202010D000000100102D622
:1009D00086010000C38602D286010000CC1A02EE16
:1009E00086010000480702D286010000CD1A02EC01
:1009F00086010000658102D286010000CE1A02EA5B
:100A000086010000578102D286010000CF1A02E859
:100A100086010000A18002D286010000D01A02E601
:100A200086010000D78002D286010000D11A02E4BC
:100A300086010000C58002D286010000D21A02E2BF
:100A400086010000B38002D286010000D31A02E0C2
:100A500086010000498102D286010000D41A02FEFC
:100A600086010000D51A01E8030577100A1C02D69A
:100A700086010000BD8602D2860100007B1B10505B
:100A800080020000360802CE86030000380802D03B
:100A900086010000728102D2860100007B1B10607B
:100AA00080020000370802CE860300003A0802D018
:100AB000860100007F81FFFFFFFF00013075030208
:100AC000010600000000000000000000000000001F
:100AD0000000000000000000000000000000FFFF18
:100AE0000600800CE8031009426174746572792075
:100AF0004D6F6E69746F7205120A001900020A00C8
:100B00000201060302F0FF0201061AFF4C00021563
:100B1000E2C56DB5DFFB48D2B060D0F5A71096E016
:100B200000010002CD42617474657279204D6F6ED0
:100B300069746F726C656167656E64FFFE31383889
:100B400032343636D3390000D9391200000006009D
:100B5000FEFEFE00FEFEE50000000600FE000000B6
:100B60000000FFFFFFFF00010A43686172616374C8
:100B70006572697374696320310002436861726150
:100B80006374657269737469632032000843686135
:100B90007261637465726973746963203300104312
:100BA000686172616374657269737469632034008B
:100BB000024368617261637465726973746963206A
:100BC000350002D686010000BA8602D286010000F6
:100BD000761C02F486030000A71902D086010000EB
:100BE000771C02D286010000881C02F686010000F4
:100BF000A81902D086010000891C02D286010000DB
:100C00009A1C02F886020000A91902D08601000091
:100C10009B1C02D286010000AC1C02FA8600000078
:100C2000BD1902CE86030000BE1902D08601000065
:100C3000AD1C02D286010000BE1C02FC860400002E
:100C4000C01902D086010000BF1CE5C754F8440556
:100C5000F5C779012200000080FB120C4AB900039D
:100C6000020CC8E479217808B800028004F709D89A
:100C7000FCE479297802B800028004F709D8FCE482
:100C8000900280784679188002F0A3D8FCD9FA78CF
:100C90001C9008B67A01BA00028007E493A3F60814
:100CA000DAF97AC57B199008B7789479048015E44D
:100CB00093A3AD82AE838A828B83F0A3AA82AB8397
:100CC0008D828E83D8E9D9E775828B7583E37407AB
:100CD000120CF075825575830C7400120CF075D0EF
:100CE0000075813F751A80751B02759F00020C5AB2
:100CF000C09FF59FE473D09F22D083D082C09FE431
:100D000093C0E0740193C0E0740293F59F22E06603
:100D1000701008A3E066700A08A3E066700408A3D8
:100D2000E06622C3E7960809E7960809E7960809EE
:100D3000E796A2D265D03322C3E09608A3E09608D6
:100D4000A3E09608A3E096A2D265D03322C00AC3DE
:100D5000E096F50A08A3E096420A08A3E096420A44
:100D600008A3E096420AA2D265D033E50A7001D307
:100D7000D00A22C3E7960809E7960809E79608090A
:100D8000E79622C3E09608A3E09608A3E09608A39E
:100D9000E09622C00AC3E096F50A08A3E096420A4C
:100DA00008A3E096420A08A3E096450A7001D3D052
:100DB0000A22080808E630E711121637120DCA0891
:100DC0000808C64480C618181822181818E9799E11
:100DD000C608CAC608CBC608CCC6C370207996CA56
:100DE000CBCC7019798ECBCC70137986CC700EF980
:100DF000802ACA33CACB33CBCC33CC331930E7F299
:100E0000CCCBCA3350147004EA30E00DE4CA3ACABD
:100E1000CB3BCBCC3CCC500209C3E913C6CC182346
:100E200013C6CB18C6CA18C6F922120E6A20F014CF
:100E300030E72B74FFFCFBFA747F8022E4FCFBFAA2
:100E40007480801AB48008BC00F2BB00EF800F50A1
:100E5000EBF9E4C39AFAE49BFBE49CFCE499C6CC6E
:100E600018C6CB18C6CA18C6F922E4C9C608CAC62D
:100E700008CBC6D3330308CCC63392F0C3947F406B
:100E80002E94184019C9B90704CACBCC225025C3E7
:100E900009CA33CACB33CBCC33CC33D9F422F46078
:100EA0000DC9CCC313CB13CBCA13CAD9F6CC22E4D9
:100EB000FCFBFA2214FCFBFA22E626184618461818
:100EC0004622E72719471947194722181818E60834
:100ED00046087009E626087005E633F42208221950
:100EE0001919E70947097009E727097005E733F47D
:100EF000220922E6084608C3134608336002E63397
:100F0000F422E7094709C3134709336002E733F4C2
:100F100022120EF3601C120F026017120EB9700736
:100F2000120EC27001D322C0D0120EC27006D0D0F1
:100F3000B322C32233D0D0501430E0F6C3E7960872
:100F400009E7960809E7960809E796B32220E0D555
:100F5000E6970809E6970809E6970809E697B32295
:100F600000120EF3604F120F026012E7548066F613
:100F7000120ECB7011120EC2703B090909F4F6185B
:100F8000F618F618F622120EDF7015120EB90808C0
:100F90000860EAE6447FF618768018E4F618F62230
:100FA000120EB96016120EC27012E4F608F608F6B8
:100FB00008E65480F609090918181822EAC0E0EB7F
:100FC000C0E0ECC0E0EDC0E0E687F0A4FBACF008C8
:100FD000E687F0A42CFCE435F0FA1809E687F0A4C3
:100FE0002C4B60027401CA35F0FCE433FB09E68740
:100FF000F0D2F7A42CCB35F0FC1908E687F0A42B2F
:10100000CC35F0FBE433FD0819E687F0D2E7A42CD9
:101010004ACB35F0CD3400FC09E687F0D2E7A42DA9
:10102000CC35F0FDE433FA0918E687F0D2F7A42CAA
:10103000CD35F0CA3400FC08E687F0D2E7D2F7A439
:101040002ACC35F07A7E20E70B0ACB33CBCD33CDDB
:10105000CC33CC33CB3350147004ED30E00ED2F1EE
:10106000E4CD3DCDCC3CCC3B5005DA05C2F1EB5490
:101070007FC63308E63392F0FBE73309E733C39AC0
:10108000502D2B70190C0D4C4D70151806E608C329
:1010900033700D20F10AA2F013F6E418800B4024FF
:1010A000E4F630F002768018F618F618F68024D3AD
:1010B0003B14501074FFA2F013F6187680E418F673
:1010C00018F6800FA2F013F618E63303F618ECF6C4
:1010D00018EDF6D0E0FDD0E0FCD0E0FBD0E0FA2245
:1010E000120EF3601D120F027005191919801A12E1
:1010F0000ECB701F120EDFC37003E6673319191988
:1011000040071818182208080874FFF618F618F691
:1011100018F622120EDF6017120EC2702192F01222
:101120000EB97019501720F014080808090909E7CA
:10113000F61819E7F61819E7F61819E7F622120E4D
:10114000B960E6E869701F0808E62480F608E4360E
:10115000F618547FB47F0CE654806007F6E418F666
:1011600018F622181822E9C6CC08C6CD08C6CE0843
:10117000C6CFC0E0E8C0E0EAC0E0EBC0E009E9F8B3
:1011800009E7FA09E7FBE6F918E6F8C3EC98ED99E8
:10119000EE9AEBC2E7F5F0EFC2E795F0500E600C67
:1011A000EBCFFBEACEFAE9CDF9E8CCF8EAA2E7D238
:1011B000E7FAEB33FB13F5F0EEA2E7D2E7FEEF33ED
:1011C000FFC5F013A2E730E601B313C5F0C3C0E0DA
:1011D000C0F07F00C39BFB605E9418600F401D143D
:1011E000601AD0E023F9D0E0F80212C18AF0E94891
:1011F0006003D2F0E4AFF0FAF9F8803BEB30E40D95
:1012000089F0EA6003D2F0E4AFF0F9CAF8EB30E31A
:101210000D88F0EF6002D2F0AFF0E4CAC9F8EB54E9
:10122000076014FBC3EA13FAE913F9E813F8EF13A4
:101230005002D2E0FFDBEDD0E0C0E030E739C3E49C
:101240009FFFF5F0EC98FC42F0ED99FD42F0EE9A2C
:10125000FE42F0D0E0F9D0E0F8E5F0607AE923F959
:10126000EE20E742D8028067C3EF33FFEC33FCED9A
:1012700033FDEE33FE80EAEC28FCED39FDEE3AFE5C
:10128000D0E023F9D0E0F84002801BC3EE13FEED5E
:1012900013FDEC13FCEF135002D2E0FF08B8000678
:1012A0007F7F74FF802EEF3350178CF020F00260A8
:1012B000100CBC000C0DBD00080EBE000408E86058
:1012C000DFE933E813FFEE2313FE4F4D4C8008E9AE
:1012D0005480FFE4FEFDFCEE33EF33F47004FCFDBC
:1012E0007E80D0E0FBD0E0FAD0E0F8D0E0CFC618A6
:1012F000CEC618CDC618CCC6F922120EF37004184B
:10130000181822120F02700D74FFF61819F618192A
:10131000F61819F622E7548066F6120EB9700F120D
:101320000EC270F014F608F608F608F680D1120E18
:10133000C2700CF608F608768008E6447F80EC124E
:101340000EE2700C120ECE60BFE65480F6E480BB55
:10135000120ECE700519191980A5E869700C763F38
:1013600018768018F618F6E8F922E6CDC0E018ECF9
:10137000C0E0E633CD33CDD313F6E719FCE71919F6
:1013800033CC33C3947F400ECD9D502408E6548067
:10139000F6E418F6800FF4043D14501408E6447F78
:1013A000F6187680E418F618F6D0E0FCD0E0FD22BE
:1013B000CCD313CCFD18E4C6CBC0E018E4C6CAC039
:1013C000E00808ED08C633E613F618E433C675F0F6
:1013D00003C3CA97CA09CB97CB199C40047D0880E8
:1013E0002EBD00030214A316B6FF05060608161844
:1013F000C3CA33CACB33CB33CA27CA09CB37CB19BD
:101400003CC37D08803E187D0820E75CC633C6CA11
:1014100033CACB33CB33DDF1D5F0EB30E77BCA9762
:10142000CA09CB974ACB199C406F4B7025E620E048
:10143000218066187D08C3CA97CA09CB97CB199C2F
:10144000D3C633C6CA33CACB33CB3350C9DDE7D595
:10145000F0E1D3E4C636C608C636C608C636C608A6
:10146000C636C61818188031C3CA97CA09CB97CB9D
:10147000199CB34097C633C6CA33CACB33CB33DDCE
:1014800034D5F02EC6A2E0C640C8CA27CA09CB3759
:10149000194A70BECB3CB480B90808E63308E6337D
:1014A000601F181818D0E0FAD0E0FBD0E0FCD0E0C4
:1014B000FD22187D08CA27CA09CB37CB193CD38037
:1014C0008013F618E4B67F11F618B6FF0EF618C6AC
:1014D0000470D20808768080CAF618F618F680C51F
:1014E000080808EAC0E0EBC0E086F0E7A4FA1809B3
:1014F00086F0E7A42AFA180986F0E7A42AFA180960
:1015000086F0E7A42AFA1986F0E7A4FBE5F02AFAA8
:10151000190886F0E7A42BFBE5F03AFA190886F0E3
:10152000E7A42BFBE5F03AFA18180986F0E7A4C502
:10153000F02BFBE43AFA1908E7C5F0C6A426F6E555
:10154000F03BFBE43AFA1886F0E7A4F6E5F008264B
:10155000F6E43B08F6E43A08F6D0E0FBD0E0FA22E5
:10156000E4CFC0E0E4CEC0E0E4CDC0E0E4CCC0E035
:1015700075F020E626F608E633F608E633F608E6C8
:1015800033F6181818EC33FCED33FDEE33FEEF3371
:10159000FFC3EC9709ED9709EE9709EF9719191911
:1015A000400FFFEC97FC09ED97FD09EE97FE191926
:1015B00006D5F0BFECF709EDF709EEF709EFF719DB
:1015C0001919D0E0FCD0E0FDD0E0FED0E0FF2212FF
:1015D000163A18181812156012162619191922121F
:1015E0001626191919080808E618181820E7E01235
:1015F000156012163A18181822090909E71919195D
:1016000020E7DC080808E618181820E70302156030
:1016100012163A18181812156012163A18181812DD
:10162000162619191922E4C397F709E497F709E474
:1016300097F709E497F722181818E4C396F608E418
:1016400096F608E496F608E496F62260170808086D
:10165000C6A2E713C618C613C618C613C618C61303
:10166000C6D5E0E9226016080808C6C313C618C626
:1016700013C618C613C618C613C6D5E0EA227009E9
:10168000080808226016181818C6C333C608C633DF
:10169000C608C633C608C633C6D5E0EA22E627F632
:1016A0000809E637F60809E637F60809E637F622AC
:1016B000E026F608A3E036F608A3E036F608A3E035
:1016C00036F622E026F008A3E036F008A3E036F074
:1016D00008A3E036F022C3E697F60809E697F60875
:1016E00009E697F60809E697F622C3E096F008A304
:1016F000E096F008A3E096F008A3E096F022E0560A
:10170000F608A3E056F608A3E056F608A3E056F65E
:1017100022E056F008A3E056F008A3E056F008A334
:10172000E056F022E647F60809E647F60809E647DC
:10173000F60809E647F622E0F608A3E0F608A3E07B
:10174000F608A3E0F622E6F008A3E6F008A3E6F028
:1017500008A3E6F022E0FAA3E0FBA3E0FCA3E0FD8F
:1017600022E0F8A3E0F9A3E0FAA3E0FB22E8F0A36B
:10177000E9F0A3EAF0A3EBF022CAC0E0E6F0A30888
:10178000DAFAD0E0FA22CAC0E0E0A3C582CCC58272
:10179000C583CDC583F0A3C582CCC582C583CDC525
:1017A00083DAE6D0E0CA22C3E498F8E499F9121784
:1017B000E88026C3E49AFAE49BFBE920E7E91217E4
:1017C000E8E498F8E499F922C3E498F8E499F91266
:1017D00017E8E498F8E499F9C3E49AFAE49BFB2249
:1017E000EB20E7CFE920E7E0B90010BB0008E88A6A
:1017F000F084F8AAF022E4FBC8FA22EB70227B10F6
:10180000C833C8C933C9335007C39AC3DBF2800653
:101810009A50012ADBEAC833F4C8C933F4C9FA2262
:1018200075F008E4C833C8C933C933C99AC99B5095
:1018300004C92AC93BD5F0ECFBC833F4C8E4C9FAA3
:1018400022600D08C6A2E713C618C613C6D5E0F37A
:1018500022600C08C6C313C618C613C6D5E0F4220E
:10186000700422600D18C6C333C608C633C6D5E05F
:10187000F41822251A10AF08F51A400C151B800821
:10188000F51A4002151BD2AF2200C0D0251A10AFA6
:1018900008F51A500C051B8008F51A5002051BD2DA
:1018A000AFD0D022251AF58210AF08F51A400C15DA
:1018B0001B8008F51A4002151BD2AF851B83222519
:1018C0001AF582E4351BF58322251AF8E4351BF955
:1018D00022251AFAE4351BFB22251AFCE4351BFDF0
:1018E00022E473251AC582C0E0E51B34FFC583C01E
:1018F000E0E51AC3958224F810AF0885831B858222
:101900001A800885831B85821AD2AFCEF0A3E5200A
:10191000F0A3780AE608F0A3DEFAEFF0A3E581244D
:10192000FAF8E608F0A3E608F0A3E608F0A3080832
:10193000E608F0A3E608F0A315811581D0E0FED0FB
:10194000E0F8158115811581E8C0E0EEC0E02225A0
:101950001AC582C0E0E51B34FFC583C0E0E51AC3A9
:10196000958224F910AF0885831B85821A8008852B
:10197000831B85821AD2AFCEF0A3E520F0A3780AAC
:10198000E608F0A3DEFAEFF0A3E58124FBF8E60811
:10199000F0A3E608F0A30808E608F0A3E608F0A321
:1019A00015811581D0E0FED0E0F815811581E8C0E1
:1019B000E0EEC0E022851B83851A82E0A3FEE0A34F
:1019C000F520780AE0A3F608DFFAE0A3FFE0A3C061
:1019D000E0E0A3C0E0E0A3C0E0E0A3C0E0E0A3C07B
:1019E000E010AF0885821A85831B800885821A85DE
:1019F000831BD2AFD083D082020CF6851B83851A5D
:101A000082E0A3FEE0A3F520780AE0A3F608DFFA5F
:101A1000E0A3FFE0A3C0E0E0A3C0E0E0A3C0E0E0FB
:101A2000A3C0E010AF0885821A85831B80088582D9
:101A30001A85831BD2AFD083D08222C0D0251AC58D
:101A400082C0E0E51B34FFC583C0E0E51AC3958280
:101A500024F310AF0885831B85821A800885831BB9
:101A600085821AD2AFC8F0A3E9F0A3EAF0A3EBF0A5
:101A7000A3790AE709F0A3D8FAECF0A3EDF0A3EEFE
:101A8000F0A3EFF0A3D0E0F0A3D0E0F0A3D0E0F01B
:101A9000A3E520F0A3E5F0F0A322851B83851A823D
:101AA000E0C0E0A3E0F9A3E0FAA3E0FBA3780AE03A
:101AB000F608A3DFFAE0FCA3E0FDA3E0FEA3E0FF4D
:101AC000A3E0C0E0A3E0C0E0A3E0F5D0A3E0F520F0
:101AD000A3E0A3F5F010AF0885831B85821A800868
:101AE00085831B85821AD2AFD082D083D0E0F8D014
:101AF000E03274048006740280027401C0E0F404D1
:101B00001218A4D0E01217792274048004740280A1
:101B100000CCC0E0EDC0E0E51AC39CCCAD1B500189
:101B20001D10AF068C1A8D1B80068C1A8D1BD2AF30
:101B3000121786D0E0FDD0E0FC22D083D082E9C02D
:101B4000E0E493A3C386F0C5F095F0F908E493A30D
:101B500086F0C5F095F0700BE493A3C3994005E9B6
:101B6000048002A3E475F002A42582F582E5F03535
:101B700083F583D0E0F9E493A3C0E0E493C0E022CE
:101B8000D083D082ECC0E0EDC0E0E493A3FCE4930A
:101B9000A3FDED4C600D121BCCEC24FFFCED34FFDB
:101BA000FD80EFE493A3FCE493A3FDED4C600D12E4
:101BB0001C0BEC24FFFCED34FFFD80EFD0E0FDD0EA
:101BC000E0FCE493A3C0E0E493C0E022C0E0C3E4FF
:101BD0009396087401939618400FE4936670080872
:101BE000740193661870007019A3A3C3E493960858
:101BF0007401939618A3A3400DD0E0D0E0D0E0028A
:101C00001BBCA3A3A3A3A3A3D0E022C0E0C0F08881
:101C1000F0E4936670080874019366187000A8F0E9
:101C2000A3A3700BD0F0D0E0D0E0D0E0021BBCA3A7
:101C3000A3D0F0D0E022FFFF74F612194FEAFEEBBA
:101C4000FF8C0A8D0BEE2434F8E43FF9E8FCE9FD43
:101C5000EE2435121F4BFAEE2437121F4BF8850A7B
:101C6000F0A4C885F00C850BF0A4250CF9EA28F83F
:101C7000E439F97A257B001217E8EA8C828D83F02B
:101C8000FA131313541FF8EE28F8E43FF9E8245D23
:101C9000F582E439F583E0C0E074075AF8D0E0B883
:101CA00000028004C313D8FCA2E0EE50082434F5EF
:101CB00082E43F80182436121F4BF5F0EA84A8F026
:101CC000EE28F8E43FF9E82438F582E439F583E0BA
:101CD000F97F030219FB74F712194FEAFEEBFFEECE
:101CE0002434121F4BC0E0EE2435F582E43FF58327
:101CF000D0E0F08E828F83A3A3A3A3A3A3A3C0826B
:101D0000C0838E828F83A3A3A3A3A3E0F8A3E0F9EB
:101D1000D083D082E0C398F50AA3E099F50BEE24B6
:101D20007F121F4B6401703EEE2480F582E43FF584
:101D300083C082C0838E828F83A3A3A3A3A3E02446
:101D40000108A3E03400F9D083D082E0687003A3D7
:101D5000E06970127CB97D04123247EE247FF5826F
:101D6000E43FF583E4F0AC0AAD0BEEFAEFFB121C96
:101D700038E9F912299A7F020219FBC082C08385D3
:101D80001A82851B83E0F8A3E0F9C3EA9CEB9D501F
:101D900010C3EC98ED99401BC3EA98EB995014805E
:101DA0000EC3EA98EB994007C3EC98ED994004798B
:101DB0000180027900D083D08222EAC39CFAEB9D95
:101DC000FB2274EF12194F90037EE064086005E077
:101DD0006407702A9061C8E060249003ACE0F4606E
:101DE0001DE0F875F00BA4C8AAF02AF974AE28FE1D
:101DF000740339FF8E828F83A3A3A3E07003021EB6
:101E0000D0906060E0C0E0EE2468F582E43FF583A6
:101E1000D0E0F0750E29750F05750A00750B00E509
:101E2000D914F50CE5D95403F5106012740365104C
:101E30006043E50C600AEE2467121F4B7002807548
:101E4000900524E06401601F121F4860047A04803A
:101E5000027A00E50CC39AFA95E0FB1230DF8A0A99
:101E60008B0BEA450B70051234938064121F487087
:101E7000048A0E8B0FE50C6012850E82850F83F5A8
:101E80000DE5D9F0A3150DE50D70F6121F4860445D
:101E900074FC250CF50C780E121AF6AC0CA910EE99
:101EA000FAEFFB1233077402121889E97026AA0AA6
:101EB000AB0B1238E3793D8E828F83A3A3A3A3E0FB
:101EC000FA7B00122F41EEFAEFFB12326B1233193C
:101ED0007900806F740365106051850C12751300D2
:101EE0007812121AF6AC0EAD0FAA0AAB0B1232CB57
:101EF0007402121889EE2468121F4B6480700474F7
:101F00007F8001E0F50E780E121AFAE510F50E78D2
:101F10000E121AFAA90CAC0AAD0B9003ACE0FA7BD6
:101F200000122F177402121889801390037EE06448
:101F300008600BAC0EAD0FEEFAEFFB1233911234CA
:101F40009F79017F0A0219FBEE2483F582E43FF5B5
:101F500083E02274F212194F74FC121873EAFEEB3C
:101F6000FF890BA2AFE433F50AC2AF02201DE06087
:101F70001B780E121AF6AC0DA910EEFAEFFB123315
:101F80000174021218897404250DF50D7401250DD4
:101F9000F5D98510D9E50D6018F50C850E82850FF1
:101FA00083E0F5D9A385820E85830F150CE50C70AF
:101FB000EA75E195EE2463F8E43FF97A007B00A22C
:101FC000AFE433F50DC2AF88828983E0FCA3E0FD66
:101FD000EC4D603A88828983E0FAA3E0FB8A828B29
:101FE00083E0FCA3E0FD88828983ECF0A3EDF08A16
:101FF000828B83E4F0A3F088828983E0FCA3E0FD78
:10200000EC4D700A88828983A3A3E4F0A3F0E50D68
:10201000A2E092AF1238E39004C0E004F0EE246333
:10202000121F4BF8A3E0F9E8496064EE2463121F25
:102030004B2402F8A3E03400F988828983E58224E6
:1020400002F50EE43583F50FE0F50DA3E0F510EE93
:102050002462121F4B640170369061D0E0F8121FA9
:102060004860047C0480027C007480C398FA95E088
:10207000FBE50D2CF8E43400F9E82402F8500109DE
:10208000C3EA98EB99A2D265D0334003021F6E9049
:1020900004C0E0604D9004C1E0F89004C0E0C39833
:1020A000500C7402650B703A9004C2E060348E826A
:1020B0008F83A3A3A3A3E0851A82851B831220F23A
:1020C00074021218BFE81220F29004BFE028F074E6
:1020D000021218D9AA1AAB1B7901122F6B9004C0F7
:1020E000E4F0E50AA2E092AF74041218897F0702B7
:1020F00019FBF0A3E4F09004C0E0F8228521878565
:1021000022C622C0E074EB121A3BA2AFE433F50AF8
:10211000C2AF759B00906182E0A2E05030E591A2D1
:10212000E0502A7591FE74016521702112229612E9
:1021300033DF122284121B091227447404121889F7
:10214000E9640170057901123427121DC290618281
:10215000E0A2E5505DE591A2E550577591DF90034F
:102160007EE064076005E06408702F122296740117
:102170006521703E1233DF122284121B091227449C
:102180007404121889E96401700579011234277901
:1021900001EEFAEFFB121F538018E0640D701390EC
:1021A00003A0E004F064287002E4F07A00E0F91281
:1021B00034A5906182E0A2E64003022259E591A293
:1021C000E640030222597591BF90037EE0640570DA
:1021D000081233C71233D380031233CD7521001296
:1021E0003433E990037FF079001234271231B17A49
:1021F000017B0090037DE0F91238B3907803E0642E
:10220000427056900528E014F0704EC2AF122210B2
:1022100000782AD0E0F618D0E0F6E59F5407F87071
:1022200005750FFF8003750F7FC4C0E07829E6F5C0
:102230000C08E6550FF50D740B780C121851D0E010
:10224000250CF8906270E0A2E740F8E8C333906292
:1022500072F0906270E0D2E0F0906181E0A2E35011
:1022600009E5E9A2E3500375E9F7A3E0A2E7500905
:10227000E591A2E7500375917FE50AA2E092AF7F56
:1022800008021A9A8E828F83E0F8A3E0C82416F51C
:1022900082E438F583229003ACE0F875F00BA4C813
:1022A000AAF02AF974AE28FE740339FF22C0E0C0F8
:1022B000D0C082C083906183E0A2E05009E5BFA254
:1022C000E0500375BFFEE0A2E15009E5BFA2E15076
:1022D0000375BFFDE0A2E25009E5BFA2E25003751D
:1022E000BFFBE0A2E35009E5BFA2E3500375BFF7CF
:1022F000E0A2E45009E5BFA2E4500375BFEFE0A2FD
:10230000E55009E5BFA2E5500375BFDFE0A2E65046
:1023100009E5BFA2E6500375BFBFD083D082D0D0FD
:10232000D0E032C0E074F2121A3BE5A7A2E6500FEB
:10233000E5A1A2E6500953A7BF75A1BF122377E517
:10234000A7A2E5500CE5A1A2E5500653A7DF75A1B1
:10235000DFE5A7A2E15009E5A1A2E1500375A1FDC7
:10236000E5A7A2E2500CE5A1A2E2500653A7FB7537
:10237000A1FB7F01021A9A74F712194F752101907F
:10238000037EE06406701512333D8A828B83A3A31B
:10239000A3A3A3A3E0FAA3E0FB1233B5A2AFE433F7
:1023A000FED2AF900384E0640170187A207B009025
:1023B000037DE0F91239737A207B0090037DE0F908
:1023C0001238B9906182E0D2E6F0900525E06021F4
:1023D00085C6228016900383E064017008E5C65428
:1023E000F84405F5C653BEFC1220FC74016521605B
:1023F000E4EEA2E092AF7F020219FBFF8E238F244E
:10240000858228858327851A82851B83E0CEA3E0F9
:10241000CF852882852783EBC9EAC8EDCBECCA7546
:10242000F010C3E833C8E933C9EA33CAEB33CBC38E
:10243000EA9EF526EB9FF525B35004AB25AA26ECC2
:1024400033CCED33CDD5F0DAAE23AF242274E912CC
:10245000194F74FA121873EAFEEBFF8C0C8D0D12F3
:1024600033EBEAF8EBF9ECFAEDFB8E828F8312176F
:102470006D90037EE024F7C39405500675160102A3
:1024800025B412333D8A0A8B0BEA450B70030225F3
:10249000B1EEFCEFFDAA1AAB1B1233E5850A82856B
:1024A0000B83A3A3780E1217379082A7780E12160B
:1024B000FE851A82851B8378121217379082A778BF
:1024C000121216FE780E7912120D73501F780E79C3
:1024D000121216D6908213780E120D934047850E75
:1024E00016850F1785101885111980459082138560
:1024F00012168513178514188515197816790E127A
:1025000016D67816120D93501C75160075170075A7
:102510001800751901781679121216D67816790EE8
:1025200012169D800C751601751700751800751927
:10253000007409781612167E908307780E121737EA
:102540007816790E121560850A82850B83A3A3A3E2
:10255000A3A3A31225D21217E8880E890FE4F51061
:10256000F5117816790E12169D74041218BF1225F3
:10257000D21217E8E8FA8A0EE4F50F7816790E12EF
:102580000D7350077816790E1216D690037EE0640C
:1025900008600AE064066005E06405702090820F20
:1025A0007816120D9350169082C778161216B080C6
:1025B0000C751600751700751800751900850C82CA
:1025C000850D83781612174674061218897F10023B
:1025D00019FBE0F8A3E0F97AD07B032274F7121913
:1025E0004F1233FD900523E064017010906245E4C2
:1025F000F0A3F053F4F343FE0C5390F31233A3E52E
:10260000C654B84441F5C6E59E5447644170F890FD
:102610006185740FF0900521E0F47002A3E0604E34
:10262000900522E0600814601B14602E8040750A3B
:1026300001750B00900521E0780A121860E50AF494
:102640005280802A750A01750B00900521E0780AF6
:10265000121860E50AF452908014750A01750B0097
:10266000900521E0780A121860E50AF452A079007A
:102670007F020219FB74F712194FE9FEEAFF1233C9
:10268000FD74016E700C7A807B0090037DE0F9127E
:1026900038B3903A50E493F46008E493F91231A50A
:1026A000800953C6B8E59E544770FA1233A99005C5
:1026B00023E0640170031231C9900521E0F4700237
:1026C000A3E0604B900522E0600814601A14602CAF
:1026D000803D750A01750B00900521E0780A1218FB
:1026E00060E50A42808028750A01750B009005217B
:1026F000E0780A121860E50A42908013750A0175A5
:102700000B00900521E0780A121860E50A42A01239
:10271000333D8A0A8B0BA80AA90BE8496014E5E14E
:1027200070FCE82414F582E439F583E0F46003E0FA
:10273000F5E174016F700A7A0190037DE0F91239B6
:102740003D02267074F112194F8A0A8B0B8C0C8D86
:102750000D9082A7780A1216FE740F1218BF780E19
:102760001217379082A7780E1216FE780A790E1289
:102770000D739082135010780A790E1216D6780ACB
:10278000120D934014800E780E790A1216D6780E28
:10279000120D9350047901800279007F080219FB21
:1027A00074ED12194F8A0A8B0B8C0C8D0D9082A739
:1027B000780A1216FE74131218BF780E121737908B
:1027C00082A7780E1216FE780E790A120D73401148
:1027D000780A790E1216D6AA0AAB0BAC0CAD0D8096
:1027E00022751200751300751400751501781279A1
:1027F0000E1216D67812790A12169DAA12AB13ACD5
:1028000014AD157F0C0219FB9082A7780A121737B6
:102810008A828B83780A1217117F040219FB74F5E0
:1028200012194F8C828D83780A1217378A828B8314
:10283000780A1216EA122876C3E09CF0A3E09D12F3
:10284000286840229082DB780A1217378A828B83AD
:10285000780A1216C38A828B83A3A3A3A3E0242041
:10286000F0A3E0344EF080A0F088828983C3E09426
:1028700020A3E0944E22EA2404F8E43BF98C828DF4
:1028800083A3A3A3A3E0FCA3E0FD88828983227431
:10289000F512194FE9FE9004DBE0FAA3E0FBEE2904
:1028A000F8E433F9740928F582748139F583E02A54
:1028B000F50AA3E03BF50B780A121AF69082331260
:1028C00017551223FC74021218898A0A8B0B8C0C80
:1028D0008D0D7410780A121665AA0AAB0B7F0402DC
:1028E00019FB74F112194F8A0E8B0F8C108D117415
:1028F000111218BF121B0D74111218BFE02401F53C
:102900000AA3E03400F50BE4F50CF50D780E790A16
:102910001214E09082D3780A121737780E790A12CF
:1029200014E0AA0EAB0FAC10AD111223FC7402120E
:1029300018898B0BEA450B60047A0180027A00EC5F
:102940002AFCE43DFD74131218BFE0F8A3E0F9E897
:10295000FEE9FFECF8EDF97A717B021217E8880ABC
:10296000890BE4F50CF50D8E828F83780A121746D9
:10297000ECF8EDF97A717B021217E88A0A8B0B7476
:1029800005780A1218608E828F83A3A3A3A3E50A99
:10299000F0A3E50BF07F080219FBC082C083E99029
:1029A0006000F0D083D08222C0E0C0D0E8C0E0E96F
:1029B000C0E0A9A8D2AFC2C7751C00E9A2E7E43302
:1029C000F8E9A2E792AFD0E0F9D0E0F8D0D0D0E0BB
:1029D00032C2AF02000022120CF992C707120CF9A2
:1029E0009BC707120CF99FC707120CF9B5C707124E
:1029F0000CF9D9C707120CF92AC807120CF975C8C7
:102A000007120CF99BC807120CF9BCC807120CF985
:102A1000CCC807120CF939C907120CF955C90712AD
:102A20000CF92AC007120CF93DC007120CF96EC050
:102A300007120CF9A8C007120CF901C107120CF912
:102A400048C107120CF990C107120CF9BFC1071257
:102A50000CF9EEC107120CF925C207120CF96CC271
:102A600007120CF985C207120CF9DAC207120CF929
:102A7000F3C207120CF941C307120CF97BC307120A
:102A80000CF997EF06120CF99AF006120CF9D3F034
:102A900006120CF9F6F006120CF908F106120CF900
:102AA00046F106120CF9C2F106120CF98AF206126E
:102AB0000CF9ACF206120CF943F306120CF995F37B
:102AC00006120CF9C6F306120CF9D3F306120CF930
:102AD0003DF406120CF994F406120CF997F4061260
:102AE0000CF9D0F406120CF9D3F406120CF9DDF44B
:102AF00006120CF931F506120CF972F506120CF9F2
:102B0000A5F506120CF9E2F506120CF9E4F6061228
:102B10000CF988F706120CF9F1F706120CF92FF8E8
:102B200006120CF977B407120CF99FB407120CF9CE
:102B3000CCB407120CF904B507120CF962B50712F0
:102B40000CF9AEB507120CF915B607120CF955B60B
:102B500007120CF992B607120CF9C0B607120CF95D
:102B60006AB707120CF974B707120CF981B707128C
:102B70000CF9B4B707120CF9C0B707120CF9D8B7A3
:102B800007120CF9E2B707120CF998DF07120CF9DB
:102B9000A6DF07120CF9BEDF07120CF9D5DF07120A
:102BA0000CF9008006120CF9AA8006120CF9BD81FE
:102BB00006120CF9398206120CF9578306120CF929
:102BC000938306120CF92E8406120CF91285061254
:102BD0000CF9DE8506120CF96C8706120CF9DD87FC
:102BE00006120CF9978806120CF9898906120CF95D
:102BF000C98906120CF97D8A06120CF9AF8A0612F1
:102C00000CF9A58C06120CF9E78C06120CF9058D4F
:102C100006120CF96B8D06120CF93A8E06120CF99D
:102C2000FE8E06120CF91D9106120CF92D88071262
:102C30000CF9178907120CF9C28907120CF9138ACB
:102C400007120CF9C38A07120CF9348B07120CF91E
:102C5000198C07120CF94D8C07120CF9468D0712CE
:102C60000CF9838D07120CF95F8E07120CF99E8EFA
:102C700007120CF9BA8E07120CF99BD407120CF943
:102C80001FD507120CF94AD507120CF964D60712A2
:102C90000CF970B807120CF986B807120CF9A4B831
:102CA00007120CF9B5B907120CF9BFB907120CF9E4
:102CB000EABA07120CF9E1BB07120CF94EBC071275
:102CC0000CF9543A00120CF98A3B00120CF9C13B82
:102CD00000120CF9183C00120CF92D3E00120CF9F0
:102CE00016A705120CF9A2A705120CF906A90512E0
:102CF0000CF912A905120CF94DA905120CF9BCA981
:102D000005120CF9C5AA05120CF9CEAB05120CF987
:102D100095AC05120CF9F2AD05120CF910AE0512C6
:102D20000CF92DAE05120CF9DAAE05120CF957AFFD
:102D300005120CF97FAF05120CF949B205120CF916
:102D40004EB205120CF967B405120CF9B5B40512B0
:102D50000CF925B505120CF963B505120CF93FB64F
:102D600005120CF9FFB605120CF94BB705120CF958
:102D70004EB705120CF992B705120CF9DAB7051225
:102D80000CF919B805120CF93BB805120CF96FB81B
:102D900005120CF9D2B805120CF98E9407120CF931
:102DA0009C9407120CF9EF9407120CF90E95071278
:102DB0000CF9539507120CF9979607120CF93297F4
:102DC00007120CF9769707120CF9A09707120CF965
:102DD0000F9807120CF9559807120CF9CC980712A6
:102DE0000CF97D9907120CF9008705120CF9108770
:102DF00005120CF9B18705120CF90D8805120CF9B2
:102E0000CA8805120CF9E68905120CF9188A051210
:102E10000CF9478A05120CF9F48B05120CF96B8E2C
:102E200005120CF9DB9005120CF9CD9105120CF985
:102E3000C69205120CF9CD9405120CF9C197051232
:102E40000CF9F09805120CF9F49A05120CF9049C8F
:102E500005120CF9939D05120CF9849E05120CF9CC
:102E6000D29E05120CF9419F05120CF9659F0512BF
:102E70000CF9B69F05120CF957A405120CF958A5C8
:102E800005120CF9B9A505120CF9E4A505120CF907
:102E9000AAA605120CF9D9A207120CF9E3A207128F
:102EA0000CF928A307120CF93CA307120CF9CCA3C8
:102EB00007120CF905A407120CF940A407120CF92B
:102EC00069A407120CF9BDA407120CF9D2A40712C9
:102ED0000CF9F4A407120CF909A507120CF91DA5A9
:102EE00007120CF932A507120CF96CA507120CF9A0
:102EF00098A507120CF9D0A507120CF932A60712F3
:102F00000CF9A4A607120CF9E7A607120CF911A7F1
:102F100007120CF93CA707120CF9B5DB07120CF9E4
:102F2000CAD106120CF9ADD206120CF928D306123A
:102F30000CF963D306120CF9B4D406120CF942D57D
:102F400006120CF9D4D706120CF986D806120CF921
:102F500092D906120CF905DB06120CF95EDB06129B
:102F60000CF9E5AB07120CF928AC07120CF9ACAC64
:102F700007120CF983AF07120CF927D007120CF9CE
:102F8000D9D007120CF9D5D107120CF914D20712B7
:102F90000CF96ED207120CF929FE05120CF98CFE01
:102FA00005120CF929FF05120CF95EFF05120CF948
:102FB0008EFF05120CF9C9FF05120CF9E9FF051285
:102FC0000CF98F9907120CF91B9A07120CF9DA9A6F
:102FD00007120CF9F29B07120CF90C9E07120CF960
:102FE00036BB06120CF95BBB06120CF928BC0612A4
:102FF0000CF9FCBC06120CF969BD06120CF9A9BD4E
:1030000006120CF945BE06120CF979BF06120CF92E
:1030100054C006120CF9B3C006120CF93FC10612D7
:103020000CF9ADC106120CF939C206120CF97FC2B7
:1030300006120CF9F1C206120CF983C306120CF940
:1030400024C406120CF944C406120CF98CC40612EE
:103050000CF9D5C406120CF9F1C406120CF917C507
:1030600006120CF991C506120CF99FC506120CF94F
:103070002EC606120CF997C606120CF9439E0712CB
:103080000CF9C89E07120CF90A9F07120CF9EE9F63
:1030900007120CF95BA007120CF99FA007120CF99C
:1030A000E3A007120CF910A107120CF938A10712BE
:1030B0000CF970A107120CF9AEA107120CF9D5A1F9
:1030C00007120CF94FA207120CF999A207120CF97A
:1030D000BCDD05120CF95BDF05120CF993E105125A
:1030E0000CF9E7E105120CF912E205120CF9EEE217
:1030F00005120CF91EE305120CF94DE305120CF94B
:1031000060E305120CF9A1E305120CF9CEE30512F8
:103110000CF91CE405120CF958E405120CF99DE4B5
:1031200005120CF9EAE405120CF964E505120CF934
:10313000A5E705120CF98FE905120CF9CBE9051288
:103140000CF95AEB05120CF99FEB05120CF912EC75
:1031500005120CF967EC05120CF971EC05120CF96B
:103160003DED05120CF968ED05120CF9F4ED0512B0
:103170000CF913EF05120CF924EF05120CF9F8E520
:1031800006120CF971E606120CF92BEC06120CF97A
:1031900036ED06120CF9DFEE06120CF96DEF061291
:1031A0000CF951E704120CF9D2E704120CF9FFE70D
:1031B00004120CF948E804120CF949E904120CF95C
:1031C0008DE904120CF9C3E904120CF93FEB041267
:1031D0000CF9C1EB04120CF9DCEB04120CF94DEC08
:1031E00004120CF90AED04120CF9CDED04120CF9DD
:1031F0005BEE04120CF912EF04120CF925EF041225
:103200000CF9BEEF04120CF955F004120CF97CF025
:1032100004120CF9E5F004120CF92FF104120CF968
:103220007DF104120CF922F204120CF9C0F204121E
:103230000CF94DF304120CF9BEF304120CF905F469
:1032400004120CF95DF404120CF98FF404120CF959
:1032500049F504120CF950F604120CF999F604120F
:103260000CF9B6F604120CF9D5F604120CF908F8AC
:1032700004120CF9BFF804120CF9E4F804120CF96A
:10328000F9F804120CF969F904120CF9AAF90412FC
:103290000CF9CEFA04120CF94FFB04120CF907DCFE
:1032A00006120CF952DC06120CF95EDC06120CF95F
:1032B00032DD06120CF949DD06120CF986DD061224
:1032C0000CF9B7DD06120CF9E8DD06120CF920DE68
:1032D00006120CF976DE06120CF98CDE06120CF9D9
:1032E000C8DE06120CF9DBDE06120CF902DF06124C
:1032F0000CF936DF06120CF95CE006120CF9A6E1B7
:1033000006120CF9A2E206120CF9BFE306120CF940
:10331000F43F00120CF947EF05120CF982EF051289
:103320000CF9D4F205120CF930F405120CF9EFF493
:1033300005120CF956F805120CF940F905120CF9B2
:103340008CF905120CF9A6F905120CF9E3F905122E
:103350000CF9EEF905120CF92DFA05120CF936FAF2
:1033600005120CF9E0FA05120CF9B7FB05120CF97D
:103370000BFC05120CF968FC05120CF9DAFC0512BD
:103380000CF9AAB905120CF909BD05120CF90FBD0B
:1033900005120CF940C405120CF947C805120CF9C6
:1033A000E3C307120CF979C407120CF98FC4071292
:1033B0000CF9E8C407120CF92CC507120CF966C504
:1033C00007120CF9FEC507120CF96DC607120CF9AD
:1033D00076C607120CF982C607120CF99CC60712B2
:1033E0000CF9C6C607120CF9DBC607120CF93DC76B
:1033F00007120CF964C707120CF935B007120CF963
:1034000042B007120CF95CB007120CF98FB007122A
:103410000CF9CDB007120CF932B107120CF947B113
:1034200007120CF952B107120CF95FB107120CF92F
:1034300076B107120CF984B107120CF98FB107129B
:103440000CF99BB107120CF9AAB107120CF9B5B12E
:1034500007120CF9D8B107120CF97CB207120CF95B
:103460008CB207120CF9A6B207120CF9C3B20712FC
:103470000CF9DEB207120CF903B307120CF90EB304
:1034800007120CF923B307120CF937B307120CF922
:1034900098B307120CF99EB307120CF9A4B30712E4
:1034A0000CF9AAB307120CF9C2B307120CF9F5B361
:1034B00007120CF9B3AD06120CF94AAE06120CF95C
:1034C000E2AE06120CF9D2AF06120CF909B00612E0
:1034D0000CF91CB006120CF98AB006120CF925B2D0
:1034E00006120CF94CB206120CF9EEB206120CF9E7
:1034F00023B306120CF934B306120CF9ADB306125D
:103500000CF9CEB306120CF9E6B306120CF93EB56F
:1035100006120CF947B706120CF997B906120CF906
:103520009ABA06120CF9E9BA06120CF92A91061297
:103530000CF9279206120CF9129306120CF91C933F
:1035400006120CF93E9306120CF94A9306120CF976
:103550009C9406120CF9CB9406120CF9FB950612FA
:103560000CF93D9606120CF9699706120CF93F9872
:1035700006120CF9919806120CF9F09806120CF943
:10358000279906120CF9629906120CF9FD9C061295
:103590000CF9169D06120CF9989D06120CF9A69DC1
:1035A00006120CF9FB9D06120CF9099E06120CF985
:1035B000769E06120CF9E89E06120CF92E9F061252
:1035C0000CF9BAC606120CF9DCC606120CF9C6C80C
:1035D00006120CF96BCC06120CF9AECD06120CF9E2
:1035E00088CE06120CF961D807120CF986D807129A
:1035F0000CF9F7D807120CF9008007120CF90980B2
:1036000007120CF9128007120CF9438107120CF90A
:10361000628307120CF9988307120CF9D283071200
:103620000CF9088407120CF9428407120CF976840D
:1036300007120CF9A28407120CF9EB8407120CF99B
:10364000258507120CF96D8507120CF9C385071241
:103650000CF9F88507120CF9538607120CF98D86C0
:1036600007120CF9DE8607120CF9148707120CF901
:103670004E8707120CF97C8707120CF99F870712F7
:103680000CF9DAE107120CF906E207120CF961E213
:1036900007120CF96BE207120CF97BE207120CF926
:1036A00095CA07120CF9BCCA07120CF9E6CA071230
:1036B0000CF9C3DE07120CF910DF07120CF932DF28
:1036C00007120CF949DF07120CF975DF07120CF924
:1036D000E0E307120CF9CCCB05120CF931CE051240
:1036E0000CF97CCF05120CF9D4CF05120CF9BCD023
:1036F00005120CF944D105120CF9C9D105120CF9C7
:10370000F7D105120CF9D6D405120CF9F8D405122C
:103710000CF9A9D505120CF9E3D505120CF923D63D
:1037200005120CF933D705120CF972D705120CF9F2
:10373000BFD705120CF908D805120CF92ED80512BE
:103740000CF948D805120CF9BCD805120CF9CCD8E4
:1037500005120CF94BDA05120CF970DA05120CF9A6
:103760009FDA05120CF923DC05120CF966DC051250
:103770000CF997DD05120CF964A707120CF9BCA728
:1037800007120CF904A907120CF973A907120CF916
:1037900022AA07120CF941AA07120CF995AA0712DE
:1037A0000CF9D3AA07120CF965E007120CF976E0C0
:1037B00007120CF919E107120CF92AE407120CF9A7
:1037C00069E407120CF946E507120CF952E50712F5
:1037D0000CF95EE507120CF924E107120CF934E14B
:1037E00007120CF943E107120CF9D4E107120CF9A6
:1037F000C9DC07120CF94DDD07120CF9B3DD071215
:103800000CF9F83F00120CF993D607120CF9FDD70A
:1038100007120CF95ED807120CF955F806120CF9CC
:10382000DEF806120CF9F5F806120CF9B7F90612D3
:103830000CF998FA06120CF94CFC06120CF91DFD55
:1038400006120CF967FE06120CF9EFFE06120CF9CF
:10385000B9E407120CF9D3E407120CF91B8F071215
:103860000CF9258F07120CF9658F07120CF9AE8F32
:1038700007120CF9E88F07120CF93E9007120CF9A9
:103880005D9007120CF9669007120CF9B7900712B9
:103890000CF9E09007120CF9F59007120CF96591FC
:1038A00007120CF9F39107120CF9379207120CF971
:1038B0005F9207120CF9DE9207120CF9219307129E
:1038C0000CF95E9307120CF9709307120CF98F93A1
:1038D00007120CF9989307120CF9629407120CF96D
:1038E00017DA07120CF968DA07120CF9F1DA071285
:1038F0000CF957DB07120CF963CD07120CF98DCDCB
:1039000007120CF987CE07120CF9B6CE07120CF984
:103910003CCF07120CF9CCDD07120CF999D2071233
:103920000CF9CFD207120CF908D307120CF961D4A5
:1039300007120CF985E207120CF99BE207120CF949
:10394000A5E207120CF9FBE207120CF92CE30712AF
:103950000CF985FB04120CF99AFB04120CF94AFCD1
:1039600004120CF98AFC04120CF9A3FC04120CF9E1
:10397000D6FC04120CF923FD04120CF957FD0412B5
:103980000CF999FD04120CF997FF04120CF9B79F7A
:1039900006120CF96EA306120CF900A506120CF91A
:1039A00057A506120CF976A506120CF9D3A5061236
:1039B0000CF958A706120CF93CA806120CF937AC02
:1039C00006120CF90BAD06120CF900B004120CF93A
:1039D000D0B304120CF9EABD04120CF936BF04127C
:1039E0000CF957BF04120CF989C104120CF9FEC678
:1039F00004120CF9F4C804120CF988C904120CF969
:103A000049CA04120CF967CC04120CF918CD04123F
:103A10000CF98BD004120CF958BC07120CF9C0BC7D
:103A200007120CF9DDBC07120CF9AFBD07120CF937
:103A30000DBE07120CF9E1BE07120CF973E4071270
:103A40000CF9FCE407120CF928E507FF31B1E1FF9E
:103A5000FFFFFFFF74F21218E38A0BECFEEDFF7517
:103A60000A00E9602714604F146065147003023B7C
:103A700016147003023B35146069147003023B4A4C
:103A8000147003023B5E14606F023B80EAC394161D
:103A90004003023B7B7C167D0079007AC77B0212D3
:103AA0003877850B0E750F00780E121AF6EEFCEFC4
:103AB000FD7AC77B0280747402650B6003023B7B56
:103AC0008E828F83123E279002DDE8F0A3E98024E6
:103AD0007401650B6003023B7B8E828F83E0900252
:103AE000DF80117401650B6003023B7B8E828F8344
:103AF000E0901A22F0023B837401650B707D8E8288
:103B00008F83E0F9A2E14073901A5BE0FCA3E0FD33
:103B10007A607B1A80607406650B705F750E06759F
:103B20000F00780E121AF67AE07B0212385F7402E8
:103B3000121889804E7408650B70408E828F837CCA
:103B4000257D1A740812178680397401650B702B55
:103B5000901A3BE0FCA3E0FD7A407B1A80127401CE
:103B6000650B7017901A4BE0FCA3E0FD7A507B1AAE
:103B70008E828F83E0F9122CCB8008750A1880039F
:103B8000750A02A90A7F060219B574F41218E379BE
:103B900000EAA2E0501F750ACF750B81780A121A4D
:103BA000F679107C0B7D007A2D7B1A122DF77402AA
:103BB000121889E9F97F040219B5D083D082020C6A
:103BC000F6C082C0838A828B83E9A2E1E05004D2EE
:103BD000E18002C2E1F0E9A2E7E05004D2E780020E
:103BE000C2E7F0E9A2E3E05004D2E38002C2E3F0CE
:103BF000E9A2E5E05004D2E58002C2E5F074AA59DA
:103C000060098C828D83E0440C800AE970088C8204
:103C10008D83E054F3F080A274EC1218E3891275DE
:103C20000B0074161218BFE0F50CA3E0F50D8C82A2
:103C30008D83E064026003023DD4123E26123DFAF9
:103C4000F8EC2406F50EE43DF50F74141218BFE0ED
:103C5000FEA3E0FF74181218BFE0F510A3E0F51101
:103C6000E5104511600DE87003742A696026790B30
:103C7000023DE18E828F83A3AA82AB8388148915CB
:103C80007814121B3A002A04D43D943CFE3C483D73
:103C90001B3D593D850E82850F83123E0B1238590C
:103CA000EAF50AC39510FAE49511FBA812C3EA9845
:103CB000EB94004004880A8009E510C50AC3950A00
:103CC000F50A850A14751500E5102514F8E4351178
:103CD000F9C3E89416E99400501E850C82850D8383
:103CE000E50AF07814121AF6850E82850F83E02516
:103CF00010FCA3E035118040750B0D023DDF123E34
:103D000017123E27850C82850D837402F0E88E829F
:103D10008F83F0E98A828B83023DD1850C82850DE9
:103D2000837406F0F50C750D00780C121AF6850EEA
:103D300082850F83E0FCA3E0FDEEFAEFFB12385F13
:103D40007402121889023DDF850C82850D8374018F
:103D5000F0123E17123DE68078850E82850F8312A1
:103D60003FD9850C82850D8360667408F08882894E
:103D700083123DE6F088828983A3E08A828B83F0F8
:103D8000E82402FAE439FB8A828B83123DE6A3A37E
:103D9000F08A828B83A3123DE6A3A3A3F0E8240458
:103DA000FAE439FB8A828B83123DECF08A828B83A2
:103DB000A3123DECA3F0E82406F85001098882899B
:103DC00083123E11F088828983A3123E11A38001E1
:103DD000E4F0800B850C82850D83E4F0750B01A95E
:103DE0000B7F0C0219B5E08E828F8322123DF022E8
:103DF000E08E828F83A3A3A3A32288828983E0FA23
:103E0000A3E0F9EA22850A82850B83E0FAA3E0FBAE
:103E100022123DF0A3A322850E82850F83E0F8A332
:103E2000E0F583888222A3E0F8A3E0F92274EE1281
:103E300018E38A108B11E9FF7E008C828D83E06489
:103E4000026003023FBD123E26EC2406F50AE43D63
:103E5000F50B74121218BFE0F50EA3E0F50F741401
:103E60001218BFE0F50CA3E0F50D123DFA2EF51285
:103E7000E439F5137812121B3A002A03BD3F863E3F
:103E8000F83E7B3F393F123E05123859C3EA950C84
:103E9000E4950D401A8F128E13E50C2FF8E4350DC2
:103EA000F9C3E89416E99400400A7E0D023FBF7EF4
:103EB00007023FBF7812121AF6AC0EAD0F123FC6C2
:103EC00012385F7402121889E50C2FF50CE4350DD9
:103ED000F50D7416C3950CFCE4950DFD7900123FA9
:103EE000C6123877123FD67003023FBF123FE1700F
:103EF00003023FBF7900807AE50C450D6003023F65
:103F0000A874026F70A4850E82850F83123DFEF89F
:103F1000850A82850B83E0FAA3E0F5838A82E8F0C4
:103F2000A3E9F0123FD67003023FBF123FE17003D6
:103F3000023FBF7901AA10803D9002DFE06044E5B6
:103F40000C450D706374066F6003023EAA750C0683
:103F50008E0D780C121AF6AC0EAD0F123E0512380B
:103F60005F7402121889123FD66054123FE1604F0D
:103F70007903AA10AB111218E18044901A22E0A232
:103F8000E340047E038038E50C450D701B74016F1F
:103F90006003023EAA850E82850F83E0F8600D74EF
:103FA000016860087E8080177E0B8013E8C0E08582
:103FB0000A82850B83123E1DD0E0F080027E01EE66
:103FC000F97F0A0219B5850A82850B83E0250CFA70
:103FD000A3E0350DFB229002C5E0F8A3E0F9E84923
:103FE00022E0F5838882E0F8A3E0F988828983E5FE
:103FF00082458322020CF6FF851C87C2AF020CF6B5
:10400000FFFFFFFFFFFFFFFFFFFFFFFFFFFFFFFFC0
:10401000FFFFFFFFFFFFFFFFFFFFFFFFFFFFFFFFB0
:10402000FFFFFFFFFFFFFFFFFFFFFFFFFFFFFFFFA0
:10403000FFFFFFFFFFFFFFFFFFFFFFFFFFFFFFFF90
:020000040002F8
:1030000074F41218E374C0121873E9901509F07C77
:10301000017D007A1F7B00122B2174011218BF74EE
:1030200001F074151218BFE412B3C474131218BF60
:10303000740A12C17A74111218BF741912C17A7409
:103040000F1218BFE4F0A3F0740D1218BF7496129B
:10305000C17A9080F974301218D9741012178674DE
:10306000201218C9880A890B780A121AF6743212CB
:1030700018D97A427B1C12310374021218897A0023
:10308000EAF874201218BFE58228F582E43583F54A
:1030900083E0C0E0741E28F582E4341CF583D0E0A0
:1030A000F00AEAC3941040D874011218D979017A51
:1030B000057B0312398B74151218D979027A067BB5
:1030C0000312398B7CF47D1B791A7A087B03123941
:1030D0008B7C157D1C791E7A077B0312398BAC1A09
:1030E000AD1B79017A107B0312398B74131218D936
:1030F00079027A117B0312398B74111218D9790273
:103100007A127B0312398B740F1218D979027A1351
:103110007B0312398B740D1218D979027A147B0350
:1031200012398B7C337D1C7A0F7900122CBF7CF412
:103130007D017A067B00122B217CF47D017A077BCE
:1031400000122B217CF47D017A087B00122B217C5C
:10315000F47D017A097B00122B2174171218BFE449
:10316000F0A3F0A312B3C41218BF7401F004121834
:10317000BFE4F074031218BF7401F074171218D969
:1031800079047A087B041236D3AC1AAD1B79017A24
:10319000007B041236D374011218D979017A027BAC
:1031A000041236D374021218D979017A037B0412FF
:1031B00036D374031218D979017A067B041236D3F8
:1031C0009082DB121755122CC59082DB1217551214
:1031D0002E0312369D9082DB121755123A151238C3
:1031E0001774011218BF740112B3C6041218BF7409
:1031F00003F0141218BF7404F09081E4741B1218C9
:10320000D97405121786041218D97A017900123A76
:1032100021AC1AAD1B7A017901123A2174031218FC
:10322000D97A017902123A2174021218D97A0179F5
:1032300003123A21741B1218D97A057904123A2123
:103240007A567B1C123A1B7901122EF97903122E41
:10325000F3750A00750B14750C00750D00AA0AAB06
:103260000BAC0CAD0D1236C19082DF780A1216B08D
:103270009082E3780A120D4D50E3901758E4F0A3C2
:10328000741412CC3190818974041218D974091203
:103290001786E59D131313541F5403FF750A087511
:1032A0000B00780A121AF674061218C9880A890BDC
:1032B000780A121AF69082E71217551236AF740484
:1032C00012188974081218BFE0F4701B74091218E0
:1032D000BFE0F47012740A1218BFE0F47009740BA6
:1032E0001218BFE0F460149082EB1217551236C129
:1032F0009082E71217551236C1806174041218BF0C
:10330000E0F46005E0901770F074026F704E9082E8
:10331000E71217551236C174041218BFE0F4601A90
:10332000E064086015E004F0C3940540037405F000
:10333000E0901770F0750A0180097401F090177021
:10334000F0F50A750B00780A121AF674061218D9ED
:103350007A007B121236B57402121889750A047548
:103360000B00780A121AF674061218C9880A890B1B
:10337000780A121AF69082EB1217551236AF7404BF
:1033800012188974041218BFE0901516F043FD401E
:10339000C286122A13122A07E964F96008122A0762
:1033A000E964FA70069018E37401F01239F17A01B9
:1033B0007B00901509E0F91238B374401218897F28
:1033C000040219B5F0A3F0851A82851B8304F0224C
:1033D00074EC1218E374EC121873EAFEEBFF5480DD
:1033E000603A901509E0F912389B8A0A8B0BEA457E
:1033F0000B60218A828B83E064B07011A3A3A3A326
:10340000E0F9EA2405FAE4350BFB122DDFAA0AAB3A
:103410000B123889EEFAEF648002BD49EEA2E0504B
:10342000317A527B1C1239977AE67B181236F79064
:1034300082EF121B097A027B00901509E0F912391C
:1034400067740412188975C90043C908EE64010243
:10345000BD475402700302BACB790012393790820B
:10346000EF121B097A027B00901509E0F912396707
:103470007404121889901514E0600302B54A79802B
:103480001237B17A0479071237AB12BD68120DCD2D
:103490009082F3780A121737780E790A120F60902B
:1034A00082F7780A121737780E790A120F60908225
:1034B000FB780A121737780E790A120F60AA0EAB42
:1034C0000FAC10AD11123A0F8A0A8B0B8C0C8D0DBC
:1034D000780A790E120F60780A120E2A12BDC012F5
:1034E0000DB29082FF780E121737780A790E120FFC
:1034F00060780A120E2A12BD77F0901921E0C39469
:1035000019501D12CA40901921E012BD5AF582745B
:103510001839F583EAF0A3EBF0901921E004802933
:103520007A00EA12BD5AF8741839F988828983A39F
:10353000A312C16688828983ECF0A3EDF00AEAC386
:10354000941840DE9019217418F09018ECE004F003
:10355000C394084033E4F0A9A8C2AFE5C9540F44AE
:10356000A0F5C9E5C9540F4450F5C9E9A2E7E43311
:10357000F8E9A2E792AF90151AE06402700AC2AFB0
:1035800075C9AB75C95B80FE901770E0700374015C
:10359000F0E0F5F0744B84F8901922E098500302A3
:1035A000B65BE4F0D2869019237402F0901922E001
:1035B00004F090150DE06401702090192412BDA94B
:1035C000901924C3E094B212C6BB400E901924E4B3
:1035D000F0A3F090150DF01239F790177712BDA9EE
:1035E000901777C3E094B8A3E0940BA2D265D033D0
:1035F000401A901513E070147401F0901777E4F0FE
:10360000A312BD991239FD901513E4F090150CE04A
:10361000606DC394195003E004F090150BE0640250
:10362000705DA3E064197062901517E0605C9015FE
:1036300012E0F890150EE07038E8703590150B74B4
:1036400003F0908303121B097A047B00901509E0B4
:10365000F91239677404121889801F901923E070D9
:103660000302B5AC6402600302B5A4C286E402B5ED
:10367000ABE870069015127401F09018EAE4F0902F
:10368000150BE0640170037402F09018EBE004F095
:10369000C39419500302B79A750E00750F00751088
:1036A000007511007A0012BD8CF50AA3E0F50B330A
:1036B00095E0F50CF50D780E790A12169D0AEAC30D
:1036C000941940E2908307780A121737780E790A26
:1036D0001215F99018EBE4F09018E3E0F990830BE1
:1036E000780E120D4D503F9015157401F09015187D
:1036F000E0600302B79A901926E004F0901927E4DD
:10370000F0901926E0C39402500302B79A9015185E
:103710007401F0E960069018E57401F0901926E450
:10372000F0901510803E90830F780E120D4D406A78
:10373000901515E4F0901518E06401705DE9602CB7
:10374000901926E4F09018E4E004F0C3940C404A89
:10375000901927E4F0901518F09018E5F09018E40F
:10376000F0901511E0C39464402D8029901927E052
:1037700004F0901926E4F0901927E0C39402401A4F
:10378000E4F0901518F09018E4F0A3F0901511E013
:10379000C394644002E4F0E004F0122A19E96401E1
:1037A00070099018E3E06003A3E4F0901514E07052
:1037B0000612CA401239E590150EE0700890150BFC
:1037C000E0640370089019287405F08006901928A9
:1037D000E06006E014F002BAC0901516E0640170D3
:1037E0000302BAC09018EAE004F0C394195003022F
:1037F000BAC0E4F0F50AF50BF50CF50D7A0012BD30
:103800008CF50EA3E012D02912169D0AEAC3941972
:1038100040EC908307780E121737780A790E12154C
:10382000F91239F1850A0E850B0F850C10850D11E3
:10383000908313780E1216B0780E120DB290831783
:103840007812121737780E79121212FA780E120EB9
:103850002AE50F3395E0F510F51190174C780E120C
:10386000174690831B780E120D4D500A90174C741A
:1038700064F0A3E4801090831F780E120D4D400970
:1038800090174CE4F0A312D07590192BE0702B7AAE
:10389000007B0090174C780E121737747B2AF58244
:1038A00074173BF583E50EF00AEA70010BC39468C8
:1038B000EB9401A2D265D03340D990192BE004F0EB
:1038C000901515E0FC90192BE0C3940B4054740143
:1038D000F0901929E0247BF8A3E03417F9E8FAE91D
:1038E000FBEC60158A828B837464F075F00A901784
:1038F0004BE0840490192B800E90174C780E121711
:10390000378A828B83E50EF090192912BDA9901990
:1039100029C3E09468A3E094014007901929E4F0DA
:10392000A3F0750E00750F00EC600790174B740440
:10393000806D90174C12BDA3F0747B250EF5827438
:1039400017350FF583E0F512E4F513F514F515902E
:10395000174C78121216C3050EE50E7002050FC340
:103960009468E50F9401A2D265D03340CC90174CF7
:10397000780E1217379083237812121737780E7942
:10398000121215F990174C780E12174690826F7824
:103990000E120D4D90174B5004740180027402F00A
:1039A000A3780E12173790831B780E120D4D500A14
:1039B00090174C7464F0A3E48010908327780E1263
:1039C0000D4D400990174CE4F0A312D07590174BA1
:1039D000E0FAA3780E12173790150CE07058901982
:1039E0002CE0603DE4F0E50EC420E304540F8002B7
:1039F00044F044F0901C2EF0E50EC454F04AA3F0BD
:103A0000E50E901C3212CC38121841E50A901C3099
:103A100012C6C5901C31F07C157D1C7B1E7A01807E
:103A20000A7401F07C0E7D1C7B07FA901509E0F901
:103A3000122C2F02BAC0908192AC1AAD1B740912DD
:103A40001786851A82851B8374F5F0850A12850B0B
:103A50001374047812121841041218BFE512F0E52D
:103A60000AC454F04AC0E074021218BFD0E0F074E7
:103A7000031218BFE50EF090177712BD841218419B
:103A800074041218BFE50AF074051218BFEAF0902A
:103A9000177912BD8412184174061218BFE50AF096
:103AA00074071218BFEAF09018E5E0C0E07408123D
:103AB00018BFD0E0F07C09AA1AAB1B79011239DFDC
:103AC0007901123937EE640202BD47EE54047003E7
:103AD00002BD4C7900123937908303121B097A0416
:103AE0007B00901509E0F912396774041218899067
:103AF0001514E06401600302BB7E79801237B17A4D
:103B00000479071237AB12BD68120DCD9082F3789D
:103B10000A121737780E790A120F609082F7780A26
:103B2000121737780E790A120F609082FB780A120A
:103B30001737780E790A120F60AA0EAB0FAC10ADD2
:103B400011123A0F8A0A8B0B8C0C8D0D780A790EA4
:103B5000120F60780A120E2A12BDC0120DB29082A6
:103B6000FF780E121737780A790E120F60780A1252
:103B70000E2A12BD7712BD991239E502BD3F90158C
:103B80000BE06403706F901513E0600302BD3F7497
:103B900001F0901771780A121737901758780E12A3
:103BA0001737850E14850F15850A12850B13E5143A
:103BB000C39512F512E5159513F513780A790E12CF
:103BC0000D23500AE5122400E5133478F513740828
:103BD0007812121841E512901525F0E50EC3950AEA
:103BE000A3F07C007A237B1579021239DF9015133C
:103BF000E4F002BD3FA3E0C39419901512500612E1
:103C0000BDB302BD07E0F990150EE0F8607DE970E4
:103C10007A74016870289082B774091218D97404F4
:103C20001217867C0374091218D179011239DFE961
:103C30006401600302BD0D90150E74028049901559
:103C400013E0600302BD3F7401F0123A0912D02064
:103C5000E0700302BD0D9015137401F0123A0912C1
:103C6000D020E0700302BD0D9015137401F0123ADC
:103C70000912D020E0700302BD0D9015137401F0FD
:103C8000123A09901513E4F002BD0DE9707F90819E
:103C9000AA740D1218D9740712178690176C780E33
:103CA000121737850E0A850F0B85100C85110D90A4
:103CB000832B780A1216B07410780A12164B7410FF
:103CC0001218BFE50A12C8EA2409F50A5002050BCA
:103CD0007408780A12184174111218BFE50AF085A9
:103CE0000E0AE50A2409C0E074121218BFD0E0F0F1
:103CF0007C06740D1218D179011239DFE964017064
:103D00000C90176C12BDA312C17F1239739015125B
:103D1000E06401702A9082BF74091218D9740412E9
:103D200017867C0374091218D179011239DFE9640E
:103D300001700C90151212BDB312C17F1239737944
:103D400001123937EE6404FAEFFB80047A007B003D
:103D500074141218897F0C0219B512BD5E2225E079
:103D6000F8E433F974ED2822EB541F8A0EF50FE4C2
:103D7000F510F511780E22901521C3E0950AF0A3F5
:103D8000E0950B2212CC447408780A22EA12BD5E38
:103D9000F582741839F583E022F0901521E0FAA33A
:103DA000E0FB22E412D075A322E02401F0A3E0346A
:103DB00000F022E4F090176C12D075A312D02422E8
:103DC000901521E50AF0A3E50BF0901775E0F8A334
:103DD000E0F97418C398F50AE499F50B12BDE022D6
:103DE0003395E0F50CF50D780A2274F61218E37499
:103DF000FB121873E9FE90150CE4F0EE14601D142C
:103E0000606C24FE700302BE9714700302BED314CC
:103E1000606724FE700302BF1202BF157C2D7D195E
:103E20007A047B0312399190192DE0901933F090A8
:103E3000192EE0901934F090192FE0901935F09078
:103E40001937E4F0901936F0901932E090193AF0F1
:103E5000901931E0901939F0901930E0901938F04C
:103E60007C337D197A0879001236A302BF159015AC
:103E700012E4F0A312BDB4801B901517E4F0901566
:103E800012F090176C12BDA4F090151312D024F00C
:103E900090150C04F0807E90151AE060789082E70F
:103EA0001217551236C79081DFAC1AAD1B7405127C
:103EB000178612BF24121AF674021218D97A007BE0
:103EC000121236BB7402121889C2AF75C9AB75C91C
:103ED0005B80FE12399D90151AE060399082E712DE
:103EE00017551236C79081DAAC1AAD1B740512173C
:103EF0008612BF24121AF674021218D97A007B12A5
:103F00001236BB7402121889C2AF75C9AB75C95B92
:103F100080FE12399DEE90150AF074051218897F03
:103F2000020219B5851A82851B837408F0750A048C
:103F3000750B00780A2274F71218E3E9FE74026E1A
:103F400070107A3B7B197902123A277A3B7B19125F
:103F500039EB7F010219B574F41218E374DB1218FF
:103F600073890BEAFEEBFF8C0A9080E97405121846
:103F7000D97410121786750C4F750D19780C121A1A
:103F8000F67CFF7DFF791B7A007B00122DD974022D
:103F900012188974031218BFEAF0A3EBF07402122E
:103FA00018BF7410F0851A82851B83742E12C17A93
:103FB000850A0CF50DE50B14600B14607714700383
:103FC00002C12A8068780C121AF6EEFCEFFD740725
:103FD0001218D112385F740212188974151218C998
:103FE000880C890D780C121AF674071218D97A42C7
:103FF0007B1C1231037402121889750C10750D00A8
:10400000780C121AF674171218D974051218BF1208
:10401000CA4312385F74021218897900AC1AAD1BBA
:104020007A007B00122D25E9700302C15E790074CD
:104030002502B3BC90150CE0C39419500302C112C1
:1040400090195112C8E4EE28FEEF39FF901749127B
:10405000C166901953ECF8EDF97A107B001217E065
:10406000880C890D12C16C5008750C10750D0080FC
:104070000FECF8EDF97A107B001217E08A0C8B0D2B
:10408000780C121AF6EEFCEFFD74071218D11238F4
:104090005F740212188974151218C9880C890D787A
:1040A0000C121AF674071218D97A427B1C123103CB
:1040B0007402121889750C10750D00780C121AF61E
:1040C00074171218D974051218BF12CA4312385F38
:1040D00074021218897900AC1AAD1B7A007B0012A9
:1040E0002D25E9707990174912C8E47A107B0012E7
:1040F00017E0880C890D75831975825312C16C50B5
:1041000011901951E0241012BDAC90195312BDA9A1
:10411000804C90150BE4F0901953F0A3F0901951D6
:10412000F0A312C17F123973803474021218BFE5F4
:104130000AF0780C121AF6EEFCEFFD74051218BFA7
:1041400012CA4312385F74021218897900AC1AAD92
:104150001B7A007B00122D25E9600302C02D790136
:1041600002C02F901755E0FCA3E0FD22C3E0950CA0
:10417000A3E0950DA2D265D03322F0A3E4F022F0A3
:104180007A04FB901509E0F92274F21218E38A0A06
:104190008B0B7408780A121841E50A540FFDEAC423
:1041A00054F0FC8A0A8B0B7404780A121841E50A51
:1041B000FE901959E0600302C25390150BE0C394BE
:1041C00003400302C253901C5CC3E0941212C6BBAE
:1041D000503812C6E6901958E07011EE8882898333
:1041E00012C6D1ECF0901958740180158882898329
:1041F000E04D12C6D1EAF0901C5C12BDA99019588E
:10420000E4F090195AE4F0A380487F06EFF8745C5C
:1042100028F8E43419F988828983A3A3A3E088826B
:104220008983F00FEFC3940F40E2901C5C740F126F
:10423000C17A901962E0F50A750B007404780A12CD
:104240001860A3E0C4540FF8E50A4890195AF0A387
:10425000E50BF0901C58780A12173712C687880EA3
:10426000890F90195AE0C39AF8A3E09BF9C3E89428
:104270005012CC00500302C340901959E060030271
:10428000C34090150BE0C39403400302C359901937
:10429000597401F0901750EAF0A3EBF0750A2675F7
:1042A0000B02780A121AF67C007D007A237B151225
:1042B0003A3F74021218897C06ECF8742128F8E45D
:1042C0003415F9E8FAE9FB90195AE0F50AA3E0F58C
:1042D0000B7404780A1218418A828B83A3A3E50A1F
:1042E000F090195AE0C454F0C0E0E0F50AA3E0F5FC
:1042F0000B7408780A121841D0E0450A8A828B8331
:10430000A3A3A3F090195AE08A828B83A3A3A3A34B
:10431000F074032CFCC39412409F901514E06003CA
:1043200002C682908303121B097A047B0090150950
:10433000E0F9123967740412188990151402C64DF9
:1043400090195A12C6B2F8EB99F9C3E8943212CC1C
:10435000004006901959E07009901970E07003024E
:10436000C58090195512BDA990832F780A1217376E
:10437000901C58780A120D835068901955C3E09428
:1043800033A3E09400505B901957E07024EE850E43
:1043900082850F8312C6F7121737901C58780A12BD
:1043A00016C3901C58780A12173712C6A9740180D8
:1043B00030850E82850F83E04D12C6F712173790B5
:1043C0001C58780A1216C3901C58780A1217371214
:1043D000C6F3121737901C58780A1216C390195753
:1043E000E4F0901955C3E09432A3E0940050030226
:1043F000C682901C58780A12173712C68790195730
:10440000E088828983703674FF12C6F712173790DE
:104410001C58780A1216C3901C58780A12173712C3
:10442000C6A312C6F7121737901C58780A1216C383
:10443000901C58780A12173712C6A38055E0440F13
:1044400012C6F7121737901C58780A1216C3901C20
:1044500058780A12173712C69274FF12C6F712174D
:1044600037901C58780A1216C3901C58780A1217F5
:104470003712C69274EF12C6F7121737901C58788D
:104480000A1216C3901C58780A12173712C692E007
:1044900044E0F0901C58780A121737E50A2401F816
:1044A000E4350BF9901749E8F0A3E9F090175012A2
:1044B000CA43C3EA94C0EB9403A2D265D033A340AD
:1044C00004740180027402F090152374F4F0A37454
:1044D000FF12CC318A0A8B0B7404780A121841E55A
:1044E0000AA312C6C5901528F090196FE4F0901732
:1044F0005812176190177112176D90177712C8E450
:10450000A3E8F0A3E9F0901C58741212D06E901C2E
:104510005C740612C17A901955F0A3F0901957F007
:10452000901959F0901514E06401701890150EE080
:104530007012901512E0700C7A047B00901509E05F
:10454000F9123973901514E4F0901970E064026068
:104550002990150B7401F0901518E0701D7401F08E
:104560009018E3E060069018E57401F0901510E0F3
:10457000C394644002E4F0E004F090197002C68035
:10458000901959E0700302C68290175012C8E4C314
:10459000EA98EB99A2D265D033500690196FE0608B
:1045A0003EE8240AF50AE439F50BC3E50A9AE50B5F
:1045B0009BA2D265D033500A90196FE07004740149
:1045C0008016C3E89AE99BA2D265D03390196FE0B8
:1045D0005009640170117402F08004640270089044
:1045E0001750EAF0A3EBF090832F780A1217379058
:1045F0001C58780A120D83402E90175012C6B2FA3A
:10460000EB99FBC3EA9464EB12CC014013C3E8942A
:10461000D9E99404A2D265D0335005901970802D49
:104620009019707402805A901957E07024EE850E2C
:1046300082850F8312C6F7121737901C58780A121A
:1046400016C3901C58780A12173712C6A974018035
:1046500030850E82850F83E04D12C6F71217379012
:104660001C58780A1216C3901C58780A1217371271
:10467000C6F3121737901C58780A1216C3901957B0
:10468000E4F07F060219B57423250AF87415350B7A
:10469000F92212C696227423250AF5827415350B69
:1046A000F5832212C69674FE2212C696ECF090197B
:1046B0005722E0F8A3E0F9EAC39822A3E09400A20D
:1046C000D265D03322F0901752E0F8EAC454F04893
:1046D00022F0901C5CE02401F0A3E03400F012C64C
:1046E000E68882898322901C5CE0245CF8A3E03495
:1046F00019F92212C696EAF090831F780A2274F004
:104700001218E374FB121873750A7D750B19780A79
:10471000121AF6EAFCEBFD7A427B1C12316374023A
:10472000121889901516E06401601E90197DE064EE
:10473000E1706312C8E1901753E8F0A3E9F07C033D
:104740007A5E7B1C79011239DF90197DE064E560A7
:104750000302C818A3E0F8740168600302C82F9030
:1047600081EEAC1AAD1B7405121786750A01F50BA4
:10477000780A121AF674021218D97A007B101236CF
:10478000B574021218899015167401F07C037A62D0
:104790007B1CF902C8D0E064E2700690150D02C8D7
:1047A00029E064E3705C901980E0F50EE4F50FF504
:1047B00010F51190197F12C8D8E4F50CF50D780E9C
:1047C000790A121724901975780E121746901983DA
:1047D000E0F50EE4F50F90198212C8D8780E790A28
:1047E000121724901979780E121746901979121B16
:1047F00009901975121755123A0374041218890298
:10480000C749E064E4600302C74990150EE07003F5
:1048100002C8D39015128011E064E67038A3E064FA
:1048200001600302C8D39015177401F002C8D37455
:104830000268600302C8D3901516E0640170099005
:1048400082EB1217551236C1901516E4F07C077AE8
:10485000627B1C8079E064E77079A3E06401707387
:1048600090197174E7F0901519E07012901758784C
:104870000E121737908333780E120D4D500D90198C
:1048800072E4F0A3745AF0A3E4803C850E0A850F0D
:104890000B85100C85110D908337780A1216B074B1
:1048A00010780A12164BE50A90197212C8EA240011
:1048B000E50B34ECF50B7408780A121841E50AA3ED
:1048C000F0850E0AE50AA3F07C047A717B19790160
:1048D0001239DF740502C980E0F50AE4C50AF50B58
:1048E00022901521E0F8A3E0F922F0850E0A850F49
:1048F0000BE50A2274F01218E375B43375B63E90D6
:10490000624B7401F09061A9F043B440E5B4A2E7B2
:1049100050FAE5BAC4540FFAE5BBF50A750B0074FA
:1049200004780A121860EA450AF50AE50B12BDE0A0
:10493000120DB290833B780E121737780A790E1257
:1049400010E090833F780E121737780A790E121212
:10495000FA908343780E121737780A790E1210E016
:10496000908347780E121737780A790E1210E07884
:104970000A120E2A901775E50AF0A3E50BF08003E2
:104980001218897F080219B574F61218E312C8E1EB
:10499000901755E8F0A3E9F090175312CA43EA24A0
:1049A000BAF8EB12CA2C5011A3E024BAF8A3E01213
:1049B000CA2C5005A374018033C3EA944612CA3747
:1049C000400D12C163C3EC9446ED12CA38500790F3
:1049D000175774028016C3EA94BF12CA37500AC32D
:1049E000EC94BFED12CA384004A37403F09017573B
:1049F000E0901C6BF08A0A8B0B7404780A12184141
:104A0000E50AA3F012C1638C0A8D0B7408780A12B0
:104A10001841EA54F0450A901C6DF0ECA3F07C05B7
:104A20007A6A7B1C79011239DF02BF1F34FAF9C39D
:104A3000E89479E9940022EB9405A2D265D0332260
:104A4000901521E0FAA3E0FB2274EC1218E38A0A25
:104A50008B0B7404780A12184190198D12CC09122C
:104A6000CC164401C0E012CC09D0E012CC5FF8E4CF
:104A7000341CF9E8FCE9FD901510E0F8A3E0FA60B9
:104A800077E8700302CB25C39AFE95E0FFEE4F60F6
:104A900059C3EE9401EF12CC014037E4F0901C753D
