:1000000002075EC2AFF5088114FFFFC2AFF5088199
:1000100026FFFFC2AFF5088138FFFFC2AFF50881A8
:100020004AFFFFC2AFF508815CFFFFC2AFF5088150
:100030006EFFFFC2AFF5088180FFFFC2AFF50881F8
:1000400092FFFFC2AFF50881A4FFFFC2AFF50881A0
:10005000B6FFFFC2AFF50881C8FFFFC2AFF5088148
:10006000DAFFFFC2AFF50881ECFFFFC2AFF50881F0
:10007000FEFFFFC2AFF508A110FFFFC2AFF508A158
:1000800022FFFFC2AFF508A134FFFFC2AFF508A100
:1000900046FFFFFF758701002274FC120724750AD2
:1000A00004750B00780A12074D74021207937A0048
:1000B0007B00790812055C7402120709850D8285A0
:1000C0000E83E0F47003A3E0F470030201FE850DDB
:1000D00082850E83E0F8A3E0F9E84970030201FE8F
:1000E0007402120789E0687003A3E0697010750953
:1000F00001024030C2AF75C9AB75C95B80FE53BE0B
:10010000FBE59DA2E650FAE5C654804449F5C6E5F4
:100110009E547F644970F853C67FE59EA2E740FA7B
:1001200053C680E59E547F70FA43BE04906270749B
:1001300008F0750A00F50B780A12074D7C807D01E6
:100140007A007B00790812055C740212070990019D
:1001500086E0F50AA3E0F50B7409780A12076DE54D
:100160000A2408FF53B4F375BC0075BC007CFC7D09
:10017000077A047B0079081203837E09EFC3940A8F
:10018000401C800774086E70027E467C007D087AF1
:10019000007B00EEF91203830EEEC39F40E6A8BD7C
:1001A000850D82850E83E8F9E5BCF8E0687003A34D
:1001B000E069704A850D82850E83E0F8A3E0F9744A
:1001C00002120789E8F0A3E9F0850D82850E837499
:1001D000FFF0A3F07409F5D575D480750A01780A8B
:1001E00012074D74021207937A007B101205E27415
:1001F00002120709C2AF75C9AB75C95B80FE750AEB
:1002000004780A12074D74021207937A007B007972
:100210000112055C7402120709850D82850E83E0C8
:10022000F47003A3E0F47003020373850D82850E5E
:1002300083E0F8A3E0F9E849700302037374021243
:100240000789E0F8A3E0F9850D82850E83E06870E8
:1002500003A3E0697010750900020830C2AF75C9C8
:10026000AB75C95B80FE74FF68700374FF6960033F
:1002700002037353BEFBE59DA2E650FAE5C6548027
:100280004449F5C6E59E547F644970F853C67FE53E
:100290009EA2E740FA53C680E59E547F70FA43BEA3
:1002A000049062707408F0750A00F50B780A120762
:1002B0004D7C807D017A007B00790112055C74021F
:1002C000120709900186E0F50AA3E0F50B7409789E
:1002D0000A12076DE50A243FFF53B4F375BC00759D
:1002E000BC007CFC7D077A047B0079011203837ECD
:1002F00002EFC39403401C800774086E70027E46B0
:100300007C007D087A007B00EEF91203830EEEC3B9
:100310009F40E6A8BD850D82850E83E8F9E5BCF80F
:10032000E0687003A3E069704A850D82850E83E062
:10033000F8A3E0F97402120789E8F0A3E9F0850D4B
:1003400082850E8374FFF0A3F07409F5D575D4800F
:10035000750A01780A12074D74021207937A007B1E
:10036000021205E27402120709C2AF75C9AB75C962
:100370005B80FE43BE03120094C2AF75C9AB75C962
:100380005B80FE74F7120648E9FEAFC7740F5EF596
:100390000A750B00740B780A12073AEA2400F8EB8E
:1003A000350BF9E82400E93480F9A2AFE433F50A0B
:1003B000C2AFEEC4540FFAE5C754F84AF5C7E99046
:1003C0000980F0E8A3F0A37470F0A374BDF0EC9082
:1003D0000985F0900984E054E0F0EDFCE04CF090E9
:1003E00009867420F0A37442F07409F5D575D480A1
:1003F00075D601000000000000000000000075D765
:1004000001E5D7A2E040FA8FC7E50AA2E092AF7FEC
:10041000020206AEE5096007E508D2AF024033E507
:1004200008D2AF020833E5096007E508D2AF024001
:100430003BE508D2AF02083BE5096007E508D2AF0B
:10044000024043E508D2AF020843E5096007E5082A
:10045000D2AF02404BE508D2AF02084BE509600776
:10046000E508D2AF024053E508D2AF020853E509D0
:100470006007E508D2AF02405BE508D2AF02085B37
:10048000E5096007E508D2AF024063E508D2AF0294
:100490000863E5096007E508D2AF02406BE508D2C2
:1004A000AF02086BE5096007E508D2AF024073E5CB
:1004B00008D2AF020873E5096007E508D2AF024031
:1004C0007BE508D2AF02087BE5096007E508D2AFFB
:1004D000024083E508D2AF020883E5096007E5081A
:1004E000D2AF02408BE508D2AF02088BE509600766
:1004F000E508D2AF024093E508D2AF020893E509C0
:100500006007E508D2AF02409BE508D2AF02089B26
:10051000E5096007E508D2AF0240A3E508D2AF02C3
:1005200008A3E5096007E508D2AF0240ABE508D2B1
:10053000AF0208ABE5096007E508D2AF0240B3E5BA
:1005400008D2AF0208B3E5096007E508D2AF024060
:10055000BBE508D2AF0208BB0002055874F61206CC
:1005600048890C740F550CF50A750B00740B780A4A
:1005700012073AEA2400F8EB3480F9E82400E93560
:100580000BF985C70BA2AFE433F50AC2AFE50CC483
:10059000540FFAE5C754F84AF5C7740A120789E000
:1005A000FEA3E0FFEE4F602CEEFAEFFB888289831A
:1005B000E08C828D83F088828983A3A882A9838CB2
:1005C000828D83A3AC82AD83EA24FF1AEB34FFFB58
:1005D000EA4B70D8850BC7E50AA2E092AF7F030211
:1005E00006AE74F7120648ED900980F0ECA3F0A374
:1005F0007462F0A37473F0A3E0541FF0740912073F
:1006000089E0F50AA3E0F50BE50A333354FC9009C1
:1006100085F07406780A12076DE50A900984F09057
:1006200009867412F0A37442F075D11E75D601EAE2
:10063000906271F0EBA3F0906270E0D2E1F0E0A282
:10064000E740FB7F020206AE250DC582C0E0E50E45
:1006500034FFC583C0E0E50DC3958224F910AF08CF
:1006600085830E85820D800885830E85820DD2AF2D
:10067000CEF0A3E520F0A3780AE608F0A3DEFAEFB7
:10068000F0A3E58124FBF8E608F0A3E608F0A30850
:1006900008E608F0A3E608F0A315811581D0E0FE76
:1006A000D0E0F815811581E8C0E0EEC0E022850EAB
:1006B00083850D82E0A3FEE0A3F520780AE0A3F68F
:1006C00008DFFAE0A3FFE0A3C0E0E0A3C0E0E0A3FE
:1006D000C0E0E0A3C0E010AF0885820D85830E80E6
:1006E0000885820D85830ED2AFD083D08222250D5E
:1006F000F58210AF08F50D400C150E8008F50D4081
:1007000002150ED2AF850E832200C0D0250D10AF8A
:1007100008F50D500C050E8008F50D5002050ED29F
:10072000AFD0D022250D10AF08F50D400C150E806E
:1007300008F50D4002150ED2AF22700422600D188C
:10074000C6C333C608C633C6D5E0F4182274028087
:1007500000C0E0F4041206EED0E012077C2275D04F
:100760000075813F750D80750E0102079B600C08B6
:10077000C6C313C618C613C6D5E0F422CAC0E0E645
:10078000F0A308DAFAD0E0FA22250DF582E4350E5E
:10079000F58322250DFCE4350EFD22120099120787
:1007A000A100000080FBFFFFFFFFFFFFFFFFFFFF37
:1007B000FFFFFFFFFFFFFFFFFFFFFFFFFFFFFFFF49
:1007C000FFFFFFFFFFFFFFFFFFFFFFFFFFFFFFFF39
:1007D000FFFFFFFFFFFFFFFFFFFFFFFFFFFFFFFF29
:1007E000FFFFFFFFFFFFFFFFFFFFFFFFFFFFFFFF19
:1007F000FFFFFFFFFFFFFFFFFFFFFFFFFFFFFFFF09
:100800004E354E351000007C41414141FFFFFFFF56
:10081000FFFFFFFFFFFFFFFFFFFFFFFFFFFFFFFFE8
:10082000000102030405060708090A0BFFFFFFFF8A
:10083000020D210222F1FFFFFFFFFFFFFFFFFFFF7D
:10084000FFFFFFFFFFFFFFFFFFFFFFFFFFFFFFFFB8
:10085000FFFFFFFFFFFFFFFFFFFFFF0229ECFFFF8E
:10086000FFFFFFFFFFFFFFFFFFFFFFFFFFFFFFFF98
:10087000FFFFFFFFFFFFFFFFFFFFFFFFFFFFFFFF88
:10088000FFFFFF022367FFFFFFFFFFFFFFFFFFFFE9
:10089000FFFFFFFFFFFFFFFFFFFFFFFFFFFFFFFF68
:1008A000FFFFFFFFFFFFFFFFFFFFFFFFFFFFFFFF58
:1008B000FFFFFF02214701FF0000B40000280028CD
:1008C00000283075A000A000A000A00000080008CB
:1008D000E001F000100010001000100010001000E7
:1008E00050005000500010001000D0070000000021
:1008F00000000F0001000500307507001000010026
:1009000081FF00000000FFFFFF8B2CA92C912CCD54
:100910002CFF02020208025000A0000000E80302BF
:1009200058850100003785025485010000321A0203
:100930006085010000C702025485010000331A02DD
:100940004C85010000DD02025485010000341A02CA
:100950004A85010000DF02025485010000351A02B9
:100960004885080000E002025485010000361A02A2
:100970004685010000371AFF0100FF20025885015B
:1009800000003A850254850100009B1A024E850042
:10099000000000000250850300000E0317005733CB
:1009A00057335733573357335733573357335733F7
:1009B0005733573357335733153627360F3602021E
:1009C00002020202020202010D00000010010258A0
:1009D000850100004385025485010000DE1A027E75
:1009E000850100004807025485010000DF1A0270EB
:1009F000850100009A81025485010000E01A026E10
:100A0000850100007181025485010000E11A026C29
:100A100085010000DD80025485010000E21A026AAF
:100A200085010000EF80025485010000E31A02688E
:100A300085010000CB80025485010000E41A0266A3
:100A400085010000B980025485010000E51A0264A6
:100A5000850100007F81025485010000E61A0262D0
:100A600085010000E71A01E8030577100A1C025807
:100A70008501000040850254850100008D1B103067
:100A80008002000036080250850300003808025238
:100A9000850100008D810254850100008D1B1040EE
:100AA0008002000037080250850300003A08025215
:100AB00085010000A781FFFFFFFF000130750302E1
:100AC000010600000000000000000000000000001F
:100AD0000000000000000000000000000000FFFF18
:100AE0000600800CE8031009426174746572792075
:100AF0004D6F6E69746F7205120A001900020A00C8
:100B00000201060302F0FF11FF00000000000000D8
:100B10000000000000000000000201061AFF4C0067
:100B20000215E2C56DB5DFFB48D2B060D0F5A71065
:100B300096E000010002CD42617474657279204D27
:100B40006F6E69746F726C656167656E64FFFE310C
:100B50003838323436360000EC04E604E004DA04B7
:100B6000D404CE04C804C204BC04B604B00400001B
:100B7000000A050005F604EC04E204D804CE04C41F
:100B800004BA04B004A604113A0000173A12000097
:100B9000000600FEFEFE00FEFEE50000000800FE6E
:100BA0000000000000FFFFFFFF00010A43686172C0
:100BB000616374657269737469632031000243680C
:100BC00061726163746572697374696320320008CD
:100BD0004368617261637465726973746963203319
:100BE000001043686172616374657269737469634C
:100BF00020340002436861726163746572697374C2
:100C000069632035000258850100003D8502548546
:100C1000010000CB1C027485030000B91902528543
:100C2000010000CC1C025485010000DD1C02768509
:100C3000010000BA19025285010000DE1C02548531
:100C4000010000EF1C027885020000BB19025285EA
:100C5000010000F01C025485010000011D027A858C
:100C6000000000CF19025085030000D01902528500
:100C7000010000021D025485010000131D027C8545
:100C8000040000D219025285010000141DE5C7546A
:100C9000F84405F5C779012200000080FB120C8D95
:100CA000B90003020D0BE479217808B80002800432
:100CB000F709D8FCE479297802B800028004F70922
:100CC000D8FCE4900280785879188002F0A3D8FC10
:100CD000D9FA781C9008B67A01BA00028007E4932A
:100CE000A3F608DAF97AD77B199008B778D7790490
:100CF0008015E493A3AD82AE838A828B83F0A3AA8E
:100D000082AB838D828E83D8E9D9E77582A97583FA
:100D1000FF7404120D3375829875830C7400120DE4
:100D20003375D00075813F751A80751B02759F0061
:100D3000020C9DC09FF59FE473D09F22D083D08288
:100D4000C09FE493C0E0740193C0E0740293F59FE8
:100D500022E066701008A3E066700A08A3E06670DF
:100D60000408A3E06622C3E7960809E7960809E7A6
:100D7000960809E796A2D265D03322C3E09608A36D
:100D8000E09608A3E09608A3E096A2D265D03322AD
:100D9000C00AC3E096F50A08A3E096420A08A3E059
:100DA00096420A08A3E096420AA2D265D033E50A29
:100DB0007001D3D00A22C3E7960809E7960809E72D
:100DC000960809E79622C3E09608A3E09608A3E0F8
:100DD0009608A3E09622C00AC3E096F50A08A3E0AD
:100DE00096420A08A3E096420A08A3E096450A70D4
:100DF00001D3D00A22080808E630E71112167A1249
:100E00000E0D080808C64480C618181822181818AD
:100E1000E9799EC608CAC608CBC608CCC6C37020EE
:100E20007996CACBCC7019798ECBCC70137986CCDD
:100E3000700EF9802ACA33CACB33CBCC33CC3319EA
:100E400030E7F2CCCBCA3350147004EA30E00DE442
:100E5000CA3ACACB3BCBCC3CCC500209C3E913C63F
:100E6000CC182313C6CB18C6CA18C6F922120EAD69
:100E700020F01430E72B74FFFCFBFA747F8022E42F
:100E8000FCFBFA7480801AB48008BC00F2BB00EF4F
:100E9000800F50EBF9E4C39AFAE49BFBE49CFCE47A
:100EA00099C6CC18C6CB18C6CA18C6F922E4C9C65A
:100EB00008CAC608CBC6D3330308CCC63392F0C3E6
:100EC000947F402E94184019C9B90704CACBCC228C
:100ED0005025C309CA33CACB33CBCC33CC33D9F476
:100EE00022F4600DC9CCC313CB13CBCA13CAD9F6F5
:100EF000CC22E4FCFBFA2214FCFBFA22E62618467C
:100F00001846184622E72719471947194722181883
:100F100018E60846087009E626087005E633F4224C
:100F20000822191919E70947097009E72709700507
:100F3000E733F4220922E6084608C3134608336063
:100F400002E633F422E7094709C313470933600275
:100F5000E733F422120F36601C120F456017120E91
:100F6000FC7007120F057001D322C0D0120F05705C
:100F700006D0D0B322C32233D0D0501430E0F6C311
:100F8000E7960809E7960809E7960809E796B32265
:100F900020E0D5E6970809E6970809E6970809E6EC
:100FA00097B32200120F36604F120F456012E754BC
:100FB0008066F6120F0E7011120F05703B090909B9
:100FC000F4F618F618F618F622120F227015120E03
:100FD000FC08080860EAE6447FF618768018E4F614
:100FE00018F622120EFC6016120F057012E4F608B5
:100FF000F608F608E65480F609090918181822EAD6
:10100000C0E0EBC0E0ECC0E0EDC0E0E687F0A4FBA0
:10101000ACF008E687F0A42CFCE435F0FA1809E6F9
:1010200087F0A42C4B60027401CA35F0FCE433FB5A
:1010300009E687F0D2F7A42CCB35F0FC1908E68737
:10104000F0A42BCC35F0FBE433FD0819E687F0D291
:10105000E7A42C4ACB35F0CD3400FC09E687F0D26A
:10106000E7A42DCC35F0FDE433FA0918E687F0D279
:10107000F7A42CCD35F0CA3400FC08E687F0D2E79F
:10108000D2F7A42ACC35F07A7E20E70B0ACB33CBFB
:10109000CD33CDCC33CC33CB3350147004ED30E0B2
:1010A0000ED2F1E4CD3DCDCC3CCC3B5005DA05C2AF
:1010B000F1EB547FC63308E63392F0FBE73309E7E0
:1010C00033C39A502D2B70190C0D4C4D701518060A
:1010D000E608C333700D20F10AA2F013F6E418807D
:1010E0000B4024E4F630F002768018F618F618F675
:1010F0008024D33B14501074FFA2F013F6187680AE
:10110000E418F618F6800FA2F013F618E63303F68B
:1011100018ECF618EDF6D0E0FDD0E0FCD0E0FBD006
:10112000E0FA22120F36601D120F457005191919C9
:10113000801A120F0E701F120F22C37003E667335E
:1011400019191940071818182208080874FFF6180A
:10115000F618F618F622120F226017120F057021EA
:1011600092F0120EFC7019501720F01408080809AC
:101170000909E7F61819E7F61819E7F61819E7F656
:1011800022120EFC60E6E869701F0808E62480F66B
:1011900008E436F618547FB47F0CE654806007F6F6
:1011A000E418F618F622181822E9C6CC08C6CD08AD
:1011B000C6CE08C6CFC0E0E8C0E0EAC0E0EBC0E0C1
:1011C00009E9F809E7FA09E7FBE6F918E6F8C3ECDC
:1011D00098ED99EE9AEBC2E7F5F0EFC2E795F05083
:1011E0000E600CEBCFFBEACEFAE9CDF9E8CCF8EAD9
:1011F000A2E7D2E7FAEB33FB13F5F0EEA2E7D2E772
:10120000FEEF33FFC5F013A2E730E601B313C5F0DC
:10121000C3C0E0C0F07F00C39BFB605E9418600F0A
:10122000401D14601AD0E023F9D0E0F80213048ABC
:10123000F0E9486003D2F0E4AFF0FAF9F8803BEB54
:1012400030E40D89F0EA6003D2F0E4AFF0F9CAF8B7
:10125000EB30E30D88F0EF6002D2F0AFF0E4CAC9E2
:10126000F8EB54076014FBC3EA13FAE913F9E81327
:10127000F8EF135002D2E0FFDBEDD0E0C0E030E742
:1012800039C3E49FFFF5F0EC98FC42F0ED99FD4284
:10129000F0EE9AFE42F0D0E0F9D0E0F8E5F0607AA6
:1012A000E923F9EE20E742D8028067C3EF33FFEC71
:1012B00033FCED33FDEE33FE80EAEC28FCED39FD26
:1012C000EE3AFED0E023F9D0E0F84002801BC3EEF6
:1012D00013FEED13FDEC13FCEF135002D2E0FF08F8
:1012E000B800067F7F74FF802EEF3350178CF020FC
:1012F000F00260100CBC000C0DBD00080EBE000416
:1013000008E860DFE933E813FFEE2313FE4F4D4C8E
:101310008008E95480FFE4FEFDFCEE33EF33F47007
:1013200004FCFD7E80D0E0FBD0E0FAD0E0F8D0E015
:10133000CFC618CEC618CDC618CCC6F922120F36A5
:10134000700418181822120F45700D74FFF6181942
:10135000F61819F61819F622E7548066F6120EFCF4
:10136000700F120F0570F014F608F608F608F680F4
:10137000D1120F05700CF608F608768008E6447F57
:1013800080EC120F25700C120F1160BFE65480F62E
:10139000E480BB120F11700519191980A5E8697056
:1013A0000C763F18768018F618F6E8F922E6CDC0DC
:1013B000E018ECC0E0E633CD33CDD313F6E719FCEB
:1013C000E7191933CC33C3947F400ECD9D502408C8
:1013D000E65480F6E418F6800FF4043D1450140827
:1013E000E6447FF6187680E418F618F6D0E0FCD0D4
:1013F000E0FD22CCD313CCFD18E4C6CBC0E018E44A
:10140000C6CAC0E00808ED08C633E613F618E43390
:10141000C675F003C3CA97CA09CB97CB199C400481
:101420007D08802EBD00030214E616B6FF050606F1
:10143000081618C3CA33CACB33CB33CA27CA09CB61
:1014400037CB193CC37D08803E187D0820E75CC679
:1014500033C6CA33CACB33CB33DDF1D5F0EB30E73B
:101460007BCA97CA09CB974ACB199C406F4B702512
:10147000E620E0218066187D08C3CA97CA09CB9789
:10148000CB199CD3C633C6CA33CACB33CB3350C96E
:10149000DDE7D5F0E1D3E4C636C608C636C608C6D1
:1014A00036C608C636C61818188031C3CA97CA0986
:1014B000CB97CB199CB34097C633C6CA33CACB333C
:1014C000CB33DD34D5F02EC6A2E0C640C8CA27CA49
:1014D00009CB37194A70BECB3CB480B90808E63353
:1014E00008E633601F181818D0E0FAD0E0FBD0E00F
:1014F000FCD0E0FD22187D08CA27CA09CB37CB19DA
:101500003CD3808013F618E4B67F11F618B6FF0EB0
:10151000F618C60470D20808768080CAF618F61845
:10152000F680C5080808EAC0E0EBC0E086F0E7A452
:10153000FA180986F0E7A42AFA180986F0E7A42A1F
:10154000FA180986F0E7A42AFA1986F0E7A4FBE561
:10155000F02AFA190886F0E7A42BFBE5F03AFA190D
:101560000886F0E7A42BFBE5F03AFA18180986F094
:10157000E7A4C5F02BFBE43AFA1908E7C5F0C6A4C6
:1015800026F6E5F03BFBE43AFA1886F0E7A4F6E528
:10159000F00826F6E43B08F6E43A08F6D0E0FBD083
:1015A000E0FA22E4CFC0E0E4CEC0E0E4CDC0E0E465
:1015B000CCC0E075F020E626F608E633F608E63300
:1015C000F608E633F6181818EC33FCED33FDEE336D
:1015D000FEEF33FFC3EC9709ED9709EE9709EF97FC
:1015E000191919400FFFEC97FC09ED97FD09EE97CB
:1015F000FE191906D5F0BFECF709EDF709EEF7096A
:10160000EFF7191919D0E0FCD0E0FDD0E0FED0E0F2
:10161000FF2212167D1818181215A312166919192F
:101620001922121669191919080808E6181818203D
:10163000E7E01215A312167D18181822090909E708
:1016400019191920E7DC080808E618181820E7031C
:101650000215A312167D1818181215A312167D185C
:10166000181812166919191922E4C397F709E49793
:10167000F709E497F709E497F722181818E4C396D6
:10168000F608E496F608E496F608E496F622601763
:10169000080808C6A2E713C618C613C618C613C69C
:1016A00018C613C6D5E0E9226016080808C6C31399
:1016B000C618C613C618C613C618C613C6D5E0EAA0
:1016C000227009080808226016181818C6C333C605
:1016D00008C633C608C633C608C633C6D5E0EA22F4
:1016E000E627F60809E637F60809E637F60809E6B8
:1016F00037F622E026F608A3E036F608A3E036F631
:1017000008A3E036F622E026F008A3E036F008A3AE
:10171000E036F008A3E036F022C3E697F60809E6C3
:1017200097F60809E697F60809E697F622C3E096C9
:10173000F008A3E096F008A3E096F008A3E096F086
:1017400022E056F608A3E056F608A3E056F608A3F2
:10175000E056F622E056F008A3E056F008A3E05663
:10176000F008A3E056F022E647F60809E647F60837
:1017700009E647F60809E647F622E0F608A3E0F690
:1017800008A3E0F608A3E0F622E6F008A3E6F008D6
:10179000A3E6F008A3E6F022E0FAA3E0FBA3E0FC56
:1017A000A3E0FD22E0F8A3E0F9A3E0FAA3E0FB2226
:1017B000E8F0A3E9F0A3EAF0A3EBF022CAC0E0E668
:1017C000F0A308DAFAD0E0FA22CAC0E0E0A3C582AA
:1017D000CCC582C583CDC583F0A3C582CCC582C5E7
:1017E00083CDC583DAE6D0E0CA22C3E498F8E49951
:1017F000F912182B8026C3E49AFAE49BFBE920E750
:10180000E912182BE498F8E499F922C3E498F8E473
:1018100099F912182BE498F8E499F9C3E49AFAE4D8
:101820009BFB22EB20E7CFE920E7E0B90010BB00EB
:1018300008E88AF084F8AAF022E4FBC8FA22EB70E8
:10184000227B10C833C8C933C9335007C39AC3DBDE
:10185000F280069A50012ADBEAC833F4C8C933F48F
:10186000C9FA2275F008E4C833C8C933C933C99A24
:10187000C99B5004C92AC93BD5F0ECFBC833F4C856
:10188000E4C9FA22600D08C6A2E713C618C613C63B
:10189000D5E0F322600C08C6C313C618C613C6D51C
:1018A000E0F422700422600D18C6C333C608C633A4
:1018B000C6D5E0F41822251A10AF08F51A400C1509
:1018C0001B8008F51A4002151BD2AF2200C0D0259C
:1018D0001A10AF08F51A500C051B8008F51A5002B3
:1018E000051BD2AFD0D022251AF58210AF08F51A09
:1018F000400C151B8008F51A4002151BD2AF851B42
:101900008322251AF582E4351BF58322251AF8E493
:10191000351BF922251AFAE4351BFB22251AFCE4B3
:10192000351BFD22E473251AC582C0E0E51B34FF98
:10193000C583C0E0E51AC3958224F810AF088583FB
:101940001B85821A800885831B85821AD2AFCEF050
:10195000A3E520F0A3780AE608F0A3DEFAEFF0A3EF
:10196000E58124FAF8E608F0A3E608F0A3E608F01B
:10197000A30808E608F0A3E608F0A315811581D0B6
:10198000E0FED0E0F8158115811581E8C0E0EEC0D9
:10199000E022251AC582C0E0E51B34FFC583C0E004
:1019A000E51AC3958224F910AF0885831B85821A36
:1019B000800885831B85821AD2AFCEF0A3E520F084
:1019C000A3780AE608F0A3DEFAEFF0A3E58124FB92
:1019D000F8E608F0A3E608F0A30808E608F0A3E696
:1019E00008F0A315811581D0E0FED0E0F81581152F
:1019F00081E8C0E0EEC0E022851B83851A82E0A367
:101A0000FEE0A3F520780AE0A3F608DFFAE0A3FFE2
:101A1000E0A3C0E0E0A3C0E0E0A3C0E0E0A3C0E03A
:101A2000E0A3C0E010AF0885821A85831B8008857B
:101A3000821A85831BD2AFD083D082020D39851BD9
:101A400083851A82E0A3FEE0A3F520780AE0A3F6DE
:101A500008DFFAE0A3FFE0A3C0E0E0A3C0E0E0A35A
:101A6000C0E0E0A3C0E010AF0885821A85831B8028
:101A70000885821A85831BD2AFD083D08222C0D042
:101A8000251AC582C0E0E51B34FFC583C0E0E51A16
:101A9000C3958224F310AF0885831B85821A8008C2
:101AA00085831B85821AD2AFC8F0A3E9F0A3EAF0C0
:101AB000A3EBF0A3790AE709F0A3D8FAECF0A3EDC1
:101AC000F0A3EEF0A3EFF0A3D0E0F0A3D0E0F0A3FA
:101AD000D0E0F0A3E520F0A3E5F0F0A322851B837E
:101AE000851A82E0C0E0A3E0F9A3E0FAA3E0FBA33B
:101AF000780AE0F608A3DFFAE0FCA3E0FDA3E0FE2D
:101B0000A3E0FFA3E0C0E0A3E0C0E0A3E0F5D0A322
:101B1000E0F520A3E0A3F5F010AF0885831B8582D4
:101B20001A800885831B85821AD2AFD082D083D0D9
:101B3000E0F8D0E03274048006740280027401C0C0
:101B4000E0F4041218E7D0E01217BC2274048004F9
:101B500074028000CCC0E0EDC0E0E51AC39CCCADBF
:101B60001B50011D10AF068C1A8D1B80068C1A8D20
:101B70001BD2AF1217C9D0E0FDD0E0FC22D083D039
:101B800082E9C0E0E493A3C386F0C5F095F0F908BC
:101B9000E493A386F0C5F095F0700BE493A3C3998A
:101BA0004005E9048002A3E475F002A42582F582D1
:101BB000E5F03583F583D0E0F9E493A3C0E0E49346
:101BC000C0E022D083D082ECC0E0EDC0E0E493A37B
:101BD000FCE493A3FDED4C600D121C0FEC24FFFC04
:101BE000ED34FFFD80EFE493A3FCE493A3FDED4C03
:101BF000600D121C4EEC24FFFCED34FFFD80EFD095
:101C0000E0FDD0E0FCE493A3C0E0E493C0E022C098
:101C1000E0C3E49396087401939618400FE493662A
:101C2000700808740193661870007019A3A3C3E4C8
:101C30009396087401939618A3A3400DD0E0D0E0CA
:101C4000D0E0021BFFA3A3A3A3A3A3D0E022C0E084
:101C5000C0F088F0E4936670080874019366187009
:101C600000A8F0A3A3700BD0F0D0E0D0E0D0E00249
:101C70001BFFA3A3D0F0D0E022FFFFFF74F61219E0
:101C800092EAFEEBFF8C0A8D0BEE2434F8E43FF968
:101C9000E8FCE9FDEE2435121F8FFAEE2437121FFF
:101CA0008FF8850AF0A4C885F00C850BF0A4250CEC
:101CB000F9EA28F8E439F97A257B0012182BEA8C26
:101CC000828D83F0FA131313541FF8EE28F8E43FC3
:101CD000F9E8245DF582E439F583E0C0E074075A41
:101CE000F8D0E0B800028004C313D8FCA2E0EE50A4
:101CF000082434F582E43F80182436121F8FF5F053
:101D0000EA84A8F0EE28F8E43FF9E82438F582E404
:101D100039F583E0F97F03021A3E74F7121992EA4B
:101D2000FEEBFFEE2434121F8FC0E0EE2435F58267
:101D3000E43FF583D0E0F08E828F83A3A3A3A3A317
:101D4000A3A3C082C0838E828F83A3A3A3A3A3E097
:101D5000F8A3E0F9D083D082E0C398F50AA3E09914
:101D6000F50BEE247F121F8F6401703EEE2480F588
:101D700082E43FF583C082C0838E828F83A3A3A3B6
:101D8000A3A3E0240108A3E03400F9D083D082E0CB
:101D9000687003A3E06970127CB97D04123291EE81
:101DA000247FF582E43FF583E4F0AC0AAD0BEEFA54
:101DB000EFFB121C7CE9F91229DE7F02021A3EC0F9
:101DC00082C083851A82851B83E0F8A3E0F9C3EA09
:101DD0009CEB9D5010C3EC98ED99401BC3EA98EB27
:101DE000995014800EC3EA98EB994007C3EC98ED24
:101DF000994004790180027900D083D08222EAC31D
:101E00009CFAEB9DFB2274EF12199290037EE06422
:101E1000086005E06407702A9061C8E060249003C0
:101E2000ACE0F4601DE0F875F00BA4C8AAF02AF944
:101E300074AE28FE740339FF8E828F83A3A3A3E0C0
:101E40007003021F14906060E0C0E0EE2468F58229
:101E5000E43FF583D0E0F0750E29750F05750A0093
:101E6000750B00E5D914F50CE5D95403F510601293
:101E7000740365106043E50C600AEE2467121F8F3F
:101E800070028075900524E06401601F121F8C6051
:101E9000047A0480027A00E50CC39AFA95E0FB12FA
:101EA00031298A0A8B0BEA450B70051234DD8064F8
:101EB000121F8C70048A0E8B0FE50C6012850E8247
:101EC000850F83F50DE5D9F0A3150DE50D70F6121C
:101ED0001F8C604474FC250CF50C780E121B39AC79
:101EE0000CA910EEFAEFFB12335174021218CCE970
:101EF0007026AA0AAB0B123921793D8E828F83A3FB
:101F0000A3A3A3E0FA7B00122F8BEEFAEFFB1232B1
:101F1000B51233637900806F740365106051850CCE
:101F2000127513007812121B39AC0EAD0FAA0AAB52
:101F30000B12331574021218CCEE2468121F8F6432
:101F4000807004747F8001E0F50E780E121B3DE571
:101F500010F50E780E121B3DA90CAC0AAD0B9003C8
:101F6000ACE0FA7B00122F6174021218CC8013903F
:101F7000037EE06408600BAC0EAD0FEEFAEFFB12CF
:101F800033DB1234E979017F0A021A3EEE2483F52D
:101F900082E43FF583E02274F212199274FC121865
:101FA000B6EAFEEBFF890BA2AFE433F50AC2AF023B
:101FB0002061E0601B780E121B39AC0DA910EEFAFF
:101FC000EFFB12334B74021218CC7404250DF50D7F
:101FD0007401250DF5D98510D9E50D6018F50C852E
:101FE0000E82850F83E0F5D9A385820E85830F15B8
:101FF0000CE50C70EA75E195EE2463F8E43FF97A9C
:10200000007B00A2AFE433F50DC2AF88828983E084
:10201000FCA3E0FDEC4D603A88828983E0FAA3E0FE
:10202000FB8A828B83E0FCA3E0FD88828983ECF04D
:10203000A3EDF08A828B83E4F0A3F088828983E0A9
:10204000FCA3E0FDEC4D700A88828983A3A3E4F031
:10205000A3F0E50DA2E092AF1239219004C0E00494
:10206000F0EE2463121F8FF8A3E0F9E8496064EEF4
:102070002463121F8F2402F8A3E03400F9888289B8
:1020800083E5822402F50EE43583F50FE0F50DA318
:10209000E0F510EE2462121F8F640170369061D05B
:1020A000E0F8121F8C60047C0480027C007480C302
:1020B00098FA95E0FBE50D2CF8E43400F9E82402E9
:1020C000F8500109C3EA98EB99A2D265D0334003D6
:1020D000021FB29004C0E0604D9004C1E0F890048B
:1020E000C0E0C398500C7402650B703A9004C2E0D3
:1020F00060348E828F83A3A3A3A3E0851A82851BFD
:10210000831221367402121902E81221369004BF9C
:10211000E028F0740212191CAA1AAB1B7901122FC5
:10212000B59004C0E4F0E50AA2E092AF740412187E
:10213000CC7F07021A3EF0A3E4F09004C0E0F8223E
:102140008521878522C622C0E074EB121A7EA2AFD9
:10215000E433F50AC2AF759B00906182E0A2E050C3
:1021600030E591A2E0502A7591FE7401652170213D
:102170001222DA1234291222C8121B4C1227887438
:10218000041218CCE9640170057901123471121E31
:1021900006906182E0A2E5505DE591A2E550577599
:1021A00091DF90037EE064076005E06408702F1201
:1021B00022DA74016521703E1234291222C8121BE2
:1021C0004C12278874041218CCE964017005790157
:1021D0001234717901EEFAEFFB121F978018E06458
:1021E0000D70139003A0E004F064287002E4F07A0C
:1021F00000E0F91234EF906182E0A2E6400302228F
:102200009DE591A2E6400302229D7591BF90037E59
:10221000E06405700812341112341D800312341763
:1022200075210012347DE990037FF079001234713A
:102230001231FB7A017B0090037DE0F91238F190B6
:102240007803E064427056900528E014F0704EC2A6
:10225000AF12225400782AD0E0F618D0E0F6E59FBD
:102260005407F87005750FFF8003750F7FC4C0E039
:102270007829E6F50C08E6550FF50D740B780C126D
:102280001894D0E0250CF8906270E0A2E740F8E8DE
:10229000C333906272F0906270E0D2E0F09061819E
:1022A000E0A2E35009E5E9A2E3500375E9F7A3E0F2
:1022B000A2E75009E591A2E7500375917FE50AA2D4
:1022C000E092AF7F08021ADD8E828F83E0F8A3E0F0
:1022D000C82416F582E438F583229003ACE0F87543
:1022E000F00BA4C8AAF02AF974AE28FE740339FFD3
:1022F00022C0E0C0D0C082C083906183E0A2E050E1
:1023000009E5BFA2E0500375BFFEE0A2E15009E578
:10231000BFA2E1500375BFFDE0A2E25009E5BFA2F4
:10232000E2500375BFFBE0A2E35009E5BFA2E35012
:102330000375BFF7E0A2E45009E5BFA2E4500375BE
:10234000BFEFE0A2E55009E5BFA2E5500375BFDF8E
:10235000E0A2E65009E5BFA2E6500375BFBFD083F7
:10236000D082D0D0D0E032C0E074F2121A7EE5A75D
:10237000A2E6500FE5A1A2E6500953A7BF75A1BF81
:102380001223BBE5A7A2E5500CE5A1A2E550065338
:10239000A7DF75A1DFE5A7A2E15009E5A1A2E15001
:1023A0000375A1FDE5A7A2E2500CE5A1A2E250064B
:1023B00053A7FB75A1FB7F01021ADD74F712199276
:1023C00075210190037EE0640670151233878A82BE
:1023D0008B83A3A3A3A3A3A3E0FAA3E0FB1233FF81
:1023E000A2AFE433FED2AF900384E0640170187AA8
:1023F000207B0090037DE0F91239B17A207B0090B8
:10240000037DE0F91238F7906182E0D2E6F09005A2
:1024100025E0602185C6228016900383E064017068
:1024200008E5C654F84405F5C653BEFC12214074B5
:1024300001652160E4EEA2E092AF7F02021A3EFF46
:102440008E238F24858228858327851A82851B8386
:10245000E0CEA3E0CF852882852783EBC9EAC8EDCB
:10246000CBECCA75F010C3E833C8E933C9EA33CA04
:10247000EB33CBC3EA9EF526EB9FF525B35004ABB7
:1024800025AA26EC33CCED33CDD5F0DAAE23AF243C
:102490002274E912199274FA1218B6EAFEEBFF8C54
:1024A0000C8D0D123435EAF8EBF9ECFAEDFB8E8267
:1024B0008F831217B090037EE024F7C39405500673
:1024C0007516010225F81233878A0A8B0BEA450B31
:1024D00070030225F5EEFCEFFDAA1AAB1B12342F98
:1024E000850A82850B83A3A3780E12177A9082D473
:1024F000780E121741851A82851B83781212177A7B
:102500009082D47812121741780E7912120DB650BB
:102510001F780E7912121719908240780E120DD67C
:102520004047850E16850F178510188511198045AF
:102530009082408512168513178514188515197811
:1025400016790E1217197816120DD6501C75160032
:102550007517007518007519017816791212171978
:102560007816790E1216E0800C7516017517007535
:102570001800751900740978161216C190833878FE
:102580000E12177A7816790E1215A3850A82850B1A
:1025900083A3A3A3A3A3A312261612182B880E8924
:1025A0000FE4F510F5117816790E1216E074041286
:1025B000190212261612182BE8FA8A0EE4F50F7883
:1025C00016790E120DB650077816790E121719905B
:1025D000037EE06408600AE064066005E06405705C
:1025E0002090823C7816120DD650169082387816BC
:1025F0001216F3800C751600751700751800751902
:1026000000850C82850D83781612178974061218BE
:10261000CC7F10021A3EE0F8A3E0F97AD07B0322C7
:1026200074F7121992123447900523E06401701078
:10263000906245E4F0A3F053F4F343FE0C5390F39F
:102640001233EDE5C654B84441F5C6E59E544764DF
:102650004170F8906185740FF0900521E0F47002EC
:10266000A3E0604E900522E0600814601B14602E09
:102670008040750A01750B00900521E0780A121858
:10268000A3E50AF45280802A750A01750B009005B3
:1026900021E0780A1218A3E50AF452908014750A12
:1026A00001750B00900521E0780A1218A3E50AF4E1
:1026B00052A079007F02021A3E74F7121992E9FEC5
:1026C000EAFF12344774016E700C7A807B0090032D
:1026D0007DE0F91238F1903A90E493F46008E493C5
:1026E000F91231EF800953C6B8E59E544770FA12CB
:1026F00033F3900523E06401700312321390052137
:10270000E0F47002A3E0604B900522E060081460E2
:102710001A14602C803D750A01750B00900521E0AC
:10272000780A1218A3E50A42808028750A01750B01
:1027300000900521E0780A1218A3E50A4290801360
:10274000750A01750B00900521E0780A1218A3E5BF
:102750000A42A01233878A0A8B0BA80AA90BE84900
:102760006014E5E170FCE82414F582E439F583E0B7
:10277000F46003E0F5E174016F700A7A0190037D63
:10278000E0F912397B0226B474F11219928A0A8B8D
:102790000B8C0C8D0D9082D4780A121741740F1295
:1027A0001902780E12177A9082D4780E1217417897
:1027B0000A790E120DB69082405010780A790E12E6
:1027C0001719780A120DD64014800E780E790A1265
:1027D0001719780E120DD650047901800279007F06
:1027E00008021A3E74ED1219928A0A8B0B8C0C8D1A
:1027F0000D9082D4780A1217417413121902780EC0
:1028000012177A9082D4780E121741780E790A1234
:102810000DB64011780A790E121719AA0AAB0BAC43
:102820000CAD0D802275120075130075140075151E
:10283000017812790E1217197812790A1216E0AA85
:1028400012AB13AC14AD157F0C021A3E9082D478F3
:102850000A12177A8A828B83780A1217547F04022D
:102860001A3E74F51219928C828D83780A12177AA7
:102870008A828B83780A12172D1228BAC3E09CF043
:10288000A3E09D1228AC4022908308780A12177AA0
:102890008A828B83780A1217068A828B83A3A3A36A
:1028A000A3E02420F0A3E0344EF080A0F0888289D9
:1028B00083C3E09420A3E0944E22EA2404F8E43B8E
:1028C000F98C828D83A3A3A3A3E0FCA3E0FD8882FF
:1028D00089832274F5121992E9FE9004DBE0FAA3D1
:1028E000E0FBEE29F8E433F9740128F582748139AC
:1028F000F583E02AF50AA3E03BF50B780A121B39B1
:1029000090825412179812244074021218CC8A0A2A
:102910008B0B8C0C8D0D7410780A1216A8AA0AABBA
:102920000B7F04021A3E74F11219928A0E8B0F8CDF
:10293000108D117411121902121B50741112190208
:10294000E02401F50AA3E03400F50BE4F50CF50DE5
:10295000780E790A121523908234780A12177A7841
:102960000E790A121523AA0EAB0FAC10AD1112246A
:102970004074021218CC8B0BEA450B60047A01807C
:10298000027A00EC2AFCE43DFD7413121902E0F80F
:10299000A3E0F9E8FEE9FFECF8EDF97A717B0212A9
:1029A000182B880A890BE4F50CF50D8E828F83783D
:1029B0000A121789ECF8EDF97A717B0212182B8A4A
:1029C0000A8B0B7405780A1218A38E828F83A3A337
:1029D000A3A3E50AF0A3E50BF07F08021A3EC0822C
:1029E000C083E9906000F0D083D08222C0E0C0D0E4
:1029F000E8C0E0E9C0E0A9A8D2AFC2C7751C00E9F1
:102A0000A2E7E433F8E9A2E792AFD0E0F9D0E0F82A
:102A1000D0D0D0E032C2AF02000022120D3CEACB8F
:102A200007120D3CF3CB07120D3CF7CB07120D3C00
:102A300016CC07120D3C39CC07120D3C8ACC07127C
:102A40000D3CD5CC07120D3CFBCC07120D3C1CCD28
:102A500007120D3C25CD07120D3C2ECD07120D3C63
:102A6000F1CD07120D3C22CE07120D3C82C4071295
:102A70000D3C95C407120D3CC6C407120D3C00C5A1
:102A800007120D3C59C507120D3CA0C507120D3C9D
:102A9000E8C507120D3C17C607120D3C46C60712C3
:102AA0000D3C7DC607120D3CC4C607120D3CDDC6A9
:102AB00007120D3C32C707120D3C4BC707120D3CE5
:102AC00099C707120D3CD3C707120D3C4FED0612F4
:102AD0000D3C52EE06120D3C8BEE06120D3CAEEE96
:102AE00006120D3CC0EE06120D3CFEEE06120D3C29
:102AF0007AEF06120D3C42F006120D3C64F006120D
:102B00000D3CFBF006120D3C4DF106120D3C7EF122
:102B100006120D3C8BF106120D3CF5F106120D3C30
:102B20004CF206120D3C4FF206120D3C88F20612D2
:102B30000D3C8BF206120D3C95F206120D3CE9F2AB
:102B400006120D3C2AF306120D3C5DF306120D3CF5
:102B50009AF306120D3C9CF406120D3C40F5061249
:102B60000D3CA9F506120D3CE7F506120D3CCFB859
:102B700007120D3CF7B807120D3C24B907120D3CA3
:102B80005CB907120D3CBAB907120D3C06BA071220
:102B90000D3C6DBA07120D3CADBA07120D3CEABAF6
:102BA00007120D3C18BB07120D3CC2BB07120D3CAF
:102BB000CCBB07120D3CD9BB07120D3C0CBC071255
:102BC0000D3C18BC07120D3C30BC07120D3C3ABC42
:102BD00007120D3CA3E007120D3CB1E007120D3CBB
:102BE000C9E007120D3CE0E007120D3CC8ED0512EC
:102BF0000D3C72EE05120D3C85EF05120D3C01F007
:102C000005120D3C1FF105120D3C5BF105120D3C48
:102C1000F6F105120D3CDAF205120D3CA6F3051291
:102C20000D3C34F505120D3CA5F505120D3C5FF683
:102C300005120D3C51F705120D3C91F705120D3CA4
:102C400045F805120D3C77F805120D3C6DFA05129A
:102C50000D3CAFFA05120D3CCDFA05120D3C33FBCD
:102C600005120D3C02FC05120D3CC6FC05120D3C84
:102C7000E5FE05120D3C6E8707120D3C58880712C1
:102C80000D3C038907120D3C548907120D3C048A40
:102C900007120D3C758A07120D3C5A8B07120D3C2A
:102CA0008E8B07120D3C878C07120D3CC48C0712CB
:102CB0000D3CA08D07120D3CDF8D07120D3CFB8DE6
:102CC00007120D3C66D707120D3CEAD707120D3CE0
:102CD00015D807120D3C2FD907120D3CC8BC07129E
:102CE0000D3CDEBC07120D3CFCBC07120D3C0DBEBA
:102CF00007120D3C17BE07120D3C42BF07120D3CD8
:102D000039C007120D3CA6C007120D3C5C8E07129D
:102D10000D3C928F07120D3CC98F07120D3C20907D
:102D200007120D3C359207120D3C97A505120D3C7C
:102D300023A605120D3C87A705120D3C93A705128B
:102D40000D3CCEA705120D3C3DA805120D3C46A931
:102D500005120D3C4FAA05120D3C16AB05120D3C99
:102D600073AC05120D3C91AC05120D3CAEAC0512D6
:102D70000D3C5BAD05120D3CD8AD05120D3C00AE0F
:102D800005120D3CCAB005120D3CCFB005120D3C2A
:102D9000E8B205120D3C36B305120D3CA6B3051280
:102DA0000D3CE4B305120D3CC0B405120D3C80B5DA
:102DB00005120D3CCCB505120D3CCFB505120D3CEE
:102DC00013B605120D3C5BB605120D3C9AB6051202
:102DD0000D3CBCB605120D3CF0B605120D3C53B7C8
:102DE00005120D3C943A00120D3CA23A00120D3C23
:102DF000F53A00120D3C143B00120D3C593B0012F9
:102E00000D3C9D3C00120D3C383D00120D3C7C3DBC
:102E100000120D3CA63D00120D3C153E00120D3C6B
:102E20005B3E00120D3CD23E00120D3C833F00126F
:102E30000D3C818505120D3C918505120D3C3286B5
:102E400005120D3C8E8605120D3C4B8705120D3C7C
:102E5000678805120D3C998805120D3CC88805123B
:102E60000D3C758A05120D3CEC8C05120D3C5C8FF7
:102E700005120D3C4E9005120D3C479105120D3C7C
:102E80004E9305120D3C429605120D3C71970512AA
:102E90000D3C759905120D3C859A05120D3C149C4C
:102EA00005120D3C059D05120D3C539D05120D3C70
:102EB000C29D05120D3CE69D05120D3C379E051284
:102EC0000D3CD8A205120D3CD9A305120D3C3AA425
:102ED00005120D3C65A405120D3C2BA505120D3CF9
:102EE000B9A207120D3CC3A207120D3C08A307129A
:102EF0000D3C1CA307120D3CACA307120D3CE5A32F
:102F000007120D3C20A407120D3C49A407120D3CEA
:102F10009DA407120D3CB2A407120D3CD4A40712C5
:102F20000D3CE9A407120D3CFDA407120D3C12A5AF
:102F300007120D3C4CA507120D3C78A507120D3C5D
:102F4000B0A507120D3C12A607120D3C84A607126D
:102F50000D3CC7A607120D3CF1A607120D3C1CA79D
:102F600007120D3C98DE07120D3C82CF06120D3C75
:102F700065D006120D3CE0D006120D3C1BD10612A6
:102F80000D3C6CD206120D3CFAD206120D3C8CD5CB
:102F900006120D3C3ED606120D3C4AD706120D3CD9
:102FA000BDD806120D3C16D906120D3C3DB00712D5
:102FB0000D3C80B007120D3C04B107120D3CDBB391
:102FC00007120D3CF4D407120D3CA6D507120D3C98
:102FD000A2D607120D3CE1D607120D3C3BD70712D3
:102FE0000D3C5ED907120D3CC1D907120D3C5EDACB
:102FF00007120D3C93DA07120D3CC3DA07120D3CA1
:10300000FEDA07120D3C1EDB07120D3C6F9907120A
:103010000D3CFB9907120D3CBA9A07120D3CD29B4E
:1030200007120D3CEC9D07120D3CEEB806120D3C4C
:1030300013B906120D3CE0B906120D3CB4BA0612E3
:103040000D3C21BB06120D3C61BB06120D3CFDBBC5
:1030500006120D3C31BD06120D3C0CBE06120D3C95
:103060006BBE06120D3CF7BE06120D3C65BF061284
:103070000D3CF1BF06120D3C37C006120D3CA9C035
:1030800006120D3C3BC106120D3CDCC106120D3C84
:10309000FCC106120D3C44C206120D3C8DC2061244
:1030A0000D3CA9C206120D3CCFC206120D3C49C30D
:1030B00006120D3C57C306120D3CE6C306120D3C2A
:1030C0004FC406120D3C239E07120D3CA89E07120A
:1030D0000D3CEA9E07120D3CCE9F07120D3C3BA013
:1030E00007120D3C7FA007120D3CC3A007120D3C38
:1030F000F0A007120D3C18A107120D3C50A10712B9
:103100000D3C8EA107120D3CB5A107120D3C2FA25C
:1031100007120D3C79A207120D3C3DDC05120D3C57
:10312000DCDD05120D3C14E005120D3C68E00512D3
:103130000D3C93E005120D3C6FE105120D3C9FE143
:1031400005120D3CCEE105120D3CE1E105120D3CEE
:1031500022E205120D3C4FE205120D3C9DE20512E4
:103160000D3CD9E205120D3C1EE305120D3C6BE34C
:1031700005120D3CE5E305120D3C26E605120D3C5B
:1031800010E805120D3C4CE805120D3CDBE9051278
:103190000D3C20EA05120D3C93EA05120D3CE8EACD
:1031A00005120D3CF2EA05120D3CBEEB05120D3C7A
:1031B000E9EB05120D3C75EC05120D3C94ED051282
:1031C0000D3CA5ED05120D3CB0E306120D3C29E4C3
:1031D00006120D3CE3E906120D3CEEEA06120D3C28
:1031E00097EC06120D3C25ED06120D3C73E9041216
:1031F0000D3CF4E904120D3C21EA04120D3C6AEA8C
:1032000004120D3C6BEB04120D3CAFEB04120D3CB1
:10321000E5EB04120D3C61ED04120D3CE3ED0412EC
:103220000D3CFEED04120D3C6FEE04120D3C2CEF34
:1032300004120D3CEFEF04120D3C7DF004120D3C26
:1032400034F104120D3C47F104120D3CE0F104127C
:103250000D3C77F204120D3C9EF204120D3C07F374
:1032600004120D3C51F304120D3C9FF304120D3C6B
:1032700044F404120D3CE2F404120D3C6FF5041208
:103280000D3CE0F504120D3C27F604120D3C7FF6D0
:1032900004120D3CB1F604120D3C6BF704120D3C08
:1032A00072F804120D3CBBF804120D3CD8F804125D
:1032B0000D3CF7F804120D3C2AFA04120D3CE1FA19
:1032C00004120D3C06FB04120D3C1BFB04120D3CCA
:1032D0008BFB04120D3CCCFB04120D3CF0FC0412E1
:1032E0000D3C71FD04120D3CBFD906120D3C0ADAEB
:1032F00006120D3C16DA06120D3CEADA06120D3CF7
:1033000001DB06120D3C3EDB06120D3C6FDB0612A4
:103310000D3CA0DB06120D3CD8DB06120D3C2EDC6A
:1033200006120D3C44DC06120D3C80DC06120D3CFE
:1033300093DC06120D3CBADC06120D3CEEDC0612E4
:103340000D3C14DE06120D3C5EDF06120D3C5AE009
:1033500006120D3C77E106120D3CF43F00120D3CC5
:10336000008006120D3C3B8006120D3C8D83061238
:103370000D3CE98406120D3CA88506120D3C0F8910
:1033800006120D3CF98906120D3C458A06120D3CC9
:103390005F8A06120D3C9C8A06120D3CA78A061213
:1033A0000D3CE68A06120D3CEF8A06120D3C998B05
:1033B00006120D3C708C06120D3CC48C06120D3C9E
:1033C000218D06120D3C938D06120D3C2BB8051273
:1033D0000D3C8ABB05120D3C90BB05120D3CC1C2D1
:1033E00005120D3CC8C605120D3C3BC807120D3C2A
:1033F000D1C807120D3CE7C807120D3C40C907129F
:103400000D3C84C907120D3CBEC907120D3C56CABB
:1034100007120D3CC5CA07120D3CCECA07120D3C5F
:10342000DACA07120D3CF4CA07120D3C1ECB071274
:103430000D3C33CB07120D3C95CB07120D3CBCCB9A
:1034400007120D3C8DB407120D3C9AB407120D3CC7
:10345000B4B407120D3CE7B407120D3C25B50712B2
:103460000D3C8AB507120D3C9FB507120D3CAAB55D
:1034700007120D3CB7B507120D3CCEB507120D3C37
:10348000DCB507120D3CE7B507120D3CF3B507128A
:103490000D3C02B607120D3C0DB607120D3C30B6BE
:1034A00007120D3CD4B607120D3CE4B607120D3CD2
:1034B000FEB607120D3C1BB707120D3C36B70712BC
:1034C0000D3C5BB707120D3C66B707120D3C7BB78E
:1034D00007120D3C8FB707120D3CF0B707120D3CD9
:1034E000F6B707120D3CFCB707120D3C02B80712E5
:1034F0000D3C1AB807120D3C4DB807120D3C6BABD2
:1035000006120D3C02AC06120D3C9AAC06120D3CA4
:103510008AAD06120D3CC1AD06120D3CD4AD0612AB
:103520000D3C42AE06120D3CDDAF06120D3C04B060
:1035300006120D3CA6B006120D3CDBB006120D3C87
:10354000ECB006120D3C65B106120D3C86B10612B8
:103550000D3C9EB106120D3CF6B206120D3CFFB4B6
:1035600006120D3C4FB706120D3C52B806120D3C28
:10357000A1B806120D3CE28E06120D3CDF8F06123A
:103580000D3CCA9006120D3CD49006120D3CF690EC
:1035900006120D3C029106120D3C549206120D3C8F
:1035A000839206120D3CB39306120D3CF59306125E
:1035B0000D3C219506120D3CF79506120D3C4996DF
:1035C00006120D3CA89606120D3CDF9606120D3C25
:1035D0001A9706120D3CB59A06120D3CCE9A0612A9
:1035E0000D3C509B06120D3C5E9B06120D3CB39B9E
:1035F00006120D3CC19B06120D3C2E9C06120D3C82
:10360000A09C06120D3CE69C06120D3C72C40612EC
:103610000D3C94C406120D3C7EC606120D3C23CA16
:1036200006120D3C66CB06120D3C40CC06120D3C3A
:103630003AFE06120D3C5FFE06120D3CD0FE06124D
:103640000D3C0DF606120D3C16F606120D3C1FF64B
:1036500006120D3C50F706120D3C6FF906120D3C98
:10366000A5F906120D3CDFF906120D3C15FA0612FB
:103670000D3C4FFA06120D3C83FA06120D3CAFFAD0
:1036800006120D3CF8FA06120D3C32FB06120D3CF8
:103690007AFB06120D3CD0FB06120D3C05FC06120F
:1036A0000D3C60FC06120D3C9AFC06120D3CEBFC36
:1036B00006120D3C21FD06120D3C5BFD06120D3C71
:1036C00089FD06120D3CACFD06120D3CE5E2071229
:1036D0000D3C11E307120D3C6CE307120D3C76E341
:1036E00007120D3C86E307120D3C62CF07120D3C1A
:1036F00089CF07120D3CB3CF07120D3C37E40712F8
:103700000D3C84E407120D3CA6E407120D3CD2E404
:1037100007120D3C4DCA05120D3CB2CC05120D3CF2
:10372000FDCD05120D3C55CE05120D3C3DCF0512C9
:103730000D3CC5CF05120D3C4AD005120D3C78D08A
:1037400005120D3C57D305120D3C79D305120D3CE3
:103750002AD405120D3C64D405120D3CA4D40512E4
:103760000D3CB4D505120D3CF3D505120D3C40D6E9
:1037700005120D3C89D605120D3CAFD605120D3C45
:10378000C9D605120D3C3DD705120D3C4DD705128B
:103790000D3CCCD805120D3CF1D805120D3C20D9BA
:1037A00005120D3CA4DA05120D3CE7DA05120D3CBA
:1037B00018DC05120D3C44A707120D3C9CA707120C
:1037C0000D3CE4A807120D3C53A907120D3C02AAB8
:1037D00007120D3C21AA07120D3C75AA07120D3CD9
:1037E000B3AA07120D3C70E107120D3C81E10712EC
:1037F0000D3C24E207120D3C1CE507120D3C5BE575
:1038000007120D3C38E607120D3C44E607120D3C4A
:1038100050E607120D3C2FE207120D3C3FE2071263
:103820000D3C4EE207120D3CDFE207120D3CF2FEAA
:1038300005120D3C76FF05120D3CDCFF05120D3C18
:10384000F83F00120D3C2CDB07120D3C96DC0712F2
:103850000D3CF7DC07120D3C008007120D3C8980FF
:1038600007120D3CA08007120D3C628107120D3C2F
:10387000438207120D3CB98307120D3C8A8407125C
:103880000D3CDE8507120D3C668607120D3CABE54C
:1038900007120D3CC5E507120D3CFC9307120D3CC9
:1038A000069407120D3C469407120D3C8F940712A4
:1038B0000D3CC99407120D3C1F9507120D3C3E9517
:1038C00007120D3C479507120D3C989507120D3CC9
:1038D000C19507120D3CD69507120D3C469607126E
:1038E0000D3CD49607120D3C189707120D3C4097DB
:1038F00007120D3CBF9707120D3C029807120D3CB2
:103900003F9807120D3C519807120D3C7098071212
:103910000D3C799807120D3C439907120D3CFADCD7
:1039200007120D3C4BDD07120D3CD4DD07120D3C98
:103930003ADE07120D3C30D207120D3C5AD2071264
:103940000D3C54D307120D3C83D307120D3C09D410
:1039500007120D3CACDF07120D3CA7FD04120D3C15
:10396000DDFD04120D3C16FE04120D3C6FFF041227
:103970000D3C90E307120D3CA6E307120D3CB0E3AB
:1039800007120D3C06E407120D3C953F00120D3C5A
:10399000C5AB07120D3CDAAB07120D3C8AAC07121F
:1039A0000D3CCAAC07120D3CE3AC07120D3C16AD42
:1039B00007120D3C63AD07120D3C97AD07120D3C8D
:1039C000D9AD07120D3CD7AF07120D3C6F9D061203
:1039D0000D3C26A106120D3CB8A206120D3C0FA309
:1039E00006120D3C2EA306120D3C8BA306120D3CB5
:1039F00010A506120D3CF4A506120D3CEFA9061207
:103A00000D3CC3AA06120D3C00B004120D3C1BB6BF
:103A100004120D3C29C404120D3CFFC404120D3CD9
:103A20001DC504120D3C52C704120D3CBBCC041240
:103A30000D3CE3D404120D3C77D504120D3C2BD67B
:103A400004120D3C45D804120D3CF4D804120D3C70
:103A500063DC04120D3CB0C007120D3C18C1071204
:103A60000D3C35C107120D3C07C207120D3C65C263
:103A700007120D3C39C307120D3C65E507120D3CDA
:103A8000EEE507120D3C1AE607FFFFFF31B1E1FF3B
:103A9000FFFFFFFFC082C0839002EC804C7F0102D9
:103AA00019F8C082C0838A828B83E064B07038A327
:103AB000E070348A828B83A3A3A3A3E0F874126816
:103AC0007010EA240BF582E43BF583E06401701783
:103AD0008005741B6870107C017D008A828B83A333
:103AE000A3123C97122FF78005EAF0A3EBF0D083E6
:103AF000D082020D3974F7121926E99002EBF0908A
:103B00000350E0049002EAF07A047B00122FDF12E7
:103B10002D27808974F41219268A0A8B0BEB5480A6
:103B200060309002EBE0F91238D98A0C8B0DAE0CA4
:103B3000AF0DEE4F60138E828F83E064A07003128E
:103B40002DF9EEFAEFFB1238C7AA0AE50B6480FBE9
:103B500080047A007B00023C8374F412192674F40A
:103B60001218B6EAFEEBFF851A82851B837401F0FA
:103B7000740512191C122AC9E9F50CEE2402F50A83
:103B8000E43FF50BE96003023C367407121902E0CA
:103B9000A2E050379002EE123E0FE8496028A81AC2
:103BA000A91B880C890D780C121B39740712191C7B
:103BB000123C919002EE123C8812192474021218E1
:103BC000CCE9F50C8070750C06806B9002EC123E0F
:103BD0000FE849602AA81AA91B880C890D780C12D5
:103BE0001B39740712191C123C919002EC123C888C
:103BF00012192474021218CCE9F50C70058037757F
:103C00000C067406121902E0702C7407121902E0F7
:103C1000C0E07401121902D0E0F07402121902E43B
:103C2000F0A3F07404121902E50CF0740112191CCF
:103C3000123C91122A6F851A82851B83E060148ED4
:103C4000828F83A3A3A3A3A3A3123C97EA4B600391
:103C5000123921E50C701D7407121902E0F8741274
:103C600068700C7406121902E064017007800F740A
:103C70001B68600A7C017D00123C91122FF7740CC6
:103C80001218CC7F040219F8E0F8A3E0F5838882CB
:103C900022850A82850B83E0FAA3E0FB2274F012EE
:103CA0001926890B8A0E8B0F8C0A8D0C74FF650BFD
:103CB000607C7A1B7B001238C18A108B11AE10AF6A
:103CC00011EE4F60648E828F8374B0F0A3E50AF02A
:103CD0008E828F83A3A3E50EF0A3E50FF08E828F73
:103CE00083A3A3A3A3E50CF0EE2405FAE43FFB7441
:103CF00010121902E0FCA3E0FDEC4D6015750E16E4
:103D0000750F00780E121B3912389D74021218CCF0
:103D100080097C167D0079001238B5EEFAEFFBA918
:103D20000B1238CD750A008008750A138003750AD6
:103D300002A90A7F080219F874F4121926740E12E7
:103D40001902121B50740E121902E0F50AA3E0F5D5
:103D50000BE50A75F0E8A4C50AA8F075F003A428DD
:103D6000F875F0E8E50BA428F50BE4F50CF50D78F3
:103D70000A121B3512393F7406023C8074F712197F
:103D800026EAFEEBFFEE4F601A8E828F83E0F97415
:103D9000FF69600F74FE69600A1239458E828F8355
:103DA00074FFF0023A9D74F612192674FE1218B6CA
:103DB000EAFEEBFF740C121902123E0FC3EC98EDF1
:103DC0009950068C0A8D0B8004880A890BAC0AADC9
:103DD0000B122B5FE9702E901A31E0F46027851AE0
:103DE00082851B83E50AF0A3E50B123E4F121B39B7
:103DF0007D7F7C00EEFAEFFB901A31E0F9122DFF87
:103E000074021218CC74021218CC7F020219F8E066
:103E1000F8A3E0F92274F612192674FE1218B6E916
:103E2000FE901A31E0F46025EE851A82851B83F03E
:103E30007401121902EC123E4F121B397D7E7C0078
:103E4000901A31E0F9122DFF74021218CC80B6F0EE
:103E5000A81AA91B880A890B780A22C082C083E9A4
:103E600024FB604D14603514604124FE604324FE41
:103E7000603924FE603514602C14602F24FE6031FC
:103E800014603C24FC603014602D24FC603124FE5E
:103E9000602D24CB602924806025802F8A828B832B
:103EA000A3A3A380168A828B83801B8A828B838044
:103EB000148A828B83800D8A828B83A3A380048AD9
:103EC000828B83A3A3A3123C9780047A007B000219
:103ED0003AEE74F3121926890E8C0C8D0DE924FB31
:103EE000602B14602424FD602424F86020146025D5
:103EF00024FC601D14601A24FC601A24FE60162441
:103F0000CB60122480600E80107E07800E7E0280BF
:103F10000A7E0580067E0380027E018E0A74FF659C
:103F20000C700474FF650D700E122B65EAC3950AC0
:103F3000F50CEB9400800D74D2650E7009EC240C26
:103F4000F50CE43DF50DE50C2EFAE4350DFB1230D1
:103F5000BDEA4B6025740D121902123E0F8882894A
:103F600083E58245836007E50CF0A3E50DF0C3E42B
:103F70009EFC95E0FD12392780047A007B007F05C6
:103F80000219F874F6121926122E1DEA4B6003125C
:103F90003921023E0AC082C0837A187B001239633D
:103FA000901493EAF0A3EBF07C187D0079001238AE
:103FB000B57900123117790112381379021236C916
:103FC000790312393379041230097905122CDF791B
:103FD0000612362D7907122DED79081239E179098B
:103FE000123783790A122E35790B123A05D083D015
:103FF00082020D39020D39FF851C87C2AF020D39CF
:10400000FFFFFFFFFFFFFFFFFFFFFFFFFFFFFFFFC0
:10401000FFFFFFFFFFFFFFFFFFFFFFFFFFFFFFFFB0
:10402000FFFFFFFFFFFFFFFFFFFFFFFFFFFFFFFFA0
:10403000FFFFFFFFFFFFFFFFFFFFFFFFFFFFFFFF90
:1048000001FFFFFFFFFFFFFFFFFFFFFFFFFFFFFFB6
:10481000FFFFFFFFFFFFFFFFFFFFFFFFFFFFFFFFA8
:10482000FFFFFFFFFFFFFFFFFFFFFFFFFFFFFFFF98
:10483000FFFFFFFFFFFFFFFFFFFFFFFFFFFFFFFF88
:10484000FFFFFFFFFFFFFFFFFFFFFFFFFFFFFFFF78
:020000040002F8
:1030000074E812192674A21218B6E9851A82851B73
:1030100083F0901509F07C017D007A1F7B00122B54
:103020006B851A82851B837401F07433121902E4D4
:10303000F0A3F0041219027401F074311219027431
:103040000A12C743742F121902741912C743742D40
:10305000121902E4F0A3F0742B121902749612C72D
:1030600043908121744E12191C74101217C9743EBA
:1030700012190C880A890B780A121B39745012191C
:103080001C7A667B1C12314D74021218CC7A00EA4D
:10309000F8743E121902E58228F582E43583F5833F
:1030A000E0C0E0744228F582E4341CF583D0E0F0FF
:1030B0000AEAC3941040D8AC1AAD1B79017A057B9B
:1030C000031239C9743312191C79027A067B031270
:1030D00039C97C067D1C791A7A087B031239C97CB0
:1030E000397D1C791E7A077B031239C974011219C4
:1030F0001C79017A107B031239C9743112191C79B9
:10310000027A117B031239C9742F12191C79027AC1
:10311000127B031239C9742D12191C79027A137BA0
:10312000031239C9742B12191C79027A147B031209
:1031300039C97C577D1C7A0F7900122D097CF47DEA
:10314000017A067B00122B6B7CF47D017A077B00F1
:10315000122B6B7CF47D017A087B00122B6B7CF4C4
:103160007D017A097B00122B6B743512190212B59E
:10317000C6851A82851B8304F01219027401F004BB
:10318000121902E4F074031219027401F07435127A
:10319000191C79047A087B04123711AC1AAD1B791B
:1031A000017A007B04123711740112191C79017A1B
:1031B000027B04123711740212191C79017A037B05
:1031C00004123711740312191C79017A067B041258
:1031D0003711908308121798122D0F908308121739
:1031E00098122E4D1236E7908308121798123A5310
:1031F000123855851A82851B837401F012190274E6
:1032000002F0041219027403F0141219027404F08B
:1032100090820A743912191C74051217C9AC1AADC0
:103220001B7A01F9123A5F740112191C7A017901B3
:10323000123A5F740312191C7A017902123A5F7410
:103240000212191C7A017903123A5F743912191C9F
:103250007A057904123A5F7AAB7B1C123A597901EC
:10326000122F437903122F3D90780EE0C0E0742AAC
:10327000121902D0E0F090780FE0C0E07429121922
:1032800002D0E0F0907810E0C0E07428121902D06B
:10329000E0F0907811E0C0E07427121902D0E0F05D
:1032A000907812E0C0E07426121902D0E0F0907815
:1032B00013E0C0E07425121902D0E0F0750A06751B
:1032C0000B00780A121B39742712191C7AE77B1835
:1032D00012389D74021218CC9080A1740D12191C22
:1032E00074181217C9750A18780A121B39740F124C
:1032F000190C880A890B780A121B3990830C121753
:10330000981236F974041218CC740D121902E06484
:1033100001600DE064026008E06403600302B4230E
:10332000E0901C76F0740E121902E0F518901C77EC
:10333000F07423121902E0F97424121902E0FAE978
:10334000FB7421121902E0F97422121902E0FCE95F
:10335000FD741F121902E0F97420121902E0FEE94F
:10336000FF741D121902E0F9741E121902E0F50A29
:10337000E9F50B741B121902E0F9741C121902E032
:10338000F50CE9F50D7419121902E0F9741A121905
:1033900002E0F50EE9F50F7417121902E0F974183E
:1033A000121902E0F510E9F5117415121902E0F98D
:1033B0007416121902E0F512E9F5137413121902CA
:1033C000E0F97414121902E0F514E9F515741112FC
:1033D0001902E0F97412121902E0F516E9F51774F2
:1033E0000F121902E0F97410121902E0F8901C761D
:1033F000E06402700512D41D800BE06401901C781B
:10340000700912D4ACF0A37404800312B5CCF0742C
:103410000D121902E0901C8FF0E518A3F0A312B56D
:10342000CC8017901C76E4F0A304F0A312D4ACF087
:10343000A37404F0901C9112D451F0750A00750B1E
:1034400016750C00750D00AA0AAB0BAC0CAD0D1275
:103450003705908310780A1216F3908314780A12B5
:103460000D9050E3901752E4F0A3741612D82590F3
:1034700081BA740412191C74091217C9E59D13133B
:1034800013541F5403FE750A08750B00780A121BAB
:1034900039740612190C880A890B780A121B3990A4
:1034A00083181217981236F974041218CC74081283
:1034B0001902E0F4701B7409121902E0F47012741E
:1034C0000A121902E0F47009740B121902E0F46098
:1034D0001490831C121798123705908318121798AE
:1034E00012370580617404121902E0F46005E0905F
:1034F000176AF074026E704E908318121798123784
:10350000057404121902E0F4601AE064086015E022
:1035100004F0C3940540037405F0E090176AF07559
:103520000A0180097401F090176AF0F50A750B0022
:10353000780A121B39740612191C7A007B12123693
:10354000FF74021218CC750A04750B00780A121B5E
:1035500039740612190C880A890B780A121B3990E3
:10356000831C1217981236F974041218CC740412C2
:103570001902E0901516F043FD40C286122A4BE96D
:1035800064F96008122A4BE964FA700B9018DD7434
:1035900001F09018E68012122A51E96411700B9024
:1035A00018DD7401F09018E604F0122A5D123A2F2B
:1035B0007A017B00901509E0F91238F1745E121857
:1035C000CC7F100219F8E412C32CF022E8F0A3E932
:1035D000F0A3E516F0A3E517F0A3E514F0A3E515B5
:1035E000F0A3E512F0A3E513F0A3E510F0A3E511B5
:1035F000F0A3E50EF0A3E50FF0A3E50CF0A3E50DB5
:10360000F0A3E50AF0A3E50BF0A3EEF0A3EFF0A31F
:10361000ECF0A3EDF0A3EAF0A3EB2274E812192674
:1036200074DA1218B6851A82851B8312D417548057
:103630006043901509E0F91238D98A0A8B0BAE0A5B
:10364000AF0BEE4F60208E828F83E064B07010A3CA
:10365000A3A3A3E0F9EE2405FAE43FFB122E29EE22
:10366000FAEFFB1238C7851A82851B83E0FAA3E0C4
:10367000648002C320851A82851B83E0A2E0503754
:103680007AA77B1C1239D57AF77B181237359083CD
:1036900020121B4C7A027B00901509E0F91239A523
:1036A00074041218CC75C90043C908851A82851B99
:1036B00083E0640102C31D5402700302C07C7900E0
:1036C000123975908320121B4C7A027B00901509E9
:1036D000E0F91239A574041218CC901514E06003B7
:1036E00002B7AD79801237EF7A0479071237E91201
:1036F000C38B120E10908324780A12177A780E79F1
:103700000A120FA3908328780A12177A780E790A82
:10371000120FA390832C780A12177A780E790A1266
:103720000FA3AA0EAB0FAC10AD11123A4D8A0A8B43
:103730000B8C0C8D0D780A790E120FA3780A120EDD
:103740006D12C3FF120DF5908330780E12177A7840
:103750000A790E120FA3780A120E6D12C39AF09016
:103760001932E0C39419501B12D3D1901932E012D0
:10377000C35EF582741839F58312D417901932E0BC
:103780000480297A00EA12C35EF8741839F9888235
:103790008983A3A312C72F88828983ECF0A3EDF05D
:1037A0000AEAC3941840DE9019327418F09018FD9C
:1037B000E004F0C394084033E4F0A9A8C2AFE5C91F
:1037C000540F44A0F5C9E5C9540F4450F5C9E9A206
:1037D000E7E433F8E9A2E792AF90151AE0640270CB
:1037E0000AC2AF75C9AB75C95B80FE90176AE070FD
:1037F000037401F0E0F5F0744B84F8901933E0980D
:10380000500302B8BEE4F0D2869019347402F090EE
:103810001933E004F090150DE06401702090193622
:1038200012C3E9901936C3E094B212CC71400E90E5
:103830001936E4F0A3F090150DF0123A3590177197
:1038400012C3E9901771C3E094B8A3E0940BA2D21D
:1038500065D033401A901513E070147401F090177E
:1038600071E4F0A312C3E1123A3B901513E4F09017
:10387000150CE0606DC394195003E004F090150B33
:10388000E06402705DA3E064197062901517E06057
:103890005C901512E0F890150EE07038E8703590E5
:1038A000150B7403F0908334121B4C7A047B009048
:1038B0001509E0F91239A574041218CC801F90196B
:1038C00034E0700302B80F6402600302B807C286D6
:1038D000E402B80EE870069015127401F09018FB1F
:1038E000E4F090150BE0640170037402F09018FC92
:1038F000E004F0C39419500302BA09750E00750F65
:10390000007510007511007A0012C3D4F50AA3E007
:10391000F50B3395E0F50CF50D780E790A1216E0EB
:103920000AEAC3941940E2908338780A12177A7829
:103930000E790A12163C901935E0C394025003E048
:1039400004F09018FCE4F09018DDE0F990833C78E6
:103950000E120D90503F9015157401F0901518E05F
:10396000600302BA09901938E004F0901939E4F0C4
:10397000901938E0C39402500302BA0990151874E4
:1039800001F0E960069018DF7401F0901938E4F056
:10399000901510803E908340780E120D90406A90F2
:1039A0001515E4F0901518E06401705DE9602C9045
:1039B0001938E4F09018DEE004F0C3940C404A900B
:1039C0001939E4F0901518F09018DFF09018DEF037
:1039D000901511E0C39464402D8029901939E004BA
:1039E000F0901938E4F0901939E0C39402401AE4D9
:1039F000F0901518F09018DEF0A3F0901511E0C3C8
:103A000094644002E4F0E004F0122A63E964017077
:103A1000099018DDE06003A3E4F0901935E064023A
:103A2000600302C06B901514E0700612D3D1123AF5
:103A30002390150EE0700890150BE0640370089059
:103A4000193A7405F0800690193AE06006E014F027
:103A500002C06B901516E06401700302C06B9018F1
:103A6000FBE004F0C39419500302C06BE4F0F50AC4
:103A7000F50BF50CF50D7A0012C3D4F50EA3E01288
:103A8000DC051216E00AEAC3941940EC90833878FA
:103A90000E12177A780A790E12163C123A2F901CE1
:103AA0007812C72F8C0E12DC05120D66500B901782
:103AB000467464F0A3E402BDBB12C3A7120D6650A6
:103AC0004012C36C120DF57812791612133D8E1642
:103AD0008F178A188A19850A0E850B0F850C108599
:103AE0000D11780E7916121719780E120DF578123D
:103AF000790E120FA37812120E6DE512245A02BD30
:103B00004912C3B4120D66504312C34A12C37F1246
:103B10000DF57812791612133D8C168D178A188AB6
:103B200019850A0E850B0F850C10850D11780E79FD
:103B300016121719780E120DF57812790E120FA3BE
:103B40007812120E6DE512245002BD4912C3A7125D
:103B50000D66504012C36C120DF5781279161213CF
:103B60003D8E168F178A188A19850A0E850B0F85C8
:103B70000C10850D11780E7916121719780E120D8A
:103B8000F57812790E120FA37812120E6DE5122439
:103B90004602BD4912C3B4120D66504312C34A1205
:103BA000C37F120DF57812791612133D8C168D17FE
:103BB0008A188A19850A0E850B0F850C10850D1140
:103BC000780E7916121719780E120DF57812790EF3
:103BD000120FA37812120E6DE512243C02BD491299
:103BE000C3A7120D66504012C36C120DF5781279FE
:103BF0001612133D8E168F178A188A19850A0E859C
:103C00000B0F850C10850D11780E79161217197887
:103C10000E120DF57812790E120FA37812120E6D96
:103C2000E512243202BD4912C3B4120D665043128C
:103C3000C34A12C37F120DF57812791612133D8C08
:103C4000168D178A188A19850A0E850B0F850C1098
:103C5000850D11780E7916121719780E120DF57858
:103C600012790E120FA37812120E6DE5122428029B
:103C7000BD4912C3A7120D66504012C36C120DF558
:103C80007812791612133D8E168F178A188A1985A5
:103C90000A0E850B0F850C10850D11780E79161202
:103CA0001719780E120DF57812790E120FA37812EB
:103CB000120E6DE512241E02BD4912C3B4120D6628
:103CC000504212C34A12C37F120DF57812791612B0
:103CD000133D8C168D178A188A19850A0E850B0FCD
:103CE000850C10850D11780E7916121719780E12A1
:103CF0000DF57812790E120FA37812120E6DE512DF
:103D00002414804512C3A7120D66505212C36C12C0
:103D10000DF57812791612133D8E168F178A188AB0
:103D200019850A0E850B0F850C10850D11780E79FB
:103D300016121719780E120DF57812790E120FA3BC
:103D40007812120E6DE512240AFCE43513FD33954A
:103D5000E0FE901746ECF0A3EDF0A3EE805F12C3F7
:103D6000B4120D66504F12C34A12C37F120DF5787C
:103D700012791612133D8C168D178A188A19850A26
:103D80000E850B0F850C10850D11780E7916121704
:103D900019780E120DF57812790E120FA3781212FF
:103DA0000E6DE5133395E0F514F51590174678126E
:103DB000121789800B901746E4F0A3F0A3F0A3F04C
:103DC00090193DE06008901C8EE0640170217A003B
:103DD0007B00901746780E12177A12C333E50EF067
:103DE0000AEA70010B12C33E40E8901C8EE4F0908A
:103DF000193DE004F0901515E0FC90193DE0C394E6
:103E00000B40547401F090193BE02475F8A3E034A2
:103E100017F9E8FAE9FBEC60158A828B837464F089
:103E200075F00A901745E0840490193D800E9017B4
:103E300046780E12177A8A828B83E50EF090193B32
:103E400012C3E990193BC3E09468A3E094014007D2
:103E500090193BE4F0A3F07A007B00EC6007901728
:103E60004574048060901C77E06402603D901746C2
:103E700012B5C612C33312D3C6901746780E121766
:103E8000060AEA70010B12C33E40E8901746780E0E
:103E900012177A908344781212177A780E791212D8
:103EA000163C901746780E121789908290780E1261
:103EB000177A901746780E120D7B901745400474C0
:103EC0000180027402F0A3780E12177A908348786A
:103ED0000E120D90500A9017467464F0A3E48010FF
:103EE00090834C780E120D90400B901746E4F0A38F
:103EF000F0A3F0A3F0901745E0FEA3780E12177A16
:103F000090150CE0600302BFDF90174CE0FC9017A7
:103F10004A12D3D490193EE0603CE4F0E50EC42090
:103F2000E304540F800244F044F0901C52F0E50E7C
:103F3000C454F04EA3F0E50E901C5612CC84121817
:103F400084E50A901C54F0EAC454F04CA3F07C3988
:103F50007D1C7B1E807C7401F0850A12850B137416
:103F6000087812121884E5129018EDF0E50AA3F013
:103F7000E50EA3F0EEA3F0901C76E09018F112D4B9
:103F8000A2121884E50AA3F0EAA3F0ECA3F0A3744C
:103F900008F0741612190C880A890B780A121B395A
:103FA0007CE77D187A667B1C12314D74021218CCA6
:103FB000750A10750B00780A121B39741812191C37
:103FC0007A297B1C12389D74021218CC7C207D1C2F
:103FD0007B197A01901509E0F9122C7902C06B90D7
:103FE00081B1740212191C74091217C974021219D2
:103FF0000274F5F0850A12850B13740478121218F6
:10400000847403121902E512F0E50AC454F04EC09C
:10401000E07404121902D0E0F07405121902E50EE2
:10402000F090177112D3F51218847406121902E574
:104030000AF07407121902EAF090177312D3F512FE
:1040400018847408121902E50AF07409121902EAB8
:10405000F09018DFE0C0E0740A121902D0E0F07CA2
:104060000974021219147901123A1D790112397575
:10407000851A82851B83E0640202C31DE05404702C
:104080000302C3237900123975908334121B4C7AD2
:10409000047B00901509E0F91239A574041218CCBC
:1040A000901514E06401600302C12F79801237EF8C
:1040B0007A0479071237E912C38B120E1090832409
:1040C000780A12177A780E790A120FA3908328784B
:1040D0000A12177A780E790A120FA390832C780AA5
:1040E00012177A780E790A120FA3AA0EAB0FAC1032
:1040F000AD11123A4D8A0A8B0B8C0C8D0D780A7912
:104100000E120FA3780A120E6D12C3FF120DF59056
:104110008330780E12177A780A790E120FA3780A74
:10412000120E6D12C39A12C3E1123A2302C30F900A
:10413000150BE06403600302C1C1901513E0600336
:1041400002C30F7401F090176B780A12177A901758
:1041500052780E12177A850E14850F15850A12856E
:104160000B13E514C39512F512E5159513F51378A5
:104170000A790E120D66401474087812121884E53C
:104180001290151FF0E50EC3950A8020E512240059
:10419000E5133476F51374087812121884E512903A
:1041A000151FF0A80A850E0AE50AC398A3F07C0043
:1041B0007A1D7B157902123A1D901513E4F002C3A3
:1041C0000FA3E0C39419901512500612C3F302C254
:1041D000D7E0F990150EE0F8607DE9707A74016817
:1041E00070289082D8740B12191C74041217C97CA1
:1041F00003740B1219147901123A1DE9640160036A
:1042000002C2DD90150E74028049901513E0600320
:1042100002C30F7401F0123A4712DBFCE070030294
:10422000C2DD9015137401F0123A4712DBFCE07006
:104230000302C2DD9015137401F0123A4712DBFC41
:10424000E0700302C2DD9015137401F0123A47903A
:104250001513E4F002C2DDE9600302C2DD9081DAE9
:10426000740F12191C74071217C9901766780E1272
:10427000177A850E0A850F0B85100C85110D90831A
:1042800050780A1216F37410780A12168E741212ED
:104290001902E50A12D40A2409F50A5002050B7422
:1042A00008780A1218847413121902E50AF0850EB0
:1042B0000AE50A2409C0E07414121902D0E0F07C67
:1042C00006740F1219147901123A1DE96401700D78
:1042D000901766E412C32C12C7481239B190151218
:1042E000E06401702A9082E0740B12191C740412AD
:1042F00017C97C03740B1219147901123A1DE96471
:1043000001700C90151212C3F312C7481239B1791B
:1043100001123975851A82851B83E06404FAA3E0D3
:10432000FB80047A007B00742602B5BEF0A3F0A3E4
:10433000F0A32274752AF58274173BF58322C39487
:1043400068EB9401A2D265D0332275120075130078
:10435000751420751541EEC39CF516EF9D2212C30E
:10436000622225E0F8E433F974FE28227512007504
:104370001300751420751541ECC39EF516ED9FF5DD
:10438000173395E0F518F519781622EB541F8A0EAD
:10439000F50FE4F510F511780E2290151BC3E0958A
:1043A0000AF0A3E0950B22A3E0FEA3E0FFEEF8EFF6
:1043B00012C3C122A3E0FCA3E0FDECF8ED12C3C1DF
:1043C00022F93395E0FAFB880E890F8A108B117859
:1043D0000A790E22EA12C362F582741839F583E075
:1043E00022F090151B12D3D822E02401F0A3E03470
:1043F00000F022E4F090176612C32C12DC00229029
:10440000151BE50AF0A3E50BF090176FE0F8A3E0A9
:10441000F97418C398F50AE499F50B12C41F2233F6
:1044200095E0F50CF50D780A2274F7121926E9FECD
:1044300090150CE4F0EE14601D14606B24FE700304
:1044400002C4CF14700302C4DF14606624FE70033C
:1044500002C4F202C4F57C3F7D197A047B03123951
:10446000CF90193FE0901945F0901940E09019461F
:10447000F0901941E0901947F0901949E4F0901933
:1044800048F0901944E090194CF0901943E09019CD
:104490004BF0901942E090194AF07C457D197A085A
:1044A00079001236ED804E901512E4F0A312C3F499
:1044B000801A901517E4F0901512F090176612B557
:1044C000C790151312DC00F090150C04F0802690B4
:1044D000151AE06020C2AF75C9AB75C95B80FE12CA
:1044E00039DB90151AE0600DC2AF75C9AB75C95BB9
:1044F00080FE1239DBEE90150AF07F010219F87484
:10450000F7121926E9FE74026E70107A4D7B197944
:1045100002123A657A4D7B19123A2980DD74F41241
:10452000192674DB1218B6890BEAFEEBFF8C0A9091
:104530008111740512191C74101217C9750C61755C
:104540000D19780C121B397CFF7DFF791B7A007BDB
:1045500000122E2374021218CC740312190212D402
:104560001774021219027410F0851A82851B837465
:104570002E12C743850A0CF50DE50B14600B146071
:104580007C14700302C6F38068780C121B39EEFCB1
:10459000EFFD740712191412389D74021218CC74AE
:1045A0001512190C880C890D780C121B397407121E
:1045B000191C7A667B1C12314D74021218CC750CD2
:1045C00010750D00780C121B39741712191C740524
:1045D00012190212D3D412389D74021218CC790029
:1045E000AC1AAD1B7A007B00122D6FE9700302C775
:1045F00027790074251218CC7F040219F890150C45
:10460000E0C39419500302C6DB90196312D3B7EECE
:1046100028FEEF39FF90174312C72F901965ECF869
:10462000EDF97A107B00121823880C890D12C7351A
:104630005008750C10750D00800FECF8EDF97A102C
:104640007B001218238A0C8B0D780C121B39EEFCA0
:10465000EFFD740712191412389D74021218CC74ED
:104660001512190C880C890D780C121B397407125D
:10467000191C7A667B1C12314D74021218CC750C11
:1046800010750D00780C121B39741712191C740563
:1046900012190212D3D412389D74021218CC790068
:1046A000AC1AAD1B7A007B00122D6FE97079901760
:1046B0004312D3B77A107B00121823880C890D752A
:1046C000831975826512C7355011901963E0241063
:1046D00012C3EC90196512C3E9804C90150BE4F0FD
:1046E000901965F0A3F0901963F0A312C74812392E
:1046F000B180347402121902E50AF0780C121B39E9
:10470000EEFCEFFD740512190212D3D412389D7419
:10471000021218CC7900AC1AAD1B7A007B00122D66
:104720006FE9600302C5F1790102C5F390174FE00C
:10473000FCA3E0FD22C3E0950CA3E0950DA2D26599
:10474000D03322F0A3E4F022F07A04FB901509E0C4
:10475000F92274F21219268A0A8B0B7408780A124D
:104760001884E50A540FFDEAC454F0FC8A0A8B0B46
:104770007404780A121884E50AFE90196BE060034D
:1047800002C81C90150BE0C39403400302C81C90A0
:104790001CB1C3E0941212CC71503812CCA3901902
:1047A0006AE07011EE8882898312CC8EECF0901949
:1047B0006A7401801588828983E04D12CC8EEAF0FC
:1047C000901CB112C3E990196AE4F090196CE4F0FE
:1047D000A380487F06EFF8746E28F8E43419F9884E
:1047E000828983A3A3A3E088828983F00FEFC39417
:1047F0000F40E2901CB1740F12C743901974E0F59A
:104800000A750B007404780A1218A3A3E0C4540FAD
:10481000F8E50A4890196CF0A3E50BF0901CAD7810
:104820000A12177A12CC46880E890F90196CE0C3D1
:104830009AF8A3E09BF9C3E8945012D7EC50030216
:10484000C90490196BE0600302C90490150BE0C322
:104850009403400302C91D90196B7401F012D41423
:10486000750A26750B02780A121B397C007D007AC6
:104870001D7B15123A7D74021218CC7C06ECF8747C
:104880001B28F8E43415F9E8FAE9FB90196CE0F517
:104890000AA3E0F50B7404780A1218848A828B83C9
:1048A000A3A3E50AF090196CE0C454F0C0E0E0F571
:1048B0000AA3E0F50B7408780A121884D0E0450AC0
:1048C0008A828B83A3A3A3F090196CE08A828B83E6
:1048D000A3A3A3A3F074032CFCC39412409F9015D0
:1048E00014E0600302CC41908334121B4C7A047BA9
:1048F00000901509E0F91239A574041218CC90152E
:104900001402CC0C90196C12CC7BF8EB99F9C3E82B
:10491000943212D7EC400690196BE070099019821E
:10492000E0700302CB4490196712C3E99083547876
:104930000A12177A901CAD780A120DC650689019A9
:1049400067C3E09433A3E09400505B901969E07072
:1049500024EE850E82850F8312CCB412177A901C38
:10496000AD780A121706901CAD780A12177A12CC8D
:104970006874018030850E82850F83E04D12CCB4BF
:1049800012177A901CAD780A121706901CAD780A9F
:1049900012177A12CCB012177A901CAD780A12173F
:1049A00006901969E4F0901967C3E09432A3E0948B
:1049B00000500302CC41901CAD780A12177A12CC39
:1049C00046901969E088828983703674FF12CCB4EE
:1049D00012177A901CAD780A121706901CAD780A4F
:1049E00012177A12CC6212CCB412177A901CAD78DE
:1049F0000A121706901CAD780A12177A12CC628040
:104A000055E0440F12CCB412177A901CAD780A12FC
:104A10001706901CAD780A12177A12CC5174FF1247
:104A2000CCB412177A901CAD780A121706901CAD00
:104A3000780A12177A12CC5174EF12CCB412177A8A
:104A4000901CAD780A121706901CAD780A12177ADE
