:020000040000FA
:0600000002011A020FB715
:03002B0002153487
:030033000215169D
:0300530002102A6E
:03006B000214ED8F
:10008300020E77E5C754F84401F5C7790122000051
:100093000080FB120086B90003020104E4791B7897
:1000A30002B800028004F709D8FCE4791D7802B88D
:1000B30000028004F709D8FCE490028178A2790257
:1000C3008002F0A3D8FCD9FA781A90014A7A01BACF
:1000D30000028007E493A3F608DAF97A227B0490FE
:1000E300014B78A779028015E493A3AD82AE838A8E
:1000F300828B83F0A3AA82AB838D828E83D8E9D9C6
:10010300E7758295758367740012012C758291756A
:100113008300740012012C75D00075813F7518811E
:10012300751902759F00020096C09FF59FE473D076
:100133009F22D083D082C09FE493C0E0740193C018
:10014300E0740293F59F2201FF0000B40000280031
:100153002800283075A000A000A000A0000008001F
:1001630008E001F000100010001000100010001053
:100173000050005000500010001000D00700000095
:100183000000000F0001000500307507001000019A
:100193000081FF00000000FF450363034B03FF954D
:1001A3000495049504950495049504950495049584
:1001B300049504950495049504FF0D0954504D537B
:1001C300315F313030364235020A000D0954504D4B
:1001D30053325F323030364236020A000D09545032
:1001E3004D53335F333030364237020A000D095422
:1001F300504D53345F343030364238020A000D0913
:1002030054504D53355F353030364239020A00B50C
:100213000610CAEA80B60620CAEA81B70630CAEADF
:1002230082B80640CAEA83B90650CAEA84020105C5
:100233000303B0FB13FF000180EACA1006B52A7A54
:100243000200EE0900003800000201050303B0FBC1
:1002530013FF000181EACA2006B6B0710200710AD9
:1002630000004200000201050303B0FB13FF00017D
:1002730082EACA3006B7059A0200870A00003500F1
:10028300000201050303B0FB13FF000183EACA4028
:1002930006B831790200240A00002F00000201058C
:1002A3000303B0FB13FF000184EACA5006B90580BB
:1002B3000200500A00002500008706000001307587
:1002C3000302010400000000000000000000000021
:1002D300000000000000000000000000000000001B
:1002E300FF00010000006D4EC641393000001201CD
:1002F3003540510012013568510012013596510005
:10030300120135CD51001201351852001201356327
:100313005200120135A3520012013560530012013D
:1003230035A56300120135BD630012013543250075
:10033300120135162600120135BF260012013512AF
:100343002700120135C227001201354E2800120181
:10035300353A29001201356929001201357C2A003A
:10036300120135C42A00120135992B00120135D52B
:100373002B00120135F12B00120135C25C00120172
:1003830035CD5C00120135DF5C00120135B75D002D
:10039300120135BC5D00120135AF5E00120135EF6D
:1003A3005300120135175400120135545400120141
:1003B30035C95400120135DE5400120135F35400DF
:1003C3001201355D55001201359A5500120135E3CE
:1003D30055001201350D5600120135325600120137
:1003E30035564E00120135894E00120135694F0012
:1003F3001201358E4F00120135601500120135359B
:100403001700120135121800120135B61800120137
:1004130035101900120135B01A00120135F11A0016
:10042300120135911C00120135DC1C00120135F953
:100433004A00120135C44C001201352C4E00120142
:1004430035D61D00120135841E00120135B01E0081
:10045300120135FF1E00120135202000120135B6AE
:1004630021001201352B22001201359522001201C1
:10047300359A2300120135FA24001201351925009B
:10048300120135B85E00120135C45E00120135AAAF
:100493005F00120135B66700120135C43100120145
:1004A30035E931001201350133001201358434007E
:1004B300120135A935001201351A360012013557DC
:1004C30036001201357A36001201359036001201DA
:1004D30035C943001201355F4400120135754400EC
:1004E300120135EB44001201355F45001201359DC1
:1004F30045001201351146001201358A46001201EA
:10050300359346001201359F4600120135C346005C
:10051300120135D946001201353847001201355A08
:10052300560012013567560012013581560012013B
:1005330035C056001201352557001201353A5700D0
:100543001201354557001201355257001201356922
:1005530057001201357757001201358257001201F7
:1005630035915700120135AE5700120135BE5700C1
:10057300120135D45700120135F05700120135FB33
:10058300570012013510580012013524580012018A
:1005930035FB6400120135276500120135826500C1
:1005A300120135993600120135D736001201353163
:1005B3003700120135523700120135A337001201FB
:1005C30035CC3700120135D63700120135423800D9
:1005D300120135D038001201351E3900120135548D
:1005E3003900120135DB39001201351B3A001201C3
:1005F30035533A00120135723A001201357B3A0045
:10060300120135E46100120135C35A00120135F9B4
:100613005A001201352F5B00120135885C0012016C
:1006230035946500120135AA6500120135B46500E1
:10063300120135FE65001201350667001201358A85
:100643003F00120135A33F0012013547400012015C
:1006530035874000120135A04000120135D4400017
:100663001201352141001201355C41001201355C54
:100673004300120135684700120135234800120177
:10068300358F4A00120135F64A001201353A3B0014
:10069300120135FD3C00120135463D00120135794A
:1006A3003D00120135663E001201357367001201E9
:1006B30035566400120135AA6700120135E15F0067
:1006C300120135666000120135CC6000120135E578
:1006D30062001201350563001201355E63001201E9
:1006E300359863001201359B6300120135B0670032
:1006F300120135B36700120135F87F0012013591FD
:1007030058001201351C5A001201357D5A0012019E
:10071300352C6600120135E560001201350F6100CA
:10072300120135662C00120135232D001201355EAE
:100733002D00120135C02D001201350C2E001201BF
:1007430035652E00120135F62E00120135B3300047
:100753001201353531001201359A31001201354746
:100763006700120135BF6600E066701008A3E066FB
:10077300700A08A3E066700408A3E06622C3E79644
:100783000809E7960809E7960809E79622C3E09661
:1007930008A3E09608A3E09608A3E09622C008C346
:1007A300E096F50808A3E096420808A3E0964208FD
:1007B30008A3E09645087001D3D00822080808EA88
:1007C300C0E0EBC0E086F0E7A4FA180986F0E7A4DE
:1007D3002AFA180986F0E7A42AFA180986F0E7A48A
:1007E3002AFA1986F0E7A4FBE5F02AFA190886F03D
:1007F300E7A42BFBE5F03AFA190886F0E7A42BFBF4
:10080300E5F03AFA18180986F0E7A4C5F02BFBE4E3
:100813003AFA1908E7C5F0C6A426F6E5F03BFBE46F
:100823003AFA1886F0E7A4F6E5F00826F6E43B0862
:10083300F6E43A08F6D0E0FBD0E0FA22E4CFC0E0D9
:10084300E4CEC0E0E4CDC0E0E4CCC0E075F020E647
:1008530026F608E633F608E633F608E633F6181804
:1008630018EC33FCED33FDEE33FEEF33FFC3EC97AF
:1008730009ED9709EE9709EF97191919400FFFEC46
:1008830097FC09ED97FD09EE97FE191906D5F0BF00
:10089300ECF709EDF709EEF709EFF7191919D0E0AD
:1008A300FCD0E0FDD0E0FED0E0FF2260160808088F
:1008B300C6C313C618C613C618C613C618C613C6AE
:1008C300D5E0EA227009080808226016181818C62D
:1008D300C333C608C633C608C633C608C633C6D52F
:1008E300E0EA22E627F60809E637F60809E637F6CE
:1008F3000809E637F622E026F608A3E036F608A351
:10090300E036F608A3E036F622E026F008A3E03648
:10091300F008A3E036F008A3E036F022C3E697F62A
:100923000809E697F60809E697F60809E697F62216
:10093300C3E096F008A3E096F008A3E096F008A3BE
:10094300E096F022E657F60809E657F60809E65757
:10095300F60809E657F622E056F608A3E056F6082D
:10096300A3E056F608A3E056F622E0F608A3E0F665
:1009730008A3E0F608A3E0F622E6F008A3E6F008F1
:10098300A3E6F008A3E6F022E0FAA3E0FBA3E0FC71
:10099300A3E0FD22EAF0A3EBF0A3ECF0A3EDF02239
:1009A300E0F8A3E0F9A3E0FAA3E0FB22E8F0A3E96F
:1009B300F0A3EAF0A3EBF022CAC0E0E6F0A308DA62
:1009C300FAD0E0FA22CAC0E0E0A3C582CCC582C552
:1009D30083CDC583F0A3C582CCC582C583CDC58332
:1009E300DAE6D0E0CA22C3E498F8E499F9120A2AB5
:1009F3008026C3E49AFAE49BFBE920E7E9120A2A7A
:100A0300E498F8E499F922C3E498F8E499F9120A0E
:100A13002AE498F8E499F9C3E49AFAE49BFB22EBFD
:100A230020E7CFE920E7E0B90010BB0008E88AF02F
:100A330084F8AAF022E4FBC8FA22EB70227B10C8E8
:100A430033C8C933C9335007C39AC3DBF280069A4C
:100A530050012ADBEAC833F4C8C933F4C9FA227552
:100A6300F008E4C833C8C933C933C99AC99B5004D1
:100A7300C92AC93BD5F0ECFBC833F4C8E4C9FA2250
:100A8300600D08C6A2E713C618C613C6D5E0F32245
:100A9300600C08C6C313C618C613C6D5E0F422708B
:100AA3000422600D18C6C333C608C633C6D5E0F4A6
:100AB3001822251810AF08F518400C15198008F5F1
:100AC3001840021519D2AF2200C0D0251810AF0864
:100AD300F518500C05198008F51850020519D2AF06
:100AE300D0D0222518F58210AF08F518400C15193F
:100AF3008008F51840021519D2AF851983222518ED
:100B0300F582E43519F583222518FAE43519FB2219
:100B13002518FCE43519FD22E4732518C582C0E0CD
:100B2300E51934FFC583C0E0E518C3958224F810A6
:100B3300AF088583198582188008858319858218F3
:100B4300D2AFCEF0A3E520F0A37808E608F0A3DE49
:100B5300FAEFF0A3E58124FAF8E608F0A3E608F03B
:100B6300A3E608F0A30808E608F0A3E608F0A31537
:100B7300811581D0E0FED0E0F8158115811581E85B
:100B8300C0E0EEC0E0222518C582C0E0E51934FFBD
:100B9300C583C0E0E518C3958224F910AF088583A7
:100BA300198582188008858319858218D2AFCEF003
:100BB300A3E520F0A37808E608F0A3DEFAEFF0A39C
:100BC300E58124FBF8E608F0A3E608F0A30808E6AD
:100BD30008F0A3E608F0A315811581D0E0FED0E06C
:100BE300F815811581E8C0E0EEC0E0228519838500
:100BF3001882E0A3FEE0A3F5207808E0A3F608DF5F
:100C0300FAE0A3FFE0A3C0E0E0A3C0E0E0A3C0E0FC
:100C1300E0A3C0E0E0A3C0E010AF0885821885839D
:100C2300198008858218858319D2AFD083D08202B8
:100C33000132851983851882E0A3FEE0A3F52078AD
:100C430008E0A3F608DFFAE0A3FFE0A3C0E0E0A317
:100C5300C0E0E0A3C0E0E0A3C0E010AF08858218C5
:100C63008583198008858218858319D2AFD083D0F4
:100C73008222C0D02518C582C0E0E51934FFC583A0
:100C8300C0E0E518C3958224F310AF088583198566
:100C930082188008858319858218D2AFC8F0A3E92A
:100CA300F0A3EAF0A3EBF0A37908E709F0A3D8FADD
:100CB300ECF0A3EDF0A3EEF0A3EFF0A3D0E0F0A3EC
:100CC300D0E0F0A3D0E0F0A3E520F0A3E5F0F0A39B
:100CD30022851983851882E0C0E0A3E0F9A3E0FA36
:100CE300A3E0FBA37808E0F608A3DFFAE0FCA3E0A7
:100CF300FDA3E0FEA3E0FFA3E0C0E0A3E0C0E0A308
:100D0300E0F5D0A3E0F520A3E0A3F5F010AF08854C
:100D130083198582188008858319858218D2AFD0FC
:100D230082D083D0E0F8D0E032740480067402806D
:100D3300027401C0E0F404120AE6D0E01209BB22F7
:100D43007404800474028000CCC0E0EDC0E0E518B8
:100D5300C39CCCAD1950011D10AF068C188D1980A2
:100D6300068C188D19D2AF1209C8D0E0FDD0E0FC73
:100D730022D083D082E9C0E0E493A3C386F0C5F018
:100D830095F0F908E493A386F0C5F095F0700BE4B1
:100D930093A3C3994005E9048002A3E475F002A478
:100DA3002582F582E5F03583F583D0E0F9E493A35A
:100DB300C0E0E493C0E022D083D082ECC0E0EDC079
:100DC300E0E493A3FCE493A3FDED4C600D120E0647
:100DD300EC24FFFCED34FFFD80EFE493A3FCE493EC
:100DE300A3FDED4C600D120E45EC24FFFCED34FF2A
:100DF300FD80EFD0E0FDD0E0FCE493A3C0E0E493FA
:100E0300C0E022C0E0C3E4939608740193961840AF
:100E13000FE49366700808740193661870007019E4
:100E2300A3A3C3E49396087401939618A3A3400D58
:100E3300D0E0D0E0D0E0020DF6A3A3A3A3A3A3D0F8
:100E4300E022C0E0C0F088F0E49366700808740103
:100E53009366187000A8F0A3A3700BD0F0D0E0D075
:100E6300E0D0E0020DF6A3A3D0F0D0E022851B87EB
:100E7300851CC622C0E0C0D0E8C0E0E9C0E0EAC0FB
:100E8300E0EBC0E0ECC0E0EDC0E0EEC0E0C008C0C5
:100E930009C00AC00BC082C083C0F0A2AFE433FE16
:100EA300C2AF759B00906182E0A2E05009E591A278
:100EB300E050037591FEE0A2E55009E591A2E550EB
:100EC300037591DFE0A2E64003020F6AE591A2E613
:100ED3004003020F6A7591BF9002C7E06405700872
:100EE3001204FB1205078003120501751B0012058E
:100EF30055E99002C8F079001205491204537A01AA
:100F03007B009002C6E0F91205E5907803E06442A5
:100F1300705590033BE014F0704DC2AF120F2200E6
:100F2300781ED0E0F618D0E0F6E59F5407700575FB
:100F330009FF800375097FC4C0E0781DE6F5080842
:100F4300E65509F509740B7808120A93D0E02508D1
:100F5300F8906270E0A2E740F8E8C333906272F061
:100F6300906270E0D2E0F0906181E0A2E35009E585
:100F7300E9A2E3500375E9F7A3E0A2E75009E5917D
:100F8300A2E7500375917FEEA2E092AFD0F0D08339
:100F9300D082D00BD00AD009D008D0E0FED0E0FD3B
:100FA300D0E0FCD0E0FBD0E0FAD0E0F9D0E0F8D01C
:100FB300D0D0E032C0E0C0D0C082C083906183E073
:100FC300A2E05009E5BFA2E0500375BFFEE0A2E135
:100FD3005009E5BFA2E1500375BFFDE0A2E250094D
:100FE300E5BFA2E2500375BFFBE0A2E35009E5BFF2
:100FF300A2E3500375BFF7E0A2E45009E5BFA2E402
:10100300500375BFEFE0A2E55009E5BFA2E5500329
:1010130075BFDFE0A2E65009E5BFA2E6500375BF46
:10102300BFD083D0828088C0E0C0D0E8C0E0E9C0F0
:10103300E0EAC0E0EBC0E0ECC0E0EDC0E0C0F0E50A
:10104300A7A2E6500FE5A1A2E6500953A7BF75A1D9
:10105300BF12108FE5A7A2E5500CE5A1A2E550064B
:1010630053A7DF75A1DFE5A7A2E15009E5A1A2E13E
:10107300500375A1FDE5A7A2E2500CE5A1A2E25041
:101083000653A7FB75A1FBD0F0020FA074F8120B57
:1010930089751B019002C7E0640670151204BF8AAC
:1010A300828B83A3A3A3A3A3A3E0FAA3E0FB12046D
:1010B300E9A2AFE433FED2AF9002CDE06401701831
:1010C3007A207B009002C6E0F91206637A207B0047
:1010D3009002C6E0F91205EB906182E0D2E6F0904F
:1010E3000338E0602185C61C80169002CCE06401C1
:1010F3007008E5C654F84405F5C653BEFC120E70DD
:101103007401651B60E4EEA2E092AF7F01020C352F
:1011130074E9120B8974F8120AB58518828519834C
:10112300ECF0A3EDF08A088B099002C7E024F7C323
:10113300940550067508010212AA1204BF8A0A8B8D
:101143000BAE0AAF0BEE4F70030212A7AC08AD094A
:101153007402120B01AA82AB831205138E828F8352
:10116300A3A3750CFF750DFF750EFF750F00780CAB
:1011730012095A7402120B017510FF7511FF7512D3
:10118300FF751300781012095A780C791012078032
:10119300502A780C791012091F7508017509C87552
:1011A3000A00750B007808790C1207805052850CE1
:1011B30008850D09850E0A850F0B8050751401757E
:1011C30015C8751600751700851008851109851255
:1011D3000A85130B7808790C12091F781479081201
:1011E3000780401C750800750900750A00750B011E
:1011F3007808791012091F7808790C1208E6800C18
:10120300750801750900750A00750B0074097808E3
:101213001208C7750C19F50DF50EF50F7808790C42
:1012230012083F8E828F83A3A3A3A3A3A3E0F8A3F3
:10123300E0F97AD07B03120A2A880C890DE4F50EB3
:10124300F50F7808790C1208E67406120B01E0F822
:10125300A3E0F97AD07B03120A2AE8FA8A0CE4F5B0
:101263000D7808790C12078050077808790C120959
:101273001F9002C7E06408600AE064066005E0644A
:1012830005702D750C0D780C7908120780402175B7
:101293000CF4750DFF750EFF750FFF7808790C12AE
:1012A30008E6800C750800750900750A00750B00C7
:1012B300851882851983E0F8A3E0F583888278088E
:1012C30012097C7408120ACB7F10020C3574F712D2
:1012D3000B89120525900336E06401701090624576
:1012E300E4F0A3F053F4F343FE0C5390F31204D74A
:1012F300E5C654804449F5C6E59E547F644970F8B9
:10130300906185740FF0900334E0F47002A3E06001
:101313004E900335E0600814601B14602E80407506
:101323000801750900900334E07808120AA2E50861
:10133300F45280802A750801750900900334E0781F
:1013430008120AA2E508F452908014750801750981
:1013530000900334E07808120AA2E508F452A07959
:10136300007F02020C3574F7120B89E9FEEAFF7461
:10137300016E700C7A807B009002C6E0F91205E5DD
:10138300901558E493F46008E493F9120447800934
:1013930053C680E59E547F70FA1204DD900336E055
:1013A3006401700312045F900334E0F47002A3E05D
:1013B300604B900335E0600814601A14602C803D84
:1013C300750801750900900334E07808120AA2E554
:1013D3000842808028750801750900900334E0787D
:1013E30008120AA2E50842908013750801750900E6
:1013F300900334E07808120AA2E50842A0120525FA
:101403001204BF8A088B09A808A909E8496015E5F1
:10141300E170FCE82414F582E93400F583E0F4601C
:1014230003E0F5E174016F700A7A019002C6E0F9F6
:1014330012062D02136474ED120B898A088B098C32
:101443000A8D0B7413120B01780C12096D7808794D
:101453000C1207807510017511C875120075130001
:1014630050127808790C12091F7810790812078036
:1014730050168010780C790812091F7810790C1215
:10148300078040047901800279007F0C020C3574D7
:10149300ED120B898A088B098C0A8D0B7413120BBE
:1014A30001780C12096D780C7908120780401178C5
:1014B30008790C12091FAA08AB09AC0AAD0B8022EC
:1014C3007510007511007512007513017810790CF1
:1014D30012091F781079081208E6AA10AB11AC1292
:1014E300AD1380A6C2AF02000022C0E074F2120C5A
:1014F30075A2AFE433FED2AFE589A2E15003120631
:10150300DB758900C2C5751A00EEA2E092AF7F01B8
:10151300020CD4C0E074F2120C75A2AFE433FED215
:10152300AFE58BA2E050031206DB758B00C2E880A7
:10153300D5C0E0C0D0E8C0E0E9C0E0E5A8D2AFC2C2
:10154300C7751A00A2E7A2E792AFD0E0F9D0E0F89E
:10155300D0D0D0E032FFFFFFFFFFFFFFFF74F41294
:101563000B1DE99002C6F012051F907800E0C454E9
:101573000F540764037004793F8002797F7508066E
:101583007509007808120D307CB47D027AEA7B0776
:101593001206BD7402120ACB9002B4E0F47049A3A0
:1015A300E0F47044A3E0F4703FA3E0F4703AA3E0E6
:1015B300F47035A3E0F4703090780EE09002B4F04C
:1015C30090780FE09002B5F0907810E09002B6F0BA
:1015D300907811E09002B7F0907812E09002B8F0A2
:1015E300907813E09002B9F09002BA74FFF0A3F080
:1015F300A3F0A3F0A3F0A3F09002B4E09002C0F034
:101603009002B5E09002C1F09002B6E09002C2F001
:101613009002B7E09002C3F09002B8E09002C4F0E9
:101623009002B9E09002C5F09002D87406F0A3745A
:101633000DF0A3E4F0A37440F0A37401F09002E270
:1016430074FFF0A3F0A3F0A3F0A3F0A3F09002E1E2
:10165300E4F09002E8F0A374A0F0A3E4F0A3740311
:10166300F0A37407F0A3E4F0A37428F0A3E4F0A3B9
:1016730004F0A3E4F0900311F090033474FFF0A39B
:10168300E4F0900336F090033804F090033974903B
:10169300F0A37401F01204591204051204D1790164
:1016A3007A3B7B0312048990033BE075F01484E5D5
:1016B300F004F012048F7A009002C6E0F912062DAE
:1016C300907803E06442705590033BE014F0704D52
:1016D300C2AF1216D800781ED0E0F618D0E0F6E5B7
:1016E3009F540770057509FF800375097FC4C0E027
:1016F300781DE6F50808E65509F509740B78081214
:101703000A93D0E02508F8906270E0A2E740F8E879
:10171300C333906272F0906270E0D2E0F09002DD29
:10172300E4F0A3F07A80FB9002C6E0F91205E5022B
:10173300190174F4120B1DEAFEEBFFEEA2E0504414
:101743009002C8E0C39480E0500FC333F8E433F948
:10175300747928F5827404800EF4C333F8E433F902
:10176300748728F582740439F583E0F8A3E0F583E0
:101773008882120B1B7A009002C6E0F912062DEE46
:101783006401803D5480603D900339E0F8A3E0F9A3
:10179300E849602A7900120627900339E0F508A387
:1017A300E0F509E4F50AF50B7808120D2C7A007BB5
:1017B300019002C6E0F91206577404120ACBEE64D4
:1017C30080FAEF802DEF5401600C7901120627EEA9
:1017D300FAEF6401801CEF5402600AC2AF75C9AB13
:1017E30075C95B80FEEF5404600B1214E7EEFAEF49
:1017F3006404FB80179002CDE06401700BEE54206B
:101803006006EE6420FA80047A007B00021901C0AE
:1018130082C083C2AF120501E5E170FC75E10112DC
:10182300044D75E1F112052B120441790712057974
:10183300790112057F790212054F12056112056DB8
:10184300790012057379011205737A557B557C551E
:101853007D001205379002E8E4F0A3F0A3F09002B4
:10186300EC7407F09002EB7403F09002F1E4F09053
:1018730002F0F0900311F012049B12047D79001220
:101883000585906012E4F0A3F0906063F0751B008F
:101893009002C7F09002C9F0A3F09002CCF090023E
:1018A300CD04F09002D704F0900337E4F0D2AFF9FF
:1018B300021CD5C082C0839002B4E08A828B83F07D
:1018C3009002B5E08A828B83A3F09002B6E08A820D
:1018D3008B83A3A3F09002B7E08A828B83A3A3A395
:1018E300F09002B8E08A828B83A3A3A3A3F09002B3
:1018F300B9E08A828B83A3A3A3A3A3021CD27F0490
:10190300020BEF7F01020BEF7F02020BEF74F71262
:101913000B1DEAFEEBFF8908740B120B01E0F8A321
:10192300E0F9E508606674016508601574036508ED
:10193300603374026508602D740465086003021A3D
:101943000BE8497003021A0B740A120B01E0F860EA
:10195300087401686003021A0B7403650860067457
:101963000265087049EE2460F8EF34FFF9C3E89488
:1019730061E9943F4003021A0BEC2460F8ED34FF55
:10198300F9C3E89461E9943F4024807CEE24E0F8B5
:10199300EF34FFF9C3E894E1E9943F506BEC24E0A2
:1019A300F8ED34FFF9C3E894E1E9943F505AC3ECEE
:1019B3009EED9F40537409120B01E0F8600574011A
:1019C300687045740E120B01E0FA600F74016A60CF
:1019D3000A74026A600574036A702D740D120B0198
:1019E300E0F974075960219002E8E0640170057919
:1019F3000C021AADE5089002EBF0600C7401650867
:101A030060067404650870057912021AAD740759EB
:101A1300A3F0EAA3F0E89002E1702FE4F09002B49F
:101A2300E09002E2F09002B5E09002E3F09002B69B
:101A3300E09002E4F09002B7E09002E5F09002B883
:101A4300E09002E6F09002B9802E7401F09002BAA1
:101A5300E09002E2F09002BBE09002E3F09002BC5F
:101A6300E09002E4F09002BDE09002E5F09002BE47
:101A7300E09002E6F09002BFE09002E7F0EA700423
:101A83007900801974016A70047901801074026A04
:101A930070047902800774036A700579031205677D
:101AA3009002E9EEF0A3EFF0790002190674F61242
:101AB3000B1DE9FEC39420500BEE9002F1F060235E
:101AC300EA4B700479128023E0F508750900780861
:101AD300120D30EAFCEBFD7AF27B021205A37402CD
:101AE300120ACB9002F07401F0790002190B74F022
:101AF300120B1DE9FE9002C7E064097003021C1873
:101B0300E0640A7003021C18E0640B7003021C18E3
:101B1300E0640C7003021C18E0640D7003021C18CF
:101B23009002EBE0601664016012E06403600DE074
:101B330064026008E064046003021C8D9002E1E02B
:101B4300600764016003021C8D9002EBE064036094
:101B530005E0640270109002E9C3E094A0A3E0944E
:101B6300005003021C8D9002EBE07003021C8D6495
:101B7300017003021C8DE064047003021C8DEE707F
:101B830003021C26146003021C8D9002E8E064012A
:101B93007003021C1879011204B39002DFEAF0A368
:101BA300EBF09002E87401F09002C7E0706E12054A
:101BB3000D8A088B098C0A8D0B750C03750D007546
:101BC3000E00750F007808790C1208E6750CFF7586
:101BD3000DFF750EFF7808790C1209479002DFE0BC
:101BE300F8A3E0F5838882A3A3780812097C900206
:101BF300DFE0F8A3E0C82406F582E83400F583E4C7
:101C0300F0A3F0120465E960107ADF7B021204B9D5
:101C13009002E8E4F0792180051204A179007F089D
:101C2300020BEF9002E8E060ECA2AFE433FFC2AF37
:101C33007ADF7B021204B99002E8E4F01204CBE9E4
:101C43007041120501906182E0C2E6F0E5E170FCAB
:101C530075E1017591BF75E1F19002CDE06401700A
:101C6300187A207B009002C6E0F91206637A207B83
:101C7300009002C6E0F91205EB7A009002C6E0F983
:101C830012062DEFA2E092AF80927912809074F643
:101C9300120B1DE9FEC39420500BEE900311F0606C
:101CA30023EA4B700479128023E0F5087509007864
:101CB30008120D30EAFCEBFD7A127B031205A374C4
:101CC30002120ACB9002F07401F0790002190BF0B2
:101CD3007900D083D082020132C082C083EA4B7084
:101CE300057912021DD39002C7E06005790C021D2D
:101CF300D38A828B83E0F47060A3E0F4705B8A8202
:101D03008B83A3A3E0F470518A828B83A3A3A3E004
:101D1300F470468A828B83A3A3A3A3E0F4703A8A68
:101D2300828B83A3A3A3A3A3E0F4702D9002C0E04E
:101D33009002B4F09002C1E09002B5F09002C2E0CC
:101D43009002B6F09002C3E09002B7F09002C4E0B4
:101D53009002B8F09002C580709002B4E09002C087
:101D6300F09002B5E09002C1F09002B6E09002C29A
:101D7300F09002B7E09002C3F09002B8E09002C482
:101D8300F09002B9E09002C5F08A828B83E0900262
:101D9300B4F08A828B83A3E09002B5F08A828B83AE
:101DA300A3A3E09002B6F08A828B83A3A3A3E0905F
:101DB30002B7F08A828B83A3A3A3A3E09002B8F0B7
:101DC3008A828B83A3A3A3A3A3E09002B9F0790033
:101DD300021CD5C082C0839061907404F0A3744840
:101DE300F0A37402F09061807440F09061BC7403BE
:101DF300F09061877419F0906265741BF0906249EA
:101E0300E0C3941390619C400A7409F09060667477
:101E1300018007740DF0906066E4F090619A74336A
:101E2300F0A37455F09061A0743AF0900336E06427
:101E3300017009C2919002CB746780059002CB7444
:101E430061F090155EE493906186F0901558E493E9
:101E5300F46027E493540FF8906185E0686012E51D
:101E6300C654804449F5C6E59E547F644970F8E83A
:101E7300F053C680E59E547F70FA790512058B8076
:101E830074C082C083E9540FF9906185E0696012E0
:101E9300E5C654804449F5C6E59E547F644970F80D
:101EA300E9F053C680E59E547F70FA8048C082C033
:101EB30083E5A8F853A87E906181E4F0A3F0A3F032
:101EC300C2BA539AFEC289759B00C2C275E90075F6
:101ED300910075BF0075A91175B905906181F0A3D3
:101EE30074C0F0A3E4F0D2BA439A0174805842A8B4
:101EF3008003F0A3F0D083D082020132C082C0837A
:101F030074F8120AB59002C9E0F8A3E0F9E8497041
:101F1300030220189002C9E0544060237908851811
:101F230082851983AA82AB83120489851882851955
:101F330083AA82AB831203C99002C9E054BFF0E0C5
:101F4300A2E0503190619A7433F0A37455F090611C
:101F5300A0743AF0900336E064017009C2919002D4
:101F6300CB746780059002CB7461F01203CF9002AB
:101F7300C9E054FEF0E05402603190619A743FF07E
:101F8300A3745AF09061A0747FF0900336E064016B
:101F93007009D2919002CB747180059002CB746A60
:101FA300F01203CF9002C9E054FDF0E05404601333
:101FB30090155CE493906186F01203D59002C9E01A
:101FC30054FBF0E05408601390155DE49390618630
:101FD300F01203D59002C9E054F7F0E054106013F7
:101FE30090155EE493906186F01203D59002C9E0E8
:101FF30054EFF0E05420600A1203D59002C9E05474
:10200300DFF0A3E05401600D12045F1203DB9002C2
:10201300CAE054FEF07408120ACB021EF874EC12E4
:102023000B1D74F4120AB5851882851983AC82AD31
:102033008375838075821474041209C890155C93A8
:10204300F460030221AC907808E0C39402500302C9
:10205300218C7404120B01AC82AD8375838075826D
:102063000C74081209C88518828519838582128524
:1020730083137404120B01AC82AD83750EFF750FCD
:10208300FF7FFF7E00750C48750D78801574086E10
:10209300700302212074096E7003022120740A6EFA
:1020A300607B850C82850D83780812096D8C828D87
:1020B30083A909E50AC9F88810741878081208AECC
:1020C300E5104508F8C3E098A3E099850C82850DD7
:1020D30083780812096D40188C828D8374187808F0
:1020E3001208AEE5104508F8E0C398F8A3E0801C99
:1020F300741878081208AEE5104508FAE9FB8C82DB
:102103008D83E0F8A3E0F9EAC398F8EB99F9C3E803
:10211300950EE9950F5006880E890FEEFF0EE50C1C
:102123002404F50CE50D3400F50DEEC394135003B0
:1021330002209074FF650E700474FF650F60238F97
:102143000874027808120AA274482508F582747884
:102153003509F583780812096D851282851383E5A5
:1021630008F0EC2402FCED3400FD85128285138314
:10217300A3858212858313740C120B01E5826C70A4
:1021830003E5836D600302207E75080175090078FD
:1021930008120D307402120B01AC82AD837A577BA7
:1021A300051206C37402120ACB740C120ACB7F0CFD
:1021B300020BEFC082C0839061AE7468F0A3746AAF
:1021C300F090624574FBF0A304F053F4FD43FE0268
:1021D3009003367401F09061A0E0643A90619A70C4
:1021E300237433F0A37455F09061A0743AF0740132
:1021F30064017009C2919002CB746780289002CB6E
:1022030074618021743FF0A3745AF09061A0747FCD
:10221300F0740164017009D2919002CB747180054E
:102223009002CB746A021EF7C082C08375E1F190FD
:1022330002EBE024FE605214705412046B9002E12E
:10224300E0F97AE27B021205317AD67BBE7C897D86
:102253008E12055B7A557B557C557D0012053790B0
:1022630002ECE0F9120543790112057F9002DFE0E9
:10227300F8A3E0C82416F582E83400F5837477F0F8
:10228300A37404F07900021EF812047180AF79126E
:1022930080F474F7120B1D9002F1E02407F5D99036
:1022A30002E1E0C4333354C04402F5D978DF790244
:1022B30088828983A3A3A3E0F5D988828983A3A80D
:1022C30082A983E864E57003E9640270E39002F194
:1022D300E0601F78DF7902FAE82413F582E934001D
:1022E300F583E0F5D988828983A3A882A9831AEAB2
:1022F30070E675E1959004797435F0A37404F0A346
:102303007435F0A37404F0A37435F0A37404F0A33C
:102313007435F0A37404F0A37435F0A37404F0A32C
:102323007435F0A37404F0A3743BF0A37404F09029
:1023330004877495F0A37404F0A37495F0A3740454
:10234300F0A37495F0A37404F0A37495F0A374043C
:10235300F0A37495F0A37404F0A37495F0A374042C
:10236300F09002DFE0F8A3E0C8240EF582E8340021
:10237300F58374FFF0A3F0A3F0A3F09002DFE0F87D
:10238300A3E0C82414F582E83400F5837414F090B4
:1023930002C7740402251374F7120B1D9002F1E0B7
:1023A3002407F5D99002E1E0C4333354C04406F561
:1023B300D978DF790288828983A3A3A3E0F5D9883A
:1023C300828983A3A882A983E864E57003E9640290
:1023D30070E39002F1E0601F78DF7902FAE82413DA
:1023E300F582E93400F583E0F5D988828983A3A8CF
:1023F30082A9831AEA70E6900311E02407F5D990C5
:1024030002E1E0C4333354C04404F5D978DF7902E0
:1024130088828983A3A3A3E0F5D988828983A3A8AB
:1024230082A983E864E57003E9640270E390031111
:10243300E0601F78DF7902FAE82433F582E934009B
:10244300F583E0F5D988828983A3A882A9831AEA50
:1024530070E675E195900479742FF0A37404F0A3EA
:102463007495F0A37404F0A37495F0A37404F0A31B
:102473007495F0A37404F0A37495F0A37404F0A30B
:102483007495F0A37404F0A3743BF0A37404F09068
:1024930004877495F0A37404F0A37495F0A37404F3
:1024A300F0A37495F0A37404F0A37495F0A37404DB
:1024B300F0A37495F0A37404F0A37495F0A37404CB
:1024C300F09002DFE0F8A3E0C8240EF582E83400C0
:1024D300F58374FFF0A3F0A3F0A3F09002DFE0F81C
:1024E300A3E0C82414F582E83400F5837415F09052
:1024F30002C77403022513C082C0839002DFE0F891
:10250300A3E0C82406F582E83400F583E4021EF54F
:10251300F07F01020BEFC082C08378CE79028882FC
:102523008983A3E4F088828983A3A882A983E864CA
:10253300D67003E9640270E69002CF7401021EF7BD
:1025430074F4120B1D122C57600579110226139097
:102553000281E05405603090029E122C60600512E7
:102563002C5270057910022613900281E0A2E040FC
:102573000612038DE960158E828F83E0F874036879
:10258300600A740268600579120226137A0C7B00D4
:1025930012061590029C1227BC122C5D606E122A43
:1025A30076E508122A5DE4F0750A0AF50B780A123B
:1025B3000D30EEFCEFFD90029CE02402FAA3E03420
:1025C30000FB1205A37402120ACB12034BE9FE604F
:1025D3000512036F8038900282E0640370307A1D25
:1025E3007B001202F79002831227BC900283122C05
:1025F30060601B90801C120D437A047B009002A440
:10260300E0F912065D7404120ACB80027E13EEF920
:10261300022B8574EE120B1D890C8A0A8B0B8C0E10
:102623008D0F900281E0540570030226B874016592
:102633000A700D90029E122C60607A90029E800BAD
:102643009002A0122C60606D9002A0E0FEA3E0FF58
:10265300EBC394205008EB6009EC450F700479023A
:102663008055E50C900471F08E828F83A3858208D8
:102673008583097C1F7D007900AA08AB091205AF89
:10268300850B107511007810120D30AC0EAD0FAA2A
:1026930008AB091205A37402120ACB8E828F83E55D
:1026A3000BF0F9E50AAA08AB0960051203B180072C
:1026B3001203B7800279127F0A020BEF74F7120B31
:1026C3001DE9FE122C5D700479128039122C526EB2
:1026D30060047903802F7A027B009002A4E0F91250
:1026E30006639002A2E4F0A3F07A04FB9002A4E054
:1026F300F9120663900283E4F0A3122A5D7403F0D7
:1027030079001203BD0227B4D083D0820201327450
:10271300F7120B1D90029E122C60600D122B8A1271
:10272300061B90029EE4F0A3F09002A0122C6060BE
:10273300109002A0122B8D12061B9002A0E4F0A3AE
:10274300F0900281E05405605F7A727B0412039972
:102753007E00900281E05405604A7A207B001206D5
:10276300151227B990029E122C6060367C207D00E2
:1027730079001205AF7A207B001206159002A01291
:1027830027BC9002A0122C60600B7C207D00790096
:102793001205AF800F122B8A12061B90029EE4F0E3
:1027A300A3F07E13EEF980097A007B001203997976
:1027B300007F01020BEF90029EEAF0A3EBF022747C
:1027C300F6120B1D7E018A828B83A3A3A3E0FCA3D5
:1027D300E0FD8C088D097808120D74062004482842
:1027E300ED27482828282828FE278A828B83A3A33D
:1027F300A3A3A3122A6D12035180268A828B83A37B
:10280300A3A3A3A3122B9388828983A3E0FC8882CA
:102813008983A3A3E0FBECFA88828983E0F912039E
:1028230057E9FE802174086C700374206D7004797D
:1028330001800279008A828B83A3A3A3122C4DFA11
:1028430012035D80011EEEF9022AB774F2120B1D0A
:10285300122C5D7003022926122A64A3E0F50A12E2
:10286300038DE960137A0A7B001202F78A088B0949
:10287300AE08AF097A0B802A120375E960137A0652
:102883007B001202F78A088B09AE08AF097A07802A
:10289300117A087B001202F78A088B09AE08AF0988
:1028A3007A097B001202F78A088B09900282E07092
:1028B30005750B008003750B0190029CE02404FA5C
:1028C300A3E03400FB122A5EA3A3E0F912030F90E6
:1028D300029CE0F8A3E0C8240B12292D120D3490BA
:1028E300029CE0F8A3E0C8240A12292D120D3490AB
:1028F300029CE02404F50CA3E03400F50D780C12DF
:102903000D30E9F50C780C120D34780B120D34A947
:102913000AAC08AD09EEFAEFFB1203AB7406120A18
:10292300CB800279017F06020BEFF582E83400F5D4
:1029330083E0F50C780C2274F7120B1DE9FE122CC0
:102943005D601EEE700C122A647401F0F91203BD6F
:10295300E9FEEE60087A007B00F9120369790180D1
:102963000279000227B474EC120B1D890A122C5948
:102973007003022A56122A64E064016003022A29C2
:10298300120375E960557A017B001202F78A0C8BFA
:102993000DE4F50EF50FC3EA9442EB9400402B903F
:1029A300801C120D437A027B009002A4E0F9120608
:1029B3005D7404120ACBE50C24C4F8E50D34FFF969
:1029C3009002A2E8F0A3E9F08041908018781012F9
:1029D300096D780C79101207BF80107A007B001202
:1029E30002F78A0C8B0DE4F50EF50FE50C450D454A
:1029F3000E450F6016780C120D2C7A027B009002A4
:102A0300A4E0F91206577404120ACB122A5E740268
:102A1300F0900285E0700BEEFAEFFBA90A1203694E
:102A2300802DE4F08029900285E070237A037B00F7
:102A33001205B5EA4B60158A828B8374D0F0A3E547
:102A43000A122ABC7404122A691205C112036F798F
:102A530001800279007F0C020BEFF090029CE0F8FA
:102A6300A3122A76A322F090029CE0F8A3122A76FE
:102A7300E0F922E0F58388822274F6120B1DE9FE49
:102A8300EAFF900471E0F4602B7A047B001205B531
:102A9300EA4B60208A828B8374D0F0EFA3122ABCA6
:102AA3007402F0EE8A828B83A3A3A3F0900471E0F7
:102AB300F91205C17F02020BEFF08A828B83A3A375
:102AC3002274F4120B1DE9FE74016E6003022B6085
:102AD3009002A2122C606006900285E06012122C14
:102AE3005D7003022B83122C52F9120339022B83DC
:102AF3009002A2C3E0943CA3E09400400D9002A294
:102B0300E024C4F0A3E034FF80507A027B009002FB
:102B1300A4E0F91206639002A2E0F508A3E0F50928
:102B2300E50875F0E8A4C508A8F075F003A428F833
:102B330075F0E8E509A428F509E4F50AF50B78082A
:102B4300120D2C7A027B009002A4E0F9120657744E
:102B530004120ACB9002A2E4F0A3F08023122C5DAE
:102B6300601E900281E0A2E250167A027B0090027E
:102B7300A4E0F91206639002A2E4F0A3F012036F3B
:102B830080007F04020BEF90029EE0FAA3E0FB2299
:102B9300E0F8A3E0F92274F4120B1D122C57602FF6
:102BA3007A057B001205B5EA4B601D8A828B83741C
:102BB300D0F0A3E508122ABC7403122ABCA3EEF0DA
:102BC300A3EF122A691205C1E508600312036F021D
:102BD3002B85C082C083122C5D601090029C122B47
:102BE3008D12061B90029CE4F0A3F002270B74F6EF
:102BF300120B1D74FF120AB590029E122C606040E6
:102C030090029EE02401F508A3E03400F50978085A
:102C1300120D3090029E122C4FFC7402120B01AA6B
:102C230082AB8379011203277402120ACB8A828B47
:102C330083E58245836009E0A2E0500479018002C4
:102C430079007401120ACB022AB7A3A3E0F8A312F6
:102C53002A76E0228908EAFEEBFF90029C122B936E
:102C6300E8492274F4120B1D74FC120AB57F00901C
:102C73000421E4F090041EF07E7D750804750900BC
:102C83007808120D307402120B137A007B00EEF9F0
:102C93001206BD7402120ACB908020780812096DC7
:102CA300851882851983780812076B701990041EA2
:102CB300E0600FF9120735EEF912073590041EE4B0
:102CC3008001EEF080188518828519831209A3E824
:102CD300494A4B7004EEFF8005EEF91207350EEEFC
:102CE300C3947F409590041EE07026EF7018797DA1
:102CF30012072990041F7404F0A3E4F0900421E068
:102D0300601979008017F012073BEFF9120747802B
:102D13000AEF6004F912072F12073B7901022DB65F
:102D230074F7120B1D74FC120AB5E9FE851882852F
:102D33001983E4F0A3F0A37410F0A3E4F0AC18AD8E
:102D430019FAFB120753900421E07005EE90041E5C
:102D5300F07404120ACB7F01020BEF74F4120B1D03
:102D630074FF120AB58908900421E070321206C973
:102D73007E007F00750A01750B00780A120D30740E
:102D830002120B13EEFAEFFBA9081206BD7402122E
:102D93000ACB851882851983E0F4600890042174B6
:102DA30001F0800B0EEE70010FC3EF940840C57461
:102DB3000180027404120ACB7F04020BEF74F41235
:102DC3000B1D74FF120AB589087E007F00750A0186
:102DD300750B00780A120D307402120B13EEFAEF22
:102DE300FBA9081206BD7402120ACB851882851945
:102DF30083E0F46007A90812072F800B0EEE700121
:102E03000FC3EF940840C680A674F4120B1D74FC24
:102E1300120AB57EFC7F077508047509007808124D
:102E23000D307402120B13EEFAEFFB90041EE0F95F
:102E33001206BD7402120ACB908044780812096D01
:102E4300851882851983780812076B700AEE24FCB3
:102E5300FEEF122EEB50C01231B9E8F0A3E9F002F5
:102E63002DB674F4120B1D74FC120AB58908EAFE20
:102E7300EBFF8C09EE24FCFEEF122EEB4063750A88
:102E830004750B00780A120D307402120B13EEFA5C
:102E9300EFFBA9081206BD7402120ACB7402120BCF
:102EA300011230A685188285198385090AE0650A0F
:102EB3007002A3E0700AEEC398FAEF9400FB80253A
:102EC300E9548070AFE82404FAE439FBC3EE9AEFC7
:102ED3009B400EEEC398F8EF99F9E824FCFEE980D5
:102EE300987A007B00022DB634FFFFC3EE9404EF03
:102EF30094002274F0120B1D74F3120AB5E98518BD
:102F030082851983F0750FFF647D7005750E7E80D1
:102F130003750E7D750A04750B0090041FE024FCF5
:102F2300FEA3E002301F7403120B01A3E054806080
:102F33000302300E7403120B01850F08E06508705D
:102F430002A3E0700302300E7403120B01E0F50FCD
:102F5300FCAA0AAB0BA90E1207418B09EA450960CB
:102F63000302300E7405120B011230ACF508EF9911
:102F7300F5097407120B01E8F0A3E9F07401120BD1
:102F830001E4F0A3F0750C04750D00780C120D30FC
:102F9300740B120B137403120B01E02508FAA3E060
:102FA3003509FB90041EE0F91206BD7402120ACB28
:102FB3007409120B137401120B01E0250AFAA3E042
:102FC300350BFBA90E1207537401120B01E0240405
:102FD300F0A3E03400F07407120B01C082C08374C5
:102FE30001120B011230A6D083D082C3E098A3E074
:102FF3009950927405120B01E02404F8A3E0340005
:10300300F9E50A28F50AE50B39F50B7405120B01EE
:103013001230ACF8EF99F9E824FCFEE9122EEB40EC
:103023005D900421E0707775080475090078081233
:103033000D307405120B13EEFAEFFB7402120B0141
:10304300E0F91206BD7402120ACB7403120B01E0FD
:10305300F47003A3E0F46003022F297405120B013B
:103063001230A654806007EE24FCFEEF80AEE82405
:1030730004F8500109C3EE98EF99508F8020A90EF0
:10308300120729900421E0700A90041FE50AF0A3B7
:10309300E50BF0851882851983E0F912072F740D6B
:1030A3000231B1E0F8A3E0F9221230A6EEC3982270
:1030B30074F1120B1D74FC120AB5890E8A088B0970
:1030C3008C0C8D0D7413120B01E0FE8015E50824A2
:1030D30004F508E43509F509E50C2404F50C500260
:1030E300050DEEFF74FF2F1E04603D750A04750B7A
:1030F30000780A120D307402120B13AA08AB09A947
:103103000E1206BD7402120ACB780A120D30AC0CF3
:10311300AD0D7402120B0B1205A97402120ACBE94E
:1031230070AB9004217401F07404120ACB7F070280
:103133000BEF74F0120B1D890AEAFEEBFF8C0E8D68
:103143000F900421E0704D7508017509007808128D
:103153000D308E088F0974027808120A93890CF5D2
:103163000D7409780C120AA2E5082400FAE5093562
:103173000DFB1206C37402120ACB750801780812FC
:103183000D34AC0EAD0FEEFAEFFBA90A12074D7426
:1031930001120ACB0231B4C082C083120723E97043
:1031A30004790180027900D083D082020132120AAD
:1031B300CB7F08020BEFEE2404F8E43FF990041FE1
:1031C30022C082C083900342E4F090034174FFF075
:1031D30090033EF090033DE4F090033CF090033FF6
:1031E300F0A3F002367374F0120B1D90033FE0F569
:1031F30008A3E0F509E508450970061204530232F5
:10320300FC850882850983E014600A14600724FEA4
:1032130060030232FCE0F91204AD8A0A8B0BAE0A9A
:10322300AF0BEE65087003EF650970030232F98E88
:10323300828F83E0640160030232FC12046512058D
:103243000D8A088B098C0A8D0B750C0A750D007598
:103253000E00750F007808790C1208E67808120D35
:103263002C8E828F83A3A312098B12143974041238
:103273000ACBE9707712050D8A088B098C0A8D0B2E
:10328300750C037808790C1208E6750CFF750DFFB1
:10329300750EFF7808790C1209478E828F83A3A3DA
:1032A300780812097C9002C7E06402702C8E828F2A
:1032B30083A3A3750800750908750A007808120826
:1032C300F97808790C120947EE240EF582EF3400E1
:1032D300F583780812097C8013EE240EF582EF340F
:1032E30000F58374FFF0A3F0A3F0A3F090033E7402
:1032F30001F0EEFAEFFB1204A77F08020BEF74F064
:10330300120B1DEAFEEBFFEE2402F8EF3400F988FE
:10331300088909EE2406F8EF3400F9880A890B8836
:1033230082F583120D4785088285098312098B1262
:1033330004EF7402120ACB850A82850B83120D47B0
:1033430085088285098312098B1204E37402120A29
:10335300CBEE240EF582EF3400F58312098B1204B1
:10336300F58E828F83E06440701CEE2412F8EF34F4
:1033730000F988828983E0906064F088828983A35E
:10338300E09060658006906064E4F0A3F090033FF2
:10339300EEF0A3EFF0EE2416F582EF3400F583E0B0
:1033A300F8A3E0F5838882120B1B906054E4F0A32A
:1033B300F0A3F0A3F0A3F0A3F0A3F0A3F0A3F0A372
:1033C300F0A3F0A3F0906182E0C2E6F07591BFEE46
:1033D3002415F582EF3400F583E0640170031205D0
:1033E30025E5E170FCEE2414F582EF3400F583E06B
:1033F300F46003E0F5E1EE2415F582EF3400F58384
:103403007401F09002CDE06401707312050D8A0817
:103413008B098C0A8D0B7808120D2C8E828F83A357
:10342300A312098B1214927404120ACB8A088B0913
:103433008C0A8D0B750C05750D00750E00750F004C
:103443007808790C1207BF740378081208AEE508F0
:1034530024F4F508E5093401F509900338E0600325
:10346300120603E4F50AF50B7808120D2C7A207B7B
:10347300009002C6E0F91206577404120ACB023216
:10348300FC74F0120B1D890874FF6508702A900301
:103493003DE0540770030235A2900341E0640470D9
:1034A3000DA3E0640170257A417B030235A6E06435
:1034B3000160EEE0640260E9900341E06508700C8E
:1034C300A3E0640170067E417F0380127E007F00CB
:1034D300900341E06508700AA3E064017004780179
:1034E30080027800E914600A14603424FE605202FA
:1034F30035A2900341E064027008A3E06401700DFB
:10350300805AE064047006A3E06401604FE8A2E01F
:103513005006EEFAEFFB80047A007B000235A6909A
:103523000341E064047008A3E06401700D802DE0A2
:1035330064017006A3E064016022E8A2E0506080A9
:1035430058900341E064017008A3E0640170458072
:103553000BE06402703EA3E064017038E8A2E0402F
:10356300030234AAA3750CF6750DFF750EFF750FD4
:10357300FF780C1208F9780C120D2C8E828F83A31E
:10358300A312098B1214397404120ACBE9600302E3
:1035930034AA8005E8A2E05006EEFAEFFB80047A35
:1035A300007B000232FC74F7120B1DE9FE9003420C
:1035B300E0705B7401F0EE900341F012050D90038F
:1035C30043120997900347E4F0A3F090034F74FF6D
:1035D300F0A3F0A3F0A3F09003557401F0A3F0A3BC
:1035E300E4F0A3F090033DE04EF090033CE004F0E0
:1035F3006401600A74806E600574406E700A900303
:103603003F7441F0A37403F07A417B0380047A0092
:103613007B007F01020BEFC082C0838A828B83E031
:10362300F8A3E0F98A828B83E4F0A3F0888289838C
:10363300A3F088828983E0F4F890033DE058F0908A
:10364300033CE014F0700B90033FE4F0A3F090020E
:10365300C7F0801CC082C08390033CE0600A9003E3
:103663003FE0FAA3E0FB80047A007B008002E0F9EC
:10367300D083D082020132C082C083E9F890034133
:10368300E0687005A3E0F98002790080E3C082C09E
:103693008390033C80D874F7120B1D7409120B013D
:1036A30012394E801C8C828D83E08A828B83F08C4E
:1036B300828D83A3AC82AD838A828B83A3AA82ABE0
:1036C30083E8FEE9FFEE24FF18EF34FFF9EE4F70B5
:1036D300D402390E74F5120B1DECF8EDF9740B12CC
:1036E3000B01E0F508A3E0F509AC08AD09EC24FFF4
:1036F300F508ED34FFF509EC4D602CEAFCEBFD8C8D
:10370300828D83A3AA82AB83E8FEE9FF8E828F8337
:10371300A3A882A9838C828D83E0FC8E828F83E0B1
:103723006C60C67900800279017F03020BEF74F6A7
:10373300120B1DE9FE8C088D097808120D308E08D6
:10374300AC087D0012075F7402120ACB02391374AE
:10375300F6120B1DEAFEEBFFEE4F603DEE2405FA79
:10376300E43FFB1206158A088B09A808A909E84952
:10377300602788828983E4F0A3F088828983A3A3E6
:10378300EEF0A3EFF088828983A3A3A3A374FFF0D1
:10379300E82405FAE439FB80047A007B000239133C
:1037A300C082C083EA4B70047905801612383560F5
:1037B300047904800DEA24FBFAEB34FFFB12061BA9
:1037C3007900D083D08202013274F7120B1D7C0082
:1037D30002390B74F7120B1DE9FEECFFEA4B602173
:1037E300908048E0F8EEC39840071205BB79038048
:1037F3003E1239C3123918700512383560071205A5
:10380300BB7905802AEEF074016F700DEAFCEBFDC5
:103813007A607B031205D9800BEAFCEBFD7A607BAF
:10382300031205D37A007B80EEF91205E5790002D5
:10383300390EEA24FFF582EB34FFF583E0F42274BA
:10384300F4120B1D8908750A00750B007E007F00BA
:10385300A2AFE433F509C2AF9003608011EE4F705D
:1038630004880A890BE824FBF582E91239C9123965
:10387300186023E824FFF582E91239C9E06508706E
:10388300DCEE4F7006E8FEE9FF80DA7A007B80A960
:10389300081205E5800D7A007B80A9081205EBEE7E
:1038A3004F6015780A120D30EEFCEFFD7A607B0352
:1038B3001205DF7402120ACBE509A2E092AFEEFA19
:1038C300EFFB7F04020BEFE0FAA3E0FB2274F71295
:1038D3000B1DEAFEEBFFA2AFE433FAC2AFEC24FB0D
:1038E300F582ED1239C9E4F0A3F080031239CE8ECC
:1038F300828F8312391870F48E828F83ECF0A3EDDC
:10390300F0EAA2E092AF80031205C77F01020BEF3A
:103913007F02020BEF12394EE8492274F7120B1D96
:10392300E5A8FEC2AF8A828B8312394EEC24FBF5E5
:1039330082ED1239C9E8F0A3E9F08A828B83ECF0B7
:10394300A3EDF0EEA2E7A2E7023907E0F8A3E0F95E
:103953002274F4120B1DA2AFE433FEC2AFEC24FBBE
:10396300F8ED34FFF9880889098882F58312394E06
:103973008A828B83E0F50AA3E0F50BEC650A7003FA
:10398300ED650B70068A828B838012740C120B0117
:10399300E0FAA3E0CA24FBF582EA1239C9E8F0A3EE
:1039A300E9F0850882850983E4F0A3F0EC24FFF5B0
:1039B30082ED1239C974FFF0EEA2E092AF0238C56E
:1039C300EA24FBF582EB34FFF58322E824FBF8E9D4
:1039D30034FFF9E8FEE9FF2274F7120B1DE9FD90AD
:1039E3008048E0F8EDC398502AE5A8FEC2AFED2960
:1039F300F8E433F9900374E028FCA3E0398C82F5F2
:103A030083E04AF0A3E04BF0EEA2E7A2E792AF799E
:103A1300008002790302390E74F7120B1DE9FE9040
:103A23008048E0F8EEC3985022E5A8FFC2AFEAF45D
:103A3300FCEBF4FDEE29123B28E05CF0A3E05DF023
:103A4300EFA2E7A2E792AF79008002790302390E71
:103A5300C082C083120609900360E4F0A3F012064B
:103A63003F12062112063912060F79000237C5C02C
:103A730082C0831205FD80FB74F4120B1D750800D0
:103A83001206031206B7A808E828123B28123918B1
:103A9300700D0508908048E0F8E508C39840E7906A
:103AA3008048E0F8E508C398506CE5A8FCC2AFAEC7
:103AB30008EE2EFEE433FF900374E02EF8A3E03FFC
:103AC300F9888289831238CA88828983E4F0A3F053
:103AD300ECA2E7A2E792AFE508900493F0F9740033
:103AE3002EF58274803FF583123B1F120B1B90044B
:103AF3009374FFF0E5A8F9C2AF900374E02EF8A326
:103B0300E03F8882F583E04AF0A3E04BF0E9A2E7C7
:103B1300A2E792AF80031206330238C5E0F8A3E0B0
:103B2300F583888222F8E433F9900374E028FAA33A
:103B3300E0398A82F5832274F2120B1D89088C0CFA
:103B43008D0D7509008982AE827F008A0A8B0B78FE
:103B53000A120D74020308CE3C6E3BC93BE33B19CA
:103B63003C4E3C653C7C3C9A3CB13C74016508602E
:103B730003023CC9900597E0F88C828D83E09005A1
:103B830097F0E8601CE06003023CF1900380E0647E
:103B9300026003023CF190037FE0F9120339023C17
:103BA300F1E07003023CF1900380E064016008E0FF
:103BB30064036003023CF17A017B0090037FE0F928
:103BC3001205E5023CF1740265086003023CC98CEE
:103BD300828D83123F84900598E8F0A3E9023CC6E6
:103BE300E9C394204003023CC97C1F7D0079007A1D
:103BF3009B7B051205AF8E0A8F0B780A120D30AC32
:103C03000CAD0D7A9B7B051205A37402120ACBEE51
:103C130090059A023CC6E9C394204003023CC97C48
:103C23001F7D0079007A897B031205AF8E0A8F0B03
:103C3300780A120D30AC0CAD0D7A897B031205A303
:103C43007402120ACBEE90038880787401650870C1
:103C5300758C828D83E0F8C39405506AE89003A8BD
:103C6300806174016508705E8C828D83E0F8C39473
:103C7300045053E89003A9804A7406650870477599
:103C83000A068F0B780A120D307AAA7B031205A35A
:103C93007402120ACB80577401650870298C828DD7
:103CA30083E0F8C39408501EE89003B080157401B4
:103CB300650870128C828D83E0F8C394045007E882
:103CC3009003B1F080287509188023C3EA9427EB89
:103CD300940050177402650870118C828D83E0FC88
:103CE300A3E0FD1202F1E9F5098003750902A909B0
:103CF3007F06020BEF7F04020BEF74F6120B1D908D
:103D03000380E07037EA4B60089003B2EAF0A3EB5C
:103D1300F0E4F508F5097808120D307808120D3033
:103D23007C007D007B00900381E0FA90037FE0F943
:103D33001206AB7404120ACB7900800279117F0258
:103D4300020BEF74F7120B1DE990037FF0900380D1
:103D5300E4F012037B9003817401F09003A87403D1
:103D6300F09003A9E4F09003B07407F09003B1E47A
:103D7300F07F01020BEF74F4120B1D74F6120AB5F7
:103D8300EAFEEBFF5480602C90037FE0F91205CD2F
:103D93008A088B09EA450960138A828B83E064D021
:103DA30070031206A5AA08AB091205BBEEFAEF646D
:103DB30080023E4EEEA2E04003023E51900597E0A2
:103DC3007003023E499003A8E0851882851983F0A9
:103DD3009003A9E0C0E07401120B01D0E0F0750874
:103DE300067509007808120D307CAA7D037404124D
:103DF3000B01AA82AB831205A37402120ACB9003B0
:103E0300B0E0C0E07408120B01D0E0F09003B1E021
:103E1300C0E07409120B01D0E0F0AA18AB199003AB
:103E23007FE0F912032DE9601D9003807404F01202
:103E33003E5D6012123F7B88828983E58245836001
:103E4300057904120B1BEE6401FAEFFB80047A0080
:103E53007B00740A120ACB023CF89003B2123F842F
:103E6300E8492274F4120B1D8A828B83A3A3E0F822
:103E7300EA2403FCE43BFD8A828B83A3AE82AF83F7
:103E8300E8601224FE6069147003023F2D1470036E
:103E9300023F2D8058E070317508067509007808D7
:103EA300120D307A827B031205A37402120ACB909F
:103EB30003807401F07C9B7D0590059AE0FB7A01F9
:103EC30090037FE0F9120333E960069003807404E2
:103ED300F0123E5D6017123F7BE8FAE9FBEA4B60A4
:103EE3000C900380E0F98A828B83120B1B023CF84F
:103EF300E0702E8C828D83E0601B7C897D039003B0
:103F030088E0FB7A0090037FE0F9120333E98E82A5
:103F13008F83F0800C7A017B0090037FE0F9120518
:103F2300E58E828F83E070A380C3E0709E74036884
:103F3300700790038074028097900598123E6090FA
:103F43000597602AE06029900598E0F508A3E0F55D
:103F530009E4F50AF50B7808120D2C7A017B009021
:103F6300037FE0F91206577404120ACB8002E4F0CF
:103F73009003807403023ED3E0F5838882123F846A
:103F830022E0F8A3E0F92274F7120B1D90037812D4
:103F93003F9BF07F01020BEFE4F0A3F0A3F0A32219
:103FA30074F1120B1D890EEAFEEBFF12064B740F20
:103FB300120B01780812096DEA4B600D8A828B831C
:103FC300A3A3780812097C806A7A0D7B0012061578
:103FD300EA4B605B8A828B83A3A3A3A3A3A3A3A3BC
:103FE300E50E12403BEEF0A3EFF08A828B83A3A38E
:103FF300780812097C8A828B83E4F0A312403BA3E6
:10400300A3A3123F9CF0900376124354900376606F
:1040130017E0FCA3E08003E8FCE9FD8C828D8312AA
:10402300435470F38C828D83EAF0A3EBF080047A1F
:10403300007B007F07020BEFF08A828B83A3A3A38D
:10404300A3A3A322C082C08390037680048C828DB5
:1040530083E0FCA3E0FDEC4D60238C828D83A3A35E
:10406300A3A3A3A3E06A7003A3E06B70E08C828D2B
:1040730083A3A3A3A3A3A3A3A3E06970D0ECFAED46
:10408300FB024155C082C083EA4B600E8A828B8358
:10409300A3A3A3A3A3A3E4F0A3F002415574F612D0
:1040A3000B1DE5A8FFC2AF740A120B01120D4312D8
:1040B30006457404120ACB8B09A909EFA2E7A2E70C
:1040C30092AFEA4960047900800279087F02020B0B
:1040D300EF74F2120B1DA2AFE433FEC2AF740E12E3
:1040E3000B01780812096D7808120D2C120645741D
:1040F30004120ACBEA4B60128A828B83A3A3A3A385
:10410300A3A3A3A3A3780812097CEEA2E092AFEACB
:104113004B60047900800279087F06020BEF74F488
:10412300120B1DA2AFE433F509C2AF12064B8A0A84
:104133008B0BAE0AAF0BEE4F6003120651E509A2DB
:10414300E092AFEE4F60047900800279067F0402AB
:104153000BEFD083D08202013274F0120B1D74F97D
:10416300120AB58A088B098C0A8D0B7403120B0192
:10417300780812097CE5A8F9C2AF90037878081291
:10418300090CE9A2E7A2E792AF90037612435470B9
:1041930003024344900376E0FEA3E0FF7401120B95
:1041A30001E4F0A3F0750C00750D00A2AFE43385B4
:1041B3001882851983F0C2AFEE2402F50EE43FF5B1
:1041C3000F7405120B0112435470257404120B0172
:1041D300E0701D7403120B01E0F88E828F83A3A39A
:1041E300E0C398400B8E828F83A3A3E0C3988037EC
:1041F300850E82850F83780812096D7403120B01F3
:10420300780812079050177403120B0178081209EB
:104213006D850E82850F837808120933800A850E17
:1042230082850F83123F9BF0EE2404F50AE43FF5E9
:104233000B12434E7054850A82850B8312435470CC
:104243004EEE2409F508E43FF509850882F583124B
:1042530009A3E8494A4B604F8E828F83A3A3A3A38C
:10426300A3A31243C360408E828F83A3A3A3A3A3FC
:10427300A3A3A3E0F91205E5850882850983120942
:10428300A3850E82850F831209AF12434E700B85EF
:104293000A82850B83124354600D8E828F83A3A3FE
:1042A300A3A3124352702E8E828F83E0F8A3E0F90A
:1042B3007401120B011243C37005900376800B74D3
:1042C30001120B01A3E0F5838A82E8F0A3E9F08EE3
:1042D3000C8F0D800A7401120B01EEF0A3EFF08E28
:1042E300828F83E0FEA3E0FF851882851983E0A215
:1042F300E092AFE50C450D6041850C82850D83127C
:104303004352702F850C82850D83A3A312435270F1
:1043130022850C82850D83A3A3A3A3A3A31243BD6C
:10432300850C82850D83A3A3A3A3A3A3A3A3E0F971
:104333001205E5AA0CAB0D12061BEE4F60030241FA
:10434300A87407120ACB7F08020BEF8E828F83A318
:10435300A3E0F8A3E0F9E8492274F0120B1D9003DF
:1043630076124354603D9003761243BD750C8E75EF
:104373000DC2750EF5750F288A828B83A3A3780867
:1043830012096D780C7908120780500C85080C858A
:10439300090D850A0E850B0F8A828B831243C36036
:1043A3000E80D5750C00750D00750E00750F00AAF3
:1043B3000CAB0DAC0EAD0F024349E0FAA3E0FB22B8
:1043C3001243BDEA4B22A2AFE433F8C2AF5394FECB
:1043D300E594A2E240FAE8A2E092AF75A70075A1C6
:1043E30000759CFF75C30075A20075A30075A4003A
:1043F30075A50075A60075C31175A20075A3007598
:10440300A40075A50075A60075C33375A20075A336
:104413000075A40075A50075A60075C34475A200B8
:1044230075A30075A40075A50075A60075C3227554
:10443300A22075A34E75A40075A50075A6007594FA
:1044430008A2AFE433F8C2AF439401E594A2E2506B
:10445300FAE8A2E092AF439402020132A2AFE4333E
:10446300F8C2AF5394FEE594A2E240FAE8A2E00258
:1044730046AFA2AFE433F8C2AF439401E594A2E29E
:1044830050FA80E8E8A2E7A2E792AF0244E7E5A486
:10449300851882851983F0E5A5C0E07401120B012C
:1044A300D0E0F0E5A6C0E07402120B01D0E0F07496
:1044B30003120B01E4F0E8A2E7A2E792AF851882AA
:1044C30085198312098B7404120ACBD083D082021C
:1044D3000132E8A2E7A2E792AF851882851983E04B
:1044E300FAA3E0FB740280E0C082C08374FC120A6A
:1044F300B5851882851983EAF0A3EBF0A3ECF0A34A
:10450300EDF0E5A8FAC2AF53A7BF75C33385188290
:10451300851983E0F5A47401120B01E0F5A574027B
:10452300120B01E0F5A67404120B01E0F8A3E0F905
:104533007404120B01E8F0A3E9F07404120B01E018
:10454300F5A27405120B01E0F5A375A1BF43A740C3
:10455300EA8000A2E7A2E792AF0244C9C082C08307
:1045630074FE120AB5851882851983EAF0A3EBF06D
:10457300E5A8F8C2AF53A7FD75A1FD75C303851860
:1045830082851983E0F5A27401120B01E0F5A3E51E
:104593009C54F04401F59C024487C082C08374FCA0
:1045A300120AB5851882851983EAF0A3EBF0A3EC10
:1045B300F0A3EDF0E5A8FAC2AF53A7BF75A1BF43BF
:1045C3009C0F75C333851882851983E0F5A47401A4
:1045D300120B01E0F5A57402120B01E0F5A67404B9
:1045E300120B01E0F8A3E0F97404120B01E8F0A345
:1045F300E9F07404120B01E0F5A27405120B01E05B
:10460300F5A3E59C54F04408F59CEA02455674F47E
:10461300120B1D74FC120AB5851882851983EAF002
:10462300A3EBF0A3ECF0A3EDF0A2AFE433F9C2AF38
:1046330053A7DF75A1DF7508FF7509FF750AFF75BD
:104643000BFF851882851983780812076B70054361
:104653009CF0802475C340851882851983E0F5A4F6
:104663007401120B01E0F5A57402120B01E0F5A62B
:10467300E59C540F4450F59CE9A2E092AF740412F8
:104683000ACB7F04020BEFE5A8C2AF53A70980153D
:10469300E5A8C2AF53A709759CFF8009E5A8C2AF7F
:1046A300439C0F800375A109A2E7A2E792AF020121
:1046B30032A3A3A3E4F0E8A2E7A2E792AF0244CEB9
:1046C300C082C08374FC120AB5E5A8F8C2AF75C3F3
:1046D30000E5A2024491C082C083E5A8F8C2AF7589
:1046E300C300E5A28A828B83A3A3A3A3F0E5958CE1
:1046F300828D83F0E5A38A828B83A3A3A3A3A3F074
:10470300E5A48A828B83F0E5A5A3F0E5A68A828BD4
:1047130083A3A3F08A828B83A3A3A3E4F0E5968CFF
:10472300828D83A3F0E5978C828D83A3A3F08C8283
:104733008D830246B4C082C08374FE120AB5E5A815
:10474300F8C2AFE5C3F975C300E5A2E5A4851882F5
:10475300851983F0E5A5C0E07401120B01D0E0F0E8
:1047630089C30244D574F7120B1D74FB120AB5E911
:1047730090037EF07402120B017401F07403120BA8
:10478300017403F0A3E4F07AE97B041203C3740118
:10479300120B017402F0120B1379017A027B0312DC
:1047A300068D7403120B1379027A037B0312068DB1
:1047B3007C947D0479117A057B0312068D7C077D39
:1047C30005791C7A047B0312068D7401120B13798D
:1047D300017A067B0312068D124A7C12068D7C80B9
:1047E3007D0C7A067B001202F17C807D0C7A077BBC
:1047F300001202F17C807D0C7A087B001202F17CAE
:10480300807D0C7A097B001202F17A017B00900310
:104813007EE0F91205E57405120ACB7F01020BEF66
:1048230074F6120B1D74FF120AB590037CE0240189
:10483300F0A3E03400F090037CC3E09405A3E0947C
:1048430000A2D265D033400790037CE4F0A3F08547
:104853001882851983E4F0AC18AD1979017A027BCB
:104863000312068D90037CE0F508A3E0F5097808B0
:10487300120D740000030A4A8348E5484749A949D1
:10488300120765EAF8EBF97AFF7B00120A22EA9035
:104893000519F0120765EAF8EBF97AFF7B00120AB3
:1048A30022EA90051CF0120765EAF8EBF97A307BEF
:1048B30000120A22EA2420900520F07C077D057B64
:1048C3001C7A0190037EE0F91203337C947D047B10
:1048D300117A0090037EE0F91203337AE97B040234
:1048E3004A69120765EAF8EBF97AFF7B00120A229C
:1048F300EA900535F0120765EAF8EBF97AFF7B00D9
:10490300120A22EA900538F0120765EAF8EBF97A01
:10491300307B00120A22EA242090053CF07C237DA0
:10492300057B1C7A0190037EE0F91203337CA57D9D
:10493300047B117A0090037EE0F91203337AEF7B54
:1049430004024A69120765EAF8EBF97AFF7B001261
:104953000A22EA900551F0120765EAF8EBF97AFFAB
:104963007B00120A22EA900554F0120765EAF8EB7D
:10497300F97A307B00120A22EA2420900558F07C51
:104983003F7D057B1C7A0190037EE0F91203337CA3
:10499300B67D047B117A0090037EE0F91203337A2B
:1049A300F57B04024A69120765EAF8EBF97AFF7BA3
:1049B30000120A22EA90056DF0120765EAF8EBF996
:1049C3007AFF7B00120A22EA900570F0120765EA6B
:1049D300F8EBF97A307B00120A22EA24209005745E
:1049E300F07C5B7D057B1C7A0190037EE0F912036A
:1049F300337CC77D047B117A0090037EE0F91203B8
:104A0300337AFB7B04805F120765EAF8EBF97AFFE0
:104A13007B00120A22EA900589F0120765EAF8EB97
:104A2300F97AFF7B00120A22EA90058CF0120765DF
:104A3300EAF8EBF97A307B00120A22EA2420900587
:104A430090F07C777D057B1C7A0190037EE0F91260
:104A530003337CD87D047B117A0090037EE0F91246
:104A630003337A017B051203C3124A7C12068D7449
:104A730001120ACB7F02020BEF851882851983741A
:104A830001F0AC18AD19F97A027B032274F7120B0B
:104A93001DEAFEEBFF54806005EF6480804BEEA2BD
:104AA300E05023908024120D437A027B0090037E12
:104AB300E0F91206577404120ACB7A937B051206A7
:104AC30093EE6401802154026022908024120D43EE
:104AD3007A027B0090037EE0F91206577404120AEF
:104AE300CB12067BEE6402FAEFFB80047A007B00B4
:104AF30002481E02013274F0120B1D75E18112058A
:104B03003DE970089002ECE0F912054379011204C3
:104B1300C5E964016003024CBC900332E0F8A3E0F2
:104B2300F9E8496010900332E0FAA3E0FB90033107
:104B3300E0F91205E59002F0E064016003024C0223
:104B430075E191A3E02407F5D99002E1E0C4333382
:104B530054C04406F5D978DF790288828983A3A3F8
:104B6300A3E0F5D988828983A3A882A983E864E5B1
:104B73007003E9640270E39002F1E0601F78DF796B
:104B830002FAE82413F582E93400F583E0F5D988C5
:104B9300828983A3A882A9831AEA70E6900311E0AD
:104BA3002407F5D99002E1E0C4333354C04404F53B
:104BB300D978DF790288828983A3A3A3E0F5D98812
:104BC300828983A3A882A983E864E57003E9640268
:104BD30070E3900311E0601F78DF7902FAE8243371
:104BE300F582E93400F583E0F5D988828983A3A8A7
:104BF30082A9831AEA70E675E1959002F0E4F01257
:104C03000483E9FC9002DFE02402F8A3E03400F916
:104C1300E8FAE9FB8A828B83EC75F0118485F0084E
:104C230085080CE4F50DF50EF50F780C1208F990D4
:104C330002E9E0F508A3E0F509E4F50AF50B780CC1
:104C430079081208E67508FF7509FF750AFF780CE5
:104C530079081209478A828B83780C12097C9002A7
:104C6300DFE0F8A3E0C82406F582E83400F583E426
:104C7300F0A3F09002DFE0F8A3E0C8240EF582E889
:104C83003400F58374FFF0A3F0A3F0A3F09002DFE8
:104C9300E0F8A3E0C82414F582E83400F583741522
:104CA300F09002DFE0F8A3E0C82416F582E83400B0
:104CB300F5837477F0A37404F01204A17F08020B48
:104CC300EF74F0120B1D75E18112053DE970089038
:104CD30002ECE0F912054379011204C5E9640160AD
:104CE30003024E29900332E0F8A3E0F9E84960108B
:104CF300900332E0FAA3E0FB900331E0F91205E5FB
:104D03009002F0E06401706475E191A3E02407F57B
:104D1300D99002E1E0C4333354C04402F5D978DFBB
:104D2300790288828983A3A3A3E0F5D98882898342
:104D3300A3A882A983E864E57003E9640270E390A1
:104D430002F1E0601F78DF7902FAE82413F582E9C3
:104D53003400F583E0F5D988828983A3A882A983E7
:104D63001AEA70E675E1959002F0E4F0120483E923
:104D7300FC9002DFE02402F8A3E03400F9E8FAE94A
:104D8300FB8A828B83EC75F0118485F00885080C0F
:104D9300E4F50DF50EF50F780C1208F99002E9E031
:104DA300F508A3E0F509E4F50AF50B780C79081288
:104DB30008E67508FF7509FF750AFF780C79081274
:104DC30009478A828B83780C12097C9002DFE0F812
:104DD300A3E0C82406F582E83400F583E4F0A3F0E9
:104DE3009002DFE0F8A3E0C8240EF582E83400F572
:104DF3008374FFF0A3F0A3F0A3F09002DFE0F8A325
:104E0300E0C82414F582E83400F5837414F09002AA
:104E1300DFE0F8A3E0C82416F582E83400F58374D4
:104E230077F0A37404F0024CBCC082C08353BFEF7D
:104E330079011204C5E96401700C7ADF7B02120464
:104E4300B99002E8E4F075E1F11204A1D083D082B5
:104E5300020132C082C0839002AC74FFF0A3F0A3BE
:104E6300F0A3F0A3F0A3749FF0A3E4F0A37420F0E5
:104E73009002AB14F0D083D0820201327F02020B86
:104E8300EF7F0A020BEF74EE120B1D8A088B098960
:104E93000B8C0E8D0F90035CE0700990035EE07045
:104EA30003024F559002A9E06003024F55898285A2
:104EB300820C750D00E92407FAE43400FB1205B5F2
:104EC3008A108B11AE10AF11EE4F7003024F667450
:104ED300186508700474206509600C741765087000
:104EE3000474206509701090035EE0600AF50A8E71
:104EF300828F837492800C90035CE0F50A8E828F1C
:104F0300837491F0A3740E124F888E828F83A3A3B0
:104F1300F08E828F8312512BEE2405F8EF3400F9C3
:104F2300E8FAE9FBEE2407F8EF1250FEF0780C12D2
:104F33000D30AC0EAD0F8A828B83E0FAA3E0FB1237
:104F430005A37402120ACBEEFAEFFBA90A1205C1FC
:104F53008011780E120D30AC0B790E1203F374022C
:104F6300120ACB024E8474F6120B1DE9FE8C088DD7
:104F7300097808120D30EEFC79FF1203F374021264
:104F83000ACB024E7FF09002AAE02274F2120B1DAC
:104F930089098A0A8B0B8C0874072508FA74FF6544
:104FA300096004780380027802E82AFA7B0012057C
:104FB300B58A0C8B0DAE0CAF0DEE4F70030250B0E3
:104FC3008E828F837401F0A374FFF0EE2402FAEF54
:104FD3003400FBEE2404F8EF1250EEE5091250E41E
:104FE300E02402F8A3E03400F9890DA90B740E1232
:104FF3000B0112512074FF65096032740325088880
:1050030082850D83124F88C0E01250B5D0E0125054
:10501300DDE50A1250DDA3E9F085080A750B007877
:105023000A120D308A828B83E0240680667402257F
:10503300088882850D83F08C828D83E0C0E0125056
:10504300B5D0E0F08C828D83A3E0C0E01250C9D0CC
:10505300E0F08C828D83A3A3E0C0E01250C9A3D0FB
:10506300E01250D824061250CE1250D8125136E90D
:10507300F085080AE50A24FDF50AE434FFF50B7808
:105083000A120D30EC2403FCED3400FD8A828B837D
:10509300E02408FAA3E03400FB1205A37402120A09
:1050A300CBEEFAEFFB90035AE0F91205C17F06023B
:1050B3000BEF1250B9228A828B83E0F8A3E0F583C9
:1050C3008882A3A3A3221250B9A322F582E8340055
:1050D300F583E50A2212510AC822125117A3A3A38A
:1050E300221250E822F08A828B83221250FE125140
:1050F3000AF58388827404125117223400F98A82D4
:105103008B83E8F0A3E92212510E22F08A828B836B
:105113001251262212510EF5838882A322E0FCA3AA
:10512300E0FD22E0F8A3E022A3A3A3E508F0A3E5B2
:1051330009F0222407F582E83400F58322C082C0F7
:1051430083C3EA9427EB9400501674FF6C700374C6
:10515300FF6D600C125184ECF0A3EDF07900800236
:105163007902025296C082C083C3EA9427EB94006B
:10517300500812518412529D80047AFF7BFF025221
:1051830096EAC333FAEB33FB74232AF58274043BA8
:10519300F5832274F7120B1DE9FEEAFF7C107D00F4
:1051A30079007A867B021205AFEE900422F0EF902D
:1051B3000281F012039FE990028670057401F0806A
:1051C30004E4F079127F01020BEF74F6120B1DE970
:1051D300FF7E00701EEA4B601A7508068E09780878
:1051E300120D30EAFCEBFD7A8D7B021205A37402EB
:1051F300120ACB900286E0640170130EEF700874FC
:1052030002F01203A58007E4F0EFF912031BEEF995
:105213007F02020BEF74F7120B1D7E00EA4B603B1B
:105223008A828B83E07012125347900293E8F0A3B3
:10523300E91253DEE0900295F0900286E06402707A
:105243001A0E8A828B83E0900286700474038001B5
:10525300E4F08A828B83E0F912031BEEF90251C852
:10526300C082C083E9F87900EA4B6025E86022EA4E
:105273002405F582EB3400F5837401687005E0447E
:10528300C0800CE0543FF07403687004E0D2E6F091
:10529300098000D083D082020132E0FAA3E0FB222E
:1052A30074F4120B1D8908900422E0F460507A0A0A
:1052B3007B001205B58A0A8B0BAE0AAF0BEE4F606B
:1052C3003D12534E7408F0900282E08E828F83A3C6
:1052D300A3A3F0750A06750B00780A120D307C96AD
:1052E3007D02EE2404FAEF3400FB1205A3740212CC
:1052F3000ACBEEFAEFFB900422E0F91205C190020B
:1053030085E0640170399002A5125348E84960189A
:10531300E0F5838882A3A3A312534788828983E598
:105323008245836003120B1B90801C120D437A0489
:105333007B009002A4E0F912065D7404120ACB7F8D
:1053430004020BEFA3E0F8A3E0F9228E828F8374AB
:10535300D0F0A3E508F08E828F83A3A32274F41206
:105363000B1D8908900422E0F4606D7A0C7B001217
:1053730005B58A0A8B0BAE0AAF0BEE4F605A125378
:105383004EE4F0750A06F50B780A120D307C8D7D1C
:1053930002EE2403FAEF3400FB1205A37402120A8F
:1053A300CB9002931253488E828F83A3A3A3A3A30C
:1053B300A3A3A3A3E8F0A3E9F0900295E0C0E0EE75
:1053C300240BF582EF3400F583D0E0F0EEFAEFFB27
:1053D300900422E0F91205C1025342F08A828B83C2
:1053E300A3A3A322125533AC82AD8322C082C08310
:1053F30074F9120AB57401120B01AA82AB83120469
:105403000B12550879077A097B101203E7790074A8
:105413000702554CC082C08374FC120AB5851882FA
:10542300851983E4F004120B01741BF07402120B50
:1054330001E4F07403120B01740C12544E7A027BD4
:10544300201203E77900740402554C1253E77904E0
:105453002274F4120B1D74FF120AB5E9FE740D12C7
:105463000B01E0F9740E120B01E0FF740F120B0134
:10547300E0F508A3E0F5097411120B01E0F50A74D5
:1054830012120B01E0F50B780B120D34780A120D92
:10549300347808120D30EFF5087808120D34E9F569
:1054A300087808120D34EEF91204117406120ACBAF
:1054B3001255157A067B201203E779007401120A4C
:1054C300CB7F04020BEF74F7120B1D74FF120AB5A6
:1054D3001204171255157A0802553B74F7120B1D67
:1054E30074FF120AB51204231255157A0902553BAB
:1054F30074F7120B1D74FF120AB512041D12551511
:105503007A0A02553BE9851882851983F0AC82AD8E
:105513008322E9851882851983F0AC82AD837901F2
:1055230022120ACB7F02020BEF7900740302554C5F
:10553300F0851882851983227B201203E779007492
:1055430001120ACB7F01020BEF120ACBD083D08268
:10555300020132E91253E7790322C082C08374FD4A
:10556300120AB5851882851983740CF07401120B25
:10557300017404F01204297402120B011255567AB5
:105583000C7BFC1203ED90035BE060087A007B4028
:10559300F91205E502552C74F6120B1D74F7120A65
:1055A300B5851882851983E4F0750808F50978082C
:1055B300120D30EAFCEBFD7403120B01AA82AB83DC
:1055C3001205A37402120ACB851882851983AC8253
:1055D300AD8379097A187B201203E77409025524F5
:1055E300C082C08374FD120AB5851882851983E4CD
:1055F300F004120B017404F07402120B01E412554F
:1056030057FA7BFC1203ED02552EC082C08374FD52
:10561300120AB58518828519837401F0120B01747F
:1056230004F07402120B01E41255577A0180D3C0BF
:1056330082C08374FD120AB5851882851983741696
:10564300F07401120B017404F07402120B01E412E2
:1056530055577A16025605C082C08312052B1205D0
:105663002502588AC082C0839061B1E0C2E0F0E0B5
:105673004403F0906188E0640470F802588AC082A1
:10568300C0839061C0E0FAE4F0F8F9E82400F58201
:10569300E93460F583E41256B09480E9940140EB59
:1056A300EA9061C0F090618A7401025885F0125645
:1056B300B522E8240108E93400F9C3E822C082C016
:1056C300838A828B83E09060161257CEA3E09060AA
:1056D300171256FE90601812570790601912570C54
:1056E30090601A12571190601BF0E99060157005D5
:1056F300E0C2E08003E0D2E0025889F08A828B8323
:10570300A3A3E02212571CE022125717E0221257DC
:1057130017A3E02212571CA322F08A828B83A3A330
:10572300A32274F0120B1DEA906005F0EBA3F0ECDA
:10573300A3F07F08020BEFC082C083906001E002F8
:1057430057AAC082C083740759906001025889C068
:1057530082C0837401699060037005E0D2E0800326
:10576300E0C2E0025889C082C083906003E054F92C
:1057730049025889C082C083906061E00257AA74CD
:10578300F0120B1DEA90619512581B025733C08229
:10579300C083900359E4F0906022F0A3F0A3783023
:1057A300F0A3D8FC02588AF902588AC082C08390B9
:1057B3006014E054FCF0E049025889C082C0839031
:1057C3006009E40258899061C07401F08A828B8376
:1057D30022C082C0837A007B60E970027A33125759
:1057E300C9E4F0A3F0A3F09061C0025889C082C05D
:1057F30083E9906002025889C082C083E990600205
:105803007005E0D2E38003E0C2E3025889C082C09E
:1058130083E99061C6025889F0EBA3F0ECA3F0EDA5
:1058230022C082C083E9601714601C14601E1460D8
:105833002314602514602A14603314603C80419063
:1058430061E9E054FC80389061E9801C9061E9E0F3
:10585300C2E0802B9061E9801B9061E9E0C2E180A6
:105863001E9061E9E0C2E1F0E0D2E080129061E9CC
:10587300E0C2E0F0E0D2E180069061E9E04403F0A9
:105883008005F0A3F0A3F0D083D08202013274F03C
:10589300120B1D74F8120AB58A088B098C0A8D0B3A
:1058A30090802C78081207A0500C75084075099C4D
:1058B300750A00750B00AC18AD197404120B0B12AA
:1058C3001113125A13706C85188285198378081284
:1058D300096D125A1360559003DF7401F09003DED3
:1058E3007402F090803078081207A04008125A130F
:1058F3006003025A09C2AFE51A7003025A07900304
:10590300DEE0F91212D0E96003025A071206E1122F
:1059130006ED125A1370030259AC908034780812C2
:1059230007A05070908038120D43806D9003DFE420
:10593300F08058740C78081208C790803C780C12D9
:10594300096D7808790C12083F851882851983122E
:1059530009A3E8494A4B601B851882851983780897
:10596300120790500E851882851983780812096DE5
:105973000258DA12070B7404120B011209979003F1
:10598300DFE4F0125A1360030258E09003DE74035D
:10599300F00258F07808120D2C7408120B0112094A
:1059A3008B1207057404120ACB53BEFC9003DEE08E
:1059B30042BEE5ADA2E050FA751A01E5A8FEE5B8CE
:1059C300FFE59AF50853A82053B820539A12D2AF93
:1059D3001206F99003DFE064017006A2C74002E4F7
:1059E300F08EA88FB885089A9003DEE064037004F4
:1059F3007901800279009003DFE0FA12136912063D
:105A0300F31206E7D2AF7408120ACB7F08020BEF3A
:105A1300E5084509450A450B2274F4120B1D74FC75
:105A2300120AB5851882851983EAF0A3EBF0A3EC7B
:105A3300F0A3EDF0C2AD7410120B01780812096DDA
:105A430090804078081208F98518828519837808B0
:105A530012090C7402120B01E0F5977401120B0189
:105A6300E0F596851882851983E0F595C2C7D2AD16
:105A73007404120ACB7F04020BEFC082C08374FC50
:105A8300120AB5E595851882851983F0E596C0E07D
:105A93007401120B01D0E0F0E597C0E07402120B21
:105AA30001D0E0F07403120B01E4F085188285192C
:105AB3008312098B7404120ACBD083D08202013281
:105AC300C082C083900DC6E4F0A3F0900DC874C8E3
:105AD300F0A37405F09005C87448F0A37402F09025
:105AE3000810F0A37480F0A374B4F0A37405F0D08D
:105AF30083D08202013274F6120B1D7A017B0012ED
:105B03000615E5A8FEC2AFEA24FEF8EB34FFF990D0
:105B13000DC8E8F0A3E9F012061B90036C7401F0C2
:105B2300EEA2E7A2E792AF7F02020BEF74F2120B31
:105B33001D7C007D007F00EA2402FAE43BFBA2AF58
