:020000040000FA
:0600000002011A020F9C30
:03002B0002145B61
:0300330002143D77
:0300530002101286
:03006B0002141468
:10008300020E9FE5C754F84401F5C7790122000029
:100093000080FB120086B90003020104E4791B7897
:1000A30002B800028004F709D8FCE4791D7802B88D
:1000B30000028004F709D8FCE490028178A2790257
:1000C3008002F0A3D8FCD9FA781A90014A7A01BACF
:1000D30000028007E493A3F608DAF97A227B0490FE
:1000E300014B78A779028015E493A3AD82AE838A8E
:1000F300828B83F0A3AA82AB838D828E83D8E9D9C6
:10010300E775829F758364740012012C7582917563
:100113008300740012012C75D00075813F7518811E
:10012300751902759F00020096C09FF59FE473D076
:100133009F22D083D082C09FE493C0E0740193C018
:10014300E0740293F59F2201FF0000B40000280031
:100153002800283075A000A000A000A0000008001F
:1001630008E001F000100010001000100010001053
:100173000050005000500010001000D00700000095
:100183000000000F0001000500307507001000019A
:100193000081FF00000000FF450363034B03FFB32F
:1001A30004B304B304B304B304B304B304B304B394
:1001B30004B304B304B304B304FF0D0954504D5303
:1001C300315F313030364235020A000D0954504D4B
:1001D30053325F323030364236020A000D09545032
:1001E3004D53335F333030364237020A000D095422
:1001F300504D53345F343030364238020A000D0913
:1002030054504D53355F353030364239020A00B50C
:100213000610CAEA80B60620CAEA81B70630CAEADF
:1002230082B80640CAEA83B90650CAEA84020105C5
:100233000303B0FB13FF000180EACA1006B52A7A54
:100243000200EE0900003800000201050303B0FBC1
:1002530013FF000181EACA2006B6B0710200710AD9
:1002630000004200000201050303B0FB13FF00017D
:1002730082EACA3006B7059A0200870A00003500F1
:10028300000201050303B0FB13FF000183EACA4028
:1002930006B831790200240A00002F00000201058C
:1002A3000303B0FB13FF000184EACA5006B90580BB
:1002B3000200500A0000250000C30600000130754B
:1002C3000302010400000000000000000000000021
:1002D300000000000000000000000000000000001B
:1002E300FF00010000006D4EC641393000001201CD
:1002F30035414E00120135694E00120135974E000B
:10030300120135CE4E00120135194F00120135642A
:100313004F00120135A44F00120135615000120144
:1003230035AF6000120135C76000120135C31C00F0
:10033300120135961D001201353F1E001201359240
:100343001E00120135421F00120135CE1F0012019B
:1003530035BA2000120135E92000120135FC2100D5
:1003630012013544220012013519230012013555BB
:100373002300120135712300120135CC59001201FB
:1003830035D75900120135E95900120135C15A0018
:10039300120135C65A00120135B95B00120135F05E
:1003A3005000120135185100120135555100120148
:1003B30035CA5100120135DF5100120135F45100E5
:1003C3001201355E52001201359B5200120135E4D1
:1003D30052001201350E530012013533530012013E
:1003E30035AA4800120135DD4800120135BD490028
:1003F300120135E249001201358814001201351D3E
:100403001600120135F51600120135981700120176
:1004130035FD1700120135971900120135D5190062
:10042300120135621B00120135A71B001201355B57
:1004330053001201351A540012013571550012018F
:1004430035E623001201352F24001201355C240008
:100453001201359124001201359E2400120135AAA0
:100463002400120135BC240012013590250012012D
:1004730035ED25001201352B26001201356E2700BC
:10048300120135BB270012013520280012013586E1
:1004930028001201356F2900120135C0290012010D
:1004A30035C25B00120135CE5B00120135AC5C0036
:1004B300120135C06400120135492F001201356E57
:1004C3002F00120135713000120135DA31001201AB
:1004D300355A3300120135CB33001201350834008D
:1004E3001201352B34001201354134001201355EFF
:1004F30034001201352845001201359E45001201D2
:1005030035B44500120135F545001201352F46007B
:10051300120135A84600120135E346001201355693
:1005230047001201359447001201359D470012011F
:1005330035A94700120135D84700120135EE4700AF
:100543001201351748001201357A4800120135941B
:100553004B00120135A74B00120135C14B001201AC
:1005630035EA4B001201352D4C001201356C4C005D
:10057300120135D14C00120135E64C00120135F160
:100583004C00120135FE4C00120135154D001201CD
:1005930035234D001201352E4D00120135414D001A
:1005A3001201355E4D001201356E4D001201358486
:1005B3004D00120135A04D00120135AB4D00120163
:1005C30035C04D00120135D44D00120135056200CE
:1005D3001201353162001201358C62001201356758
:1005E3003400120135A53400120135FF3400120125
:1005F300352035001201357135001201359A350069
:10060300120135A435001201351036001201359E52
:100613003600120135EC3600120135223700120183
:1006230035A93700120135E93700120135213800A9
:10063300120135403800120135493800120135EEF8
:100643005E00120135CD5700120135035800120127
:10065300353958001201359259001201359E620056
:10066300120135B46200120135BE62001201350871
:100673006300120135106400120135583D00120168
:1006830035713D00120135153E00120135553E000E
:100693001201356E3E00120135A23E00120135EF04
:1006A3003E001201352A3F001201352A4100120192
:1006B30035974100120135524200120135BE440004
:1006C300120135254500120135083900120135CBD9
:1006D3003A00120135143B00120135473B00120169
:1006E30035343C001201357D640012013560610030
:1006F300120135B46400120135EB5C001201357050
:100703005D00120135D65D00120135EF5F00120165
:10071300350F6000120135686000120135A26000D8
:10072300120135A56000120135BA6400120135BD0E
:100733006400120135F87F001201359B5500120148
:1007430035265700120135875700120135366300ED
:10075300120135EF5D00120135195E00120135EB10
:100763002900120135A82A00120135E32A001201DB
:1007730035452B00120135912B00120135EA2B0070
:100783001201357B2C00120135382E00120135BAC7
:100793002E001201351F2F00120135516400120182
:1007A30035C96300E066701008A3E066700A08A309
:1007B300E066700408A3E06622C3E7960809E7969B
:1007C3000809E7960809E79622C3E09608A3E0968E
:1007D30008A3E09608A3E09622C008C3E096F508B4
:1007E30008A3E096420808A3E096420808A3E0960F
:1007F30045087001D3D00822080808EAC0E0EBC01E
:10080300E086F0E7A4FA180986F0E7A42AFA1809A3
:1008130086F0E7A42AFA180986F0E7A42AFA1986CB
:10082300F0E7A4FBE5F02AFA190886F0E7A42BFB0E
:10083300E5F03AFA190886F0E7A42BFBE5F03AFA5B
:1008430018180986F0E7A4C5F02BFBE43AFA190857
:10085300E7C5F0C6A426F6E5F03BFBE43AFA1886B2
:10086300F0E7A4F6E5F00826F6E43B08F6E43A08D8
:10087300F6D0E0FBD0E0FA22E4CFC0E0E4CEC0E063
:10088300E4CDC0E0E4CCC0E075F020E626F608E64F
:1008930033F608E633F608E633F6181818EC33FC9B
:1008A300ED33FDEE33FEEF33FFC3EC9709ED97090C
:1008B300EE9709EF97191919400FFFEC97FC09ED13
:1008C30097FD09EE97FE191906D5F0BFECF709ED70
:1008D300F709EEF709EFF7191919D0E0FCD0E0FD9D
:1008E300D0E0FED0E0FF226016080808C6C313C696
:1008F30018C613C618C613C618C613C6D5E0EA220F
:100903007009080808226016181818C6C333C608E9
:10091300C633C608C633C608C633C6D5E0EA22E6E0
:1009230027F60809E637F60809E637F60809E63731
:10093300F622E026F608A3E036F608A3E036F6082A
:10094300A3E036F622E026F008A3E036F008A3E0A1
:1009530036F008A3E036F022C3E697F60809E697D7
:10096300F60809E697F60809E697F622C3E096F03B
:1009730008A3E096F008A3E096F008A3E096F0221F
:10098300E056F608A3E056F608A3E056F608A3E0FF
:1009930056F622E0F608A3E0F608A3E0F608A3E083
:1009A300F622E6F008A3E6F008A3E6F008A3E6F0D3
:1009B30022E0FAA3E0FBA3E0FCA3E0FD22EAF0A31C
:1009C300EBF0A3ECF0A3EDF022E0F8A3E0F9A3E051
:1009D300FAA3E0FB22E8F0A3E9F0A3EAF0A3EBF02B
:1009E30022CAC0E0E6F0A308DAFAD0E0FA22CAC0CD
:1009F300E0E0A3C582CCC582C583CDC583F0A3C582
:100A030082CCC582C583CDC583DAE6D0E0CA22C3D2
:100A1300E498F8E499F9120A538026C3E49AFAE4B5
:100A23009BFBE920E7E9120A53E498F8E499F922D9
:100A3300C3E498F8E499F9120A53E498F8E499F9AD
:100A4300C3E49AFAE49BFB22EB20E7CFE920E7E03B
:100A5300B90010BB0008E88AF084F8AAF022E4FB8E
:100A6300C8FA22EB70227B10C833C8C933C933508C
:100A730007C39AC3DBF280069A50012ADBEAC83324
:100A8300F4C8C933F4C9FA2275F008E4C833C8C9F5
:100A930033C933C99AC99B5004C92AC93BD5F0EC61
:100AA300FBC833F4C8E4C9FA22600D08C6A2E713F1
:100AB300C618C613C6D5E0F322600C08C6C313C616
:100AC30018C613C6D5E0F422700422600D18C6C3FD
:100AD30033C608C633C6D5E0F41822251810AF086C
:100AE300F518400C15198008F51840021519D2AFF6
:100AF3002200C0D0251810AF08F518500C05198036
:100B030008F51850020519D2AFD0D0222518F58266
:100B130010AF08F518400C15198008F51840021598
:100B230019D2AF851983222518F582E43519F58387
:100B3300222518FAE43519FB222518FCE43519FDA2
:100B430022E4732518C582C0E0E51934FFC583C0CC
:100B5300E0E518C3958224F810AF088583198582D0
:100B6300188008858319858218D2AFCEF0A3E520BB
:100B7300F0A37808E608F0A3DEFAEFF0A3E58124FA
:100B8300FAF8E608F0A3E608F0A3E608F0A30808DD
:100B9300E608F0A3E608F0A315811581D0E0FED0A6
:100BA300E0F8158115811581E8C0E0EEC0E022254B
:100BB30018C582C0E0E51934FFC583C0E0E518C35A
:100BC300958224F910AF08858319858218800885DA
:100BD3008319858218D2AFCEF0A3E520F0A378085D
:100BE300E608F0A3DEFAEFF0A3E58124FBF8E608BC
:100BF300F0A3E608F0A30808E608F0A3E608F0A3CC
:100C030015811581D0E0FED0E0F815811581E8C08B
:100C1300E0EEC0E022851983851882E0A3FEE0A3FD
:100C2300F5207808E0A3F608DFFAE0A3FFE0A3C00D
:100C3300E0E0A3C0E0E0A3C0E0E0A3C0E0E0A3C025
:100C4300E010AF088582188583198008858218858E
:100C53008319D2AFD083D0820201328519838518DC
:100C630082E0A3FEE0A3F5207808E0A3F608DFFA0C
:100C7300E0A3FFE0A3C0E0E0A3C0E0E0A3C0E0E0A6
:100C8300A3C0E010AF088582188583198008858288
:100C930018858319D2AFD083D08222C0D02518C53E
:100CA30082C0E0E51934FFC583C0E0E518C395822F
:100CB30024F310AF0885831985821880088583196A
:100CC300858218D2AFC8F0A3E9F0A3EAF0A3EBF052
:100CD300A37908E709F0A3D8FAECF0A3EDF0A3EEAB
:100CE300F0A3EFF0A3D0E0F0A3D0E0F0A3D0E0F0C6
:100CF300A3E520F0A3E5F0F0A322851983851882EC
:100D0300E0C0E0A3E0F9A3E0FAA3E0FBA37808E0E6
:100D1300F608A3DFFAE0FCA3E0FDA3E0FEA3E0FFF7
:100D2300A3E0C0E0A3E0C0E0A3E0F5D0A3E0F5209A
:100D3300A3E0A3F5F010AF08858319858218800816
:100D4300858319858218D2AFD082D083D0E0F8D0C2
:100D5300E03274048006740280027401C0E0F4047B
:100D6300120B0FD0E01209E42274048000CCC0E01F
:100D7300EDC0E0E518C39CCCAD1950011D10AF06C2
:100D83008C188D1980068C188D19D2AF1209F1D0E9
:100D9300E0FDD0E0FC22D083D082E9C0E0E493A35D
:100DA300C386F0C5F095F0F908E493A386F0C5F087
:100DB30095F0700BE493A3C3994005E9048002A363
:100DC300E475F002A42582F582E5F03583F583D03E
:100DD300E0F9E493A3C0E0E493C0E022D083D0829F
:100DE300ECC0E0EDC0E0E493A3FCE493A3FDED4C81
:100DF300600D120E2BEC24FFFCED34FFFD80EFE4BD
:100E030093A3FCE493A3FDED4C600D120E6AEC2456
:100E1300FFFCED34FFFD80EFD0E0FDD0E0FCE49378
:100E2300A3C0E0E493C0E022C0E0C3E49396087457
:100E330001939618400FE493667008087401936653
:100E43001870007019A3A3C3E493960874019396D2
:100E530018A3A3400DD0E0D0E0D0E0020E1BA3A363
:100E6300A3A3A3A3D0E022C0E0C0F088F0E493667C
:100E730070080874019366187000A8F0A3A3700BA0
:100E8300D0F0D0E0D0E0D0E0020E1BA3A3D0F0D08E
:020E9300E0225B
:100E9800851B87851CC622C0E074EF120C9EA2AF8A
:100EA800E433FEC2AF759B00906182E0A2E0500976
:100EB800E591A2E050037591FEE0A2E55009E591A5
:100EC800A2E550037591DFE0A2E64003020F72E548
:100ED80091A2E64003020F727591BF9002C7E064C9
:100EE800057008120525120531800312052B751BA4
:100EF80000120591E99002C8F079001205851204E4
:100F0800657A017B009002C6E0F912062190780309
:100F1800E06442705590033BE014F0704DC2AF128C
:100F28000F2A00781ED0E0F618D0E0F6E59F5407A7
:100F380070057509FF800375097FC4C0E0781DE658
:100F4800F50808E65509F509740B7808120ABCD0AB
:100F5800E02508F8906270E0A2E740F8E8C3339013
:100F68006272F0906270E0D2E0F0906181E0A2E3FA
:100F78005009E5E9A2E3500375E9F7A3E0A2E750B9
:100F880009E591A2E7500375917FEEA2E092AF7F49
:100F980004020CFDC0E0C0D0C082C083906183E031
:100FA800A2E05009E5BFA2E0500375BFFEE0A2E150
:100FB8005009E5BFA2E1500375BFFDE0A2E2500968
:100FC800E5BFA2E2500375BFFBE0A2E35009E5BF0D
:100FD800A2E3500375BFF7E0A2E45009E5BFA2E41D
:100FE800500375BFEFE0A2E55009E5BFA2E5500345
:100FF80075BFDFE0A2E65009E5BFA2E6500375BF62
:10100800BFD083D082D0D0D0E032C0E074F2120CCE
:101018009EE5A7A2E4500FE5A1A2E4500953A7EF6B
:1010280075A1EF121066E5A7A2E5500CE5A1A2E5AF
:10103800500653A7DF75A1DFE5A7A2E15009E5A196
:10104800A2E1500375A1FDE5A7A2E2500CE5A1A21B
:10105800E2500653A7FB75A1FB7F01020CFD74F853
:10106800120BB2751B019002C7E0640670077A0084
:101078007B0012050DA2AFE433FED2AF9002CDE0A3
:10108800640170187A207B009002C6E0F912069F6E
:101098007A207B009002C6E0F9120627906182E070
:1010A800D2E6F0900338E0602185C61C80169002D5
:1010B800CCE064017008E5C654F84405F5C653BE93
:1010C800FC120E987401651B60E4EEA2E092AF7FFB
:1010D80001020C5E74E9120BB274FA120ADEEAFE1F
:1010E800EBFF8C088D099002C7E024F7C3940550E4
:1010F800067510010212071204DD8A0A8B0BEA45F5
:101108000B700302120412053D8A0C8B0D12053D6B
:10111800EA650C7003EB650D60ECEEFCEFFD8518DD
:1011280082851983AA82AB83120543850A82850BBF
:1011380083A3A3780C120996908E12780C12098357
:101148008518828519837814120996908E1278145E
:10115800120983780C79141207BC501F780C791483
:1011680012095B908E36780C1207DC4047850C100C
:10117800850D11850E12850F138045908E368514C6
:10118800108515118516128517137810790C120918
:101198005B78101207DC501C751000751100751271
:1011A800007513017810791412095B7810790C1204
:1011B8000922800C75100175110075120075130055
:1011C80074097810120903908E52780C12099678D7
:1011D80010790C12087B9002C7E06408600AE0648A
:1011E800066005E064057020908E3A78101207DCDE
:1011F8005016908E3E7810120935800C75100075C7
:10120800110075120075130085088285098378100E
:101218001209A57406120AF47F10020C5E74F71204
:101228000BB2120555900336E064017010906245C8
:10123800E4F0A3F053F4F343FE0C5390F31204FBD1
:10124800E5C654804449F5C6E59E547F644970F864
:10125800906185740FF0900334E0F47002A3E060AD
:101268002C750801750900900334E07808120ACB40
:10127800E508F4FAA3E0600814600A14600C800D15
:10128800EA52808008EA52908003EA52A079007FEF
:1012980002020C5E74F7120BB2E9FEEAFF74016EEB
:1012A800700C7A807B009002C6E0F9120621901437
:1012B80080E493F46008E493F9120447800953C664
:1012C80080E59E547F70FA120501900336E06401B0
:1012D800700312047D900334E0F47002A3E0602AE6
:1012E800750801750900900334E07808120ACBAA42
:1012F80008A3E0600814600A14600C800DEA4280BC
:101308008008EA42908003EA42A01204DD8A088B32
:1013180009A808A909E8496017E5E170FCE8241460
:10132800F582E93400F583E0F874FF68600288E12B
:1013380074016F700A7A019002C6E0F91206690218
:10134800129774F1120BB28A088B098C0A8D0B90D4
:101358008E127808120983740F120B2A780C12095E
:1013680096908E12780C1209837808790C1207BCB3
:10137800908E3650107808790C12095B780812079D
:10138800DC4014800E780C790812095B780C12077F
:10139800DC50047901800279007F08020C5E74ED4C
:1013A800120BB28A088B098C0A8D0B908E12780862
:1013B8001209837413120B2A780C120996908E1254
:1013C800780C120983780C79081207BC4011780848
:1013D800790C12095BAA08AB09AC0AAD0B8022751F
:1013E80010007511007512007513017810790C1230
:1013F800095B78107908120922AA10AB11AC12AD5A
:10140800137F0C020C5EC2AF02000022C0E074F22F
:10141800120C9EA2AFE433FED2AFE589A2E15003DD
:10142800120717758900C2C5751A00EEA2E092AFBF
:101438007F01020CFDC0E074F2120C9EA2AFE433EF
:10144800FED2AFE58BA2E05003120717758B00C2DE
:10145800E880D5C0E0C0D0E8C0E0E9C0E0E5A8D2A7
:10146800AFC2C7751A00A2E7A2E792AFD0E0F9D0E1
:07147800E0F8D0D0D0E03213
:10148000FFFFFFFFFFFFFFFF74F4120B46E990021E
:10149000C6F012054F907800E0C4540F540764035F
:1014A0007004793F8002797F750806750900780815
:1014B000120D597CB47D027AEA7B071206F9740298
:1014C000120AF49002B4E0F47049A3E0F47044A36B
:1014D000E0F4703FA3E0F4703AA3E0F47035A3E0C9
:1014E000F4703090780EE09002B4F090780FE090B5
:1014F00002B5F0907810E09002B6F0907811E0908C
:1015000002B7F0907812E09002B8F0907813E09073
:1015100002B9F09002BA121614121C929002D874FA
:1015200006F0A3740D1217EE7440F0A37401F0904E
:1015300002E21216149002E1E4F09002E8F0A374C3
:10154000A01217EE7403F0A374071217EE7428129A
:1015500017EE04F0A3E4F0900311F090033474FF4D
:10156000F0A3E4F0900336F090033804F0900339D0
:101570007490F0A37401F01204771204051204F5BC
:1015800079017A3B7B031204A790033BE075F014CA
:1015900084E5F004F01204AD7A009002C6E0F9127E
:1015A0000669907803E06442705590033BE014F0C4
:1015B000704DC2AF1215B700781ED0E0F618D0E01B
:1015C000F6E59F540770057509FF800375097FC410
:1015D000C0E0781DE6F50808E65509F509740B78B2
:1015E00008120ABCD0E02508F8906270E0A2E7403B
:1015F000F8E8C333906272F0906270E0D2E0F0904D
:1016000002DDE4F0A3F07A80FB9002C6E0F9120656
:10161000210217DF74FF1217F4F0A3F02274F41202
:101620000B46EAFEEBFFEEA2E0503F9002C8E0C39B
:101630009480E0500FC333F8E433F9747928F582CD
:101640007404800EF4C333F8E433F9748728F58208
:10165000740439F583121B59120B447A009002C6A8
:10166000E0F9120669EE6401803D5480603D90030C
:1016700039E0F8A3E0F9E849602A7900120663909E
:101680000339E0F508A3E0F509E4F50AF50B78085D
:10169000120D557A007B019002C6E0F91206937490
:1016A00004120AF4EE6480FAEF802DEF5401600C0E
:1016B0007901120663EEFAEF6401801CEF540260B8
:1016C0000AC2AF75C9AB75C95B80FEEF5404600BED
:1016D00012140EEEFAEF6404FB80179002CDE06462
:1016E00001700BEE54206006EE6420FA80047A004C
:1016F0007B000217DFC082C083C2AF12052BE5E179
:1017000070FC75E10112044D75E1F11205671204D8
:101710004179071205B579011205BB790212058BD3
:1017200012059D1205A979001205AF79011205AFC6
:10173000908E1E1209B41205739002E8E4F0A3F033
:10174000A3F09002EC7407F09002EB7403F09002A7
:10175000F1E4F09002F0F0900311F01204B91204D9
:101760009B79001205C1906012E4F0A3F0906063D1
:10177000F0751B009002C7F09002C9F0A3F0900230
:10178000CCF09002CD04F09002D77403F0900337B0
:10179000E4F0D2AFF90217E7C082C0839002B4121E
:1017A00017D9F09002B51217CCF09002B61217CCF0
:1017B000A3F09002B71217CCA3A3F09002B81217AF
:1017C000D1F09002B91217D1A30217E41217D9A3CE
:1017D000221217D9A3A3A3A322E08A828B83227F9C
:1017E00004020C18F07900D083D082020132F0A3F9
:1017F000E4F0A322F0A3F0A3F0A3F0A32274F71265
:101800000B46EAFEEBFF8908740B120B2AE0F8A3E3
:10181000E0F9E50860557401650860157403650812
:10182000603374026508602D740465086003021853
:10183000DAE84970030218DA740A120B2AE0F86039
:101840000874016860030218DA740365086006749E
:10185000026508702AEE2460F8EF121987507BECBD
:101860002460F8ED1219874016806FEE24E0F8EF3F
:1018700012197C5065EC24E0F8ED12197C505BC322
:10188000EC9EED9F40547409120B2AE0F860057439
:1018900001687046740E120B2AE0FA600F74016A38
:1018A000600A74026A600574036A702E740D120B6C
:1018B0002AE0F9740759F960219002E8E0640170A8
:1018C00005790C02197AE5089002EBF0600C7401BE
:1018D00065086006740465087005791202197AE9D2
:1018E000A3F0EAA3F0E89002E1702FE4F09002B4D4
:1018F000E09002E2F09002B5E09002E3F09002B6D0
:10190000E09002E4F09002B7E09002E5F09002B8B7
:10191000E09002E6F09002B9802E7401F09002BAD5
:10192000E09002E2F09002BBE09002E3F09002BC93
:10193000E09002E4F09002BDE09002E5F09002BE7B
:10194000E09002E6F09002BFE09002E7F0EA700457
:101950007900801974016A70047901801074026A38
:1019600070047902800774036A700579031205A375
:101970009002E9EEF0A3EFF07900801634FFF9C38E
:10198000E894E1E9943F2234FFF9C3E89461E994D3
:101990003F227F01020C1874F6120B46E9FEC39435
:1019A00020500BEE9002F1F0601EEA4B70047912A9
:1019B000801E121B9E120D59EAFCEBFD7AF27B028F
:1019C0001205DF7402120AF49002F07401F079003B
:1019D0007F02020C1874F4120B46E9FE9002C7E075
:1019E00064097003021AF0E0640A7003021AF0E05E
:1019F000640B7003021AF0E0640C7003021AF0E04A
:101A0000640D7003021AF09002EBE0F860177401A5
:101A1000686012740368600D74026860087404687A
:101A20006003021B559002E1E0F9600874016960EF
:101A300003021B55740368600574026870109002FD
:101A4000E9C3E094A0A3E094005003021B55E870A2
:101A500003021B557401687003021B5574046870FF
:101A600003021B55EE7003021AEA146003021B55B1
:101A70009002E8E06401607879011204D19002DFFD
:101A8000EAF0A3EBF09002E87401F09002C7E07076
:101A9000541205378A088B098C0A8D0B908E1A78A0
:101AA00008120935908E1278081209839002DF120D
:101AB0001B59A3A378081209A59002DFE0F8A3E060
:101AC000C82406F582E83400F583E4F0A3F012049C
:101AD00083E9600E7ADF7B021204D79002E8E4F01B
:101AE000800E1204BF79000217DF9002E8E0700454
:101AF000792180F3A2AFE433FFC2AF7ADF7B021219
:101B000004D79002E8E4F01204EFE9704112052BCB
:101B1000906182E0C2E6F0E5E170FC75E10175914B
:101B2000BF75E1F19002CDE0640170187A207B006E
:101B30009002C6E0F912069F7A207B009002C6E070
:101B4000F91206277A009002C6E0F9120669EFA2A0
:101B5000E092AF80907912808EE0F8A3E0F5838860
:101B6000822274F6120B46E9FEC39420500BEE90CD
:101B70000311F0601EEA4B70047912801E121B9E46
:101B8000120D59EAFCEBFD7A127B031205DF740299
:101B9000120AF49002F07401F079000219D0E0F515
:101BA0000875090078082274F3120B46EA4B700599
:101BB0007912021C8D9002C7E06005790C021C8D21
:101BC000EA2405F8EB3400F9EA2404FCEB3400FDC8
:101BD000EA2403FEEB3400FFEA2402F508EB3400AC
:101BE000F5098A828B83A385820A85830B8A828B7F
:101BF00083E0F47059850A82850B83E0F4704F8589
:101C00000882850983E0F470458E828F83E0F4704A
:101C10003D8C828D83E0F4703588828983E0F47096
:101C20002D9002C0E09002B4F09002C1E09002B5A5
:101C3000F09002C2E09002B6F09002C3E09002B7CA
:101C4000F09002C4E09002B8F09002C58038121CF7
:101C5000928A828B83E09002B4F0850A82850B839E
:101C6000E09002B5F0850882850983E09002B6F025
:101C70008E828F83E09002B7F08C828D83E0900299
:101C8000B8F088828983E09002B9F079007F05027C
:101C90000C189002B4E09002C0F09002B5E09002FF
:101CA000C1F09002B6E09002C2F09002B7E090025C
:101CB000C3F09002B8E09002C4F09002B9E0900244
:101CC000C5F02274F4120B461223D7600579110275
:101CD0001D93900281E05405603090029E1223E033
:101CE00060051223D270057910021D93900281E0E5
:101CF000A2E0400612038DE960158E828F83E0F822
:101D0000740368600A74026860057912021D937A90
:101D10000C7B0012065190029C121F3C1223DD60C6
:101D20006E1221F6E5081221DDE4F0750A0AF50BC2
:101D3000780A120D59EEFCEFFD90029CE02402FAA5
:101D4000A3E03400FB1205DF7402120AF412034B05
:101D5000E9FE600512036F8038900282E064037030
:101D6000307A1D7B001202F7900283121F3C900212
:101D7000831223E0601B908E46120D6C7A047B0068
:101D80009002A4E0F91206997404120AF480027E0B
:101D900013EEF902230574EE120B46890C8A0A8BA6
:101DA0000B8C0E8D0F900281E054057003021E38DB
:101DB0007401650A700D90029E1223E0607A900211
:101DC0009E800B9002A01223E0606D9002A0E0FEC6
:101DD000A3E0FFEBC394205008EB6009EC450F70C3
:101DE0000479028055E50C900471F08E828F83A3F4
:101DF0008582088583097C1F7D007900AA08AB09CC
:101E00001205EB850B107511007810120D59AC0EF0
:101E1000AD0FAA08AB091205DF7402120AF48E8214
:101E20008F83E50BF0F9E50AAA08AB0960051203F8
:101E3000B180071203B7800279127F0A020C18746E
:101E4000F7120B46E9FE1223DD7004791280391275
:101E500023D26E60047903802F7A027B009002A463
:101E6000E0F912069F9002A2E4F0A3F07A04FB903E
:101E700002A4E0F912069F900283E4F0A31221DD90
:101E80007403F079001203BD021F34D083D08202A4
:101E9000013274F7120B4690029E1223E0600D127D
:101EA000230A12065790029EE4F0A3F09002A012BB
:101EB00023E060109002A012230D1206579002A09A
:101EC000E4F0A3F0900281E05405605F7A727B0435
:101ED0001203997E00900281E05405604A7A207BCB
:101EE00000120651121F3990029E1223E060367CC8
:101EF000207D0079001205EB7A207B0012065190BC
:101F000002A0121F3C9002A01223E0600B7C207DF7
:101F10000079001205EB800F12230A120657900277
:101F20009EE4F0A3F07E13EEF980097A007B0012A4
:101F3000039979007F01020C1890029EEAF0A3EB4E
:101F4000F02274F6120B467E018A828B83A3A3A330
:101F5000E0FCA3E0FD8C088D097808120D9906209D
:101F600004C81F6D1FC81FA81FA81F7E1F8A828B51
:101F700083A3A3A3A3A31221ED12035180268A8277
:101F80008B83A3A3A3A3A312231388828983A3E033
:101F9000FC88828983A3A3E0FBECFA88828983E032
:101FA000F9120357E9FE802174086C700374206DE8
:101FB00070047901800279008A828B83A3A3A31223
:101FC00023CDFA12035D80011EEEF902223774F26E
:101FD000120B461223DD70030220A61221E4A3E0B7
:101FE000F50A12038DE960137A0A7B001202F78A60
:101FF000088B09AE08AF097A0B802A120375E960D5
:10200000137A067B001202F78A088B09AE08AF0923
:102010007A0780117A087B001202F78A088B09AED2
:1020200008AF097A097B001202F78A088B0990022F
:1020300082E07005750B008003750B0190029CE037
:102040002404FAA3E03400FB1221DEA3A3E0F9127A
:10205000030F90029CE0F8A3E0C8240B1220AD12FD
:102060000D5D90029CE0F8A3E0C8240A1220AD1296
:102070000D5D90029CE02404F50CA3E03400F50D06
:10208000780C120D59E9F50C780C120D5D780B12D5
:102090000D5DA90AAC08AD09EEFAEFFB1203AB74B3
:1020A00006120AF4800279017F06020C18F582E814
:1020B0003400F583E0F50C780C2274F7120B46E936
:1020C000FE1223DD601EEE700C1221E47401F0F9A3
:1020D0001203BDE9FEEE60087A007B00F912036985
:1020E000790180027900021F3474EC120B46890AD0
:1020F0001223D970030221D61221E4E064016003A7
:102100000221A9120375E960557A017B001202F7DA
:102110008A0C8B0DE4F50EF50FC3EA9442EB9400A4
:10212000402B908E46120D6C7A027B009002A4E048
:10213000F91206997404120AF4E50C24C4F8E50DAA
:1021400034FFF99002A2E8F0A3E9F08041908E26D6
:102150007810120996780C79101207FB80107A001B
:102160007B001202F78A0C8B0DE4F50EF50FE50CDF
:10217000450D450E450F6016780C120D557A027B01
:10218000009002A4E0F91206937404120AF41221DA
:10219000DE7402F0900285E0700BEEFAEFFBA90A04
:1021A000120369802DE4F08029900285E070237A83
:1021B000037B001205F1EA4B60158A828B8374D091
:1021C000F0A3E50A12223C74041221E91205FD1263
:1021D000036F7901800279007F0C020C18F09002E5
:1021E0009CE0F8A31221F6A322F090029CE0F8A351
:1021F0001221F6E0F922E0F58388822274F6120BB0
:1022000046E9FEEAFF900471E0F4602B7A047B005B
:102210001205F1EA4B60208A828B8374D0F0EFA321
:1022200012223C7402F0EE8A828B83A3A3A3F09067
:102230000471E0F91205FD7F02020C18F08A828B0E
:1022400083A3A32274F4120B46E9FE74016E6003AB
:102250000222E09002A21223E06006900285E06074
:10226000121223DD70030223031223D2F912033961
:102270000223039002A2C3E0943CA3E09400400D2B
:102280009002A2E024C4F0A3E034FF80507A027BE5
:10229000009002A4E0F912069F9002A2E0F508A3C4
:1022A000E0F509E50875F0E8A4C508A8F075F003A5
:1022B000A428F875F0E8E509A428F509E4F50AF57D
:1022C0000B7808120D557A027B009002A4E0F912F7
:1022D00006937404120AF49002A2E4F0A3F080239F
:1022E0001223DD601E900281E0A2E250167A027B8A
:1022F000009002A4E0F912069F9002A2E4F0A3F07D
:1023000012036F80007F04020C1890029EE0FAA373
:10231000E0FB22E0F8A3E0F92274F4120B4612234A
:10232000D7602F7A057B001205F1EA4B601D8A8287
:102330008B8374D0F0A3E50812223C740312223C74
:10234000A3EEF0A3EF1221E91205FDE508600312E8
:10235000036F022305C082C0831223DD6010900248
:102360009C12230D12065790029CE4F0A3F0021E6B
:102370008B74F6120B4674FF120ADE90029E122333
:10238000E0604090029EE02401F508A3E03400F5EF
:10239000097808120D5990029E1223CFFC74021284
:1023A0000B2AAA82AB8379011203277402120AF462
:1023B0008A828B83E58245836009E0A2E05004793C
:1023C00001800279007401120AF4022237A3A3E00B
:1023D000F8A31221F6E0228908EAFEEBFF90029CA6
:1023E000122313E84922C082C0839061907404F0E4
:1023F000A37448F0A3E4F09061807440F09061BC55
:102400007407F09061877469F09061B67416F07982
:102410000012046B7902120471901480E493F4604A
:1024200006E493F912044779051205C7022624C071
:1024300082C083E9540FF9906185E0696012E5C6B6
:1024400054804449F5C6E59E547F644970F8E9F02C
:1024500053C680E59E547F70FA02262474F7120B4F
:1024600046E5A8FE53A87E120453C2BA539AFEC290
:1024700089759B00C2C212045975A91175B905125C
:10248000045FD2BA439A0174805E42A87F01020CB5
:1024900018C082C083906181E4F0A302262175E90F
:1024A0000075910075BF00020132C082C083906147
:1024B00081E4F0A374C0F0A3E4022623C082C083A9
:1024C00074F8120ADE9002C9122990E849700302DA
:1024D00025889002C9E054406023790885188285D8
:1024E0001983AA82AB831204A7851882851983AA4F
:1024F00082AB831203C99002C9E054BFF0E0A2E0AE
:10250000500F790012046B1203CF9002C9E054FE01
:10251000F0E05402600F790112046B1203CF9002B5
:10252000C9E054FDF0E05404600F79001204711208
:1025300003D59002C9E054FBF0E05408600F790124
:102540001204711203D59002C9E054F7F0E0541060
:10255000600F79021204711203D59002C9E054EFA2
:10256000F0E05420600F79031204711203D5900239
:10257000C9E054DFF0A3E05401600D12047D1203A2
:10258000DB9002CAE054FEF07408120AF40226241A
:10259000C082C083E9600514602A804F90619A74FC
:1025A00033F0A37455F09061A0743AF0900336E0D4
:1025B00064017009C2919002CB7467802D9002CBA8
:1025C0007461802690619A743FF0A3745AF0906110
:1025D000A0747FF0900336E064017009D2919002FC
:1025E000CB747180059002CB746AF08037C082C0D2
:1025F00083E9600B14600D14601714600C80209048
:10260000148480159014858010900336E064017066
:10261000059014868003901487E493906186F0807F
:1026200003F0A3F0D083D08202013274EE120B4685
:1026300074F4120ADE851882851983AC82AD837525
:10264000838E75821674041209F190148493F460D9
:1026500003022755907808E0C394025003022735FF
:102660007404120B2AAC82AD8375838E75820A7452
:10267000081209F1FC7EFF7FFF8E0C7D008C8285A5
:10268000820E800F74086D606D74096D6068740A45
:102690006D60638D0875090074027808120ACB1208
:1026A000275F120996A909E50AC9F88810741878F5
:1026B000081208EAE5104508FAE9FBE50EC333F80D
:1026C000E433F97404120B2AE58228F582E5833994
:1026D00012298EC3E89AE99B4008E8C39AF8E99B5F
:1026E0008006EAC398F8EB99F9C3E89EE99F500683
:1026F000E8FEE9FF8D0C0DEDC39413408774FF6E67
:10270000700374FF6F6024850C0874027808120A45
:10271000CB12275F120996851882851983E58225D9
:102720000EF582E58312299AE508F00CECC39404B7
:1027300050030226757508017509007808120D59B5
:102740007402120B2AAC82AD837A217B051206FF3C
:102750007402120AF4740C120AF47F0A020C187440
:10276000482508F58274783509F583780822C082F7
:10277000C083906186E0F8901487E49368700990B4
:102780001486E493906186F09061AE7468F0A3744F
:102790006AF090624574FBF0A304F053F4FD43FE2D
:1027A000029003367401F09061A0E0643A700479FD
:1027B000008002790112046B022624C082C0837556
:1027C000E1F19002EBE024FE604D14704F12048999
:1027D0009002E1E0F97AE27B0212056D908E2212FE
:1027E00009B4120597908E1E1209B4120573900257
:1027F000ECE0F912057F79011205BB9002DFE0F8E9
:10280000A3E0C82416F582E812299A7495F0A374FF
:1028100004F0790002262412048F80B4791280F427
:1028200074F6120B461228F44402F5D978001228E7
:102830006040FB780080081229E27402122987E8C0
:10284000C39940F375E195900479122870F0A312B2
:1028500028701229087414F09002C774040229A980
:10286000880874E22508F582740212299E940622D3
:10287000743512287D12287DF0A3740422F0A3740D
:1028800004F0A374352274F6120B461228F4FA747D
:10289000064AF5D9780012286040FB7800800812BB
:1028A00029E27402122987E8C39940F3900311E0EA
:1028B000F9740729F5D974044AF5D978001228600B
:1028C00040FB7800800C880874121229E674031209
:1028D0002987E8C39940EF75E195900479742FF04A
:1028E000A3740412294C1229087415F09002C774BD
:1028F000030229A99002F1E0F9740729F5D99002A1
:10290000E1E0C4333354C022F0A3743BF0A3740459
:10291000122941122950122937240E12292F74FF2F
:10292000F0A3F0A3F0A3122937241412292F22F5C3
:1029300082E83400F58322F09002DFE0F8A3E0C8DB
:1029400022F090048774B3F0A37404221229502259
:10295000F0A374B312295F12295FF0A3740422124A
:10296000296612296622F0A37404F0A374B322C06E
:1029700082C0839002DFE0F8A3E0C82406F582E875
:1029800012299AE40226211229BAF5D90822F583E0
:1029900012299422E0F8A3E0F9221229322234000D
:1029A000F583E0F5D908E8C322F07F02020C181283
:1029B00029B3223400F583E4F0223400F583E022C9
:1029C00074F6120B467800880874CF1229E6740258
:1029D0001229AF08E8C3940840ED9002CF740102B9
:1029E00029A9880874F22508F5822274F4120B468E
:1029F00074FC120ADE7F00900421E4F090041EF0C3
:102A00007E7D7508047509007808120D597402124C
:102A10000B3C7A007B00EEF91206F97402120AF4FC
:102A2000908E4A780812099685188285198378084D
:102A30001207A7701990041EE0600FF9120771EEDB
:102A4000F912077190041EE48001EEF080188518D9
:102A5000828519831209CCE8494A4B7004EEFF8045
:102A600005EEF91207710EEEC3947F409590041E97
:102A7000E07026EF7018797D12076590041F7404CA
:102A8000F0A3E4F0900421E0601979008017F012BF
:102A90000777EFF9120783800AEF6004F912076BDA
:102AA0001207777901022B3B74F7120B4674FC1264
:102AB0000ADEE9FE851882851983E4F0A3F0A37489
:102AC00010F0A3E4F0AC18AD19FAFB12078F9004D4
:102AD00021E07005EE90041EF07404120AF47F01E8
:102AE000020C1874F4120B4674FF120ADE89089067
:102AF0000421E070321207057E007F00750A01751F
:102B00000B00780A120D597402120B3CEEFAEFFB1F
:102B1000A9081206F97402120AF48518828519832D
:102B2000E0F460089004217401F0800B0EEE700157
:102B30000FC3EF940840C5740180027404120AF4B4
:102B40007F04020C1874F4120B4674FF120ADE891B
:102B5000087E007F00750A01750B00780A120D5976
:102B60007402120B3CEEFAEFFBA9081206F974028C
:102B7000120AF4851882851983E0F46007A9081207
:102B8000076B800B0EEE70010FC3EF940840C680F8
:102B9000A674F4120B4674FC120ADE7EFC7F0775E5
:102BA00008047509007808120D597402120B3CEEE6
:102BB000FAEFFB90041EE0F91206F97402120AF40F
:102BC000908E6E7808120996851882851983780888
:102BD0001207A7700AEE24FCFEEF122C7050C012F0
:102BE0002F3EE8F0A3E9F0022B3B74F4120B46747D
:102BF000FC120ADE8908EAFEEBFF8C09EE24FCFEDB
:102C0000EF122C704063750A04750B00780A120DE0
:102C1000597402120B3CEEFAEFFBA9081206F97484
:102C200002120AF47402120B2A122E2B85188285C6
:102C3000198385090AE0650A7002A3E0700AEEC3F1
:102C400098FAEF9400FB8025E9548070AFE82404E3
:102C5000FAE439FBC3EE9AEF9B400EEEC398F8EF0F
:102C600099F9E824FCFEE980987A007B00022B3B6E
:102C700034FFFFC3EE9404EF94002274F0120B466D
:102C800074F3120ADEE9851882851983F0750FFF47
:102C9000647D7005750E7E8003750E7D750A047562
:102CA0000B0090041FE024FCFEA3E0022DA474039B
:102CB000120B2AA3E054806003022D937403120BBD
:102CC0002A850F08E065087002A3E07003022D93C7
:102CD0007403120B2AE0F50FFCAA0AAB0BA90E1223
:102CE000077D8B09EA45096003022D937405120BD9
:102CF0002A122E31F508EF99F5097407120B2AE80C
:102D0000F0A3E9F07401120B2AE4F0A3F0750C04AF
:102D1000750D00780C120D59740B120B3C740312D4
:102D20000B2AE02508FAA3E03509FB90041EE0F920
:102D30001206F97402120AF47409120B3C7401129F
:102D40000B2AE0250AFAA3E0350BFBA90E12078F28
:102D50007401120B2AE02404F0A3E03400F074079D
:102D6000120B2AC082C0837401120B2A122E2BD0A0
:102D700083D082C3E098A3E09950927405120B2A85
:102D8000E02404F8A3E03400F9E50A28F50AE50B8D
:102D900039F50B7405120B2A122E31F8EF99F9E868
:102DA00024FCFEE9122C70405D900421E0707775E0
:102DB00008047509007808120D597405120B3CEED1
:102DC000FAEFFB7402120B2AE0F91206F9740212F0
:102DD0000AF47403120B2AE0F47003A3E0F4600316
:102DE000022CAE7405120B2A122E2B54806007EEB3
:102DF00024FCFEEF80AEE82404F8500109C3EE98ED
:102E0000EF99508F8020A90E120765900421E07081
:102E10000A90041FE50AF0A3E50BF08518828519D6
:102E200083E0F912076B740D022F36E0F8A3E0F986
:102E300022122E2BEEC3982274F1120B4674FC1250
:102E40000ADE890E8A088B098C0C8D0D7413120B07
:102E50002AE0FE8015E5082404F508E43509F509A3
:102E6000E50C2404F50C5002050DEEFF74FF2F1E37
:102E700004603D750A04750B00780A120D5974023E
:102E8000120B3CAA08AB09A90E1206F97402120A29
:102E9000F4780A120D59AC0CAD0D7402120B3412F9
:102EA00005E57402120AF4E970AB9004217401F094
:102EB0007404120AF47F07020C1874F0120B46898E
:102EC0000AEAFEEBFF8C0E8D0F900421E0704D7529
:102ED00008017509007808120D598E088F097402CF
:102EE0007808120ABC890CF50D7409780C120ACB0B
:102EF000E5082400FAE509350DFB1206FF740212FD
:102F00000AF47508017808120D5DAC0EAD0FEEFAEB
:102F1000EFFBA90A1207897401120AF4022F39C0C3
:102F200082C08312075FE97004790180027900D0C2
:102F300083D082020132120AF47F08020C18EE24B8
:102F400004F8E43FF990041F22C082C0839003423A
:102F5000E4F090034174FFF090033EF090033DE4F1
:102F6000F090033CF090033FF0A3F002342474F09F
:102F7000120B4690033FE0F508A3E0F509E508458C
:102F800009700612046502306C850882850983E0A9
:102F9000F914600A14600724FE600302306C120406
:102FA000CB8A0A8B0BAE0AAF0BEE65087003EF6598
:102FB0000970030230698E828F83E064016003022E
:102FC000306C1204831205378A0C8B0D8C0E8D0F1A
:102FD0001231C1908E42780C120935780C120D55C1
:102FE00085088289831209B412134A7404120AF400
:102FF000E9706C1205378A0C8B0D8C0E8D0F908E3C
:103000001A780C120935908E12780C1209838508F3
:1030100082850983780C1209A5EE240EF8EF34009E
:10302000F9E8FAE9FB9002C7E06402701D850882A6
:103030008509837808120996908E2A780812093536
:10304000908E127808120983800C7508FF7509FFAD
:10305000750AFF750BFF8A828B8378081209A59089
:10306000033E7401F0EEFAEFFB1204C57F08020C78
:103070001874F0120B46EAFEEBFF8E828F83A3A337
:10308000A3A3A3A3E0FAA3E0FB12051F1231C1889A
:1030900082F5831209B4120513850882850983120B
:1030A00009B4120507EE240E1231B91209B4120543
:1030B000198E828F83E06440701CEE2412F8EF3486
:1030C00000F988828983E0906064F088828983A314
:1030D000E09060658006906064E4F0A3F090033FA8
:1030E000EEF0A3EFF0EE24161231B9E0F8A3E0F50C
:1030F000838882120B44906054E41231CEA31231C3
:10310000CE906182E0C2E6F07591BFEE2415F8EF33
:103110003400F9880A890B8882F583E06401700322
:10312000120555E5E170FCEE24141231B9E0F87493
:10313000FF68600288E1850A82850B837401F09044
:1031400002CDE06401706F1205378A0C8B0D8C0E76
:103150008D0F780C120D558508828509831209B4EC
:103160001213A67404120AF48A088B098C0A8D0BB8
:10317000908E2E780C1209967808790C1207FB7441
:103180000378081208EAE50824F4F508E509340193
:10319000F509900338E0600312063FE4F50AF50BE9
:1031A0007808120D557A207B009002C6E0F91206CD
:1031B000937404120AF402306CF582EF3400F58344
:1031C00022EE2402F8EF3400F98808890922F0A3DE
:1031D000F0A3F0A3F0A3F0A3F02274EE120B468943
:1031E0000874FF6508703990033DE05407700302CE
:1031F000335179041204E3E9640170047904801AFC
:1032000079011204E3E9640170047901800C790208
:103210001204E3E96401700879021204E9023355EB
:10322000A9081204E98A108B11A9081204E3E964C1
:103230000170057509018003750900E5102402F588
:103240000AE5113400F50BE50814600D14607A24CA
:10325000FE70030232E902335179021204E3E96499
:1032600001704979021204E98A0C8B0DAE0CAF0D86
:10327000E509A2E0502F8E828F83A3A3780C120958
:1032800096908E32780C120935780C120D55850AFD
:1032900082850B831209B412134A7404120AF4E9EA
:1032A000700302334BEEFAEFFB023355790412043C
:1032B000E3E96401601DE509A2E05006AA10AB1124
:1032C00080047A007B0002335579041204E3E96438
:1032D0000170047904802C79011204E3E96401602F
:1032E00012E509A2E0506A806279011204E3E96400
:1032F0000170047901800C79021204E3E964017021
:103300004479021204E98A0C8B0DAE0CAF0DE5096D
:10331000A2E050918E828F83A3A3780C120996901D
:103320008E32780C120935780C120D55850A82857B
:103330000B831209B412134A7404120AF4E96003ED
:103340000232A58006E509A2E05006AA10AB118062
:10335000047A007B007F0A020C1874F7120B46E90E
:10336000FE900342E0705B7401F0EE900341F012B6
:1033700005379003431209C0900347E4F0A3F0908F
:10338000034F74FFF0A3F0A3F0A3F0900355740172
:10339000F0A3F0A3E4F0A3F090033DE04EF090031F
:1033A0003CE004F06401600A74806E600574406E55
:1033B000700A90033F7441F0A37403F07A417B03D9
:1033C00080047A007B007F01020C18C082C0838ACF
:1033D000828B83E0F8A3E0F98A828B83E4F0A3F088
:1033E00088828983A3F088828983E0F4F890033D82
:1033F000E058F090033CE014F0700B90033FE4F0D1
:10340000A3F09002C7F0801CC082C08390033CE010
:10341000600A90033FE0FAA3E0FB80047A007B009F
:103420008002E0F9D083D082020132C082C083E9F9
:10343000F8900341E0687005A3E0F980027900800C
:10344000E3C082C083900341E069700CA3E0640193
:1034500070067A417B0380047A007B0080C6C082BC
:10346000C08390033C80BB74F7120B467409120BA7
:103470002A12371C801C8C828D83E08A828B83F019
:103480008C828D83A3AC82AD838A828B83A3AA8234
:10349000AB83E8FEE9FFEE24FF18EF34FFF9EE4FAF
:1034A00070D40236DC74F5120B46ECF8EDF9740BAF
:1034B000120B2AE0F508A3E0F509AC08AD09EC24ED
:1034C000FFF508ED34FFF509EC4D602CEAFCEBFD4F
:1034D0008C828D83A3AA82AB83E8FEE9FF8E828F64
:1034E00083A3A882A9838C828D83E0FC8E828F8344
:1034F000E06C60C67900800279017F03020C1874C9
:10350000F6120B46E9FE8C088D097808120D598ECB
:1035100008AC087D0012079B7402120AF40236E11F
:1035200074F6120B46EAFEEBFFEE4F603DEE24050B
:10353000FAE43FFB1206518A088B09A808A909E89A
:1035400049602788828983E4F0A3F088828983A375
:10355000A3EEF0A3EFF088828983A3A3A3A374FF53
:10356000F0E82405FAE439FB80047A007B00023697
:10357000E1C082C083EA4B700479058016123603DD
:1035800060047904800DEA24FBFAEB34FFFB120699
:10359000577900D083D08202013274F7120B467C37
:1035A000000236D974F7120B46E9FEECFFEA4B60D5
:1035B00021908E72E0F8EEC39840071205F7790368
:1035C000803E1237911236E67005123603600712FC
:1035D00005F77905802AEEF074016F700DEAFCEBB7
:1035E000FD7A607B03120615800BEAFCEBFD7A6026
:1035F0007B0312060F7A007B80EEF9120621790018
:103600000236DCEA24FFF582EB34FFF583E0F42296
:1036100074F4120B468908750A00750B007E007F52
:1036200000A2AFE433F509C2AF9003608011EE4F02
:103630007004880A890BE824FBF582E91237971297
:1036400036E66023E824FFF582E9123797E0650843
:1036500070DCEE4F7006E8FEE9FF80DA7A007B80CE
:10366000A908120621800D7A007B80A9081206277E
:10367000EE4F6015780A120D59EEFCEFFD7A607B73
:103680000312061B7402120AF4E509A2E092AFEEDF
:10369000FAEFFB7F04020C18E0FAA3E0FB2274F7B8
:1036A000120B46EAFEEBFFA2AFE433FAC2AFEC2402
:1036B000FBF582ED123797E4F0A3F0800312379CFC
:1036C0008E828F831236E670F48E828F83ECF0A3A5
:1036D000EDF0EAA2E092AF80031206037F01020C34
:1036E000187F02020C1812371CE8492274F7120BDB
:1036F00046E5A8FEC2AF8A828B8312371CEC24FBFE
:10370000F582ED123797E8F0A3E9F08A828B83EC1B
:10371000F0A3EDF0EEA2E7A2E70236D5E0F8A3E0D1
:10372000F92274F4120B46A2AFE433FEC2AFEC24CC
:10373000FBF8ED34FFF9880889098882F583123790
:103740001C8A828B83E0F50AA3E0F50BEC650A7016
:1037500003ED650B70068A828B838012740C120B4A
:103760002AE0FAA3E0CA24FBF582EA123797E8F0D0
:10377000A3E9F0850882850983E4F0A3F0EC24FF37
:10378000F582ED12379774FFF0EEA2E092AF0236A9
:1037900093EA24FBF582EB34FFF58322E824FBF85F
:1037A000E934FFF9E8FEE9FF2274F7120B46E9FD60
:1037B000908E72E0F8EDC398502AE5A8FEC2AFEDF6
:1037C00029F8E433F9900374E028FCA3E0398C82F3
:1037D000F583E04AF0A3E04BF0EEA2E7A2E792AF58
:1037E0007900800279030236DC74F7120B46E9FE99
:1037F000908E72E0F8EEC3985022E5A8FFC2AFEABF
:10380000F4FCEBF4FDEE291238F6E05CF0A3E05D89
:10381000F0EFA2E7A2E792AF7900800279030236C7
:10382000DCC082C083120645900360E4F0A3F0126E
:10383000067B12065D12067512064B79000235935F
:10384000C082C08312063980FB74F4120B467508DF
:103850000012063F1206F3A808E8281238F61236BE
:10386000E6700D0508908E72E0F8E508C39840E711
:10387000908E72E0F8E508C398506CE5A8FCC2AFE2
:10388000AE08EE2EFEE433FF900374E02EF8A3E0C2
:103890003FF98882898312369888828983E4F0A36D
:1038A000F0ECA2E7A2E792AFE508900493F0F97478
:1038B000FE2EF582748D3FF5831238ED120B449085
:1038C000049374FFF0E5A8F9C2AF900374E02EF8FA
:1038D000A3E03F8882F583E04AF0A3E04BF0E9A241
:1038E000E7A2E792AF800312066F023693E0F8A3D7
:1038F000E0F583888222F8E433F9900374E028FA33
:10390000A3E0398A82F5832274F2120B4689088C6F
:103910000C8D0D7509008982AE827F008A0A8B0B9F
:10392000780A120D990203089C3A3C399739B1394B
:10393000E7391C3A333A4A3A683A7F3A74016508E3
:103940006003023A97900597E0F88C828D83E090AF
:103950000597F0E8601CE06003023ABF900380E046
:1039600064026003023ABF90037FE0F91203390258
:103970003ABFE07003023ABF900380E06401600840
:10398000E064036003023ABF7A017B0090037FE0AA
:10399000F9120621023ABF740265086003023A97E1
:1039A0008C828D83123D52900598E8F0A3E9023A8B
:1039B00094E9C394204003023A977C1F7D0079006C
:1039C0007A9B7B051205EB8E0A8F0B780A120D5934
:1039D000AC0CAD0D7A9B7B051205DF7402120AF464
:1039E000EE90059A023A94E9C394204003023A9774
:1039F0007C1F7D0079007A897B031205EB8E0A8F8C
:103A00000B780A120D59AC0CAD0D7A897B031205A7
:103A1000DF7402120AF4EE9003888078740165085E
:103A200070758C828D83E0F8C39405506AE890032A
:103A3000A8806174016508705E8C828D83E0F8C394
:103A400094045053E89003A9804A740665087047AF
:103A5000750A068F0B780A120D597AAA7B03120594
:103A6000DF7402120AF480577401650870298C8291
:103A70008D83E0F8C39408501EE89003B08015745D
:103A800001650870128C828D83E0F8C3940450079E
:103A9000E89003B1F080287509188023C3EA9427C1
:103AA000EB940050177402650870118C828D83E0CE
:103AB000FCA3E0FD1202F1E9F5098003750902A9F2
:103AC000097F06020C187F04020C1874F6120B46CC
:103AD000900380E07037EA4B60089003B2EAF0A3ED
:103AE000EBF0E4F508F5097808120D597808120D85
:103AF000597C007D007B00900381E0FA90037FE019
:103B0000F91206E77404120AF47900800279117F31
:103B100002020C1874F7120B46E990037FF0900331
:103B200080E4F012037B9003817401F09003A87489
:103B300003F09003A9E4F09003B07407F09003B190
:103B4000E4F07F01020C1874F4120B4674F6120AAA
:103B5000DEEAFEEBFF5480602C90037FE0F9120652
:103B6000098A088B09EA450960138A828B83E0641D
:103B7000D070031206E1AA08AB091205F7EEFAEFBE
:103B80006480023C1CEEA2E04003023C1F900597BB
:103B9000E07003023C179003A8E085188285198322
:103BA000F09003A9E0C0E07401120B2AD0E0F07598
:103BB00008067509007808120D597CAA7D03740463
:103BC000120B2AAA82AB831205DF7402120AF49048
:103BD00003B0E0C0E07408120B2AD0E0F09003B10B
:103BE000E0C0E07409120B2AD0E0F0AA18AB1990DB
:103BF000037FE0F912032DE9601D9003807404F047
:103C0000123C2B6012123D4988828983E5824583EC
:103C100060057904120B44EE6401FAEFFB80047A2C
:103C2000007B00740A120AF4023AC69003B2123DF5
:103C300052E8492274F4120B468A828B83A3A3E0D4
:103C4000F8EA2403FCE43BFD8A828B83A3AE82AFB7
:103C500083E8601224FE6069147003023CFB147058
:103C600003023CFB8058E070317508067509007846
:103C700008120D597A827B031205DF7402120AF4CE
:103C80009003807401F07C9B7D0590059AE0FB7A9F
:103C90000190037FE0F9120333E96006900380741A
:103CA00004F0123C2B6017123D49E8FAE9FBEA4B9D
:103CB000600C900380E0F98A828B83120B44023AF5
:103CC000C6E0702E8C828D83E0601B7C897D039022
:103CD0000388E0FB7A0090037FE0F9120333E98E5A
:103CE000828F83F0800C7A017B0090037FE0F912D1
:103CF00006218E828F83E070A380C3E0709E7403E0
:103D000068700790038074028097900598123C2E8B
:103D1000900597602AE06029900598E0F508A3E0F7
:103D2000F509E4F50AF50B7808120D557A017B00C8
:103D300090037FE0F91206937404120AF48002E4FF
:103D4000F09003807403023CA1E0F5838882123D69
:103D50005222E0F8A3E0F92274F7120B46900378A0
:103D6000123D69F07F01020C18E4F0A3F0A3F0A368
:103D70002274F1120B46890EEAFEEBFF12068774DD
:103D80000F120B2A7808120996EA4B600D8A828B73
:103D900083A3A378081209A5806A7A0D7B00120616
:103DA00051EA4B605B8A828B83A3A3A3A3A3A3A343
:103DB000A3E50E123E09EEF0A3EFF08A828B83A3F7
:103DC000A378081209A58A828B83E4F0A3123E0926
:103DD000A3A3A3123D6AF0900376124122900376CA
:103DE0006017E0FCA3E08003E8FCE9FD8C828D8392
:103DF00012412270F38C828D83EAF0A3EBF08004F1
:103E00007A007B007F07020C18F08A828B83A3A3C1
:103E1000A3A3A3A322C082C08390037680048C82D4
:103E20008D83E0FCA3E0FDEC4D60238C828D83A3A9
:103E3000A3A3A3A3A3E06A7003A3E06B70E08C824A
:103E40008D83A3A3A3A3A3A3A3A3E06970D0ECFADB
:103E5000EDFB023F23C082C083EA4B600E8A828B57
:103E600083A3A3A3A3A3A3E4F0A3F0023F2374F6C8
:103E7000120B46E5A8FFC2AF740A120B2A120D6C92
:103E80001206817404120AF48B09A909EFA2E7A2B1
:103E9000E792AFEA4960047900800279087F020264
:103EA0000C1874F2120B46A2AFE433FEC2AF740ECC
:103EB000120B2A78081209967808120D55120681FD
:103EC0007404120AF4EA4B60128A828B83A3A3A3C0
:103ED000A3A3A3A3A3A378081209A5EEA2E092AF1F
:103EE000EA4B60047900800279087F06020C18749E
:103EF000F4120B46A2AFE433F509C2AF1206878A6B
:103F00000A8B0BAE0AAF0BEE4F600312068DE5096C
:103F1000A2E092AFEE4F60047900800279067F0440
:103F2000020C18D083D08202013274F0120B467456
:103F3000F9120ADE8A088B098C0A8D0B7403120BA6
:103F40002A78081209A5E5A8F9C2AF900378780885
:103F5000120948E9A2E7A2E792AF90037612412244
:103F60007003024112900376E0FEA3E0FF74011299
:103F70000B2AE4F0A3F0750C00750D00A2AFE4333A
:103F8000851882851983F0C2AFEE2402F50EE43F56
:103F9000F50F7405120B2A12412270257404120BBE
:103FA0002AE0701D7403120B2AE0F88E828F83A31F
:103FB000A3E0C398400B8E828F83A3A3E0C39880B5
:103FC00037850E82850F8378081209967403120BC9
:103FD0002A78081207CC50177403120B2A7808129B
:103FE0000996850E82850F83780812096F800A85ED
:103FF0000E82850F83123D69F0EE2404F50AE43F3A
:10400000F50B12411C7054850A82850B83124122E4
:10401000704EEE2409F508E43FF509850882F58322
:104020001209CCE8494A4B604F8E828F83A3A3A329
:10403000A3A3A312419160408E828F83A3A3A3A365
:10404000A3A3A3A3E0F912062185088285098312A0
:1040500009CC850E82850F831209D812411C700B82
:10406000850A82850B83124122600D8E828F83A385
:10407000A3A3A3124120702E8E828F83E0F8A3E0C9
:10408000F97401120B2A1241917005900376800B8E
:104090007401120B2AA3E0F5838A82E8F0A3E9F009
:1040A0008E0C8F0D800A7401120B2AEEF0A3EFF034
:1040B0008E828F83E0FEA3E0FF851882851983E05E
:1040C000A2E092AFE50C450D6041850C82850D8321
:1040D000124120702F850C82850D83A3A3124120ED
:1040E0007022850C82850D83A3A3A3A3A3A31241F1
:1040F0008B850C82850D83A3A3A3A3A3A3A3A3E015
:10410000F9120621AA0CAB0D120657EE4F600302FE
:104110003F767407120AF47F08020C188E828F8390
:10412000A3A3E0F8A3E0F9E8492274F0120B46904B
:104130000376124122603D90037612418B750C8EFE
:10414000750DC2750EF5750F288A828B83A3A3782F
:1041500008120996780C79081207BC500C85080CD7
:1041600085090D850A0E850B0F8A828B831241917A
:10417000600E80D5750C00750D00750E00750F0072
:10418000AA0CAB0DAC0EAD0F024117E0FAA3E0FB99
:104190002212418BEA4B2274F7120B4674FB120A6F
:1041A000DEE990037EF07402120B2A7401F07403AE
:1041B000120B2A7403F0A3E4F07AE97B041203C320
:1041C0007401120B2A7402F0120B3C79017A027B03
:1041D000031206C97403120B3C79027A037B0312A3
:1041E00006C97C947D0479117A057B031206C97C8B
:1041F000077D05791C7A047B031206C97401120B32
:104200003C79017A067B031206C91244AB1206C937
:104210007C807D0C7A067B001202F17C807D0C7A1A
:10422000077B001202F17C807D0C7A087B00120271
:10423000F17C807D0C7A097B001202F17A017B000F
:1042400090037EE0F91206217405120AF47F010240
:104250000C1874F6120B4674FF120ADE90037CE011
:104260002401F0A3E03400F090037CC3E09405A3A4
:10427000E09400A2D265D033400790037CE4F0A321
:10428000F0851882851983E4F0AC18AD1979017AAC
:10429000027B031206C990037CE0F508A3E0F50950
:1042A0007808120D990000033944B2421443764352
:1042B000D8431207A1EAF8EBF97AFF7B00120A4B08
:1042C000EA900519F01207A1EAF8EBF97AFF7B00F2
:1042D000120A4BEA90051CF01207A1EAF8EBF97AF2
:1042E000307B00120A4BEA2420900520F07C077DE9
:1042F000057B1C7A0190037EE0F91203337C947DE8
:10430000047B117A0090037EE0F91203337AE97B93
:10431000040244981207A1EAF8EBF97AFF7B001235
:104320000A4BEA900535F01207A1EAF8EBF97AFF9B
:104330007B00120A4BEA900538F01207A1EAF8EB6D
:10434000F97A307B00120A4BEA242090053CF07C7D
:10435000237D057B1C7A0190037EE0F91203337CF8
:10436000A57D047B117A0090037EE0F91203337A75
:10437000EF7B040244981207A1EAF8EBF97AFF7B7D
:1043800000120A4BEA900551F01207A1EAF8EBF986
:104390007AFF7B00120A4BEA900554F01207A1EA5B
:1043A000F8EBF97A307B00120A4BEA24209005588A
:1043B000F07C3F7D057B1C7A0190037EE0F91203BF
:1043C000337CB67D047B117A0090037EE0F9120302
:1043D000337AF57B040244981207A1EAF8EBF97AE4
:1043E000FF7B00120A4BEA90056DF01207A1EAF874
:1043F000EBF97AFF7B00120A4BEA900570F0120786
:10440000A1EAF8EBF97A307B00120A4BEA242090FB
:104410000574F07C5B7D057B1C7A0190037EE0F9DE
:104420001203337CC77D047B117A0090037EE0F990
:104430001203337AFB7B04805F1207A1EAF8EBF9E1
:104440007AFF7B00120A4BEA900589F01207A1EA75
:10445000F8EBF97AFF7B00120A4BEA90058CF01218
:1044600007A1EAF8EBF97A307B00120A4BEA242024
:10447000900590F07C777D057B1C7A0190037EE0AF
:10448000F91203337CD87D047B117A0090037EE01F
:10449000F91203337A017B051203C31244AB1206EF
:1044A000C97401120AF47F02020C1885188285195A
:1044B000837401F0AC18AD19F97A027B032274F70A
:1044C000120B46EAFEEBFF54806005EF6480804BE0
:1044D000EEA2E05023908E4E120D6C7A027B00907B
:1044E000037EE0F91206937404120AF47A937B05B2
:1044F0001206CFEE6401802154026022908E4E128B
:104500000D6C7A027B0090037EE0F912069374042E
:10451000120AF41206B7EE6402FAEFFB80047A0086
:104520007B0002424D020132C082C0831204FB753F
:10453000A70075A100759C7775C30075A20075A3CF
:104540000075A40075A50075A60075C31175A200BD
:1045500075A30075A40075A50075A60075C3337515
:10456000A20075A30075A40075A50075A60075C30B
:104570004475A20075A30075A40075A50075A6007A
:1045800075C32275A22075A34E75A40075A500758C
:10459000A6007594081205014394020246A1A2AF39
:1045A000E433F8C2AF5394FEE594A2E240FAE8A2E5
:1045B000E00247C0A2AFE433F8C2AF439401E594F0
:1045C000A2E250FA80E8E8A2E7A2E792AF80217564
:1045D000C303851882851983E0F5A2740122E8A23D
:1045E000E7A2E792AF851882851983E0FAA3E0FB82
:1045F000740202469EC082C08374FC120ADE124618
:10460000D7124620120B2A1246D1120B2AE0F5A629
:1046100075A1EF43A710E8A2E7A2E792AF02469C7C
:1046200075C330851882851983E0F5A4740122C012
:1046300082C08374FE120ADE12465275A1FD124535
:10464000CF120B2AE0F5A3E59C54F04401F59C023F
:1046500045C612465953A7FD22851882851983EA5B
:10466000F0A3EBF0E5A8F8C2AF22E5A48518828597
:104670001983F0E5A5C0E07401120B2AD0E0F0E543
:10468000A6C0E07402120B2AD0E0F07403120B2AC9
:104690001247CE8518828519831209B47404120A50
:1046A000F4D083D082020132C082C08374FC120A2B
:1046B000DE1246D775A1EF124620120B2A1246D100
:1046C000120B2AE0F5A6E59C54F04404F59C024642
:1046D00016E0F5A5740222124744E5A8F8C2AF53CC
:1046E000A7EF2274F4120B4674FC120ADE12474044
:1046F000A2AFE433F9C2AF53A7DF75A1DF908E6E8E
:10470000780812099685188285198378081207A7F8
:104710007005439C70801A75C340124623120B2A01
:104720001246D1120B2AE0F5A6E59C540F4450F531
:104730009CE9A2E092AF7404120AF47F04020C1800
:1047400012474422851882851983EAF0A3EBF0A36F
:10475000ECF0A3EDF022C082C08374FE120ADE8565
:104760001882851983EAF0A3EBF0851882851983F6
:10477000E0F8A3E0F9E8496018E5A8F8C2AF75C30E
:10478000001245D2120B2AE0F5A3E8A2E7A2E792B5
:10479000AF0245F0E5A8C2AF53A7C9801CE5A8C287
:1047A000AF53A7C9759C778010E5A8F8C2AFE59C08
:1047B00054F04407F59CE8800375A1C9A2E7A2E77D
:1047C00092AF020132A3A3A31247CE0246A1E4F0A6
:1047D000E8A2E7A2E792AF22C082C08374FC120A6B
:1047E000DEE5A8F8C2AF75C300E5A202466AC08242
:1047F000C08374FE120ADEE5A8F8C2AF75C300E5F7
:10480000A2851882851983F0E5A3C0E07401120B1C
:104810002AD0E0F00245DEC082C083E5A8F8C2AF2E
:1048200075C300E5A28A828B83A3A3A3A3F0E595B9
:104830008C828D83F0E5A38A828B83A3A3A3A3122A
:10484000485FA3A3A3E4F0E5968C828D83A3F0E5F3
:10485000978C828D83A3A3F08C828D830247C5A39E
:10486000F0E5A48A828B83F0E5A5A3F0E5A68A8211
:104870008B83A3A3F08A828B8322C082C08374FEC1
:10488000120ADEE5A8F8C2AFE5C3F975C300E5A2D8
:10489000E5A4851882851983F0E5A5C0E0740112AE
:1048A0000B2AD0E0F089C30245DEC082C0839002AB
:1048B000AC74FFF0A3F0A3F0A3F0A3F0A3749FF0F7
:1048C000A3E4F0A37420F09002AB14F0D083D08264
:1048D0000201327F02020C187F0A020C1874EE12D9
:1048E0000B468A088B09890B8C0E8D0F90035CE0B8
:1048F000700990035EE070030249A99002A9E0608C
:10490000030249A9898285820C750D00E92407FA02
:10491000E43400FB1205F18A108B11AE10AF11EEDA
:104920004F70030249BA7418650870047420650951
:10493000600C74176508700474206509701090038A
:104940005EE0600AF50A8E828F837492800C900379
:104950005CE0F50A8E828F837491F0A3740E124985
:10496000DC8E828F83A3A3F08E828F83124B7FEE27
:104970002405F8EF3400F9E8FAE9FBEE2407F8EF34
:10498000124B52F0780C120D59AC0EAD0F8A828B7F
:1049900083E0FAA3E0FB1205DF7402120AF4EEFAD8
:1049A000EFFBA90A1205FD8011780E120D59AC0B10
:1049B000790E1203F37402120AF40248D874F61244
:1049C0000B46E9FE8C088D097808120D59EEFC792A
:1049D000FF1203F37402120AF40248D3F09002AA01
:1049E000E02274F2120B4689098A0A8B0B8C087438
:1049F000072508FA74FF65096004780380027802CD
:104A0000E82AFA7B001205F18A0C8B0DAE0CAF0D73
:104A1000EE4F7003024B048E828F837401F0A374F7
:104A2000FFF0EE2402FAEF3400FBEE2404F8EF125C
:104A30004B42E509124B38E02402F8A3E03400F9B8
:104A4000890DA90B740E120B2A124B7474FF6509A1
:104A50006032740325088882850D831249DCC0E02A
:104A6000124B09D0E0124B31E50A124B31A3E9F0A9
:104A700085080A750B00780A120D598A828B83E02B
:104A800024068066740225088882850D83F08C8256
:104A90008D83E0C0E0124B09D0E0F08C828D83A3BF
:104AA000E0C0E0124B1DD0E0F08C828D83A3A3E028
:104AB000C0E0124B1DA3D0E0124B2C2406124B2257
:104AC000124B2C124B8AE9F085080AE50A24FDF501
:104AD0000AE434FFF50B780A120D59EC2403FCEDBF
:104AE0003400FD8A828B83E02408FAA3E03400FBC3
:104AF0001205DF7402120AF4EEFAEFFB90035AE09B
:104B0000F91205FD7F06020C18124B0D228A828BCA
:104B100083E0F8A3E0F5838882A3A3A322124B0DC0
:104B2000A322F582E83400F583E50A22124B5EC821
:104B300022124B6BA3A3A322124B3C22F08A828B3E
:104B40008322124B52124B5EF58388827404124BFF
:104B50006B223400F98A828B83E8F0A3E922124B9E
:104B60006222F08A828B83124B7A22124B62F58387
:104B70008882A322E0FCA3E0FD22E0F8A3E022A3C8
:104B8000A3A3E508F0A3E509F0222407F582E834A1
:104B900000F58322C082C08312055B1205611205F5
:104BA00067120555024E3AC082C0839061B1E0C2DF
:104BB000E0F0E0D2E0F0906188E0640470F8024E2A
:104BC0003AC082C0839061B1E0C2E0F09061F3E44A
:104BD000F09061F2F0F8F9124C219061F0124C5C07
:104BE00094FEE9940D40F0024E3AC082C083906179
:104BF000F3E4F09061F2F0F8F99061F0E0FA124C11
:104C0000216A700A124C6194FEE9940D40EB74FE27
:104C1000687003740D697004790080027901024E96
:104C20003A740028F582748039F583E022C082C08E
:104C3000839061C0E0FAE4F0F8F9E82400F582E935
:104C40003460F583E4124C5C9480E9940140EBEA13
:104C50009061C0F090618A7401024E35F0124C618F
:104C600022E8240108E93400F9C3E822C082C083A5
:104C70008A828B83E0906016124D7EA3E0906017CD
:104C8000124CAA906018124CB3906019124CB89054
:104C9000601A124CBD90601BF0E99060157005E041
:104CA000C2E08003E0D2E0024E39F08A828B83A317
:104CB000A3E022124CC8E022124CC3E022124CC3E3
:104CC000A3E022124CC8A322F08A828B83A3A3A361
:104CD0002274F0120B46EA906005F0EBA3F0ECA30F
:104CE000F07F08020C18C082C083906001E0024D82
:104CF0005AC082C083740759906001024E39C08245
:104D0000C0837401699060037005E0D2E08003E025
:104D1000C2E0024E39C082C083906003E054F9497A
:104D2000024E39C082C083906061E0024D5A74F037
:104D3000120B469061947420F0EAA3124DCB024C02
:104D4000DFC082C083900359E4F0906022F0A3F0AA
:104D5000A37830F0A3D8FC024E3AF9024E3AC08252
:104D6000C083906014E054FCF0E049024E39C082E8
:104D7000C083906009E4024E399061C07401F08AEA
:104D8000828B8322C082C0837A007B60E970027AC2
:104D900033124D79E4F0A3F0A3F09061C0024E39D4
:104DA000C082C083E9906002024E39C082C083E9AC
:104DB0009060027005E0D2E38003E0C2E3024E3966
:104DC000C082C083E99061C6024E39F0EBA3F0ECDB
:104DD000A3F0ED22C082C083E9601714601C146048
:104DE0001E14602314602514602A14603314603C80
:104DF00080419061E9E054FC80389061E9801C902A
:104E000061E9E0C2E0802B9061E9801B9061E9E0FC
:104E1000C2E1801E9061E9E0C2E1F0E0D2E08012E0
:104E20009061E9E0C2E0F0E0D2E180069061E9E063
:104E30004403F08005F0A3F0A3F0D083D0820201F8
:104E400032C082C083C3EA9427EB9400501674FFEB
:104E50006C700374FF6D600C124E85ECF0A3EDF0E6
:104E6000790080027902024F97C082C083C3EA941E
:104E700027EB94005008124E85124F9E80047AFF53
:104E80007BFF024F97EAC333FAEB33FB74232AF517
:104E90008274043BF5832274F7120B46E9FEEAFFA5
:104EA0007C107D0079007A867B021205EBEE90047F
:104EB00022F0EF900281F012039FE99002867005C4
:104EC0007401F08004E4F079127F01020C1874F68A
:104ED000120B46E9FF7E00701EEA4B601A75080649
:104EE0008E097808120D59EAFCEBFD7A8D7B0212CF
:104EF00005DF7402120AF4900286E0640170130E5A
:104F0000EF70087402F01203A58007E4F0EFF912C5
:104F1000031BEEF97F02020C1874F7120B467E0099
:104F2000EA4B603B8A828B83E070121250489002F9
:104F300093E8F0A3E91250DFE0900295F09002862A
:104F4000E06402701A0E8A828B83E09002867004FD
:104F500074038001E4F08A828B83E0F912031BEE74
:104F6000F9024EC9C082C083E9F87900EA4B602596
:104F7000E86022EA2405F582EB3400F583740168C9
:104F80007005E044C0800CE0543FF0740368700486
:104F9000E0D2E6F0098000D083D082020132E0FA4C
:104FA000A3E0FB2274F4120B468908900422E0F47B
:104FB00060507A0A7B001205F18A0A8B0BAE0AAFA9
:104FC0000BEE4F603D12504F7408F0900282E08E5D
:104FD000828F83A3A3A3F0750A06750B00780A12CB
:104FE0000D597C967D02EE2404FAEF3400FB120585
:104FF000DF7402120AF4EEFAEFFB900422E0F912D9
:1050000005FD900285E0640170399002A5125049B7
:10501000E8496018E0F5838882A3A3A3125048886A
:10502000828983E58245836003120B44908E461289
:105030000D6C7A047B009002A4E0F91206997404C6
:10504000120AF47F04020C18A3E0F8A3E0F9228E00
:10505000828F8374D0F0A3E508F08E828F83A3A3A0
:105060002274F4120B468908900422E0F4606D7AF1
:105070000C7B001205F18A0A8B0BAE0AAF0BEE4FC8
:10508000605A12504FE4F0750A06F50B780A120DBB
:10509000597C8D7D02EE2403FAEF3400FB1205DF0C
:1050A0007402120AF49002931250498E828F83A3E5
:1050B000A3A3A3A3A3A3A3A3E8F0A3E9F09002955D
:1050C000E0C0E0EE240BF582EF3400F583D0E0F091
:1050D000EEFAEFFB900422E0F91205FD025043F0D6
:1050E0008A828B83A3A3A322125234AC82AD832283
:1050F000C082C08374F9120ADE7401120B2AAA82DC
:10510000AB8312040B12520979077A097B10120340
:10511000E77900740702524DC082C08374FC120A02
:10512000DE851882851983E4F004120B2A741BF0C3
:105130007402120B2AE4F07403120B2A740C12513D
:105140004F7A027B201203E77900740402524D1259
:1051500050E879042274F4120B4674FF120ADEE957
:10516000FE740D120B2AE0F9740E120B2AE0FF7484
:105170000F120B2AE0F508A3E0F5097411120B2AAF
:10518000E0F50A7412120B2AE0F50B780B120D5D94
:10519000780A120D5D7808120D59EFF5087808129B
:1051A0000D5DE9F5087808120D5DEEF91204117431
:1051B00006120AF41252167A067B201203E77900CF
:1051C0007401120AF47F04020C1874F7120B46746F
:1051D000FF120ADE1204171252167A0802523C74A9
:1051E000F7120B4674FF120ADE1204231252167ACB
:1051F0000902523C74F7120B4674FF120ADE1204C5
:105200001D1252167A0A02523CE9851882851983CA
:10521000F0AC82AD8322E9851882851983F0AC82D7
:10522000AD83790122120AF47F02020C187900740E
:105230000302524DF0851882851983227B201203C8
:10524000E779007401120AF47F01020C18120AF4C3
:10525000D083D082020132E91250E8790322C08261
:10526000C08374FD120ADE851882851983740CF0E0
:105270007401120B2A7404F01204297402120B2A0E
:105280001252577A0C7BFC1203ED90035BE060082E
:105290007A007B40F912062102522D74F6120B4659
:1052A00074F7120ADE851882851983E4F075080800
:1052B000F5097808120D59EAFCEBFD7403120B2A6C
:1052C000AA82AB831205DF7402120AF48518828564
:1052D0001983AC82AD8379097A187B201203E774B5
:1052E00009025225C082C08374FD120ADE8518822D
:1052F000851983E4F004120B2A7404F07402120B73
:105300002AE4125258FA7BFC1203ED02522FC0829B
:10531000C08374FD120ADE8518828519837401F03A
:10532000120B2A7404F07402120B2AE41252587AF7
:105330000180D3C082C08374FD120ADE8518828585
:1053400019837416F07401120B2A7404F07402129B
:105350000B2AE41252587A1602530674F0120B46C6
:1053600075E181120579E970089002ECE0F9120507
:105370007F79011204E3E96401600302541290038F
:1053800032E0FAA3E0FBEA4B6008900331E0F91247
:1053900006219002F0E0640170501254CEFA7406B7
:1053A0004AF5D978001254F740FB78008003125474
:1053B000A3E8C39940F8900311E0F9740729F5D9DF
:1053C00074044AF5D978001254F740FB7800800D38
:1053D000880874122508F58274031254B1E8C39941
:1053E00040EE75E1959002F0E4F01204A112550927
:1053F0001209351254BA120922908E12780C120931
:10540000838A828B83780C1209A512553474151285
:1054100054E31204BF7F08020C1874F0120B467597
:10542000E181120579E970089002ECE0F912057F3C
:1054300079011204E3E964017066900332E0FAA393
:10544000E0FBEA4B6008900331E0F912062190027C
:10545000F0E0640170221254CE4402F5D9780012B3
:1054600054F740FB780080031254A3E8C39940F836
:1054700075E1959002F0E4F01204A11255091209A9
:10548000351254BA120922908E12780C1209838AAE
:10549000828B83780C1209A512553474141254E3CC
:1054A000025412880874F22508F58274021254B16D
:1054B000223400F583E0F5D908229002E9E0F508EE
:1054C000A3E0F509E4F50AF50B780C79082275E1FB
:1054D00091A3E0F9740729F5D99002E1E0C43333D0
:1054E00054C0221255672416F582E83400F58374FF
:1054F00095F0A37404F022880874E22508F58274FC
:10550000021254B1E8C3940622E9FC9002DFE024C1
:1055100002F8A3E03400F9E8FAE9FB8A828B83EC15
:1055200075F0118485F00885080CE4F50DF50EF58D
:105530000F780C229002DFE0F8A3E0C82406F58281
:10554000E83400F583E4125565240EF582E8340052
:10555000F58374FFF0A3F0A31255652414F582E8D7
:105560003400F58322F0A3F09002DFE0F8A3E0C856
:1055700022C082C08353BFEF79011204E3E96401C2
:10558000700C7ADF7B021204D79002E8E4F075E138
:10559000F11204BFD083D08202013274F0120B46A4
:1055A00074F8120ADE8A088B098C0A8D0B908E56CD
:1055B00078081207DC500C75084075099C750A00C4
:1055C000750B00AC18AD197404120B341210DC12F8
:1055D000571D706C851882851983780812099612F8
:1055E000571D60559003DF7401F09003DE7402F0E4
:1055F000908E5A78081207DC400812571D6003028B
:105600005713C2AFE51A70030257119003DEE0F999
:10561000121225E9600302571112071D1207291201
:10562000571D70030256B6908E5E78081207DC5044
:1056300070908E62120D6C806D9003DFE4F08058E4
:10564000740C7808120903908E66780C120996780B
:1056500008790C12087B8518828519831209CCE819
:10566000494A4B601B85188285198378081207CC3C
:10567000500E85188285198378081209960255E420
:105680001207477404120B2A1209C09003DFE4F0DA
:1056900012571D60030255EA9003DE7403F00255B1
:1056A000FA7808120D557408120B2A1209B4120761
:1056B000417404120AF453BEFC9003DEE042BEE5DE
:1056C000ADA2E050FA751A01E5A8FEE5B8FFE59A2B
:1056D000F50853A82053B820539A12D2AF120735B9
:1056E0009003DFE064017006A2C74002E4F08EA8D8
:1056F0008FB885089A9003DEE06403700479018016
:105700000279009003DFE0FA12129C12072F1207B1
:1057100023D2AF7408120AF47F08020C18E508457A
:1057200009450A450B2274F4120B4674FC120ADE7A
:10573000851882851983EAF0A3EBF0A3ECF0A3EDC2
:10574000F0C2AD7410120B2A7808120996908E6A76
:105750007808120935851882851983780812094856
:105760007402120B2AE0F5977401120B2AE0F596E9
:10577000851882851983E0F595C2C7D2AD740412ED
:105780000AF47F04020C18C082C08374FC120ADE83
:10579000E595851882851983F0E596C0E0740112BD
:1057A0000B2AD0E0F0E597C0E07402120B2AD0E09B
:1057B000F07403120B2AE4F085188285198312090C
:1057C000B47404120AF4D083D082020132C082C0C1
:1057D00083900DC6E4F0A3F0900DC874C8F0A374D4
:1057E00005F09005C87448F0A37402F0900810F01A
:1057F000A37480F0A374B4F0A37405F0D083D082B6
:1058000002013274F6120B467A017B00120651E552
:10581000A8FEC2AFEA24FEF8EB34FFF9900DC8E809
:10582000F0A3E9F012065790036C7401F0EEA2E7C2
:10583000A2E792AF7F02020C1874F2120B467C00B2
:105840007D007F00EA2402FAE43BFBA2AFE433FED2
:10585000C2AF90036CE06008EA9411EB9400500A28
:10586000900DC8E0F8A3E0F98004781279088882E6
:105870008983E0F508A3E0F509548060057F000204
:105880005916EFA2E0507C8C828D83E0F50AA3E0EC
:10589000F50B5480F50DE50A2508F508E50B3509EB
:1058A000547FF509E50D4509F5098C828D83E508DE
:1058B000F0A3E509F0547FF509C3E5089AE5099BD3
:1058C0004054ECF8EDF9E849700302598488828964
:1058D00083E0FCA3E0547FFDECC39AFCED9BFDC389
:1058E000EC9404ED9400405DE82AF582E93BF583F1
:1058F000ECF0A3EDF0EB4480FB88828983EAF0A30F
:10590000EB804AE509547FFDC3E5089AED9B50B64C
:105910007F01E8FCE9FD88828983E0F508A3E05473
:105920007FF509E82508F8E93509F988828983E0D7
:10593000F508A3E0F509E5084509600302586E780B
:10594000007900803F88828983A3E04480F090033F
:105950006CE06029900DC8E0FAA3E0FBE86A7002F1
:10596000E96B701988828983E0FAA3E0547FFBE831
:105970002AFAE93BFB900DC8EAF0A3EBF0E8240219
:10598000F8500109EEA2E092AFE8FAE9FB7F0602C7
:105990000C18C082C083EA24FEF8EB34FFF9A2AFF2
:1059A000E433FCC2AF88828983A3E0547FF0900D7A
:1059B000C8E0FAA3E0FBE89AE99B5008900DC8E81C
:1059C000F0A3E9F0ECA2E092AF0257FCC082C083E2
:1059D000E9900478025BB174F7120B46E99002A4D7
:1059E000F01205D97F01020C1874F4120B468A08D4
:1059F0008B09EB548060799002A4E0F91206098AC1
:105A00000A8B0BAE0AAF0BEE4F605C8E828F83E089
:105A100064917039A3E024F2602924D0702F750BB3
:105A2000018E828F83A3A3E06402700F125BA260D9
:105A30000D125AB46008120B448003750B00850BDD
:105A40000A8006120393E9F50AE50A7013900478B8
:105A5000E0F4600CEEFAEFFBE0F91205FDE96007F7
:105A6000EEFAEFFB1205F7AA08E5096480FB803F18
:105A7000EAA2E05017125BA2600C125AB460077AD7
:105A8000007B00120B44E5086401801A5402601B7D
:105A90009002A5125BA5600A125AB4600579011242
:105AA0000B44E5086402FAAB0980047A007B007FAE
:105AB00004020C18125B8BA3A3125B81E582458361
:105AC00022790002013274F5120B46750A018A82AE
:105AD0008B83A3A3A3E0FEA3E0FF8E088F097808C1
:105AE000120DDF010008200A205F5B070009102764
:105AF0005B0220145B05200B5B06205F5B0B2048DC
:105B00005B0C20435B0E207A5B775B125B91F91292
:105B1000031580668A828B83A3A3A3A3A3E0FAA3C1
:105B2000E0FB120309804B8A828B83A3A3A3A3A368
:105B3000125B81A3AA82AB8388828983E0F9120376
